{
	"data": {
		"bytecode": {
			"linkReferences": {
				"remix_tests.sol": {
					"Assert": [
						{
							"length": 20,
							"start": 1418
						},
						{
							"length": 20,
							"start": 1689
						},
						{
							"length": 20,
							"start": 2602
						},
						{
							"length": 20,
							"start": 2716
						},
						{
							"length": 20,
							"start": 3469
						},
						{
							"length": 20,
							"start": 3568
						},
						{
							"length": 20,
							"start": 3842
						},
						{
							"length": 20,
							"start": 4661
						},
						{
							"length": 20,
							"start": 5282
						},
						{
							"length": 20,
							"start": 7241
						},
						{
							"length": 20,
							"start": 7639
						},
						{
							"length": 20,
							"start": 8886
						},
						{
							"length": 20,
							"start": 9179
						},
						{
							"length": 20,
							"start": 10046
						},
						{
							"length": 20,
							"start": 10173
						},
						{
							"length": 20,
							"start": 10499
						},
						{
							"length": 20,
							"start": 11045
						},
						{
							"length": 20,
							"start": 11578
						},
						{
							"length": 20,
							"start": 11692
						},
						{
							"length": 20,
							"start": 11968
						},
						{
							"length": 20,
							"start": 12536
						},
						{
							"length": 20,
							"start": 13087
						},
						{
							"length": 20,
							"start": 13385
						},
						{
							"length": 20,
							"start": 13672
						},
						{
							"length": 20,
							"start": 14522
						},
						{
							"length": 20,
							"start": 15266
						},
						{
							"length": 20,
							"start": 16521
						},
						{
							"length": 20,
							"start": 16693
						},
						{
							"length": 20,
							"start": 16979
						}
					]
				}
			},
			"object": "608060405234801561000f575f80fd5b50617282806200001e5f395ff3fe608060405234801562000010575f80fd5b5060043610620000b4575f3560e01c80637dc31bbf11620000775780637dc31bbf14620000ec5780637fea0d4b14620000f65780638c103e7314620001005780638f7a043e146200010a5780639eb2b5b21462000114578063a2d79fb8146200011e575f80fd5b80632a115a7914620000b85780632b85a0f214620000c45780635336ebe714620000ce57806356b85a5b14620000d857806360a7ad1814620000e2575b5f80fd5b620000c262000128565b005b620000c262001014565b620000c26200127e565b620000c2620014ea565b620000c262001e88565b620000c262002f7a565b620000c2620030fd565b620000c262003151565b620000c26200360d565b620000c262003ba7565b620000c26200408e565b6040805161010081018252600381526005602082015260018183018190525f606083018190526080830182905260a0830182905260c0830182905260e0830191909152805492516307dbf5fb60e11b8152919290916001600160a01b0390911690630fb7ebf6906200019f908590600401620043fd565b6020604051808303815f875af1158015620001bc573d5f803e3d5ffd5b505050506040513d601f19601f82011682018060405250810190620001e29190620044a4565b90505f81604051620001f490620043e1565b6001600160a01b039091168152602001604051809103905ff0801580156200021e573d5f803e3d5ffd5b5090505f826040516200023190620043e1565b6001600160a01b039091168152602001604051809103905ff0801580156200025b573d5f803e3d5ffd5b5090505f836040516200026e90620043e1565b6001600160a01b039091168152602001604051809103905ff08015801562000298573d5f803e3d5ffd5b5060405163077d52ad60e51b81525f60048201529091506001600160a01b0384169063efaa55a0906024015f604051808303815f87803b158015620002db575f80fd5b505af1158015620002ee573d5f803e3d5ffd5b505060405163077d52ad60e51b81525f60048201526001600160a01b038516925063efaa55a091506024015f604051808303815f87803b15801562000331575f80fd5b505af115801562000344573d5f803e3d5ffd5b505060405163077d52ad60e51b81525f60048201526001600160a01b038416925063efaa55a091506024015f604051808303815f87803b15801562000387575f80fd5b505af11580156200039a573d5f803e3d5ffd5b50505050836001600160a01b031663be9a65556040518163ffffffff1660e01b81526004015f604051808303815f87803b158015620003d7575f80fd5b505af1158015620003ea573d5f803e3d5ffd5b505f925060039150620003fa9050565b60405190808252806020026020018201604052801562000424578160200160208202803683370190505b5090505f815f815181106200043d576200043d620044c7565b60200260200101906004811115620004595762000459620044db565b908160048111156200046f576200046f620044db565b815250506001816001815181106200048b576200048b620044c7565b60200260200101906004811115620004a757620004a7620044db565b90816004811115620004bd57620004bd620044db565b815250505f81600281518110620004d857620004d8620044c7565b60200260200101906004811115620004f457620004f4620044db565b908160048111156200050a576200050a620044db565b9052506040516371b9d3ef60e11b81526001600160a01b0386169063e373a7de906200053b908490600401620044ef565b5f604051808303815f87803b15801562000553575f80fd5b505af115801562000566573d5f803e3d5ffd5b5050505073__$acbfb1c35000d78352310b16a054a6b106$__63abcd7960866001600160a01b031663581fe69a6040518163ffffffff1660e01b8152600401602060405180830381865afa158015620005c1573d5f803e3d5ffd5b505050506040513d601f19601f82011682018060405250810190620005e7919062004551565b6040516001600160e01b031960e084901b16815263ffffffff9190911660048201526001602482015260606044820152600c60648201526b189030b634bb32903bb7b63360a11b608482015260a401602060405180830381865af415801562000652573d5f803e3d5ffd5b505050506040513d601f19601f8201168201806040525081019062000678919062004586565b5073__$acbfb1c35000d78352310b16a054a6b106$__63abcd7960866001600160a01b0316638c1d85d86040518163ffffffff1660e01b8152600401602060405180830381865afa158015620006d0573d5f803e3d5ffd5b505050506040513d601f19601f82011682018060405250810190620006f6919062004551565b6040516001600160e01b031960e084901b16815263ffffffff919091166004820152600260248201526060604482015260126064820152713220616c697665206e6f6e2d776f6c76657360701b608482015260a401602060405180830381865af415801562000767573d5f803e3d5ffd5b505050506040513d601f19601f820116820180604052508101906200078d919062004586565b505f807ffc02697f14b6da73cb061e579b6bc23e4634ef6b9e3e2a98b5cf29b11eebb3c090505f8760018484604051602001620007ce9493929190620045a2565b60408051808303601f19018152908290528051602090910120631e29f97960e31b82526004820181905291506001600160a01b0387169063f14fcbc8906024015f604051808303815f87803b15801562000826575f80fd5b505af115801562000839573d5f803e3d5ffd5b50505050876001600160a01b03166317e6fcef6040518163ffffffff1660e01b81526004015f604051808303815f87803b15801562000876575f80fd5b505af115801562000889573d5f803e3d5ffd5b5050604051631fe4570360e11b815260ff86166004820152602481018590526001600160a01b0389169250633fc8ae0691506044015f604051808303815f87803b158015620008d6575f80fd5b505af1158015620008e9573d5f803e3d5ffd5b50505050876001600160a01b03166359b7e6ad6040518163ffffffff1660e01b81526004015f604051808303815f87803b15801562000926575f80fd5b505af115801562000939573d5f803e3d5ffd5b50505050876001600160a01b03166361dc46106040518163ffffffff1660e01b81526004015f604051808303815f87803b15801562000976575f80fd5b505af115801562000989573d5f803e3d5ffd5b5050604051631d99e38160e11b81525f6004820181905292506001600160a01b038b169150633b33c70290602401606060405180830381865afa158015620009d3573d5f803e3d5ffd5b505050506040513d601f19601f82011682018060405250810190620009f99190620045db565b5060405163767392b360e01b815290925073__$acbfb1c35000d78352310b16a054a6b106$__915063767392b39062000a399084905f9060040162004622565b602060405180830381865af415801562000a55573d5f803e3d5ffd5b505050506040513d601f19601f8201168201806040525081019062000a7b919062004586565b5073__$acbfb1c35000d78352310b16a054a6b106$__63abcd79608a6001600160a01b031663b1c9fe6e6040518163ffffffff1660e01b8152600401602060405180830381865afa15801562000ad3573d5f803e3d5ffd5b505050506040513d601f19601f8201168201806040525081019062000af991906200465f565b600681111562000b0d5762000b0d620044db565b60056040516001600160e01b031960e085901b1681526004810192909252602482015260606044820152601060648201526f5068617365203d3d20446179566f746560801b608482015260a401602060405180830381865af415801562000b76573d5f803e3d5ffd5b505050506040513d601f19601f8201168201806040525081019062000b9c919062004586565b50604051632cfe62b760e21b8152600160048201526001600160a01b0387169063b3f98adc906024015f604051808303815f87803b15801562000bdd575f80fd5b505af115801562000bf0573d5f803e3d5ffd5b5050604051632cfe62b760e21b8152600260048201526001600160a01b038a16925063b3f98adc91506024015f604051808303815f87803b15801562000c34575f80fd5b505af115801562000c47573d5f803e3d5ffd5b50505050886001600160a01b031663413d09566040518163ffffffff1660e01b81526004015f604051808303815f87803b15801562000c84575f80fd5b505af115801562000c97573d5f803e3d5ffd5b5050604051631d99e38160e11b8152600160048201525f92506001600160a01b038c169150633b33c70290602401606060405180830381865afa15801562000ce1573d5f803e3d5ffd5b505050506040513d601f19601f8201168201806040525081019062000d079190620045db565b5060405163767392b360e01b815281151560048201525f602482015260606044820152602a60648201527f50322028536561742031292073686f756c6420626520657865637574656420286084820152697469652d627265616b2960b01b60a482015290925073__$acbfb1c35000d78352310b16a054a6b106$__915063767392b39060c401602060405180830381865af415801562000da9573d5f803e3d5ffd5b505050506040513d601f19601f8201168201806040525081019062000dcf919062004586565b5073__$acbfb1c35000d78352310b16a054a6b106$__63abcd79608b6001600160a01b031663581fe69a6040518163ffffffff1660e01b8152600401602060405180830381865afa15801562000e27573d5f803e3d5ffd5b505050506040513d601f19601f8201168201806040525081019062000e4d919062004551565b6040516001600160e01b031960e084901b16815263ffffffff9190911660048201525f602482015260606044820152600f60648201526e18103bb7b63b32b9903932b6b0b4b760891b608482015260a4015b602060405180830381865af415801562000ebb573d5f803e3d5ffd5b505050506040513d601f19601f8201168201806040525081019062000ee1919062004586565b5073__$acbfb1c35000d78352310b16a054a6b106$__63abcd79608b6001600160a01b031663b1c9fe6e6040518163ffffffff1660e01b8152600401602060405180830381865afa15801562000f39573d5f803e3d5ffd5b505050506040513d601f19601f8201168201806040525081019062000f5f91906200465f565b600681111562000f735762000f73620044db565b60066040516001600160e01b031960e085901b1681526004810192909252602482015260606044820152601460648201527311d85b59481cda1bdd5b1908189948115b99195960621b608482015260a401602060405180830381865af415801562000fe0573d5f803e3d5ffd5b505050506040513d601f19601f8201168201806040525081019062001006919062004586565b505050505050505050505050565b5f6200101f6200435c565b5f80546040516307dbf5fb60e11b815292935090916001600160a01b0390911690630fb7ebf69062001056908590600401620043fd565b6020604051808303815f875af115801562001073573d5f803e3d5ffd5b505050506040513d601f19601f82011682018060405250810190620010999190620044a4565b90505f81604051620010ab90620043e1565b6001600160a01b039091168152602001604051809103905ff080158015620010d5573d5f803e3d5ffd5b5060405163077d52ad60e51b81525f60048201529091506001600160a01b0382169063efaa55a0906024015f604051808303815f87803b15801562001118575f80fd5b505af11580156200112b573d5f803e3d5ffd5b5050604080515f602480830182905283518084039091018152604490920183526020820180516001600160e01b031663077d52ad60e51b17905291519193506001600160a01b038516925062001181916200467f565b5f604051808303815f865af19150503d805f8114620011bc576040519150601f19603f3d011682016040523d82523d5f602084013e620011c1565b606091505b505060405163767392b360e01b815281151560048201525f602482015260606044820152601860648201527f506c617965722063616e6e6f74206a6f696e2074776963650000000000000000608482015290915073__$acbfb1c35000d78352310b16a054a6b106$__9063767392b39060a4015b602060405180830381865af415801562001251573d5f803e3d5ffd5b505050506040513d601f19601f8201168201806040525081019062001277919062004586565b5050505050565b5f620012896200435c565b5f80546040516307dbf5fb60e11b815292935090916001600160a01b0390911690630fb7ebf690620012c0908590600401620043fd565b6020604051808303815f875af1158015620012dd573d5f803e3d5ffd5b505050506040513d601f19601f82011682018060405250810190620013039190620044a4565b9050806040516200131490620043e1565b6001600160a01b039091168152602001604051809103905ff0801580156200133e573d5f803e3d5ffd5b5060405163077d52ad60e51b81525f60048201526001600160a01b03919091169063efaa55a0906024015f604051808303815f87803b15801562001380575f80fd5b505af115801562001393573d5f803e3d5ffd5b505060408051600481526024810182526020810180516001600160e01b031663be9a655560e01b17905290515f93506001600160a01b0385169250620013da91906200467f565b5f604051808303815f865af19150503d805f811462001415576040519150601f19603f3d011682016040523d82523d5f602084013e6200141a565b606091505b505060405163767392b360e01b815281151560048201525f602482015260606044820152602b60648201527f737461727428292073686f756c6420726576657274206966207365617473203c60848201526a206d696e506c617965727360a81b60a482015290915073__$acbfb1c35000d78352310b16a054a6b106$__9063767392b39060c4015b602060405180830381865af4158015620014be573d5f803e3d5ffd5b505050506040513d601f19601f82011682018060405250810190620014e4919062004586565b50505050565b6040805161010081018252600381526005602082015260018183018190525f606083018190526080830182905260a0830182905260c0830182905260e0830191909152805492516307dbf5fb60e11b8152919290916001600160a01b0390911690630fb7ebf69062001561908590600401620043fd565b6020604051808303815f875af11580156200157e573d5f803e3d5ffd5b505050506040513d601f19601f82011682018060405250810190620015a49190620044a4565b90505f81604051620015b690620043e1565b6001600160a01b039091168152602001604051809103905ff080158015620015e0573d5f803e3d5ffd5b5090505f82604051620015f390620043e1565b6001600160a01b039091168152602001604051809103905ff0801580156200161d573d5f803e3d5ffd5b5090505f836040516200163090620043e1565b6001600160a01b039091168152602001604051809103905ff0801580156200165a573d5f803e3d5ffd5b5060405163077d52ad60e51b81525f60048201529091506001600160a01b0384169063efaa55a0906024015f604051808303815f87803b1580156200169d575f80fd5b505af1158015620016b0573d5f803e3d5ffd5b505060405163077d52ad60e51b81525f60048201526001600160a01b038516925063efaa55a091506024015f604051808303815f87803b158015620016f3575f80fd5b505af115801562001706573d5f803e3d5ffd5b505060405163077d52ad60e51b81525f60048201526001600160a01b038416925063efaa55a091506024015f604051808303815f87803b15801562001749575f80fd5b505af11580156200175c573d5f803e3d5ffd5b50505050836001600160a01b031663be9a65556040518163ffffffff1660e01b81526004015f604051808303815f87803b15801562001799575f80fd5b505af1158015620017ac573d5f803e3d5ffd5b505f925060039150620017bc9050565b604051908082528060200260200182016040528015620017e6578160200160208202803683370190505b5090505f815f81518110620017ff57620017ff620044c7565b602002602001019060048111156200181b576200181b620044db565b90816004811115620018315762001831620044db565b815250506001816001815181106200184d576200184d620044c7565b60200260200101906004811115620018695762001869620044db565b908160048111156200187f576200187f620044db565b815250505f816002815181106200189a576200189a620044c7565b60200260200101906004811115620018b657620018b6620044db565b90816004811115620018cc57620018cc620044db565b9052506040516371b9d3ef60e11b81526001600160a01b0386169063e373a7de90620018fd908490600401620044ef565b5f604051808303815f87803b15801562001915575f80fd5b505af115801562001928573d5f803e3d5ffd5b505050505f807ffc02697f14b6da73cb061e579b6bc23e4634ef6b9e3e2a98b5cf29b11eebb3c090505f87600184846040516020016200196c9493929190620045a2565b60408051808303601f19018152908290528051602090910120631e29f97960e31b82526004820181905291506001600160a01b0387169063f14fcbc8906024015f604051808303815f87803b158015620019c4575f80fd5b505af1158015620019d7573d5f803e3d5ffd5b50505050876001600160a01b03166317e6fcef6040518163ffffffff1660e01b81526004015f604051808303815f87803b15801562001a14575f80fd5b505af115801562001a27573d5f803e3d5ffd5b5050604051631fe4570360e11b815260ff86166004820152602481018590526001600160a01b0389169250633fc8ae0691506044015f604051808303815f87803b15801562001a74575f80fd5b505af115801562001a87573d5f803e3d5ffd5b50505050876001600160a01b03166359b7e6ad6040518163ffffffff1660e01b81526004015f604051808303815f87803b15801562001ac4575f80fd5b505af115801562001ad7573d5f803e3d5ffd5b50505050876001600160a01b03166361dc46106040518163ffffffff1660e01b81526004015f604051808303815f87803b15801562001b14575f80fd5b505af115801562001b27573d5f803e3d5ffd5b5050604051632cfe62b760e21b8152600160048201526001600160a01b038816925063b3f98adc91506024015f604051808303815f87803b15801562001b6b575f80fd5b505af115801562001b7e573d5f803e3d5ffd5b5050604051632cfe62b760e21b8152600260048201526001600160a01b038916925063b3f98adc91506024015f604051808303815f87803b15801562001bc2575f80fd5b505af115801562001bd5573d5f803e3d5ffd5b50505050876001600160a01b031663413d09566040518163ffffffff1660e01b81526004015f604051808303815f87803b15801562001c12575f80fd5b505af115801562001c25573d5f803e3d5ffd5b5050505073__$acbfb1c35000d78352310b16a054a6b106$__63abcd7960896001600160a01b031663b1c9fe6e6040518163ffffffff1660e01b8152600401602060405180830381865afa15801562001c80573d5f803e3d5ffd5b505050506040513d601f19601f8201168201806040525081019062001ca691906200465f565b600681111562001cba5762001cba620044db565b60066040516001600160e01b031960e085901b1681526004810192909252602482015260606044820152600d60648201526c11d85b59481a5cc8115b991959609a1b608482015260a401602060405180830381865af415801562001d20573d5f803e3d5ffd5b505050506040513d601f19601f8201168201806040525081019062001d46919062004586565b5060405163931a531360e01b81526001600160a01b0387811660048301525f919087169063931a531390602401602060405180830381865afa15801562001d8f573d5f803e3d5ffd5b505050506040513d601f19601f8201168201806040525081019062001db59190620046ad565b905073__$acbfb1c35000d78352310b16a054a6b106$__63abcd796082600481111562001de65762001de6620044db565b60016040516001600160e01b031960e085901b1681526004810192909252602482015260606044820152601660648201527528199031b0b71039b2b2902819103bb0b9902bb7b63360511b608482015260a401602060405180830381865af415801562001e55573d5f803e3d5ffd5b505050506040513d601f19601f8201168201806040525081019062001e7b919062004586565b5050505050505050505050565b5f62001e936200435c565b5f80546040516307dbf5fb60e11b815292935090916001600160a01b0390911690630fb7ebf69062001eca908590600401620043fd565b6020604051808303815f875af115801562001ee7573d5f803e3d5ffd5b505050506040513d601f19601f8201168201806040525081019062001f0d9190620044a4565b90505f8160405162001f1f90620043e1565b6001600160a01b039091168152602001604051809103905ff08015801562001f49573d5f803e3d5ffd5b5090505f8260405162001f5c90620043e1565b6001600160a01b039091168152602001604051809103905ff08015801562001f86573d5f803e3d5ffd5b5090505f8360405162001f9990620043e1565b6001600160a01b039091168152602001604051809103905ff08015801562001fc3573d5f803e3d5ffd5b5060405163077d52ad60e51b81525f60048201529091506001600160a01b0384169063efaa55a0906024015f604051808303815f87803b15801562002006575f80fd5b505af115801562002019573d5f803e3d5ffd5b505060405163077d52ad60e51b81525f60048201526001600160a01b038516925063efaa55a091506024015f604051808303815f87803b1580156200205c575f80fd5b505af11580156200206f573d5f803e3d5ffd5b505060405163077d52ad60e51b81525f60048201526001600160a01b038416925063efaa55a091506024015f604051808303815f87803b158015620020b2575f80fd5b505af1158015620020c5573d5f803e3d5ffd5b50505050836001600160a01b031663be9a65556040518163ffffffff1660e01b81526004015f604051808303815f87803b15801562002102575f80fd5b505af115801562002115573d5f803e3d5ffd5b505f925060039150620021259050565b6040519080825280602002602001820160405280156200214f578160200160208202803683370190505b5090505f815f81518110620021685762002168620044c7565b60200260200101906004811115620021845762002184620044db565b908160048111156200219a576200219a620044db565b81525050600181600181518110620021b657620021b6620044c7565b60200260200101906004811115620021d257620021d2620044db565b90816004811115620021e857620021e8620044db565b81525050600181600281518110620022045762002204620044c7565b60200260200101906004811115620022205762002220620044db565b90816004811115620022365762002236620044db565b9052506040516371b9d3ef60e11b81526001600160a01b0386169063e373a7de9062002267908490600401620044ef565b5f604051808303815f87803b1580156200227f575f80fd5b505af115801562002292573d5f803e3d5ffd5b5050505073__$acbfb1c35000d78352310b16a054a6b106$__63abcd7960866001600160a01b031663b1c9fe6e6040518163ffffffff1660e01b8152600401602060405180830381865afa158015620022ed573d5f803e3d5ffd5b505050506040513d601f19601f820116820180604052508101906200231391906200465f565b6006811115620023275762002327620044db565b60026040516001600160e01b031960e085901b16815260048101929092526024820152606060448201526014606482015273141a185cd9480f4f48139a59da1d10dbdb5b5a5d60621b608482015260a401602060405180830381865af415801562002394573d5f803e3d5ffd5b505050506040513d601f19601f82011682018060405250810190620023ba919062004586565b5073__$acbfb1c35000d78352310b16a054a6b106$__63abcd7960866001600160a01b031663581fe69a6040518163ffffffff1660e01b8152600401602060405180830381865afa15801562002412573d5f803e3d5ffd5b505050506040513d601f19601f8201168201806040525081019062002438919062004551565b6040516001600160e01b031960e084901b16815263ffffffff9190911660048201526002602482015260606044820152600e60648201526d3220616c69766520776f6c76657360901b608482015260a401602060405180830381865af4158015620024a5573d5f803e3d5ffd5b505050506040513d601f19601f82011682018060405250810190620024cb919062004586565b505f807fd17083389c81f2c3405a12f6986c432d0865a81b5121947e2dd42e03c7219ec190505f87600184846040516020016200250c9493929190620045a2565b60408051808303601f19018152908290528051602090910120631e29f97960e31b82526004820181905291506001600160a01b0387169063f14fcbc8906024015f604051808303815f87803b15801562002564575f80fd5b505af115801562002577573d5f803e3d5ffd5b50506040517f834c2a4d71d55ed8dec7315d6f415411621c166a477e4f3e316dce3e077a4d5692505f9150620025b9908b9060019088908690602001620045a2565b60408051808303601f19018152908290528051602090910120631e29f97960e31b82526004820181905291506001600160a01b0388169063f14fcbc8906024015f604051808303815f87803b15801562002611575f80fd5b505af115801562002624573d5f803e3d5ffd5b5050505050505f876001600160a01b031663f14fcbc860e01b836040516024016200265191815260200190565b60408051601f198184030181529181526020820180516001600160e01b03166001600160e01b03199094169390931790925290516200269191906200467f565b5f604051808303815f865af19150503d805f8114620026cc576040519150601f19603f3d011682016040523d82523d5f602084013e620026d1565b606091505b505060405163767392b360e01b815281151560048201525f6024820152606060448201526016606482015275159a5b1b1859d95c8818d85b9b9bdd0818dbdb5b5a5d60521b608482015290915073__$acbfb1c35000d78352310b16a054a6b106$__9063767392b39060a401602060405180830381865af415801562002759573d5f803e3d5ffd5b505050506040513d601f19601f820116820180604052508101906200277f919062004586565b50604051630d88d9b760e41b81526001600160a01b03888116600483015273__$acbfb1c35000d78352310b16a054a6b106$__9163767392b3918c169063d88d9b7090602401602060405180830381865afa158015620027e1573d5f803e3d5ffd5b505050506040513d601f19601f8201168201806040525081019062002807919062004586565b6040516001600160e01b031960e084901b16815290151560048201526001602482015260606044820152600c60648201526b140c8818dbdb5b5a5d1d195960a21b608482015260a401602060405180830381865af41580156200286c573d5f803e3d5ffd5b505050506040513d601f19601f8201168201806040525081019062002892919062004586565b50886001600160a01b03166317e6fcef6040518163ffffffff1660e01b81526004015f604051808303815f87803b158015620028cc575f80fd5b505af1158015620028df573d5f803e3d5ffd5b5050505073__$acbfb1c35000d78352310b16a054a6b106$__63abcd79608a6001600160a01b031663b1c9fe6e6040518163ffffffff1660e01b8152600401602060405180830381865afa1580156200293a573d5f803e3d5ffd5b505050506040513d601f19601f820116820180604052508101906200296091906200465f565b6006811115620029745762002974620044db565b60036040516001600160e01b031960e085901b16815260048101929092526024820152606060448201526014606482015273141a185cd9480f4f48139a59da1d14995d99585b60621b608482015260a401602060405180830381865af4158015620029e1573d5f803e3d5ffd5b505050506040513d601f19601f8201168201806040525081019062002a07919062004586565b50604051631fe4570360e11b815260ff85166004820152602481018490526001600160a01b03881690633fc8ae06906044015f604051808303815f87803b15801562002a51575f80fd5b505af115801562002a64573d5f803e3d5ffd5b5050604051631fe4570360e11b815260ff871660048201527f834c2a4d71d55ed8dec7315d6f415411621c166a477e4f3e316dce3e077a4d566024820181905292506001600160a01b0389169150633fc8ae06906044015f604051808303815f87803b15801562002ad3575f80fd5b505af115801562002ae6573d5f803e3d5ffd5b50506040516327c0583f60e01b81526001600160a01b038a8116600483015273__$acbfb1c35000d78352310b16a054a6b106$__945063767392b393508d1691506327c0583f90602401602060405180830381865afa15801562002b4c573d5f803e3d5ffd5b505050506040513d601f19601f8201168201806040525081019062002b72919062004586565b6040516001600160e01b031960e084901b16815290151560048201526001602482015260606044820152600b60648201526a140cc81c995d99585b195960aa1b608482015260a401602060405180830381865af415801562002bd6573d5f803e3d5ffd5b505050506040513d601f19601f8201168201806040525081019062002bfc919062004586565b50886001600160a01b03166359b7e6ad6040518163ffffffff1660e01b81526004015f604051808303815f87803b15801562002c36575f80fd5b505af115801562002c49573d5f803e3d5ffd5b50505050886001600160a01b03166361dc46106040518163ffffffff1660e01b81526004015f604051808303815f87803b15801562002c86575f80fd5b505af115801562002c99573d5f803e3d5ffd5b5050604051631d99e38160e11b81525f6004820181905292506001600160a01b038c169150633b33c70290602401606060405180830381865afa15801562002ce3573d5f803e3d5ffd5b505050506040513d601f19601f8201168201806040525081019062002d099190620045db565b5060405163767392b360e01b815290925073__$acbfb1c35000d78352310b16a054a6b106$__915063767392b39062002d499084905f9060040162004622565b602060405180830381865af415801562002d65573d5f803e3d5ffd5b505050506040513d601f19601f8201168201806040525081019062002d8b919062004586565b5073__$acbfb1c35000d78352310b16a054a6b106$__63abcd79608b6001600160a01b031663581fe69a6040518163ffffffff1660e01b8152600401602060405180830381865afa15801562002de3573d5f803e3d5ffd5b505050506040513d601f19601f8201168201806040525081019062002e09919062004551565b6040516001600160e01b031960e084901b16815263ffffffff919091166004820152600260248201526060604482015260116064820152700c881ddbdb1d995cc81cdd5c9d9a5d9959607a1b608482015260a401602060405180830381865af415801562002e79573d5f803e3d5ffd5b505050506040513d601f19601f8201168201806040525081019062002e9f919062004586565b5073__$acbfb1c35000d78352310b16a054a6b106$__63abcd79608b6001600160a01b0316638c1d85d86040518163ffffffff1660e01b8152600401602060405180830381865afa15801562002ef7573d5f803e3d5ffd5b505050506040513d601f19601f8201168201806040525081019062002f1d919062004551565b6040516001600160e01b031960e084901b16815263ffffffff9190911660048201525f60248201526060604482015260156064820152740c081b9bdb8b5ddbdb1d995cc81cdd5c9d9a5d9959605a1b608482015260a40162000e9f565b5f62002f856200435c565b5f80546040516307dbf5fb60e11b815292935090916001600160a01b0390911690630fb7ebf69062002fbc908590600401620043fd565b6020604051808303815f875af115801562002fd9573d5f803e3d5ffd5b505050506040513d601f19601f8201168201806040525081019062002fff9190620044a4565b60408051600481526024810182526020810180516001600160e01b031663b688a36360e01b17905290519192505f916001600160a01b0384169162003044916200467f565b5f604051808303815f865af19150503d805f81146200307f576040519150601f19603f3d011682016040523d82523d5f602084013e62003084565b606091505b505060405163767392b360e01b815281151560048201525f602482015260606044820152601960648201527f486f73742063616e6e6f74206a6f696e207468652067616d6500000000000000608482015290915073__$acbfb1c35000d78352310b16a054a6b106$__9063767392b39060a401620014a2565b6040516200310b90620043ef565b604051809103905ff08015801562003125573d5f803e3d5ffd5b505f80546001600160a01b03929092166001600160a01b03199283161790556001805490911630179055565b5f6200315c6200435c565b5f80546040516307dbf5fb60e11b815292935090916001600160a01b0390911690630fb7ebf69062003193908590600401620043fd565b6020604051808303815f875af1158015620031b0573d5f803e3d5ffd5b505050506040513d601f19601f82011682018060405250810190620031d69190620044a4565b90505f81604051620031e890620043e1565b6001600160a01b039091168152602001604051809103905ff08015801562003212573d5f803e3d5ffd5b5090505f826040516200322590620043e1565b6001600160a01b039091168152602001604051809103905ff0801580156200324f573d5f803e3d5ffd5b5060405163077d52ad60e51b81525f60048201529091506001600160a01b0383169063efaa55a0906024015f604051808303815f87803b15801562003292575f80fd5b505af1158015620032a5573d5f803e3d5ffd5b505060405163077d52ad60e51b81525f60048201526001600160a01b038416925063efaa55a091506024015f604051808303815f87803b158015620032e8575f80fd5b505af1158015620032fb573d5f803e3d5ffd5b5050505073__$acbfb1c35000d78352310b16a054a6b106$__63abcd7960846001600160a01b031663bedecc066040518163ffffffff1660e01b8152600401602060405180830381865afa15801562003356573d5f803e3d5ffd5b505050506040513d601f19601f820116820180604052508101906200337c9190620046c9565b6040516001600160e01b031960e084901b16815260048101919091526002602482015260606044820152601060648201526f0c881c1b185e595c9cc81a9bda5b995960821b608482015260a401602060405180830381865af4158015620033e5573d5f803e3d5ffd5b505050506040513d601f19601f820116820180604052508101906200340b919062004586565b5060405163b9cd92c360e01b81526001600160a01b03838116600483015273__$acbfb1c35000d78352310b16a054a6b106$__9163abcd79609186169063b9cd92c390602401602060405180830381865afa1580156200346d573d5f803e3d5ffd5b505050506040513d601f19601f82011682018060405250810190620034939190620046e1565b6040516001600160e01b031960e084901b16815260ff9091166004820152600160248201526060604482015260166064820152755031206973207365617420302028696e6465782b312960501b608482015260a401602060405180830381865af415801562003504573d5f803e3d5ffd5b505050506040513d601f19601f820116820180604052508101906200352a919062004586565b5060405163b9cd92c360e01b81526001600160a01b03828116600483015273__$acbfb1c35000d78352310b16a054a6b106$__9163abcd79609186169063b9cd92c390602401602060405180830381865afa1580156200358c573d5f803e3d5ffd5b505050506040513d601f19601f82011682018060405250810190620035b29190620046e1565b6040516001600160e01b031960e084901b16815260ff9091166004820152600260248201526060604482015260166064820152755032206973207365617420312028696e6465782b312960501b608482015260a40162001235565b5f620036186200435c565b5f80546040516307dbf5fb60e11b815292935090916001600160a01b0390911690630fb7ebf6906200364f908590600401620043fd565b6020604051808303815f875af11580156200366c573d5f803e3d5ffd5b505050506040513d601f19601f82011682018060405250810190620036929190620044a4565b905080604051620036a390620043e1565b6001600160a01b039091168152602001604051809103905ff080158015620036cd573d5f803e3d5ffd5b5060405163077d52ad60e51b81525f60048201526001600160a01b03919091169063efaa55a0906024015f604051808303815f87803b1580156200370f575f80fd5b505af115801562003722573d5f803e3d5ffd5b50505050806040516200373590620043e1565b6001600160a01b039091168152602001604051809103905ff0801580156200375f573d5f803e3d5ffd5b5060405163077d52ad60e51b81525f60048201526001600160a01b03919091169063efaa55a0906024015f604051808303815f87803b158015620037a1575f80fd5b505af1158015620037b4573d5f803e3d5ffd5b5050505080604051620037c790620043e1565b6001600160a01b039091168152602001604051809103905ff080158015620037f1573d5f803e3d5ffd5b5060405163077d52ad60e51b81525f60048201526001600160a01b03919091169063efaa55a0906024015f604051808303815f87803b15801562003833575f80fd5b505af115801562003846573d5f803e3d5ffd5b50505050806001600160a01b031663be9a65556040518163ffffffff1660e01b81526004015f604051808303815f87803b15801562003883575f80fd5b505af115801562003896573d5f803e3d5ffd5b5050505073__$acbfb1c35000d78352310b16a054a6b106$__63abcd7960826001600160a01b031663b1c9fe6e6040518163ffffffff1660e01b8152600401602060405180830381865afa158015620038f1573d5f803e3d5ffd5b505050506040513d601f19601f820116820180604052508101906200391791906200465f565b60068111156200392b576200392b620044db565b60016040516001600160e01b031960e085901b1681526004810192909252602482015260606044820152600e60648201526d05068617365203d3d2053657475760941b608482015260a401602060405180830381865af415801562003992573d5f803e3d5ffd5b505050506040513d601f19601f82011682018060405250810190620039b8919062004586565b506040805160028082526060820183525f926020830190803683370190505090506001815f81518110620039f057620039f0620044c7565b6020026020010190600481111562003a0c5762003a0c620044db565b9081600481111562003a225762003a22620044db565b815250505f8160018151811062003a3d5762003a3d620044c7565b6020026020010190600481111562003a595762003a59620044db565b9081600481111562003a6f5762003a6f620044db565b815250505f826001600160a01b031663e373a7de60e01b8360405160240162003a999190620044ef565b60408051601f198184030181529181526020820180516001600160e01b03166001600160e01b031990941693909317909252905162003ad991906200467f565b5f604051808303815f865af19150503d805f811462003b14576040519150601f19603f3d011682016040523d82523d5f602084013e62003b19565b606091505b505060405163767392b360e01b815281151560048201525f602482015260606044820152602c60648201527f61737369676e526f6c65732073686f756c6420726576657274206966206c656e60848201526b0cee8d040dad2e6dac2e8c6d60a31b60a482015290915073__$acbfb1c35000d78352310b16a054a6b106$__9063767392b39060c40162001235565b5f62003bb26200435c565b5f80546040516307dbf5fb60e11b815292935090916001600160a01b0390911690630fb7ebf69062003be9908590600401620043fd565b6020604051808303815f875af115801562003c06573d5f803e3d5ffd5b505050506040513d601f19601f8201168201806040525081019062003c2c9190620044a4565b90508060405162003c3d90620043e1565b6001600160a01b039091168152602001604051809103905ff08015801562003c67573d5f803e3d5ffd5b5060405163077d52ad60e51b81525f60048201526001600160a01b03919091169063efaa55a0906024015f604051808303815f87803b15801562003ca9575f80fd5b505af115801562003cbc573d5f803e3d5ffd5b505050508060405162003ccf90620043e1565b6001600160a01b039091168152602001604051809103905ff08015801562003cf9573d5f803e3d5ffd5b5060405163077d52ad60e51b81525f60048201526001600160a01b03919091169063efaa55a0906024015f604051808303815f87803b15801562003d3b575f80fd5b505af115801562003d4e573d5f803e3d5ffd5b505050508060405162003d6190620043e1565b6001600160a01b039091168152602001604051809103905ff08015801562003d8b573d5f803e3d5ffd5b5060405163077d52ad60e51b81525f60048201526001600160a01b03919091169063efaa55a0906024015f604051808303815f87803b15801562003dcd575f80fd5b505af115801562003de0573d5f803e3d5ffd5b50505050806001600160a01b031663be9a65556040518163ffffffff1660e01b81526004015f604051808303815f87803b15801562003e1d575f80fd5b505af115801562003e30573d5f803e3d5ffd5b505f92506003915062003e409050565b60405190808252806020026020018201604052801562003e6a578160200160208202803683370190505b5090506001815f8151811062003e845762003e84620044c7565b6020026020010190600481111562003ea05762003ea0620044db565b9081600481111562003eb65762003eb6620044db565b815250505f8160018151811062003ed15762003ed1620044c7565b6020026020010190600481111562003eed5762003eed620044db565b9081600481111562003f035762003f03620044db565b815250505f8160028151811062003f1e5762003f1e620044c7565b6020026020010190600481111562003f3a5762003f3a620044db565b9081600481111562003f505762003f50620044db565b815250505f826001600160a01b031663e373a7de60e01b8360405160240162003f7a9190620044ef565b60408051601f198184030181529181526020820180516001600160e01b03166001600160e01b031990941693909317909252905162003fba91906200467f565b5f604051808303815f865af19150503d805f811462003ff5576040519150601f19603f3d011682016040523d82523d5f602084013e62003ffa565b606091505b505060405163767392b360e01b815281151560048201525f602482015260606044820152603260648201527f61737369676e526f6c65732073686f756c642072657665727420696620776f6c6084820152710eccae640c6deeadce840dad2e6dac2e8c6d60731b60a482015290915073__$acbfb1c35000d78352310b16a054a6b106$__9063767392b39060c40162001235565b5f620040996200435c565b5f80546040516307dbf5fb60e11b815292935090916001600160a01b0390911690630fb7ebf690620040d0908590600401620043fd565b6020604051808303815f875af1158015620040ed573d5f803e3d5ffd5b505050506040513d601f19601f82011682018060405250810190620041139190620044a4565b905073__$acbfb1c35000d78352310b16a054a6b106$__63abcd7960826001600160a01b031663b1c9fe6e6040518163ffffffff1660e01b8152600401602060405180830381865afa1580156200416c573d5f803e3d5ffd5b505050506040513d601f19601f820116820180604052508101906200419291906200465f565b6006811115620041a657620041a6620044db565b5f6040516001600160e01b031960e085901b1681526004810192909252602482015260606044820152600e60648201526d5068617365203d3d204c6f62627960901b608482015260a401602060405180830381865af41580156200420c573d5f803e3d5ffd5b505050506040513d601f19601f8201168201806040525081019062004232919062004586565b5073__$acbfb1c35000d78352310b16a054a6b106$__63bfba5dd6826001600160a01b031663f437bc596040518163ffffffff1660e01b8152600401602060405180830381865afa1580156200428a573d5f803e3d5ffd5b505050506040513d601f19601f82011682018060405250810190620042b09190620044a4565b60015460405160e084901b6001600160e01b03191681526001600160a01b0392831660048201529116602482015260606044820152601760648201527f486f7374206164647265737320697320636f7272656374000000000000000000608482015260a401602060405180830381865af415801562004331573d5f803e3d5ffd5b505050506040513d601f19601f8201168201806040525081019062004357919062004586565b505050565b60408051610100810182525f80825260208201819052918101829052606081018290526080810182905260a0810182905260c0810182905260e081019190915250604080516101008101825260038152600560208201526002918101919091525f606082015260016080820181905260a0820181905260c0820181905260e082015290565b61052c806200470483390190565b61261d8062004c3083390190565b5f6101008201905060ff835116825260ff602084015116602083015260ff604084015116604083015260608301516060830152608083015163ffffffff80821660808501528060a08601511660a0850152505060c08301516200446860c084018263ffffffff169052565b5060e08301516200448160e084018263ffffffff169052565b5092915050565b80516001600160a01b03811681146200449f575f80fd5b919050565b5f60208284031215620044b5575f80fd5b620044c08262004488565b9392505050565b634e487b7160e01b5f52603260045260245ffd5b634e487b7160e01b5f52602160045260245ffd5b602080825282518282018190525f9190848201906040850190845b8181101562004545578351600581106200453257634e487b7160e01b5f52602160045260245ffd5b835292840192918401916001016200450a565b50909695505050505050565b5f6020828403121562004562575f80fd5b815163ffffffff81168114620044c0575f80fd5b805180151581146200449f575f80fd5b5f6020828403121562004597575f80fd5b620044c08262004576565b6001600160a01b0394909416845260ff928316602085015291166040830152606082015260800190565b8051600581106200449f575f80fd5b5f805f60608486031215620045ee575f80fd5b620045f98462004488565b9250620046096020850162004576565b91506200461960408501620045cc565b90509250925092565b91151582521515602082015260606040820181905260139082015272140c480a14d9585d080c0a481a5cc819195859606a1b608082015260a00190565b5f6020828403121562004670575f80fd5b815160078110620044c0575f80fd5b5f82515f5b81811015620046a0576020818601810151858301520162004684565b505f920191825250919050565b5f60208284031215620046be575f80fd5b620044c082620045cc565b5f60208284031215620046da575f80fd5b5051919050565b5f60208284031215620046f2575f80fd5b815160ff81168114620044c0575f80fdfe608060405234801561000f575f80fd5b5060405161052c38038061052c83398101604081905261002e91610052565b5f80546001600160a01b0319166001600160a01b039290921691909117905561007f565b5f60208284031215610062575f80fd5b81516001600160a01b0381168114610078575f80fd5b9392505050565b6104a08061008c5f395ff3fe608060405260043610610071575f3560e01c8063c3fe3e281161004c578063c3fe3e28146100f1578063de70ca7b14610127578063efaa55a01461013b578063f14fcbc81461014e575f80fd5b80633fc8ae061461007c578063931a53131461009d578063b3f98adc146100d2575f80fd5b3661007857005b5f80fd5b348015610087575f80fd5b5061009b6100963660046103a1565b61016d565b005b3480156100a8575f80fd5b506100bc6100b73660046103c9565b6101d2565b6040516100c991906103f6565b60405180910390f35b3480156100dd575f80fd5b5061009b6100ec36600461041c565b610244565b3480156100fc575f80fd5b505f5461010f906001600160a01b031681565b6040516001600160a01b0390911681526020016100c9565b348015610132575f80fd5b506100bc6102a2565b61009b610149366004610435565b610311565b348015610159575f80fd5b5061009b610168366004610435565b61035c565b5f546040516362b4930360e11b815260ff84166004820152602481018390526001600160a01b039091169063c5692606906044015f604051808303815f87803b1580156101b8575f80fd5b505af11580156101ca573d5f803e3d5ffd5b505050505050565b5f80546040516352ebc13f60e11b81526001600160a01b0384811660048301529091169063a5d7827e90602401602060405180830381865afa15801561021a573d5f803e3d5ffd5b505050506040513d601f19601f8201168201806040525081019061023e919061044c565b92915050565b5f54604051632cfe62b760e21b815260ff831660048201526001600160a01b039091169063b3f98adc906024015b5f604051808303815f87803b158015610289575f80fd5b505af115801561029b573d5f803e3d5ffd5b5050505050565b5f80546040516352ebc13f60e11b81523060048201526001600160a01b039091169063a5d7827e90602401602060405180830381865afa1580156102e8573d5f803e3d5ffd5b505050506040513d601f19601f8201168201806040525081019061030c919061044c565b905090565b5f8054906101000a90046001600160a01b03166001600160a01b031663b688a363826040518263ffffffff1660e01b81526004015f604051808303818588803b1580156101b8575f80fd5b5f54604051635371bb7d60e11b8152600481018390526001600160a01b039091169063a6e376fa90602401610272565b803560ff8116811461039c575f80fd5b919050565b5f80604083850312156103b2575f80fd5b6103bb8361038c565b946020939093013593505050565b5f602082840312156103d9575f80fd5b81356001600160a01b03811681146103ef575f80fd5b9392505050565b602081016005831061041657634e487b7160e01b5f52602160045260245ffd5b91905290565b5f6020828403121561042c575f80fd5b6103ef8261038c565b5f60208284031215610445575f80fd5b5035919050565b5f6020828403121561045c575f80fd5b8151600581106103ef575f80fdfea2646970667358221220063833b0475605e9384727517633087f93f187eed965affae5fd64671914650064736f6c63430008180033608060405234801561000f575f80fd5b506126008061001d5f395ff3fe608060405234801561000f575f80fd5b5060043610610029575f3560e01c80630fb7ebf61461002d575b5f80fd5b61004061003b366004610102565b61005c565b6040516001600160a01b03909116815260200160405180910390f35b5f338260405161006b906100cd565b6100769291906101ca565b604051809103905ff08015801561008f573d5f803e3d5ffd5b5060405190915033906001600160a01b038316907fb60d84e37a6658effce28870b1d123cb86f86409df5888679310c0f276e1f5d2905f90a3919050565b6123698061026283390190565b803560ff811681146100ea575f80fd5b919050565b803563ffffffff811681146100ea575f80fd5b5f610100808385031215610114575f80fd5b6040519081019067ffffffffffffffff8211818310171561014357634e487b7160e01b5f52604160045260245ffd5b81604052610150846100da565b815261015e602085016100da565b602082015261016f604085016100da565b60408201526060840135606082015261018a608085016100ef565b608082015261019b60a085016100ef565b60a08201526101ac60c085016100ef565b60c08201526101bd60e085016100ef565b60e0820152949350505050565b5f6101208201905060018060a01b038416825260ff835116602083015260ff602084015116604083015260ff604084015116606083015260608301516080830152608083015161022260a084018263ffffffff169052565b5060a083015163ffffffff811660c08401525060c083015163ffffffff811660e08401525060e083015163ffffffff811661010084015250939250505056fe608060405234801562000010575f80fd5b506040516200236938038062002369833981016040819052620000339162000251565b6003815f015160ff161015620000805760405162461bcd60e51b815260206004820152600d60248201526c1b5a5b881d1bdbc81cdb585b1b609a1b60448201526064015b60405180910390fd5b805f015160ff16816020015160ff161015620000c95760405162461bcd60e51b815260206004820152600760248201526636b0bc1e36b4b760c91b604482015260640162000077565b6001816040015160ff1610158015620000ef5750806020015160ff16816040015160ff16105b6200012a5760405162461bcd60e51b815260206004820152600a6024820152691ddbdb1d995cc818985960b21b604482015260640162000077565b5f80546001600160a01b0384166001600160a01b03199091161781558151600180546020850151604086015160ff908116620100000262ff0000199282166101000261ffff1990941691909516179190911716919091178155606083015160025560808301516003805460a086015160c087015160e088015163ffffffff9081166c010000000000000000000000000263ffffffff60601b19928216680100000000000000000292909216600160401b600160801b0319938216640100000000026001600160401b0319909516919096161792909217169290921791909117905560048054909160ff19919091169083021790555050506200035c565b805160ff8116811462000238575f80fd5b919050565b805163ffffffff8116811462000238575f80fd5b5f8082840361012081121562000265575f80fd5b83516001600160a01b03811681146200027c575f80fd5b9250610100601f19820181131562000292575f80fd5b60405191508082016001600160401b0381118382101715620002c257634e487b7160e01b5f52604160045260245ffd5b604052620002d36020860162000227565b8252620002e36040860162000227565b6020830152620002f66060860162000227565b6040830152608085015160608301526200031360a086016200023d565b60808301526200032660c086016200023d565b60a08301526200033960e086016200023d565b60c08301526200034b8186016200023d565b60e083015250809150509250929050565b611fff806200036a5f395ff3fe6080604052600436106101af575f3560e01c80638c1d85d8116100e7578063be9a655511610087578063c8dc00f111610062578063c8dc00f1146105a6578063d88d9b70146105d1578063e373a7de146105ff578063f437bc591461061e575f80fd5b8063be9a65551461055f578063bedecc0614610573578063c569260614610587575f80fd5b8063b1c9fe6e116100c2578063b1c9fe6e146104e4578063b3f98adc1461050a578063b688a36314610529578063b9cd92c314610531575f80fd5b80638c1d85d814610476578063a5d7827e14610499578063a6e376fa146104c5575f80fd5b80633b33c7021161015257806359b7e6ad1161012d57806359b7e6ad146103f25780635fcbf3721461040657806361dc4610146104345780636662c26e14610448575f80fd5b80633b33c7021461037f578063413d0956146103ad578063581fe69a146103c1575f80fd5b8063266e2a561161018d578063266e2a561461029f57806327c0583f146102db57806329dcb0cf14610319578063338986211461033f575f80fd5b80630457dad2146101b3578063086e69171461026657806317e6fcef14610289575b5f80fd5b3480156101be575f80fd5b5060015460025460035461020d9260ff808216936101008304821693620100009093049091169163ffffffff80821691600160201b8104821691600160401b8204811691600160601b90041688565b6040805160ff998a16815297891660208901529590971694860194909452606085019290925263ffffffff908116608085015290811660a084015290811660c083015290911660e0820152610100015b60405180910390f35b348015610271575f80fd5b5061027b600e5481565b60405190815260200161025d565b348015610294575f80fd5b5061029d610654565b005b3480156102aa575f80fd5b506004546102c39061010090046001600160401b031681565b6040516001600160401b03909116815260200161025d565b3480156102e6575f80fd5b506103096102f5366004611c36565b600a6020525f908152604090205460ff1681565b604051901515815260200161025d565b348015610324575f80fd5b506004546102c390600160481b90046001600160401b031681565b34801561034a575f80fd5b5061036d610359366004611c78565b600c6020525f908152604090205460ff1681565b60405160ff909116815260200161025d565b34801561038a575f80fd5b5061039e610399366004611c91565b6106ff565b60405161025d93929190611cd0565b3480156103b8575f80fd5b5061029d61073c565b3480156103cc575f80fd5b50600d546103dd9063ffffffff1681565b60405163ffffffff909116815260200161025d565b3480156103fd575f80fd5b5061029d6108b3565b348015610411575f80fd5b5061036d610420366004611c36565b600b6020525f908152604090205460ff1681565b34801561043f575f80fd5b5061029d610943565b348015610453575f80fd5b5061036d610462366004611c36565b60086020525f908152604090205460ff1681565b348015610481575f80fd5b50600d546103dd90600160201b900463ffffffff1681565b3480156104a4575f80fd5b506104b86104b3366004611c36565b610c45565b60405161025d9190611cfd565b3480156104d0575f80fd5b5061029d6104df366004611c91565b610d32565b3480156104ef575f80fd5b506004546104fd9060ff1681565b60405161025d9190611d21565b348015610515575f80fd5b5061029d610524366004611c78565b610ee3565b61029d611104565b34801561053c575f80fd5b5061036d61054b366004611c36565b60066020525f908152604090205460ff1681565b34801561056a575f80fd5b5061029d61137e565b34801561057e575f80fd5b5060055461027b565b348015610592575f80fd5b5061029d6105a1366004611d2f565b611451565b3480156105b1575f80fd5b5061027b6105c0366004611c36565b60076020525f908152604090205481565b3480156105dc575f80fd5b506103096105eb366004611c36565b60096020525f908152604090205460ff1681565b34801561060a575f80fd5b5061029d610619366004611d57565b6116f5565b348015610629575f80fd5b505f5461063c906001600160a01b031681565b6040516001600160a01b03909116815260200161025d565b60028060045460ff16600681111561066e5761066e611ca8565b146106945760405162461bcd60e51b815260040161068b90611dc5565b60405180910390fd5b600454600160481b90046001600160401b031642116106e15760405162461bcd60e51b8152602060048201526009602482015268746f6f206561726c7960b81b604482015260640161068b565b600380546106fc9190600160401b900463ffffffff16611988565b50565b6005818154811061070e575f80fd5b5f918252602090912001546001600160a01b038116915060ff600160a01b8204811691600160a81b90041683565b60058060045460ff16600681111561075657610756611ca8565b146107735760405162461bcd60e51b815260040161068b90611dc5565b60ff5f805b60055460ff821610156107ef5760058160ff168154811061079b5761079b611de8565b5f91825260209091200154600160a01b900460ff16156107dd5760ff8082165f908152600c602052604090205481169083168111156107db578092508193505b505b806107e781611e10565b915050610778565b5060055460ff831610801561082b575060058260ff168154811061081557610815611de8565b5f91825260209091200154600160a01b900460ff165b156108395761083982611a2e565b610841611b7f565b1561084b57505050565b6004805461010090046001600160401b031690600161086983611e2e565b91906101000a8154816001600160401b0302191690836001600160401b03160217905550506108ae6002600160020160049054906101000a900463ffffffff16611988565b505050565b60038060045460ff1660068111156108cd576108cd611ca8565b146108ea5760405162461bcd60e51b815260040161068b90611dc5565b600454600160481b90046001600160401b031642116109375760405162461bcd60e51b8152602060048201526009602482015268746f6f206561726c7960b81b604482015260640161068b565b6106fc60046005611988565b60048060045460ff16600681111561095d5761095d611ca8565b1461097a5760405162461bcd60e51b815260040161068b90611dc5565b6005545f816001600160401b0381111561099657610996611e53565b6040519080825280602002602001820160405280156109bf578160200160208202803683370190505b5090505f5b82811015610b20575f600582815481106109e0576109e0611de8565b5f91825260209091200154600580546001600160a01b0390921692509083908110610a0d57610a0d611de8565b5f91825260209091200154600160a01b900460ff168015610a665750600160058381548110610a3e57610a3e611de8565b5f91825260209091200154600160a81b900460ff166004811115610a6457610a64611ca8565b145b8015610a8957506001600160a01b0381165f908152600a602052604090205460ff165b15610b17576001600160a01b0381165f9081526008602052604090205460ff168481108015610adf575060058160ff1681548110610ac957610ac9611de8565b5f91825260209091200154600160a01b900460ff165b15610b1557838160ff1681518110610af957610af9611de8565b602002602001018051809190610b0e90611e10565b60ff169052505b505b506001016109c4565b5060ff5f805b848160ff161015610b90578160ff16848260ff1681518110610b4a57610b4a611de8565b602002602001015160ff161115610b7e57838160ff1681518110610b7057610b70611de8565b602002602001015191508092505b80610b8881611e10565b915050610b26565b50838260ff16108015610bca575060058260ff1681548110610bb457610bb4611de8565b5f91825260209091200154600160a01b900460ff165b15610bd857610bd882611a2e565b60405160ff831681527f54a51ad4c2c44a9a8f17512f2f98d5cfec2e0bba7cc0c3e24976b8c50b3ede289060200160405180910390a1610c16611b7f565b15610c22575050505050565b600354610c3e90600590600160601b900463ffffffff16611988565b5050505050565b6001600160a01b0381165f9081526006602052604081205460ff1680610c975760405162461bcd60e51b81526020600482015260076024820152661b9bc81cd9585d60ca1b604482015260640161068b565b600660045460ff166006811115610cb057610cb0611ca8565b14610cf6576001600160a01b0383163314610cf65760405162461bcd60e51b81526020600482015260066024820152653434b23232b760d11b604482015260640161068b565b6005610d03600183611e67565b60ff1681548110610d1657610d16611de8565b5f91825260209091200154600160a81b900460ff169392505050565b60028060045460ff166006811115610d4c57610d4c611ca8565b14610d695760405162461bcd60e51b815260040161068b90611dc5565b335f9081526006602052604090205460ff16610d975760405162461bcd60e51b815260040161068b90611e80565b335f90815260066020526040902054600590610db89060019060ff16611e67565b60ff1681548110610dcb57610dcb611de8565b5f91825260209091200154600160a01b900460ff16610dfc5760405162461bcd60e51b815260040161068b90611ea4565b335f90815260066020526040812054610e1a9060019060ff16611e67565b9050600160058260ff1681548110610e3457610e34611de8565b5f91825260209091200154600160a81b900460ff166004811115610e5a57610e5a611ca8565b14610e925760405162461bcd60e51b81526020600482015260086024820152673737ba103bb7b63360c11b604482015260640161068b565b335f8181526007602090815260408083208790556009909152808220805460ff19166001179055517fb7db70cfdf71703c34a6ca0d742714f04fdd7676b4a28607d32028f3c74ae5a59190a2505050565b60058060045460ff166006811115610efd57610efd611ca8565b14610f1a5760405162461bcd60e51b815260040161068b90611dc5565b335f9081526006602052604090205460ff16610f485760405162461bcd60e51b815260040161068b90611e80565b335f90815260066020526040902054600590610f699060019060ff16611e67565b60ff1681548110610f7c57610f7c611de8565b5f91825260209091200154600160a01b900460ff16610fad5760405162461bcd60e51b815260040161068b90611ea4565b60055460ff831610610fee5760405162461bcd60e51b815260206004820152600a602482015269189859081d185c99d95d60b21b604482015260640161068b565b335f908152600b602052604090205460ff168015801590611021575060ff8082165f908152600c60205260409020541615155b156110625760ff8082165f908152600c602052604081208054909216919061104883611ec2565b91906101000a81548160ff021916908360ff160217905550505b335f908152600b60209081526040808320805460ff191660ff8881169182179092558452600c909252822080549091169161109c83611e10565b91906101000a81548160ff021916908360ff16021790555050336001600160a01b03167fee56d44878e148b464d0e758841b67cb6abdbe1eca1b8788bbc3edf4b2da6ea3846040516110f7919060ff91909116815260200190565b60405180910390a2505050565b5f8060045460ff16600681111561111d5761111d611ca8565b1461113a5760405162461bcd60e51b815260040161068b90611dc5565b60015460055461010090910460ff161161117f5760405162461bcd60e51b815260040161068b90602080825260049082015263199d5b1b60e21b604082015260600190565b335f9081526006602052604090205460ff16156111c75760405162461bcd60e51b81526020600482015260066024820152651a9bda5b995960d21b604482015260640161068b565b5f546001600160a01b031633036112135760405162461bcd60e51b815260206004820152601060248201526f3437b9ba1031b0b73737ba103537b4b760811b604482015260640161068b565b60025434146112555760405162461bcd60e51b815260206004820152600e60248201526d0e6e8c2d6ca40dad2e6dac2e8c6d60931b604482015260640161068b565b604080516060810182523381526001602082015260059181015f905281546001810183555f928352602092839020825191018054938301511515600160a01b026001600160a81b03199094166001600160a01b039092169190911792909217808355604082015191929190829060ff60a81b1916600160a81b8360048111156112e0576112e0611ca8565b0217905550506005545f91506112f890600190611edd565b9050611305816001611ef0565b335f908152600660205260409020805460ff191660ff9290921691909117905534156113425734600e5f82825461133c9190611f09565b90915550505b60405160ff8216815233907fd0eb1b69a7dd0e2a54c7f88607b1a7fdb2088d2b3685b36e3f5148b8f19f77579060200160405180910390a25050565b5f8060045460ff16600681111561139757611397611ca8565b146113b45760405162461bcd60e51b815260040161068b90611dc5565b5f546001600160a01b031633146113f95760405162461bcd60e51b81526020600482015260096024820152681bdb9b1e481a1bdcdd60ba1b604482015260640161068b565b60015460055460ff909116111561143c5760405162461bcd60e51b8152602060048201526007602482015266746f6f2066657760c81b604482015260640161068b565b6003546106fc9060019063ffffffff16611988565b60038060045460ff16600681111561146b5761146b611ca8565b146114885760405162461bcd60e51b815260040161068b90611dc5565b335f9081526006602052604090205460ff166114b65760405162461bcd60e51b815260040161068b90611e80565b335f908152600660205260409020546005906114d79060019060ff16611e67565b60ff16815481106114ea576114ea611de8565b5f91825260209091200154600160a01b900460ff1661151b5760405162461bcd60e51b815260040161068b90611ea4565b335f908152600660205260408120546115399060019060ff16611e67565b9050600160058260ff168154811061155357611553611de8565b5f91825260209091200154600160a81b900460ff16600481111561157957611579611ca8565b146115b15760405162461bcd60e51b81526020600482015260086024820152673737ba103bb7b63360c11b604482015260640161068b565b60055460ff8516106115f25760405162461bcd60e51b815260206004820152600a602482015269189859081d185c99d95d60b21b604482015260640161068b565b600454604080513060208201526101009092046001600160401b03169082015260ff85166060820152608081018490525f9060a00160408051601f198184030181529181528151602092830120335f9081526007909352912054909150811461168a5760405162461bcd60e51b815260206004820152600a602482015269189859081c995d99585b60b21b604482015260640161068b565b335f818152600860209081526040808320805460ff8b1660ff199182168117909255600a8452938290208054909416600117909355519182527f049103a491a4335733db53f518c83416ec87f30bef07e166fb97b19c4be972ef910160405180910390a25050505050565b60018060045460ff16600681111561170f5761170f611ca8565b1461172c5760405162461bcd60e51b815260040161068b90611dc5565b5f546001600160a01b031633146117715760405162461bcd60e51b81526020600482015260096024820152681bdb9b1e481a1bdcdd60ba1b604482015260640161068b565b6005548281146117b55760405162461bcd60e51b815260206004820152600f60248201526e0d8cadccee8d040dad2e6dac2e8c6d608b1b604482015260640161068b565b5f805b8281101561187e578585828181106117d2576117d2611de8565b90506020020160208101906117e79190611f1c565b600582815481106117fa576117fa611de8565b5f918252602090912001805460ff60a81b1916600160a81b83600481111561182457611824611ca8565b0217905550600186868381811061183d5761183d611de8565b90506020020160208101906118529190611f1c565b600481111561186357611863611ca8565b03611876578161187281611f3a565b9250505b6001016117b8565b5060015462010000900460ff1681146118d15760405162461bcd60e51b81526020600482015260156024820152740eeded8eccae640c6deeadce840dad2e6dac2e8c6d605b1b604482015260640161068b565b600d805463ffffffff191663ffffffff83169081179091556118f39083611f52565b600d805463ffffffff92909216600160201b0267ffffffff00000000199092169190911790556004805468ffffffffffffffff0019166101009081179182905560405191046001600160401b031681527f7c178a84a532dcf384b5f27f769236737bf60960e2f89ed77c47940adb9a1dc19060200160405180910390a1600354610c3e90600290600160201b900463ffffffff165b6004805483919060ff191660018360068111156119a7576119a7611ca8565b02179055506119bc63ffffffff821642611f09565b6004805470ffffffffffffffff0000000000000000001916600160481b6001600160401b03938416810291909117918290556040517fa168aaa8e825b21e98dcee38b892d4129112660726aba9d9565661c2d3f2bf7393611a2293879390041690611f76565b60405180910390a15050565b5f60058260ff1681548110611a4557611a45611de8565b5f9182526020909120018054911515600160a01b0260ff60a01b19909216919091179055600160058260ff1681548110611a8157611a81611de8565b5f91825260209091200154600160a81b900460ff166004811115611aa757611aa7611ca8565b03611af457600d5463ffffffff1615611aef57600d805463ffffffff16905f611acf83611f9a565b91906101000a81548163ffffffff021916908363ffffffff160217905550505b611b46565b600d54600160201b900463ffffffff1615611b4657600d8054600160201b900463ffffffff16906004611b2683611f9a565b91906101000a81548163ffffffff021916908363ffffffff160217905550505b60405160ff821681527fda9f09a62e6f9c4451ac1eb8a8036191bd92be66dde0e6732e3e9108ea18b8b09060200160405180910390a150565b600d545f9063ffffffff168103611bdb576004805460ff191660061790556040517f4df34531b3f238bc8f90ad83236d8c752e7444e434bb5fc99f888f0a6345c0e790611bcd905f90611faf565b60405180910390a150600190565b600d5463ffffffff600160201b82048116911610611c31576004805460ff191660061790556040517f4df34531b3f238bc8f90ad83236d8c752e7444e434bb5fc99f888f0a6345c0e790611bcd90600190611faf565b505f90565b5f60208284031215611c46575f80fd5b81356001600160a01b0381168114611c5c575f80fd5b9392505050565b803560ff81168114611c73575f80fd5b919050565b5f60208284031215611c88575f80fd5b611c5c82611c63565b5f60208284031215611ca1575f80fd5b5035919050565b634e487b7160e01b5f52602160045260245ffd5b60058110611ccc57611ccc611ca8565b9052565b6001600160a01b0384168152821515602082015260608101611cf56040830184611cbc565b949350505050565b60208101611d0b8284611cbc565b92915050565b60078110611ccc57611ccc611ca8565b60208101611d0b8284611d11565b5f8060408385031215611d40575f80fd5b611d4983611c63565b946020939093013593505050565b5f8060208385031215611d68575f80fd5b82356001600160401b0380821115611d7e575f80fd5b818501915085601f830112611d91575f80fd5b813581811115611d9f575f80fd5b8660208260051b8501011115611db3575f80fd5b60209290920196919550909350505050565b60208082526009908201526862616420706861736560b81b604082015260600190565b634e487b7160e01b5f52603260045260245ffd5b634e487b7160e01b5f52601160045260245ffd5b5f60ff821660ff8103611e2557611e25611dfc565b60010192915050565b5f6001600160401b03808316818103611e4957611e49611dfc565b6001019392505050565b634e487b7160e01b5f52604160045260245ffd5b60ff8281168282160390811115611d0b57611d0b611dfc565b6020808252600a90820152691b9bdd081a9bda5b995960b21b604082015260600190565b6020808252600490820152631919585960e21b604082015260600190565b5f60ff821680611ed457611ed4611dfc565b5f190192915050565b81810381811115611d0b57611d0b611dfc565b60ff8181168382160190811115611d0b57611d0b611dfc565b80820180821115611d0b57611d0b611dfc565b5f60208284031215611f2c575f80fd5b813560058110611c5c575f80fd5b5f60018201611f4b57611f4b611dfc565b5060010190565b63ffffffff828116828216039080821115611f6f57611f6f611dfc565b5092915050565b60408101611f848285611d11565b6001600160401b03831660208301529392505050565b5f63ffffffff821680611ed457611ed4611dfc565b6020810160028310611fc357611fc3611ca8565b9190529056fea26469706673582212209895c5388030fff93ae4ac3bc16d910d82742c1c4c34e779f1210424e6d73d7164736f6c63430008180033a26469706673582212203e11707fb7391887fa83c6ef29c62bb4dfb1659630734f4989805bdb59e091e664736f6c63430008180033a2646970667358221220640750bacdf105f6a1387719e30f7d71b3b7fa84a6bf7faaf0c117540e91b75164736f6c63430008180033",
			"opcodes": "PUSH1 0x80 PUSH1 0x40 MSTORE CALLVALUE DUP1 ISZERO PUSH2 0xF JUMPI PUSH0 DUP1 REVERT JUMPDEST POP PUSH2 0x7282 DUP1 PUSH3 0x1E PUSH0 CODECOPY PUSH0 RETURN INVALID PUSH1 0x80 PUSH1 0x40 MSTORE CALLVALUE DUP1 ISZERO PUSH3 0x10 JUMPI PUSH0 DUP1 REVERT JUMPDEST POP PUSH1 0x4 CALLDATASIZE LT PUSH3 0xB4 JUMPI PUSH0 CALLDATALOAD PUSH1 0xE0 SHR DUP1 PUSH4 0x7DC31BBF GT PUSH3 0x77 JUMPI DUP1 PUSH4 0x7DC31BBF EQ PUSH3 0xEC JUMPI DUP1 PUSH4 0x7FEA0D4B EQ PUSH3 0xF6 JUMPI DUP1 PUSH4 0x8C103E73 EQ PUSH3 0x100 JUMPI DUP1 PUSH4 0x8F7A043E EQ PUSH3 0x10A JUMPI DUP1 PUSH4 0x9EB2B5B2 EQ PUSH3 0x114 JUMPI DUP1 PUSH4 0xA2D79FB8 EQ PUSH3 0x11E JUMPI PUSH0 DUP1 REVERT JUMPDEST DUP1 PUSH4 0x2A115A79 EQ PUSH3 0xB8 JUMPI DUP1 PUSH4 0x2B85A0F2 EQ PUSH3 0xC4 JUMPI DUP1 PUSH4 0x5336EBE7 EQ PUSH3 0xCE JUMPI DUP1 PUSH4 0x56B85A5B EQ PUSH3 0xD8 JUMPI DUP1 PUSH4 0x60A7AD18 EQ PUSH3 0xE2 JUMPI JUMPDEST PUSH0 DUP1 REVERT JUMPDEST PUSH3 0xC2 PUSH3 0x128 JUMP JUMPDEST STOP JUMPDEST PUSH3 0xC2 PUSH3 0x1014 JUMP JUMPDEST PUSH3 0xC2 PUSH3 0x127E JUMP JUMPDEST PUSH3 0xC2 PUSH3 0x14EA JUMP JUMPDEST PUSH3 0xC2 PUSH3 0x1E88 JUMP JUMPDEST PUSH3 0xC2 PUSH3 0x2F7A JUMP JUMPDEST PUSH3 0xC2 PUSH3 0x30FD JUMP JUMPDEST PUSH3 0xC2 PUSH3 0x3151 JUMP JUMPDEST PUSH3 0xC2 PUSH3 0x360D JUMP JUMPDEST PUSH3 0xC2 PUSH3 0x3BA7 JUMP JUMPDEST PUSH3 0xC2 PUSH3 0x408E JUMP JUMPDEST PUSH1 0x40 DUP1 MLOAD PUSH2 0x100 DUP2 ADD DUP3 MSTORE PUSH1 0x3 DUP2 MSTORE PUSH1 0x5 PUSH1 0x20 DUP3 ADD MSTORE PUSH1 0x1 DUP2 DUP4 ADD DUP2 SWAP1 MSTORE PUSH0 PUSH1 0x60 DUP4 ADD DUP2 SWAP1 MSTORE PUSH1 0x80 DUP4 ADD DUP3 SWAP1 MSTORE PUSH1 0xA0 DUP4 ADD DUP3 SWAP1 MSTORE PUSH1 0xC0 DUP4 ADD DUP3 SWAP1 MSTORE PUSH1 0xE0 DUP4 ADD SWAP2 SWAP1 SWAP2 MSTORE DUP1 SLOAD SWAP3 MLOAD PUSH4 0x7DBF5FB PUSH1 0xE1 SHL DUP2 MSTORE SWAP2 SWAP3 SWAP1 SWAP2 PUSH1 0x1 PUSH1 0x1 PUSH1 0xA0 SHL SUB SWAP1 SWAP2 AND SWAP1 PUSH4 0xFB7EBF6 SWAP1 PUSH3 0x19F SWAP1 DUP6 SWAP1 PUSH1 0x4 ADD PUSH3 0x43FD JUMP JUMPDEST PUSH1 0x20 PUSH1 0x40 MLOAD DUP1 DUP4 SUB DUP2 PUSH0 DUP8 GAS CALL ISZERO DUP1 ISZERO PUSH3 0x1BC JUMPI RETURNDATASIZE PUSH0 DUP1 RETURNDATACOPY RETURNDATASIZE PUSH0 REVERT JUMPDEST POP POP POP POP PUSH1 0x40 MLOAD RETURNDATASIZE PUSH1 0x1F NOT PUSH1 0x1F DUP3 ADD AND DUP3 ADD DUP1 PUSH1 0x40 MSTORE POP DUP2 ADD SWAP1 PUSH3 0x1E2 SWAP2 SWAP1 PUSH3 0x44A4 JUMP JUMPDEST SWAP1 POP PUSH0 DUP2 PUSH1 0x40 MLOAD PUSH3 0x1F4 SWAP1 PUSH3 0x43E1 JUMP JUMPDEST PUSH1 0x1 PUSH1 0x1 PUSH1 0xA0 SHL SUB SWAP1 SWAP2 AND DUP2 MSTORE PUSH1 0x20 ADD PUSH1 0x40 MLOAD DUP1 SWAP2 SUB SWAP1 PUSH0 CREATE DUP1 ISZERO DUP1 ISZERO PUSH3 0x21E JUMPI RETURNDATASIZE PUSH0 DUP1 RETURNDATACOPY RETURNDATASIZE PUSH0 REVERT JUMPDEST POP SWAP1 POP PUSH0 DUP3 PUSH1 0x40 MLOAD PUSH3 0x231 SWAP1 PUSH3 0x43E1 JUMP JUMPDEST PUSH1 0x1 PUSH1 0x1 PUSH1 0xA0 SHL SUB SWAP1 SWAP2 AND DUP2 MSTORE PUSH1 0x20 ADD PUSH1 0x40 MLOAD DUP1 SWAP2 SUB SWAP1 PUSH0 CREATE DUP1 ISZERO DUP1 ISZERO PUSH3 0x25B JUMPI RETURNDATASIZE PUSH0 DUP1 RETURNDATACOPY RETURNDATASIZE PUSH0 REVERT JUMPDEST POP SWAP1 POP PUSH0 DUP4 PUSH1 0x40 MLOAD PUSH3 0x26E SWAP1 PUSH3 0x43E1 JUMP JUMPDEST PUSH1 0x1 PUSH1 0x1 PUSH1 0xA0 SHL SUB SWAP1 SWAP2 AND DUP2 MSTORE PUSH1 0x20 ADD PUSH1 0x40 MLOAD DUP1 SWAP2 SUB SWAP1 PUSH0 CREATE DUP1 ISZERO DUP1 ISZERO PUSH3 0x298 JUMPI RETURNDATASIZE PUSH0 DUP1 RETURNDATACOPY RETURNDATASIZE PUSH0 REVERT JUMPDEST POP PUSH1 0x40 MLOAD PUSH4 0x77D52AD PUSH1 0xE5 SHL DUP2 MSTORE PUSH0 PUSH1 0x4 DUP3 ADD MSTORE SWAP1 SWAP2 POP PUSH1 0x1 PUSH1 0x1 PUSH1 0xA0 SHL SUB DUP5 AND SWAP1 PUSH4 0xEFAA55A0 SWAP1 PUSH1 0x24 ADD PUSH0 PUSH1 0x40 MLOAD DUP1 DUP4 SUB DUP2 PUSH0 DUP8 DUP1 EXTCODESIZE ISZERO DUP1 ISZERO PUSH3 0x2DB JUMPI PUSH0 DUP1 REVERT JUMPDEST POP GAS CALL ISZERO DUP1 ISZERO PUSH3 0x2EE JUMPI RETURNDATASIZE PUSH0 DUP1 RETURNDATACOPY RETURNDATASIZE PUSH0 REVERT JUMPDEST POP POP PUSH1 0x40 MLOAD PUSH4 0x77D52AD PUSH1 0xE5 SHL DUP2 MSTORE PUSH0 PUSH1 0x4 DUP3 ADD MSTORE PUSH1 0x1 PUSH1 0x1 PUSH1 0xA0 SHL SUB DUP6 AND SWAP3 POP PUSH4 0xEFAA55A0 SWAP2 POP PUSH1 0x24 ADD PUSH0 PUSH1 0x40 MLOAD DUP1 DUP4 SUB DUP2 PUSH0 DUP8 DUP1 EXTCODESIZE ISZERO DUP1 ISZERO PUSH3 0x331 JUMPI PUSH0 DUP1 REVERT JUMPDEST POP GAS CALL ISZERO DUP1 ISZERO PUSH3 0x344 JUMPI RETURNDATASIZE PUSH0 DUP1 RETURNDATACOPY RETURNDATASIZE PUSH0 REVERT JUMPDEST POP POP PUSH1 0x40 MLOAD PUSH4 0x77D52AD PUSH1 0xE5 SHL DUP2 MSTORE PUSH0 PUSH1 0x4 DUP3 ADD MSTORE PUSH1 0x1 PUSH1 0x1 PUSH1 0xA0 SHL SUB DUP5 AND SWAP3 POP PUSH4 0xEFAA55A0 SWAP2 POP PUSH1 0x24 ADD PUSH0 PUSH1 0x40 MLOAD DUP1 DUP4 SUB DUP2 PUSH0 DUP8 DUP1 EXTCODESIZE ISZERO DUP1 ISZERO PUSH3 0x387 JUMPI PUSH0 DUP1 REVERT JUMPDEST POP GAS CALL ISZERO DUP1 ISZERO PUSH3 0x39A JUMPI RETURNDATASIZE PUSH0 DUP1 RETURNDATACOPY RETURNDATASIZE PUSH0 REVERT JUMPDEST POP POP POP POP DUP4 PUSH1 0x1 PUSH1 0x1 PUSH1 0xA0 SHL SUB AND PUSH4 0xBE9A6555 PUSH1 0x40 MLOAD DUP2 PUSH4 0xFFFFFFFF AND PUSH1 0xE0 SHL DUP2 MSTORE PUSH1 0x4 ADD PUSH0 PUSH1 0x40 MLOAD DUP1 DUP4 SUB DUP2 PUSH0 DUP8 DUP1 EXTCODESIZE ISZERO DUP1 ISZERO PUSH3 0x3D7 JUMPI PUSH0 DUP1 REVERT JUMPDEST POP GAS CALL ISZERO DUP1 ISZERO PUSH3 0x3EA JUMPI RETURNDATASIZE PUSH0 DUP1 RETURNDATACOPY RETURNDATASIZE PUSH0 REVERT JUMPDEST POP PUSH0 SWAP3 POP PUSH1 0x3 SWAP2 POP PUSH3 0x3FA SWAP1 POP JUMP JUMPDEST PUSH1 0x40 MLOAD SWAP1 DUP1 DUP3 MSTORE DUP1 PUSH1 0x20 MUL PUSH1 0x20 ADD DUP3 ADD PUSH1 0x40 MSTORE DUP1 ISZERO PUSH3 0x424 JUMPI DUP2 PUSH1 0x20 ADD PUSH1 0x20 DUP3 MUL DUP1 CALLDATASIZE DUP4 CALLDATACOPY ADD SWAP1 POP JUMPDEST POP SWAP1 POP PUSH0 DUP2 PUSH0 DUP2 MLOAD DUP2 LT PUSH3 0x43D JUMPI PUSH3 0x43D PUSH3 0x44C7 JUMP JUMPDEST PUSH1 0x20 MUL PUSH1 0x20 ADD ADD SWAP1 PUSH1 0x4 DUP2 GT ISZERO PUSH3 0x459 JUMPI PUSH3 0x459 PUSH3 0x44DB JUMP JUMPDEST SWAP1 DUP2 PUSH1 0x4 DUP2 GT ISZERO PUSH3 0x46F JUMPI PUSH3 0x46F PUSH3 0x44DB JUMP JUMPDEST DUP2 MSTORE POP POP PUSH1 0x1 DUP2 PUSH1 0x1 DUP2 MLOAD DUP2 LT PUSH3 0x48B JUMPI PUSH3 0x48B PUSH3 0x44C7 JUMP JUMPDEST PUSH1 0x20 MUL PUSH1 0x20 ADD ADD SWAP1 PUSH1 0x4 DUP2 GT ISZERO PUSH3 0x4A7 JUMPI PUSH3 0x4A7 PUSH3 0x44DB JUMP JUMPDEST SWAP1 DUP2 PUSH1 0x4 DUP2 GT ISZERO PUSH3 0x4BD JUMPI PUSH3 0x4BD PUSH3 0x44DB JUMP JUMPDEST DUP2 MSTORE POP POP PUSH0 DUP2 PUSH1 0x2 DUP2 MLOAD DUP2 LT PUSH3 0x4D8 JUMPI PUSH3 0x4D8 PUSH3 0x44C7 JUMP JUMPDEST PUSH1 0x20 MUL PUSH1 0x20 ADD ADD SWAP1 PUSH1 0x4 DUP2 GT ISZERO PUSH3 0x4F4 JUMPI PUSH3 0x4F4 PUSH3 0x44DB JUMP JUMPDEST SWAP1 DUP2 PUSH1 0x4 DUP2 GT ISZERO PUSH3 0x50A JUMPI PUSH3 0x50A PUSH3 0x44DB JUMP JUMPDEST SWAP1 MSTORE POP PUSH1 0x40 MLOAD PUSH4 0x71B9D3EF PUSH1 0xE1 SHL DUP2 MSTORE PUSH1 0x1 PUSH1 0x1 PUSH1 0xA0 SHL SUB DUP7 AND SWAP1 PUSH4 0xE373A7DE SWAP1 PUSH3 0x53B SWAP1 DUP5 SWAP1 PUSH1 0x4 ADD PUSH3 0x44EF JUMP JUMPDEST PUSH0 PUSH1 0x40 MLOAD DUP1 DUP4 SUB DUP2 PUSH0 DUP8 DUP1 EXTCODESIZE ISZERO DUP1 ISZERO PUSH3 0x553 JUMPI PUSH0 DUP1 REVERT JUMPDEST POP GAS CALL ISZERO DUP1 ISZERO PUSH3 0x566 JUMPI RETURNDATASIZE PUSH0 DUP1 RETURNDATACOPY RETURNDATASIZE PUSH0 REVERT JUMPDEST POP POP POP POP PUSH20 0x0 PUSH4 0xABCD7960 DUP7 PUSH1 0x1 PUSH1 0x1 PUSH1 0xA0 SHL SUB AND PUSH4 0x581FE69A PUSH1 0x40 MLOAD DUP2 PUSH4 0xFFFFFFFF AND PUSH1 0xE0 SHL DUP2 MSTORE PUSH1 0x4 ADD PUSH1 0x20 PUSH1 0x40 MLOAD DUP1 DUP4 SUB DUP2 DUP7 GAS STATICCALL ISZERO DUP1 ISZERO PUSH3 0x5C1 JUMPI RETURNDATASIZE PUSH0 DUP1 RETURNDATACOPY RETURNDATASIZE PUSH0 REVERT JUMPDEST POP POP POP POP PUSH1 0x40 MLOAD RETURNDATASIZE PUSH1 0x1F NOT PUSH1 0x1F DUP3 ADD AND DUP3 ADD DUP1 PUSH1 0x40 MSTORE POP DUP2 ADD SWAP1 PUSH3 0x5E7 SWAP2 SWAP1 PUSH3 0x4551 JUMP JUMPDEST PUSH1 0x40 MLOAD PUSH1 0x1 PUSH1 0x1 PUSH1 0xE0 SHL SUB NOT PUSH1 0xE0 DUP5 SWAP1 SHL AND DUP2 MSTORE PUSH4 0xFFFFFFFF SWAP2 SWAP1 SWAP2 AND PUSH1 0x4 DUP3 ADD MSTORE PUSH1 0x1 PUSH1 0x24 DUP3 ADD MSTORE PUSH1 0x60 PUSH1 0x44 DUP3 ADD MSTORE PUSH1 0xC PUSH1 0x64 DUP3 ADD MSTORE PUSH12 0x189030B634BB32903BB7B633 PUSH1 0xA1 SHL PUSH1 0x84 DUP3 ADD MSTORE PUSH1 0xA4 ADD PUSH1 0x20 PUSH1 0x40 MLOAD DUP1 DUP4 SUB DUP2 DUP7 GAS DELEGATECALL ISZERO DUP1 ISZERO PUSH3 0x652 JUMPI RETURNDATASIZE PUSH0 DUP1 RETURNDATACOPY RETURNDATASIZE PUSH0 REVERT JUMPDEST POP POP POP POP PUSH1 0x40 MLOAD RETURNDATASIZE PUSH1 0x1F NOT PUSH1 0x1F DUP3 ADD AND DUP3 ADD DUP1 PUSH1 0x40 MSTORE POP DUP2 ADD SWAP1 PUSH3 0x678 SWAP2 SWAP1 PUSH3 0x4586 JUMP JUMPDEST POP PUSH20 0x0 PUSH4 0xABCD7960 DUP7 PUSH1 0x1 PUSH1 0x1 PUSH1 0xA0 SHL SUB AND PUSH4 0x8C1D85D8 PUSH1 0x40 MLOAD DUP2 PUSH4 0xFFFFFFFF AND PUSH1 0xE0 SHL DUP2 MSTORE PUSH1 0x4 ADD PUSH1 0x20 PUSH1 0x40 MLOAD DUP1 DUP4 SUB DUP2 DUP7 GAS STATICCALL ISZERO DUP1 ISZERO PUSH3 0x6D0 JUMPI RETURNDATASIZE PUSH0 DUP1 RETURNDATACOPY RETURNDATASIZE PUSH0 REVERT JUMPDEST POP POP POP POP PUSH1 0x40 MLOAD RETURNDATASIZE PUSH1 0x1F NOT PUSH1 0x1F DUP3 ADD AND DUP3 ADD DUP1 PUSH1 0x40 MSTORE POP DUP2 ADD SWAP1 PUSH3 0x6F6 SWAP2 SWAP1 PUSH3 0x4551 JUMP JUMPDEST PUSH1 0x40 MLOAD PUSH1 0x1 PUSH1 0x1 PUSH1 0xE0 SHL SUB NOT PUSH1 0xE0 DUP5 SWAP1 SHL AND DUP2 MSTORE PUSH4 0xFFFFFFFF SWAP2 SWAP1 SWAP2 AND PUSH1 0x4 DUP3 ADD MSTORE PUSH1 0x2 PUSH1 0x24 DUP3 ADD MSTORE PUSH1 0x60 PUSH1 0x44 DUP3 ADD MSTORE PUSH1 0x12 PUSH1 0x64 DUP3 ADD MSTORE PUSH18 0x3220616C697665206E6F6E2D776F6C766573 PUSH1 0x70 SHL PUSH1 0x84 DUP3 ADD MSTORE PUSH1 0xA4 ADD PUSH1 0x20 PUSH1 0x40 MLOAD DUP1 DUP4 SUB DUP2 DUP7 GAS DELEGATECALL ISZERO DUP1 ISZERO PUSH3 0x767 JUMPI RETURNDATASIZE PUSH0 DUP1 RETURNDATACOPY RETURNDATASIZE PUSH0 REVERT JUMPDEST POP POP POP POP PUSH1 0x40 MLOAD RETURNDATASIZE PUSH1 0x1F NOT PUSH1 0x1F DUP3 ADD AND DUP3 ADD DUP1 PUSH1 0x40 MSTORE POP DUP2 ADD SWAP1 PUSH3 0x78D SWAP2 SWAP1 PUSH3 0x4586 JUMP JUMPDEST POP PUSH0 DUP1 PUSH32 0xFC02697F14B6DA73CB061E579B6BC23E4634EF6B9E3E2A98B5CF29B11EEBB3C0 SWAP1 POP PUSH0 DUP8 PUSH1 0x1 DUP5 DUP5 PUSH1 0x40 MLOAD PUSH1 0x20 ADD PUSH3 0x7CE SWAP5 SWAP4 SWAP3 SWAP2 SWAP1 PUSH3 0x45A2 JUMP JUMPDEST PUSH1 0x40 DUP1 MLOAD DUP1 DUP4 SUB PUSH1 0x1F NOT ADD DUP2 MSTORE SWAP1 DUP3 SWAP1 MSTORE DUP1 MLOAD PUSH1 0x20 SWAP1 SWAP2 ADD KECCAK256 PUSH4 0x1E29F979 PUSH1 0xE3 SHL DUP3 MSTORE PUSH1 0x4 DUP3 ADD DUP2 SWAP1 MSTORE SWAP2 POP PUSH1 0x1 PUSH1 0x1 PUSH1 0xA0 SHL SUB DUP8 AND SWAP1 PUSH4 0xF14FCBC8 SWAP1 PUSH1 0x24 ADD PUSH0 PUSH1 0x40 MLOAD DUP1 DUP4 SUB DUP2 PUSH0 DUP8 DUP1 EXTCODESIZE ISZERO DUP1 ISZERO PUSH3 0x826 JUMPI PUSH0 DUP1 REVERT JUMPDEST POP GAS CALL ISZERO DUP1 ISZERO PUSH3 0x839 JUMPI RETURNDATASIZE PUSH0 DUP1 RETURNDATACOPY RETURNDATASIZE PUSH0 REVERT JUMPDEST POP POP POP POP DUP8 PUSH1 0x1 PUSH1 0x1 PUSH1 0xA0 SHL SUB AND PUSH4 0x17E6FCEF PUSH1 0x40 MLOAD DUP2 PUSH4 0xFFFFFFFF AND PUSH1 0xE0 SHL DUP2 MSTORE PUSH1 0x4 ADD PUSH0 PUSH1 0x40 MLOAD DUP1 DUP4 SUB DUP2 PUSH0 DUP8 DUP1 EXTCODESIZE ISZERO DUP1 ISZERO PUSH3 0x876 JUMPI PUSH0 DUP1 REVERT JUMPDEST POP GAS CALL ISZERO DUP1 ISZERO PUSH3 0x889 JUMPI RETURNDATASIZE PUSH0 DUP1 RETURNDATACOPY RETURNDATASIZE PUSH0 REVERT JUMPDEST POP POP PUSH1 0x40 MLOAD PUSH4 0x1FE45703 PUSH1 0xE1 SHL DUP2 MSTORE PUSH1 0xFF DUP7 AND PUSH1 0x4 DUP3 ADD MSTORE PUSH1 0x24 DUP2 ADD DUP6 SWAP1 MSTORE PUSH1 0x1 PUSH1 0x1 PUSH1 0xA0 SHL SUB DUP10 AND SWAP3 POP PUSH4 0x3FC8AE06 SWAP2 POP PUSH1 0x44 ADD PUSH0 PUSH1 0x40 MLOAD DUP1 DUP4 SUB DUP2 PUSH0 DUP8 DUP1 EXTCODESIZE ISZERO DUP1 ISZERO PUSH3 0x8D6 JUMPI PUSH0 DUP1 REVERT JUMPDEST POP GAS CALL ISZERO DUP1 ISZERO PUSH3 0x8E9 JUMPI RETURNDATASIZE PUSH0 DUP1 RETURNDATACOPY RETURNDATASIZE PUSH0 REVERT JUMPDEST POP POP POP POP DUP8 PUSH1 0x1 PUSH1 0x1 PUSH1 0xA0 SHL SUB AND PUSH4 0x59B7E6AD PUSH1 0x40 MLOAD DUP2 PUSH4 0xFFFFFFFF AND PUSH1 0xE0 SHL DUP2 MSTORE PUSH1 0x4 ADD PUSH0 PUSH1 0x40 MLOAD DUP1 DUP4 SUB DUP2 PUSH0 DUP8 DUP1 EXTCODESIZE ISZERO DUP1 ISZERO PUSH3 0x926 JUMPI PUSH0 DUP1 REVERT JUMPDEST POP GAS CALL ISZERO DUP1 ISZERO PUSH3 0x939 JUMPI RETURNDATASIZE PUSH0 DUP1 RETURNDATACOPY RETURNDATASIZE PUSH0 REVERT JUMPDEST POP POP POP POP DUP8 PUSH1 0x1 PUSH1 0x1 PUSH1 0xA0 SHL SUB AND PUSH4 0x61DC4610 PUSH1 0x40 MLOAD DUP2 PUSH4 0xFFFFFFFF AND PUSH1 0xE0 SHL DUP2 MSTORE PUSH1 0x4 ADD PUSH0 PUSH1 0x40 MLOAD DUP1 DUP4 SUB DUP2 PUSH0 DUP8 DUP1 EXTCODESIZE ISZERO DUP1 ISZERO PUSH3 0x976 JUMPI PUSH0 DUP1 REVERT JUMPDEST POP GAS CALL ISZERO DUP1 ISZERO PUSH3 0x989 JUMPI RETURNDATASIZE PUSH0 DUP1 RETURNDATACOPY RETURNDATASIZE PUSH0 REVERT JUMPDEST POP POP PUSH1 0x40 MLOAD PUSH4 0x1D99E381 PUSH1 0xE1 SHL DUP2 MSTORE PUSH0 PUSH1 0x4 DUP3 ADD DUP2 SWAP1 MSTORE SWAP3 POP PUSH1 0x1 PUSH1 0x1 PUSH1 0xA0 SHL SUB DUP12 AND SWAP2 POP PUSH4 0x3B33C702 SWAP1 PUSH1 0x24 ADD PUSH1 0x60 PUSH1 0x40 MLOAD DUP1 DUP4 SUB DUP2 DUP7 GAS STATICCALL ISZERO DUP1 ISZERO PUSH3 0x9D3 JUMPI RETURNDATASIZE PUSH0 DUP1 RETURNDATACOPY RETURNDATASIZE PUSH0 REVERT JUMPDEST POP POP POP POP PUSH1 0x40 MLOAD RETURNDATASIZE PUSH1 0x1F NOT PUSH1 0x1F DUP3 ADD AND DUP3 ADD DUP1 PUSH1 0x40 MSTORE POP DUP2 ADD SWAP1 PUSH3 0x9F9 SWAP2 SWAP1 PUSH3 0x45DB JUMP JUMPDEST POP PUSH1 0x40 MLOAD PUSH4 0x767392B3 PUSH1 0xE0 SHL DUP2 MSTORE SWAP1 SWAP3 POP PUSH20 0x0 SWAP2 POP PUSH4 0x767392B3 SWAP1 PUSH3 0xA39 SWAP1 DUP5 SWAP1 PUSH0 SWAP1 PUSH1 0x4 ADD PUSH3 0x4622 JUMP JUMPDEST PUSH1 0x20 PUSH1 0x40 MLOAD DUP1 DUP4 SUB DUP2 DUP7 GAS DELEGATECALL ISZERO DUP1 ISZERO PUSH3 0xA55 JUMPI RETURNDATASIZE PUSH0 DUP1 RETURNDATACOPY RETURNDATASIZE PUSH0 REVERT JUMPDEST POP POP POP POP PUSH1 0x40 MLOAD RETURNDATASIZE PUSH1 0x1F NOT PUSH1 0x1F DUP3 ADD AND DUP3 ADD DUP1 PUSH1 0x40 MSTORE POP DUP2 ADD SWAP1 PUSH3 0xA7B SWAP2 SWAP1 PUSH3 0x4586 JUMP JUMPDEST POP PUSH20 0x0 PUSH4 0xABCD7960 DUP11 PUSH1 0x1 PUSH1 0x1 PUSH1 0xA0 SHL SUB AND PUSH4 0xB1C9FE6E PUSH1 0x40 MLOAD DUP2 PUSH4 0xFFFFFFFF AND PUSH1 0xE0 SHL DUP2 MSTORE PUSH1 0x4 ADD PUSH1 0x20 PUSH1 0x40 MLOAD DUP1 DUP4 SUB DUP2 DUP7 GAS STATICCALL ISZERO DUP1 ISZERO PUSH3 0xAD3 JUMPI RETURNDATASIZE PUSH0 DUP1 RETURNDATACOPY RETURNDATASIZE PUSH0 REVERT JUMPDEST POP POP POP POP PUSH1 0x40 MLOAD RETURNDATASIZE PUSH1 0x1F NOT PUSH1 0x1F DUP3 ADD AND DUP3 ADD DUP1 PUSH1 0x40 MSTORE POP DUP2 ADD SWAP1 PUSH3 0xAF9 SWAP2 SWAP1 PUSH3 0x465F JUMP JUMPDEST PUSH1 0x6 DUP2 GT ISZERO PUSH3 0xB0D JUMPI PUSH3 0xB0D PUSH3 0x44DB JUMP JUMPDEST PUSH1 0x5 PUSH1 0x40 MLOAD PUSH1 0x1 PUSH1 0x1 PUSH1 0xE0 SHL SUB NOT PUSH1 0xE0 DUP6 SWAP1 SHL AND DUP2 MSTORE PUSH1 0x4 DUP2 ADD SWAP3 SWAP1 SWAP3 MSTORE PUSH1 0x24 DUP3 ADD MSTORE PUSH1 0x60 PUSH1 0x44 DUP3 ADD MSTORE PUSH1 0x10 PUSH1 0x64 DUP3 ADD MSTORE PUSH16 0x5068617365203D3D20446179566F7465 PUSH1 0x80 SHL PUSH1 0x84 DUP3 ADD MSTORE PUSH1 0xA4 ADD PUSH1 0x20 PUSH1 0x40 MLOAD DUP1 DUP4 SUB DUP2 DUP7 GAS DELEGATECALL ISZERO DUP1 ISZERO PUSH3 0xB76 JUMPI RETURNDATASIZE PUSH0 DUP1 RETURNDATACOPY RETURNDATASIZE PUSH0 REVERT JUMPDEST POP POP POP POP PUSH1 0x40 MLOAD RETURNDATASIZE PUSH1 0x1F NOT PUSH1 0x1F DUP3 ADD AND DUP3 ADD DUP1 PUSH1 0x40 MSTORE POP DUP2 ADD SWAP1 PUSH3 0xB9C SWAP2 SWAP1 PUSH3 0x4586 JUMP JUMPDEST POP PUSH1 0x40 MLOAD PUSH4 0x2CFE62B7 PUSH1 0xE2 SHL DUP2 MSTORE PUSH1 0x1 PUSH1 0x4 DUP3 ADD MSTORE PUSH1 0x1 PUSH1 0x1 PUSH1 0xA0 SHL SUB DUP8 AND SWAP1 PUSH4 0xB3F98ADC SWAP1 PUSH1 0x24 ADD PUSH0 PUSH1 0x40 MLOAD DUP1 DUP4 SUB DUP2 PUSH0 DUP8 DUP1 EXTCODESIZE ISZERO DUP1 ISZERO PUSH3 0xBDD JUMPI PUSH0 DUP1 REVERT JUMPDEST POP GAS CALL ISZERO DUP1 ISZERO PUSH3 0xBF0 JUMPI RETURNDATASIZE PUSH0 DUP1 RETURNDATACOPY RETURNDATASIZE PUSH0 REVERT JUMPDEST POP POP PUSH1 0x40 MLOAD PUSH4 0x2CFE62B7 PUSH1 0xE2 SHL DUP2 MSTORE PUSH1 0x2 PUSH1 0x4 DUP3 ADD MSTORE PUSH1 0x1 PUSH1 0x1 PUSH1 0xA0 SHL SUB DUP11 AND SWAP3 POP PUSH4 0xB3F98ADC SWAP2 POP PUSH1 0x24 ADD PUSH0 PUSH1 0x40 MLOAD DUP1 DUP4 SUB DUP2 PUSH0 DUP8 DUP1 EXTCODESIZE ISZERO DUP1 ISZERO PUSH3 0xC34 JUMPI PUSH0 DUP1 REVERT JUMPDEST POP GAS CALL ISZERO DUP1 ISZERO PUSH3 0xC47 JUMPI RETURNDATASIZE PUSH0 DUP1 RETURNDATACOPY RETURNDATASIZE PUSH0 REVERT JUMPDEST POP POP POP POP DUP9 PUSH1 0x1 PUSH1 0x1 PUSH1 0xA0 SHL SUB AND PUSH4 0x413D0956 PUSH1 0x40 MLOAD DUP2 PUSH4 0xFFFFFFFF AND PUSH1 0xE0 SHL DUP2 MSTORE PUSH1 0x4 ADD PUSH0 PUSH1 0x40 MLOAD DUP1 DUP4 SUB DUP2 PUSH0 DUP8 DUP1 EXTCODESIZE ISZERO DUP1 ISZERO PUSH3 0xC84 JUMPI PUSH0 DUP1 REVERT JUMPDEST POP GAS CALL ISZERO DUP1 ISZERO PUSH3 0xC97 JUMPI RETURNDATASIZE PUSH0 DUP1 RETURNDATACOPY RETURNDATASIZE PUSH0 REVERT JUMPDEST POP POP PUSH1 0x40 MLOAD PUSH4 0x1D99E381 PUSH1 0xE1 SHL DUP2 MSTORE PUSH1 0x1 PUSH1 0x4 DUP3 ADD MSTORE PUSH0 SWAP3 POP PUSH1 0x1 PUSH1 0x1 PUSH1 0xA0 SHL SUB DUP13 AND SWAP2 POP PUSH4 0x3B33C702 SWAP1 PUSH1 0x24 ADD PUSH1 0x60 PUSH1 0x40 MLOAD DUP1 DUP4 SUB DUP2 DUP7 GAS STATICCALL ISZERO DUP1 ISZERO PUSH3 0xCE1 JUMPI RETURNDATASIZE PUSH0 DUP1 RETURNDATACOPY RETURNDATASIZE PUSH0 REVERT JUMPDEST POP POP POP POP PUSH1 0x40 MLOAD RETURNDATASIZE PUSH1 0x1F NOT PUSH1 0x1F DUP3 ADD AND DUP3 ADD DUP1 PUSH1 0x40 MSTORE POP DUP2 ADD SWAP1 PUSH3 0xD07 SWAP2 SWAP1 PUSH3 0x45DB JUMP JUMPDEST POP PUSH1 0x40 MLOAD PUSH4 0x767392B3 PUSH1 0xE0 SHL DUP2 MSTORE DUP2 ISZERO ISZERO PUSH1 0x4 DUP3 ADD MSTORE PUSH0 PUSH1 0x24 DUP3 ADD MSTORE PUSH1 0x60 PUSH1 0x44 DUP3 ADD MSTORE PUSH1 0x2A PUSH1 0x64 DUP3 ADD MSTORE PUSH32 0x50322028536561742031292073686F756C642062652065786563757465642028 PUSH1 0x84 DUP3 ADD MSTORE PUSH10 0x7469652D627265616B29 PUSH1 0xB0 SHL PUSH1 0xA4 DUP3 ADD MSTORE SWAP1 SWAP3 POP PUSH20 0x0 SWAP2 POP PUSH4 0x767392B3 SWAP1 PUSH1 0xC4 ADD PUSH1 0x20 PUSH1 0x40 MLOAD DUP1 DUP4 SUB DUP2 DUP7 GAS DELEGATECALL ISZERO DUP1 ISZERO PUSH3 0xDA9 JUMPI RETURNDATASIZE PUSH0 DUP1 RETURNDATACOPY RETURNDATASIZE PUSH0 REVERT JUMPDEST POP POP POP POP PUSH1 0x40 MLOAD RETURNDATASIZE PUSH1 0x1F NOT PUSH1 0x1F DUP3 ADD AND DUP3 ADD DUP1 PUSH1 0x40 MSTORE POP DUP2 ADD SWAP1 PUSH3 0xDCF SWAP2 SWAP1 PUSH3 0x4586 JUMP JUMPDEST POP PUSH20 0x0 PUSH4 0xABCD7960 DUP12 PUSH1 0x1 PUSH1 0x1 PUSH1 0xA0 SHL SUB AND PUSH4 0x581FE69A PUSH1 0x40 MLOAD DUP2 PUSH4 0xFFFFFFFF AND PUSH1 0xE0 SHL DUP2 MSTORE PUSH1 0x4 ADD PUSH1 0x20 PUSH1 0x40 MLOAD DUP1 DUP4 SUB DUP2 DUP7 GAS STATICCALL ISZERO DUP1 ISZERO PUSH3 0xE27 JUMPI RETURNDATASIZE PUSH0 DUP1 RETURNDATACOPY RETURNDATASIZE PUSH0 REVERT JUMPDEST POP POP POP POP PUSH1 0x40 MLOAD RETURNDATASIZE PUSH1 0x1F NOT PUSH1 0x1F DUP3 ADD AND DUP3 ADD DUP1 PUSH1 0x40 MSTORE POP DUP2 ADD SWAP1 PUSH3 0xE4D SWAP2 SWAP1 PUSH3 0x4551 JUMP JUMPDEST PUSH1 0x40 MLOAD PUSH1 0x1 PUSH1 0x1 PUSH1 0xE0 SHL SUB NOT PUSH1 0xE0 DUP5 SWAP1 SHL AND DUP2 MSTORE PUSH4 0xFFFFFFFF SWAP2 SWAP1 SWAP2 AND PUSH1 0x4 DUP3 ADD MSTORE PUSH0 PUSH1 0x24 DUP3 ADD MSTORE PUSH1 0x60 PUSH1 0x44 DUP3 ADD MSTORE PUSH1 0xF PUSH1 0x64 DUP3 ADD MSTORE PUSH15 0x18103BB7B63B32B9903932B6B0B4B7 PUSH1 0x89 SHL PUSH1 0x84 DUP3 ADD MSTORE PUSH1 0xA4 ADD JUMPDEST PUSH1 0x20 PUSH1 0x40 MLOAD DUP1 DUP4 SUB DUP2 DUP7 GAS DELEGATECALL ISZERO DUP1 ISZERO PUSH3 0xEBB JUMPI RETURNDATASIZE PUSH0 DUP1 RETURNDATACOPY RETURNDATASIZE PUSH0 REVERT JUMPDEST POP POP POP POP PUSH1 0x40 MLOAD RETURNDATASIZE PUSH1 0x1F NOT PUSH1 0x1F DUP3 ADD AND DUP3 ADD DUP1 PUSH1 0x40 MSTORE POP DUP2 ADD SWAP1 PUSH3 0xEE1 SWAP2 SWAP1 PUSH3 0x4586 JUMP JUMPDEST POP PUSH20 0x0 PUSH4 0xABCD7960 DUP12 PUSH1 0x1 PUSH1 0x1 PUSH1 0xA0 SHL SUB AND PUSH4 0xB1C9FE6E PUSH1 0x40 MLOAD DUP2 PUSH4 0xFFFFFFFF AND PUSH1 0xE0 SHL DUP2 MSTORE PUSH1 0x4 ADD PUSH1 0x20 PUSH1 0x40 MLOAD DUP1 DUP4 SUB DUP2 DUP7 GAS STATICCALL ISZERO DUP1 ISZERO PUSH3 0xF39 JUMPI RETURNDATASIZE PUSH0 DUP1 RETURNDATACOPY RETURNDATASIZE PUSH0 REVERT JUMPDEST POP POP POP POP PUSH1 0x40 MLOAD RETURNDATASIZE PUSH1 0x1F NOT PUSH1 0x1F DUP3 ADD AND DUP3 ADD DUP1 PUSH1 0x40 MSTORE POP DUP2 ADD SWAP1 PUSH3 0xF5F SWAP2 SWAP1 PUSH3 0x465F JUMP JUMPDEST PUSH1 0x6 DUP2 GT ISZERO PUSH3 0xF73 JUMPI PUSH3 0xF73 PUSH3 0x44DB JUMP JUMPDEST PUSH1 0x6 PUSH1 0x40 MLOAD PUSH1 0x1 PUSH1 0x1 PUSH1 0xE0 SHL SUB NOT PUSH1 0xE0 DUP6 SWAP1 SHL AND DUP2 MSTORE PUSH1 0x4 DUP2 ADD SWAP3 SWAP1 SWAP3 MSTORE PUSH1 0x24 DUP3 ADD MSTORE PUSH1 0x60 PUSH1 0x44 DUP3 ADD MSTORE PUSH1 0x14 PUSH1 0x64 DUP3 ADD MSTORE PUSH20 0x11D85B59481CDA1BDD5B1908189948115B991959 PUSH1 0x62 SHL PUSH1 0x84 DUP3 ADD MSTORE PUSH1 0xA4 ADD PUSH1 0x20 PUSH1 0x40 MLOAD DUP1 DUP4 SUB DUP2 DUP7 GAS DELEGATECALL ISZERO DUP1 ISZERO PUSH3 0xFE0 JUMPI RETURNDATASIZE PUSH0 DUP1 RETURNDATACOPY RETURNDATASIZE PUSH0 REVERT JUMPDEST POP POP POP POP PUSH1 0x40 MLOAD RETURNDATASIZE PUSH1 0x1F NOT PUSH1 0x1F DUP3 ADD AND DUP3 ADD DUP1 PUSH1 0x40 MSTORE POP DUP2 ADD SWAP1 PUSH3 0x1006 SWAP2 SWAP1 PUSH3 0x4586 JUMP JUMPDEST POP POP POP POP POP POP POP POP POP POP POP POP JUMP JUMPDEST PUSH0 PUSH3 0x101F PUSH3 0x435C JUMP JUMPDEST PUSH0 DUP1 SLOAD PUSH1 0x40 MLOAD PUSH4 0x7DBF5FB PUSH1 0xE1 SHL DUP2 MSTORE SWAP3 SWAP4 POP SWAP1 SWAP2 PUSH1 0x1 PUSH1 0x1 PUSH1 0xA0 SHL SUB SWAP1 SWAP2 AND SWAP1 PUSH4 0xFB7EBF6 SWAP1 PUSH3 0x1056 SWAP1 DUP6 SWAP1 PUSH1 0x4 ADD PUSH3 0x43FD JUMP JUMPDEST PUSH1 0x20 PUSH1 0x40 MLOAD DUP1 DUP4 SUB DUP2 PUSH0 DUP8 GAS CALL ISZERO DUP1 ISZERO PUSH3 0x1073 JUMPI RETURNDATASIZE PUSH0 DUP1 RETURNDATACOPY RETURNDATASIZE PUSH0 REVERT JUMPDEST POP POP POP POP PUSH1 0x40 MLOAD RETURNDATASIZE PUSH1 0x1F NOT PUSH1 0x1F DUP3 ADD AND DUP3 ADD DUP1 PUSH1 0x40 MSTORE POP DUP2 ADD SWAP1 PUSH3 0x1099 SWAP2 SWAP1 PUSH3 0x44A4 JUMP JUMPDEST SWAP1 POP PUSH0 DUP2 PUSH1 0x40 MLOAD PUSH3 0x10AB SWAP1 PUSH3 0x43E1 JUMP JUMPDEST PUSH1 0x1 PUSH1 0x1 PUSH1 0xA0 SHL SUB SWAP1 SWAP2 AND DUP2 MSTORE PUSH1 0x20 ADD PUSH1 0x40 MLOAD DUP1 SWAP2 SUB SWAP1 PUSH0 CREATE DUP1 ISZERO DUP1 ISZERO PUSH3 0x10D5 JUMPI RETURNDATASIZE PUSH0 DUP1 RETURNDATACOPY RETURNDATASIZE PUSH0 REVERT JUMPDEST POP PUSH1 0x40 MLOAD PUSH4 0x77D52AD PUSH1 0xE5 SHL DUP2 MSTORE PUSH0 PUSH1 0x4 DUP3 ADD MSTORE SWAP1 SWAP2 POP PUSH1 0x1 PUSH1 0x1 PUSH1 0xA0 SHL SUB DUP3 AND SWAP1 PUSH4 0xEFAA55A0 SWAP1 PUSH1 0x24 ADD PUSH0 PUSH1 0x40 MLOAD DUP1 DUP4 SUB DUP2 PUSH0 DUP8 DUP1 EXTCODESIZE ISZERO DUP1 ISZERO PUSH3 0x1118 JUMPI PUSH0 DUP1 REVERT JUMPDEST POP GAS CALL ISZERO DUP1 ISZERO PUSH3 0x112B JUMPI RETURNDATASIZE PUSH0 DUP1 RETURNDATACOPY RETURNDATASIZE PUSH0 REVERT JUMPDEST POP POP PUSH1 0x40 DUP1 MLOAD PUSH0 PUSH1 0x24 DUP1 DUP4 ADD DUP3 SWAP1 MSTORE DUP4 MLOAD DUP1 DUP5 SUB SWAP1 SWAP2 ADD DUP2 MSTORE PUSH1 0x44 SWAP1 SWAP3 ADD DUP4 MSTORE PUSH1 0x20 DUP3 ADD DUP1 MLOAD PUSH1 0x1 PUSH1 0x1 PUSH1 0xE0 SHL SUB AND PUSH4 0x77D52AD PUSH1 0xE5 SHL OR SWAP1 MSTORE SWAP2 MLOAD SWAP2 SWAP4 POP PUSH1 0x1 PUSH1 0x1 PUSH1 0xA0 SHL SUB DUP6 AND SWAP3 POP PUSH3 0x1181 SWAP2 PUSH3 0x467F JUMP JUMPDEST PUSH0 PUSH1 0x40 MLOAD DUP1 DUP4 SUB DUP2 PUSH0 DUP7 GAS CALL SWAP2 POP POP RETURNDATASIZE DUP1 PUSH0 DUP2 EQ PUSH3 0x11BC JUMPI PUSH1 0x40 MLOAD SWAP2 POP PUSH1 0x1F NOT PUSH1 0x3F RETURNDATASIZE ADD AND DUP3 ADD PUSH1 0x40 MSTORE RETURNDATASIZE DUP3 MSTORE RETURNDATASIZE PUSH0 PUSH1 0x20 DUP5 ADD RETURNDATACOPY PUSH3 0x11C1 JUMP JUMPDEST PUSH1 0x60 SWAP2 POP JUMPDEST POP POP PUSH1 0x40 MLOAD PUSH4 0x767392B3 PUSH1 0xE0 SHL DUP2 MSTORE DUP2 ISZERO ISZERO PUSH1 0x4 DUP3 ADD MSTORE PUSH0 PUSH1 0x24 DUP3 ADD MSTORE PUSH1 0x60 PUSH1 0x44 DUP3 ADD MSTORE PUSH1 0x18 PUSH1 0x64 DUP3 ADD MSTORE PUSH32 0x506C617965722063616E6E6F74206A6F696E2074776963650000000000000000 PUSH1 0x84 DUP3 ADD MSTORE SWAP1 SWAP2 POP PUSH20 0x0 SWAP1 PUSH4 0x767392B3 SWAP1 PUSH1 0xA4 ADD JUMPDEST PUSH1 0x20 PUSH1 0x40 MLOAD DUP1 DUP4 SUB DUP2 DUP7 GAS DELEGATECALL ISZERO DUP1 ISZERO PUSH3 0x1251 JUMPI RETURNDATASIZE PUSH0 DUP1 RETURNDATACOPY RETURNDATASIZE PUSH0 REVERT JUMPDEST POP POP POP POP PUSH1 0x40 MLOAD RETURNDATASIZE PUSH1 0x1F NOT PUSH1 0x1F DUP3 ADD AND DUP3 ADD DUP1 PUSH1 0x40 MSTORE POP DUP2 ADD SWAP1 PUSH3 0x1277 SWAP2 SWAP1 PUSH3 0x4586 JUMP JUMPDEST POP POP POP POP POP JUMP JUMPDEST PUSH0 PUSH3 0x1289 PUSH3 0x435C JUMP JUMPDEST PUSH0 DUP1 SLOAD PUSH1 0x40 MLOAD PUSH4 0x7DBF5FB PUSH1 0xE1 SHL DUP2 MSTORE SWAP3 SWAP4 POP SWAP1 SWAP2 PUSH1 0x1 PUSH1 0x1 PUSH1 0xA0 SHL SUB SWAP1 SWAP2 AND SWAP1 PUSH4 0xFB7EBF6 SWAP1 PUSH3 0x12C0 SWAP1 DUP6 SWAP1 PUSH1 0x4 ADD PUSH3 0x43FD JUMP JUMPDEST PUSH1 0x20 PUSH1 0x40 MLOAD DUP1 DUP4 SUB DUP2 PUSH0 DUP8 GAS CALL ISZERO DUP1 ISZERO PUSH3 0x12DD JUMPI RETURNDATASIZE PUSH0 DUP1 RETURNDATACOPY RETURNDATASIZE PUSH0 REVERT JUMPDEST POP POP POP POP PUSH1 0x40 MLOAD RETURNDATASIZE PUSH1 0x1F NOT PUSH1 0x1F DUP3 ADD AND DUP3 ADD DUP1 PUSH1 0x40 MSTORE POP DUP2 ADD SWAP1 PUSH3 0x1303 SWAP2 SWAP1 PUSH3 0x44A4 JUMP JUMPDEST SWAP1 POP DUP1 PUSH1 0x40 MLOAD PUSH3 0x1314 SWAP1 PUSH3 0x43E1 JUMP JUMPDEST PUSH1 0x1 PUSH1 0x1 PUSH1 0xA0 SHL SUB SWAP1 SWAP2 AND DUP2 MSTORE PUSH1 0x20 ADD PUSH1 0x40 MLOAD DUP1 SWAP2 SUB SWAP1 PUSH0 CREATE DUP1 ISZERO DUP1 ISZERO PUSH3 0x133E JUMPI RETURNDATASIZE PUSH0 DUP1 RETURNDATACOPY RETURNDATASIZE PUSH0 REVERT JUMPDEST POP PUSH1 0x40 MLOAD PUSH4 0x77D52AD PUSH1 0xE5 SHL DUP2 MSTORE PUSH0 PUSH1 0x4 DUP3 ADD MSTORE PUSH1 0x1 PUSH1 0x1 PUSH1 0xA0 SHL SUB SWAP2 SWAP1 SWAP2 AND SWAP1 PUSH4 0xEFAA55A0 SWAP1 PUSH1 0x24 ADD PUSH0 PUSH1 0x40 MLOAD DUP1 DUP4 SUB DUP2 PUSH0 DUP8 DUP1 EXTCODESIZE ISZERO DUP1 ISZERO PUSH3 0x1380 JUMPI PUSH0 DUP1 REVERT JUMPDEST POP GAS CALL ISZERO DUP1 ISZERO PUSH3 0x1393 JUMPI RETURNDATASIZE PUSH0 DUP1 RETURNDATACOPY RETURNDATASIZE PUSH0 REVERT JUMPDEST POP POP PUSH1 0x40 DUP1 MLOAD PUSH1 0x4 DUP2 MSTORE PUSH1 0x24 DUP2 ADD DUP3 MSTORE PUSH1 0x20 DUP2 ADD DUP1 MLOAD PUSH1 0x1 PUSH1 0x1 PUSH1 0xE0 SHL SUB AND PUSH4 0xBE9A6555 PUSH1 0xE0 SHL OR SWAP1 MSTORE SWAP1 MLOAD PUSH0 SWAP4 POP PUSH1 0x1 PUSH1 0x1 PUSH1 0xA0 SHL SUB DUP6 AND SWAP3 POP PUSH3 0x13DA SWAP2 SWAP1 PUSH3 0x467F JUMP JUMPDEST PUSH0 PUSH1 0x40 MLOAD DUP1 DUP4 SUB DUP2 PUSH0 DUP7 GAS CALL SWAP2 POP POP RETURNDATASIZE DUP1 PUSH0 DUP2 EQ PUSH3 0x1415 JUMPI PUSH1 0x40 MLOAD SWAP2 POP PUSH1 0x1F NOT PUSH1 0x3F RETURNDATASIZE ADD AND DUP3 ADD PUSH1 0x40 MSTORE RETURNDATASIZE DUP3 MSTORE RETURNDATASIZE PUSH0 PUSH1 0x20 DUP5 ADD RETURNDATACOPY PUSH3 0x141A JUMP JUMPDEST PUSH1 0x60 SWAP2 POP JUMPDEST POP POP PUSH1 0x40 MLOAD PUSH4 0x767392B3 PUSH1 0xE0 SHL DUP2 MSTORE DUP2 ISZERO ISZERO PUSH1 0x4 DUP3 ADD MSTORE PUSH0 PUSH1 0x24 DUP3 ADD MSTORE PUSH1 0x60 PUSH1 0x44 DUP3 ADD MSTORE PUSH1 0x2B PUSH1 0x64 DUP3 ADD MSTORE PUSH32 0x737461727428292073686F756C6420726576657274206966207365617473203C PUSH1 0x84 DUP3 ADD MSTORE PUSH11 0x206D696E506C6179657273 PUSH1 0xA8 SHL PUSH1 0xA4 DUP3 ADD MSTORE SWAP1 SWAP2 POP PUSH20 0x0 SWAP1 PUSH4 0x767392B3 SWAP1 PUSH1 0xC4 ADD JUMPDEST PUSH1 0x20 PUSH1 0x40 MLOAD DUP1 DUP4 SUB DUP2 DUP7 GAS DELEGATECALL ISZERO DUP1 ISZERO PUSH3 0x14BE JUMPI RETURNDATASIZE PUSH0 DUP1 RETURNDATACOPY RETURNDATASIZE PUSH0 REVERT JUMPDEST POP POP POP POP PUSH1 0x40 MLOAD RETURNDATASIZE PUSH1 0x1F NOT PUSH1 0x1F DUP3 ADD AND DUP3 ADD DUP1 PUSH1 0x40 MSTORE POP DUP2 ADD SWAP1 PUSH3 0x14E4 SWAP2 SWAP1 PUSH3 0x4586 JUMP JUMPDEST POP POP POP POP JUMP JUMPDEST PUSH1 0x40 DUP1 MLOAD PUSH2 0x100 DUP2 ADD DUP3 MSTORE PUSH1 0x3 DUP2 MSTORE PUSH1 0x5 PUSH1 0x20 DUP3 ADD MSTORE PUSH1 0x1 DUP2 DUP4 ADD DUP2 SWAP1 MSTORE PUSH0 PUSH1 0x60 DUP4 ADD DUP2 SWAP1 MSTORE PUSH1 0x80 DUP4 ADD DUP3 SWAP1 MSTORE PUSH1 0xA0 DUP4 ADD DUP3 SWAP1 MSTORE PUSH1 0xC0 DUP4 ADD DUP3 SWAP1 MSTORE PUSH1 0xE0 DUP4 ADD SWAP2 SWAP1 SWAP2 MSTORE DUP1 SLOAD SWAP3 MLOAD PUSH4 0x7DBF5FB PUSH1 0xE1 SHL DUP2 MSTORE SWAP2 SWAP3 SWAP1 SWAP2 PUSH1 0x1 PUSH1 0x1 PUSH1 0xA0 SHL SUB SWAP1 SWAP2 AND SWAP1 PUSH4 0xFB7EBF6 SWAP1 PUSH3 0x1561 SWAP1 DUP6 SWAP1 PUSH1 0x4 ADD PUSH3 0x43FD JUMP JUMPDEST PUSH1 0x20 PUSH1 0x40 MLOAD DUP1 DUP4 SUB DUP2 PUSH0 DUP8 GAS CALL ISZERO DUP1 ISZERO PUSH3 0x157E JUMPI RETURNDATASIZE PUSH0 DUP1 RETURNDATACOPY RETURNDATASIZE PUSH0 REVERT JUMPDEST POP POP POP POP PUSH1 0x40 MLOAD RETURNDATASIZE PUSH1 0x1F NOT PUSH1 0x1F DUP3 ADD AND DUP3 ADD DUP1 PUSH1 0x40 MSTORE POP DUP2 ADD SWAP1 PUSH3 0x15A4 SWAP2 SWAP1 PUSH3 0x44A4 JUMP JUMPDEST SWAP1 POP PUSH0 DUP2 PUSH1 0x40 MLOAD PUSH3 0x15B6 SWAP1 PUSH3 0x43E1 JUMP JUMPDEST PUSH1 0x1 PUSH1 0x1 PUSH1 0xA0 SHL SUB SWAP1 SWAP2 AND DUP2 MSTORE PUSH1 0x20 ADD PUSH1 0x40 MLOAD DUP1 SWAP2 SUB SWAP1 PUSH0 CREATE DUP1 ISZERO DUP1 ISZERO PUSH3 0x15E0 JUMPI RETURNDATASIZE PUSH0 DUP1 RETURNDATACOPY RETURNDATASIZE PUSH0 REVERT JUMPDEST POP SWAP1 POP PUSH0 DUP3 PUSH1 0x40 MLOAD PUSH3 0x15F3 SWAP1 PUSH3 0x43E1 JUMP JUMPDEST PUSH1 0x1 PUSH1 0x1 PUSH1 0xA0 SHL SUB SWAP1 SWAP2 AND DUP2 MSTORE PUSH1 0x20 ADD PUSH1 0x40 MLOAD DUP1 SWAP2 SUB SWAP1 PUSH0 CREATE DUP1 ISZERO DUP1 ISZERO PUSH3 0x161D JUMPI RETURNDATASIZE PUSH0 DUP1 RETURNDATACOPY RETURNDATASIZE PUSH0 REVERT JUMPDEST POP SWAP1 POP PUSH0 DUP4 PUSH1 0x40 MLOAD PUSH3 0x1630 SWAP1 PUSH3 0x43E1 JUMP JUMPDEST PUSH1 0x1 PUSH1 0x1 PUSH1 0xA0 SHL SUB SWAP1 SWAP2 AND DUP2 MSTORE PUSH1 0x20 ADD PUSH1 0x40 MLOAD DUP1 SWAP2 SUB SWAP1 PUSH0 CREATE DUP1 ISZERO DUP1 ISZERO PUSH3 0x165A JUMPI RETURNDATASIZE PUSH0 DUP1 RETURNDATACOPY RETURNDATASIZE PUSH0 REVERT JUMPDEST POP PUSH1 0x40 MLOAD PUSH4 0x77D52AD PUSH1 0xE5 SHL DUP2 MSTORE PUSH0 PUSH1 0x4 DUP3 ADD MSTORE SWAP1 SWAP2 POP PUSH1 0x1 PUSH1 0x1 PUSH1 0xA0 SHL SUB DUP5 AND SWAP1 PUSH4 0xEFAA55A0 SWAP1 PUSH1 0x24 ADD PUSH0 PUSH1 0x40 MLOAD DUP1 DUP4 SUB DUP2 PUSH0 DUP8 DUP1 EXTCODESIZE ISZERO DUP1 ISZERO PUSH3 0x169D JUMPI PUSH0 DUP1 REVERT JUMPDEST POP GAS CALL ISZERO DUP1 ISZERO PUSH3 0x16B0 JUMPI RETURNDATASIZE PUSH0 DUP1 RETURNDATACOPY RETURNDATASIZE PUSH0 REVERT JUMPDEST POP POP PUSH1 0x40 MLOAD PUSH4 0x77D52AD PUSH1 0xE5 SHL DUP2 MSTORE PUSH0 PUSH1 0x4 DUP3 ADD MSTORE PUSH1 0x1 PUSH1 0x1 PUSH1 0xA0 SHL SUB DUP6 AND SWAP3 POP PUSH4 0xEFAA55A0 SWAP2 POP PUSH1 0x24 ADD PUSH0 PUSH1 0x40 MLOAD DUP1 DUP4 SUB DUP2 PUSH0 DUP8 DUP1 EXTCODESIZE ISZERO DUP1 ISZERO PUSH3 0x16F3 JUMPI PUSH0 DUP1 REVERT JUMPDEST POP GAS CALL ISZERO DUP1 ISZERO PUSH3 0x1706 JUMPI RETURNDATASIZE PUSH0 DUP1 RETURNDATACOPY RETURNDATASIZE PUSH0 REVERT JUMPDEST POP POP PUSH1 0x40 MLOAD PUSH4 0x77D52AD PUSH1 0xE5 SHL DUP2 MSTORE PUSH0 PUSH1 0x4 DUP3 ADD MSTORE PUSH1 0x1 PUSH1 0x1 PUSH1 0xA0 SHL SUB DUP5 AND SWAP3 POP PUSH4 0xEFAA55A0 SWAP2 POP PUSH1 0x24 ADD PUSH0 PUSH1 0x40 MLOAD DUP1 DUP4 SUB DUP2 PUSH0 DUP8 DUP1 EXTCODESIZE ISZERO DUP1 ISZERO PUSH3 0x1749 JUMPI PUSH0 DUP1 REVERT JUMPDEST POP GAS CALL ISZERO DUP1 ISZERO PUSH3 0x175C JUMPI RETURNDATASIZE PUSH0 DUP1 RETURNDATACOPY RETURNDATASIZE PUSH0 REVERT JUMPDEST POP POP POP POP DUP4 PUSH1 0x1 PUSH1 0x1 PUSH1 0xA0 SHL SUB AND PUSH4 0xBE9A6555 PUSH1 0x40 MLOAD DUP2 PUSH4 0xFFFFFFFF AND PUSH1 0xE0 SHL DUP2 MSTORE PUSH1 0x4 ADD PUSH0 PUSH1 0x40 MLOAD DUP1 DUP4 SUB DUP2 PUSH0 DUP8 DUP1 EXTCODESIZE ISZERO DUP1 ISZERO PUSH3 0x1799 JUMPI PUSH0 DUP1 REVERT JUMPDEST POP GAS CALL ISZERO DUP1 ISZERO PUSH3 0x17AC JUMPI RETURNDATASIZE PUSH0 DUP1 RETURNDATACOPY RETURNDATASIZE PUSH0 REVERT JUMPDEST POP PUSH0 SWAP3 POP PUSH1 0x3 SWAP2 POP PUSH3 0x17BC SWAP1 POP JUMP JUMPDEST PUSH1 0x40 MLOAD SWAP1 DUP1 DUP3 MSTORE DUP1 PUSH1 0x20 MUL PUSH1 0x20 ADD DUP3 ADD PUSH1 0x40 MSTORE DUP1 ISZERO PUSH3 0x17E6 JUMPI DUP2 PUSH1 0x20 ADD PUSH1 0x20 DUP3 MUL DUP1 CALLDATASIZE DUP4 CALLDATACOPY ADD SWAP1 POP JUMPDEST POP SWAP1 POP PUSH0 DUP2 PUSH0 DUP2 MLOAD DUP2 LT PUSH3 0x17FF JUMPI PUSH3 0x17FF PUSH3 0x44C7 JUMP JUMPDEST PUSH1 0x20 MUL PUSH1 0x20 ADD ADD SWAP1 PUSH1 0x4 DUP2 GT ISZERO PUSH3 0x181B JUMPI PUSH3 0x181B PUSH3 0x44DB JUMP JUMPDEST SWAP1 DUP2 PUSH1 0x4 DUP2 GT ISZERO PUSH3 0x1831 JUMPI PUSH3 0x1831 PUSH3 0x44DB JUMP JUMPDEST DUP2 MSTORE POP POP PUSH1 0x1 DUP2 PUSH1 0x1 DUP2 MLOAD DUP2 LT PUSH3 0x184D JUMPI PUSH3 0x184D PUSH3 0x44C7 JUMP JUMPDEST PUSH1 0x20 MUL PUSH1 0x20 ADD ADD SWAP1 PUSH1 0x4 DUP2 GT ISZERO PUSH3 0x1869 JUMPI PUSH3 0x1869 PUSH3 0x44DB JUMP JUMPDEST SWAP1 DUP2 PUSH1 0x4 DUP2 GT ISZERO PUSH3 0x187F JUMPI PUSH3 0x187F PUSH3 0x44DB JUMP JUMPDEST DUP2 MSTORE POP POP PUSH0 DUP2 PUSH1 0x2 DUP2 MLOAD DUP2 LT PUSH3 0x189A JUMPI PUSH3 0x189A PUSH3 0x44C7 JUMP JUMPDEST PUSH1 0x20 MUL PUSH1 0x20 ADD ADD SWAP1 PUSH1 0x4 DUP2 GT ISZERO PUSH3 0x18B6 JUMPI PUSH3 0x18B6 PUSH3 0x44DB JUMP JUMPDEST SWAP1 DUP2 PUSH1 0x4 DUP2 GT ISZERO PUSH3 0x18CC JUMPI PUSH3 0x18CC PUSH3 0x44DB JUMP JUMPDEST SWAP1 MSTORE POP PUSH1 0x40 MLOAD PUSH4 0x71B9D3EF PUSH1 0xE1 SHL DUP2 MSTORE PUSH1 0x1 PUSH1 0x1 PUSH1 0xA0 SHL SUB DUP7 AND SWAP1 PUSH4 0xE373A7DE SWAP1 PUSH3 0x18FD SWAP1 DUP5 SWAP1 PUSH1 0x4 ADD PUSH3 0x44EF JUMP JUMPDEST PUSH0 PUSH1 0x40 MLOAD DUP1 DUP4 SUB DUP2 PUSH0 DUP8 DUP1 EXTCODESIZE ISZERO DUP1 ISZERO PUSH3 0x1915 JUMPI PUSH0 DUP1 REVERT JUMPDEST POP GAS CALL ISZERO DUP1 ISZERO PUSH3 0x1928 JUMPI RETURNDATASIZE PUSH0 DUP1 RETURNDATACOPY RETURNDATASIZE PUSH0 REVERT JUMPDEST POP POP POP POP PUSH0 DUP1 PUSH32 0xFC02697F14B6DA73CB061E579B6BC23E4634EF6B9E3E2A98B5CF29B11EEBB3C0 SWAP1 POP PUSH0 DUP8 PUSH1 0x1 DUP5 DUP5 PUSH1 0x40 MLOAD PUSH1 0x20 ADD PUSH3 0x196C SWAP5 SWAP4 SWAP3 SWAP2 SWAP1 PUSH3 0x45A2 JUMP JUMPDEST PUSH1 0x40 DUP1 MLOAD DUP1 DUP4 SUB PUSH1 0x1F NOT ADD DUP2 MSTORE SWAP1 DUP3 SWAP1 MSTORE DUP1 MLOAD PUSH1 0x20 SWAP1 SWAP2 ADD KECCAK256 PUSH4 0x1E29F979 PUSH1 0xE3 SHL DUP3 MSTORE PUSH1 0x4 DUP3 ADD DUP2 SWAP1 MSTORE SWAP2 POP PUSH1 0x1 PUSH1 0x1 PUSH1 0xA0 SHL SUB DUP8 AND SWAP1 PUSH4 0xF14FCBC8 SWAP1 PUSH1 0x24 ADD PUSH0 PUSH1 0x40 MLOAD DUP1 DUP4 SUB DUP2 PUSH0 DUP8 DUP1 EXTCODESIZE ISZERO DUP1 ISZERO PUSH3 0x19C4 JUMPI PUSH0 DUP1 REVERT JUMPDEST POP GAS CALL ISZERO DUP1 ISZERO PUSH3 0x19D7 JUMPI RETURNDATASIZE PUSH0 DUP1 RETURNDATACOPY RETURNDATASIZE PUSH0 REVERT JUMPDEST POP POP POP POP DUP8 PUSH1 0x1 PUSH1 0x1 PUSH1 0xA0 SHL SUB AND PUSH4 0x17E6FCEF PUSH1 0x40 MLOAD DUP2 PUSH4 0xFFFFFFFF AND PUSH1 0xE0 SHL DUP2 MSTORE PUSH1 0x4 ADD PUSH0 PUSH1 0x40 MLOAD DUP1 DUP4 SUB DUP2 PUSH0 DUP8 DUP1 EXTCODESIZE ISZERO DUP1 ISZERO PUSH3 0x1A14 JUMPI PUSH0 DUP1 REVERT JUMPDEST POP GAS CALL ISZERO DUP1 ISZERO PUSH3 0x1A27 JUMPI RETURNDATASIZE PUSH0 DUP1 RETURNDATACOPY RETURNDATASIZE PUSH0 REVERT JUMPDEST POP POP PUSH1 0x40 MLOAD PUSH4 0x1FE45703 PUSH1 0xE1 SHL DUP2 MSTORE PUSH1 0xFF DUP7 AND PUSH1 0x4 DUP3 ADD MSTORE PUSH1 0x24 DUP2 ADD DUP6 SWAP1 MSTORE PUSH1 0x1 PUSH1 0x1 PUSH1 0xA0 SHL SUB DUP10 AND SWAP3 POP PUSH4 0x3FC8AE06 SWAP2 POP PUSH1 0x44 ADD PUSH0 PUSH1 0x40 MLOAD DUP1 DUP4 SUB DUP2 PUSH0 DUP8 DUP1 EXTCODESIZE ISZERO DUP1 ISZERO PUSH3 0x1A74 JUMPI PUSH0 DUP1 REVERT JUMPDEST POP GAS CALL ISZERO DUP1 ISZERO PUSH3 0x1A87 JUMPI RETURNDATASIZE PUSH0 DUP1 RETURNDATACOPY RETURNDATASIZE PUSH0 REVERT JUMPDEST POP POP POP POP DUP8 PUSH1 0x1 PUSH1 0x1 PUSH1 0xA0 SHL SUB AND PUSH4 0x59B7E6AD PUSH1 0x40 MLOAD DUP2 PUSH4 0xFFFFFFFF AND PUSH1 0xE0 SHL DUP2 MSTORE PUSH1 0x4 ADD PUSH0 PUSH1 0x40 MLOAD DUP1 DUP4 SUB DUP2 PUSH0 DUP8 DUP1 EXTCODESIZE ISZERO DUP1 ISZERO PUSH3 0x1AC4 JUMPI PUSH0 DUP1 REVERT JUMPDEST POP GAS CALL ISZERO DUP1 ISZERO PUSH3 0x1AD7 JUMPI RETURNDATASIZE PUSH0 DUP1 RETURNDATACOPY RETURNDATASIZE PUSH0 REVERT JUMPDEST POP POP POP POP DUP8 PUSH1 0x1 PUSH1 0x1 PUSH1 0xA0 SHL SUB AND PUSH4 0x61DC4610 PUSH1 0x40 MLOAD DUP2 PUSH4 0xFFFFFFFF AND PUSH1 0xE0 SHL DUP2 MSTORE PUSH1 0x4 ADD PUSH0 PUSH1 0x40 MLOAD DUP1 DUP4 SUB DUP2 PUSH0 DUP8 DUP1 EXTCODESIZE ISZERO DUP1 ISZERO PUSH3 0x1B14 JUMPI PUSH0 DUP1 REVERT JUMPDEST POP GAS CALL ISZERO DUP1 ISZERO PUSH3 0x1B27 JUMPI RETURNDATASIZE PUSH0 DUP1 RETURNDATACOPY RETURNDATASIZE PUSH0 REVERT JUMPDEST POP POP PUSH1 0x40 MLOAD PUSH4 0x2CFE62B7 PUSH1 0xE2 SHL DUP2 MSTORE PUSH1 0x1 PUSH1 0x4 DUP3 ADD MSTORE PUSH1 0x1 PUSH1 0x1 PUSH1 0xA0 SHL SUB DUP9 AND SWAP3 POP PUSH4 0xB3F98ADC SWAP2 POP PUSH1 0x24 ADD PUSH0 PUSH1 0x40 MLOAD DUP1 DUP4 SUB DUP2 PUSH0 DUP8 DUP1 EXTCODESIZE ISZERO DUP1 ISZERO PUSH3 0x1B6B JUMPI PUSH0 DUP1 REVERT JUMPDEST POP GAS CALL ISZERO DUP1 ISZERO PUSH3 0x1B7E JUMPI RETURNDATASIZE PUSH0 DUP1 RETURNDATACOPY RETURNDATASIZE PUSH0 REVERT JUMPDEST POP POP PUSH1 0x40 MLOAD PUSH4 0x2CFE62B7 PUSH1 0xE2 SHL DUP2 MSTORE PUSH1 0x2 PUSH1 0x4 DUP3 ADD MSTORE PUSH1 0x1 PUSH1 0x1 PUSH1 0xA0 SHL SUB DUP10 AND SWAP3 POP PUSH4 0xB3F98ADC SWAP2 POP PUSH1 0x24 ADD PUSH0 PUSH1 0x40 MLOAD DUP1 DUP4 SUB DUP2 PUSH0 DUP8 DUP1 EXTCODESIZE ISZERO DUP1 ISZERO PUSH3 0x1BC2 JUMPI PUSH0 DUP1 REVERT JUMPDEST POP GAS CALL ISZERO DUP1 ISZERO PUSH3 0x1BD5 JUMPI RETURNDATASIZE PUSH0 DUP1 RETURNDATACOPY RETURNDATASIZE PUSH0 REVERT JUMPDEST POP POP POP POP DUP8 PUSH1 0x1 PUSH1 0x1 PUSH1 0xA0 SHL SUB AND PUSH4 0x413D0956 PUSH1 0x40 MLOAD DUP2 PUSH4 0xFFFFFFFF AND PUSH1 0xE0 SHL DUP2 MSTORE PUSH1 0x4 ADD PUSH0 PUSH1 0x40 MLOAD DUP1 DUP4 SUB DUP2 PUSH0 DUP8 DUP1 EXTCODESIZE ISZERO DUP1 ISZERO PUSH3 0x1C12 JUMPI PUSH0 DUP1 REVERT JUMPDEST POP GAS CALL ISZERO DUP1 ISZERO PUSH3 0x1C25 JUMPI RETURNDATASIZE PUSH0 DUP1 RETURNDATACOPY RETURNDATASIZE PUSH0 REVERT JUMPDEST POP POP POP POP PUSH20 0x0 PUSH4 0xABCD7960 DUP10 PUSH1 0x1 PUSH1 0x1 PUSH1 0xA0 SHL SUB AND PUSH4 0xB1C9FE6E PUSH1 0x40 MLOAD DUP2 PUSH4 0xFFFFFFFF AND PUSH1 0xE0 SHL DUP2 MSTORE PUSH1 0x4 ADD PUSH1 0x20 PUSH1 0x40 MLOAD DUP1 DUP4 SUB DUP2 DUP7 GAS STATICCALL ISZERO DUP1 ISZERO PUSH3 0x1C80 JUMPI RETURNDATASIZE PUSH0 DUP1 RETURNDATACOPY RETURNDATASIZE PUSH0 REVERT JUMPDEST POP POP POP POP PUSH1 0x40 MLOAD RETURNDATASIZE PUSH1 0x1F NOT PUSH1 0x1F DUP3 ADD AND DUP3 ADD DUP1 PUSH1 0x40 MSTORE POP DUP2 ADD SWAP1 PUSH3 0x1CA6 SWAP2 SWAP1 PUSH3 0x465F JUMP JUMPDEST PUSH1 0x6 DUP2 GT ISZERO PUSH3 0x1CBA JUMPI PUSH3 0x1CBA PUSH3 0x44DB JUMP JUMPDEST PUSH1 0x6 PUSH1 0x40 MLOAD PUSH1 0x1 PUSH1 0x1 PUSH1 0xE0 SHL SUB NOT PUSH1 0xE0 DUP6 SWAP1 SHL AND DUP2 MSTORE PUSH1 0x4 DUP2 ADD SWAP3 SWAP1 SWAP3 MSTORE PUSH1 0x24 DUP3 ADD MSTORE PUSH1 0x60 PUSH1 0x44 DUP3 ADD MSTORE PUSH1 0xD PUSH1 0x64 DUP3 ADD MSTORE PUSH13 0x11D85B59481A5CC8115B991959 PUSH1 0x9A SHL PUSH1 0x84 DUP3 ADD MSTORE PUSH1 0xA4 ADD PUSH1 0x20 PUSH1 0x40 MLOAD DUP1 DUP4 SUB DUP2 DUP7 GAS DELEGATECALL ISZERO DUP1 ISZERO PUSH3 0x1D20 JUMPI RETURNDATASIZE PUSH0 DUP1 RETURNDATACOPY RETURNDATASIZE PUSH0 REVERT JUMPDEST POP POP POP POP PUSH1 0x40 MLOAD RETURNDATASIZE PUSH1 0x1F NOT PUSH1 0x1F DUP3 ADD AND DUP3 ADD DUP1 PUSH1 0x40 MSTORE POP DUP2 ADD SWAP1 PUSH3 0x1D46 SWAP2 SWAP1 PUSH3 0x4586 JUMP JUMPDEST POP PUSH1 0x40 MLOAD PUSH4 0x931A5313 PUSH1 0xE0 SHL DUP2 MSTORE PUSH1 0x1 PUSH1 0x1 PUSH1 0xA0 SHL SUB DUP8 DUP2 AND PUSH1 0x4 DUP4 ADD MSTORE PUSH0 SWAP2 SWAP1 DUP8 AND SWAP1 PUSH4 0x931A5313 SWAP1 PUSH1 0x24 ADD PUSH1 0x20 PUSH1 0x40 MLOAD DUP1 DUP4 SUB DUP2 DUP7 GAS STATICCALL ISZERO DUP1 ISZERO PUSH3 0x1D8F JUMPI RETURNDATASIZE PUSH0 DUP1 RETURNDATACOPY RETURNDATASIZE PUSH0 REVERT JUMPDEST POP POP POP POP PUSH1 0x40 MLOAD RETURNDATASIZE PUSH1 0x1F NOT PUSH1 0x1F DUP3 ADD AND DUP3 ADD DUP1 PUSH1 0x40 MSTORE POP DUP2 ADD SWAP1 PUSH3 0x1DB5 SWAP2 SWAP1 PUSH3 0x46AD JUMP JUMPDEST SWAP1 POP PUSH20 0x0 PUSH4 0xABCD7960 DUP3 PUSH1 0x4 DUP2 GT ISZERO PUSH3 0x1DE6 JUMPI PUSH3 0x1DE6 PUSH3 0x44DB JUMP JUMPDEST PUSH1 0x1 PUSH1 0x40 MLOAD PUSH1 0x1 PUSH1 0x1 PUSH1 0xE0 SHL SUB NOT PUSH1 0xE0 DUP6 SWAP1 SHL AND DUP2 MSTORE PUSH1 0x4 DUP2 ADD SWAP3 SWAP1 SWAP3 MSTORE PUSH1 0x24 DUP3 ADD MSTORE PUSH1 0x60 PUSH1 0x44 DUP3 ADD MSTORE PUSH1 0x16 PUSH1 0x64 DUP3 ADD MSTORE PUSH22 0x28199031B0B71039B2B2902819103BB0B9902BB7B633 PUSH1 0x51 SHL PUSH1 0x84 DUP3 ADD MSTORE PUSH1 0xA4 ADD PUSH1 0x20 PUSH1 0x40 MLOAD DUP1 DUP4 SUB DUP2 DUP7 GAS DELEGATECALL ISZERO DUP1 ISZERO PUSH3 0x1E55 JUMPI RETURNDATASIZE PUSH0 DUP1 RETURNDATACOPY RETURNDATASIZE PUSH0 REVERT JUMPDEST POP POP POP POP PUSH1 0x40 MLOAD RETURNDATASIZE PUSH1 0x1F NOT PUSH1 0x1F DUP3 ADD AND DUP3 ADD DUP1 PUSH1 0x40 MSTORE POP DUP2 ADD SWAP1 PUSH3 0x1E7B SWAP2 SWAP1 PUSH3 0x4586 JUMP JUMPDEST POP POP POP POP POP POP POP POP POP POP POP JUMP JUMPDEST PUSH0 PUSH3 0x1E93 PUSH3 0x435C JUMP JUMPDEST PUSH0 DUP1 SLOAD PUSH1 0x40 MLOAD PUSH4 0x7DBF5FB PUSH1 0xE1 SHL DUP2 MSTORE SWAP3 SWAP4 POP SWAP1 SWAP2 PUSH1 0x1 PUSH1 0x1 PUSH1 0xA0 SHL SUB SWAP1 SWAP2 AND SWAP1 PUSH4 0xFB7EBF6 SWAP1 PUSH3 0x1ECA SWAP1 DUP6 SWAP1 PUSH1 0x4 ADD PUSH3 0x43FD JUMP JUMPDEST PUSH1 0x20 PUSH1 0x40 MLOAD DUP1 DUP4 SUB DUP2 PUSH0 DUP8 GAS CALL ISZERO DUP1 ISZERO PUSH3 0x1EE7 JUMPI RETURNDATASIZE PUSH0 DUP1 RETURNDATACOPY RETURNDATASIZE PUSH0 REVERT JUMPDEST POP POP POP POP PUSH1 0x40 MLOAD RETURNDATASIZE PUSH1 0x1F NOT PUSH1 0x1F DUP3 ADD AND DUP3 ADD DUP1 PUSH1 0x40 MSTORE POP DUP2 ADD SWAP1 PUSH3 0x1F0D SWAP2 SWAP1 PUSH3 0x44A4 JUMP JUMPDEST SWAP1 POP PUSH0 DUP2 PUSH1 0x40 MLOAD PUSH3 0x1F1F SWAP1 PUSH3 0x43E1 JUMP JUMPDEST PUSH1 0x1 PUSH1 0x1 PUSH1 0xA0 SHL SUB SWAP1 SWAP2 AND DUP2 MSTORE PUSH1 0x20 ADD PUSH1 0x40 MLOAD DUP1 SWAP2 SUB SWAP1 PUSH0 CREATE DUP1 ISZERO DUP1 ISZERO PUSH3 0x1F49 JUMPI RETURNDATASIZE PUSH0 DUP1 RETURNDATACOPY RETURNDATASIZE PUSH0 REVERT JUMPDEST POP SWAP1 POP PUSH0 DUP3 PUSH1 0x40 MLOAD PUSH3 0x1F5C SWAP1 PUSH3 0x43E1 JUMP JUMPDEST PUSH1 0x1 PUSH1 0x1 PUSH1 0xA0 SHL SUB SWAP1 SWAP2 AND DUP2 MSTORE PUSH1 0x20 ADD PUSH1 0x40 MLOAD DUP1 SWAP2 SUB SWAP1 PUSH0 CREATE DUP1 ISZERO DUP1 ISZERO PUSH3 0x1F86 JUMPI RETURNDATASIZE PUSH0 DUP1 RETURNDATACOPY RETURNDATASIZE PUSH0 REVERT JUMPDEST POP SWAP1 POP PUSH0 DUP4 PUSH1 0x40 MLOAD PUSH3 0x1F99 SWAP1 PUSH3 0x43E1 JUMP JUMPDEST PUSH1 0x1 PUSH1 0x1 PUSH1 0xA0 SHL SUB SWAP1 SWAP2 AND DUP2 MSTORE PUSH1 0x20 ADD PUSH1 0x40 MLOAD DUP1 SWAP2 SUB SWAP1 PUSH0 CREATE DUP1 ISZERO DUP1 ISZERO PUSH3 0x1FC3 JUMPI RETURNDATASIZE PUSH0 DUP1 RETURNDATACOPY RETURNDATASIZE PUSH0 REVERT JUMPDEST POP PUSH1 0x40 MLOAD PUSH4 0x77D52AD PUSH1 0xE5 SHL DUP2 MSTORE PUSH0 PUSH1 0x4 DUP3 ADD MSTORE SWAP1 SWAP2 POP PUSH1 0x1 PUSH1 0x1 PUSH1 0xA0 SHL SUB DUP5 AND SWAP1 PUSH4 0xEFAA55A0 SWAP1 PUSH1 0x24 ADD PUSH0 PUSH1 0x40 MLOAD DUP1 DUP4 SUB DUP2 PUSH0 DUP8 DUP1 EXTCODESIZE ISZERO DUP1 ISZERO PUSH3 0x2006 JUMPI PUSH0 DUP1 REVERT JUMPDEST POP GAS CALL ISZERO DUP1 ISZERO PUSH3 0x2019 JUMPI RETURNDATASIZE PUSH0 DUP1 RETURNDATACOPY RETURNDATASIZE PUSH0 REVERT JUMPDEST POP POP PUSH1 0x40 MLOAD PUSH4 0x77D52AD PUSH1 0xE5 SHL DUP2 MSTORE PUSH0 PUSH1 0x4 DUP3 ADD MSTORE PUSH1 0x1 PUSH1 0x1 PUSH1 0xA0 SHL SUB DUP6 AND SWAP3 POP PUSH4 0xEFAA55A0 SWAP2 POP PUSH1 0x24 ADD PUSH0 PUSH1 0x40 MLOAD DUP1 DUP4 SUB DUP2 PUSH0 DUP8 DUP1 EXTCODESIZE ISZERO DUP1 ISZERO PUSH3 0x205C JUMPI PUSH0 DUP1 REVERT JUMPDEST POP GAS CALL ISZERO DUP1 ISZERO PUSH3 0x206F JUMPI RETURNDATASIZE PUSH0 DUP1 RETURNDATACOPY RETURNDATASIZE PUSH0 REVERT JUMPDEST POP POP PUSH1 0x40 MLOAD PUSH4 0x77D52AD PUSH1 0xE5 SHL DUP2 MSTORE PUSH0 PUSH1 0x4 DUP3 ADD MSTORE PUSH1 0x1 PUSH1 0x1 PUSH1 0xA0 SHL SUB DUP5 AND SWAP3 POP PUSH4 0xEFAA55A0 SWAP2 POP PUSH1 0x24 ADD PUSH0 PUSH1 0x40 MLOAD DUP1 DUP4 SUB DUP2 PUSH0 DUP8 DUP1 EXTCODESIZE ISZERO DUP1 ISZERO PUSH3 0x20B2 JUMPI PUSH0 DUP1 REVERT JUMPDEST POP GAS CALL ISZERO DUP1 ISZERO PUSH3 0x20C5 JUMPI RETURNDATASIZE PUSH0 DUP1 RETURNDATACOPY RETURNDATASIZE PUSH0 REVERT JUMPDEST POP POP POP POP DUP4 PUSH1 0x1 PUSH1 0x1 PUSH1 0xA0 SHL SUB AND PUSH4 0xBE9A6555 PUSH1 0x40 MLOAD DUP2 PUSH4 0xFFFFFFFF AND PUSH1 0xE0 SHL DUP2 MSTORE PUSH1 0x4 ADD PUSH0 PUSH1 0x40 MLOAD DUP1 DUP4 SUB DUP2 PUSH0 DUP8 DUP1 EXTCODESIZE ISZERO DUP1 ISZERO PUSH3 0x2102 JUMPI PUSH0 DUP1 REVERT JUMPDEST POP GAS CALL ISZERO DUP1 ISZERO PUSH3 0x2115 JUMPI RETURNDATASIZE PUSH0 DUP1 RETURNDATACOPY RETURNDATASIZE PUSH0 REVERT JUMPDEST POP PUSH0 SWAP3 POP PUSH1 0x3 SWAP2 POP PUSH3 0x2125 SWAP1 POP JUMP JUMPDEST PUSH1 0x40 MLOAD SWAP1 DUP1 DUP3 MSTORE DUP1 PUSH1 0x20 MUL PUSH1 0x20 ADD DUP3 ADD PUSH1 0x40 MSTORE DUP1 ISZERO PUSH3 0x214F JUMPI DUP2 PUSH1 0x20 ADD PUSH1 0x20 DUP3 MUL DUP1 CALLDATASIZE DUP4 CALLDATACOPY ADD SWAP1 POP JUMPDEST POP SWAP1 POP PUSH0 DUP2 PUSH0 DUP2 MLOAD DUP2 LT PUSH3 0x2168 JUMPI PUSH3 0x2168 PUSH3 0x44C7 JUMP JUMPDEST PUSH1 0x20 MUL PUSH1 0x20 ADD ADD SWAP1 PUSH1 0x4 DUP2 GT ISZERO PUSH3 0x2184 JUMPI PUSH3 0x2184 PUSH3 0x44DB JUMP JUMPDEST SWAP1 DUP2 PUSH1 0x4 DUP2 GT ISZERO PUSH3 0x219A JUMPI PUSH3 0x219A PUSH3 0x44DB JUMP JUMPDEST DUP2 MSTORE POP POP PUSH1 0x1 DUP2 PUSH1 0x1 DUP2 MLOAD DUP2 LT PUSH3 0x21B6 JUMPI PUSH3 0x21B6 PUSH3 0x44C7 JUMP JUMPDEST PUSH1 0x20 MUL PUSH1 0x20 ADD ADD SWAP1 PUSH1 0x4 DUP2 GT ISZERO PUSH3 0x21D2 JUMPI PUSH3 0x21D2 PUSH3 0x44DB JUMP JUMPDEST SWAP1 DUP2 PUSH1 0x4 DUP2 GT ISZERO PUSH3 0x21E8 JUMPI PUSH3 0x21E8 PUSH3 0x44DB JUMP JUMPDEST DUP2 MSTORE POP POP PUSH1 0x1 DUP2 PUSH1 0x2 DUP2 MLOAD DUP2 LT PUSH3 0x2204 JUMPI PUSH3 0x2204 PUSH3 0x44C7 JUMP JUMPDEST PUSH1 0x20 MUL PUSH1 0x20 ADD ADD SWAP1 PUSH1 0x4 DUP2 GT ISZERO PUSH3 0x2220 JUMPI PUSH3 0x2220 PUSH3 0x44DB JUMP JUMPDEST SWAP1 DUP2 PUSH1 0x4 DUP2 GT ISZERO PUSH3 0x2236 JUMPI PUSH3 0x2236 PUSH3 0x44DB JUMP JUMPDEST SWAP1 MSTORE POP PUSH1 0x40 MLOAD PUSH4 0x71B9D3EF PUSH1 0xE1 SHL DUP2 MSTORE PUSH1 0x1 PUSH1 0x1 PUSH1 0xA0 SHL SUB DUP7 AND SWAP1 PUSH4 0xE373A7DE SWAP1 PUSH3 0x2267 SWAP1 DUP5 SWAP1 PUSH1 0x4 ADD PUSH3 0x44EF JUMP JUMPDEST PUSH0 PUSH1 0x40 MLOAD DUP1 DUP4 SUB DUP2 PUSH0 DUP8 DUP1 EXTCODESIZE ISZERO DUP1 ISZERO PUSH3 0x227F JUMPI PUSH0 DUP1 REVERT JUMPDEST POP GAS CALL ISZERO DUP1 ISZERO PUSH3 0x2292 JUMPI RETURNDATASIZE PUSH0 DUP1 RETURNDATACOPY RETURNDATASIZE PUSH0 REVERT JUMPDEST POP POP POP POP PUSH20 0x0 PUSH4 0xABCD7960 DUP7 PUSH1 0x1 PUSH1 0x1 PUSH1 0xA0 SHL SUB AND PUSH4 0xB1C9FE6E PUSH1 0x40 MLOAD DUP2 PUSH4 0xFFFFFFFF AND PUSH1 0xE0 SHL DUP2 MSTORE PUSH1 0x4 ADD PUSH1 0x20 PUSH1 0x40 MLOAD DUP1 DUP4 SUB DUP2 DUP7 GAS STATICCALL ISZERO DUP1 ISZERO PUSH3 0x22ED JUMPI RETURNDATASIZE PUSH0 DUP1 RETURNDATACOPY RETURNDATASIZE PUSH0 REVERT JUMPDEST POP POP POP POP PUSH1 0x40 MLOAD RETURNDATASIZE PUSH1 0x1F NOT PUSH1 0x1F DUP3 ADD AND DUP3 ADD DUP1 PUSH1 0x40 MSTORE POP DUP2 ADD SWAP1 PUSH3 0x2313 SWAP2 SWAP1 PUSH3 0x465F JUMP JUMPDEST PUSH1 0x6 DUP2 GT ISZERO PUSH3 0x2327 JUMPI PUSH3 0x2327 PUSH3 0x44DB JUMP JUMPDEST PUSH1 0x2 PUSH1 0x40 MLOAD PUSH1 0x1 PUSH1 0x1 PUSH1 0xE0 SHL SUB NOT PUSH1 0xE0 DUP6 SWAP1 SHL AND DUP2 MSTORE PUSH1 0x4 DUP2 ADD SWAP3 SWAP1 SWAP3 MSTORE PUSH1 0x24 DUP3 ADD MSTORE PUSH1 0x60 PUSH1 0x44 DUP3 ADD MSTORE PUSH1 0x14 PUSH1 0x64 DUP3 ADD MSTORE PUSH20 0x141A185CD9480F4F48139A59DA1D10DBDB5B5A5D PUSH1 0x62 SHL PUSH1 0x84 DUP3 ADD MSTORE PUSH1 0xA4 ADD PUSH1 0x20 PUSH1 0x40 MLOAD DUP1 DUP4 SUB DUP2 DUP7 GAS DELEGATECALL ISZERO DUP1 ISZERO PUSH3 0x2394 JUMPI RETURNDATASIZE PUSH0 DUP1 RETURNDATACOPY RETURNDATASIZE PUSH0 REVERT JUMPDEST POP POP POP POP PUSH1 0x40 MLOAD RETURNDATASIZE PUSH1 0x1F NOT PUSH1 0x1F DUP3 ADD AND DUP3 ADD DUP1 PUSH1 0x40 MSTORE POP DUP2 ADD SWAP1 PUSH3 0x23BA SWAP2 SWAP1 PUSH3 0x4586 JUMP JUMPDEST POP PUSH20 0x0 PUSH4 0xABCD7960 DUP7 PUSH1 0x1 PUSH1 0x1 PUSH1 0xA0 SHL SUB AND PUSH4 0x581FE69A PUSH1 0x40 MLOAD DUP2 PUSH4 0xFFFFFFFF AND PUSH1 0xE0 SHL DUP2 MSTORE PUSH1 0x4 ADD PUSH1 0x20 PUSH1 0x40 MLOAD DUP1 DUP4 SUB DUP2 DUP7 GAS STATICCALL ISZERO DUP1 ISZERO PUSH3 0x2412 JUMPI RETURNDATASIZE PUSH0 DUP1 RETURNDATACOPY RETURNDATASIZE PUSH0 REVERT JUMPDEST POP POP POP POP PUSH1 0x40 MLOAD RETURNDATASIZE PUSH1 0x1F NOT PUSH1 0x1F DUP3 ADD AND DUP3 ADD DUP1 PUSH1 0x40 MSTORE POP DUP2 ADD SWAP1 PUSH3 0x2438 SWAP2 SWAP1 PUSH3 0x4551 JUMP JUMPDEST PUSH1 0x40 MLOAD PUSH1 0x1 PUSH1 0x1 PUSH1 0xE0 SHL SUB NOT PUSH1 0xE0 DUP5 SWAP1 SHL AND DUP2 MSTORE PUSH4 0xFFFFFFFF SWAP2 SWAP1 SWAP2 AND PUSH1 0x4 DUP3 ADD MSTORE PUSH1 0x2 PUSH1 0x24 DUP3 ADD MSTORE PUSH1 0x60 PUSH1 0x44 DUP3 ADD MSTORE PUSH1 0xE PUSH1 0x64 DUP3 ADD MSTORE PUSH14 0x3220616C69766520776F6C766573 PUSH1 0x90 SHL PUSH1 0x84 DUP3 ADD MSTORE PUSH1 0xA4 ADD PUSH1 0x20 PUSH1 0x40 MLOAD DUP1 DUP4 SUB DUP2 DUP7 GAS DELEGATECALL ISZERO DUP1 ISZERO PUSH3 0x24A5 JUMPI RETURNDATASIZE PUSH0 DUP1 RETURNDATACOPY RETURNDATASIZE PUSH0 REVERT JUMPDEST POP POP POP POP PUSH1 0x40 MLOAD RETURNDATASIZE PUSH1 0x1F NOT PUSH1 0x1F DUP3 ADD AND DUP3 ADD DUP1 PUSH1 0x40 MSTORE POP DUP2 ADD SWAP1 PUSH3 0x24CB SWAP2 SWAP1 PUSH3 0x4586 JUMP JUMPDEST POP PUSH0 DUP1 PUSH32 0xD17083389C81F2C3405A12F6986C432D0865A81B5121947E2DD42E03C7219EC1 SWAP1 POP PUSH0 DUP8 PUSH1 0x1 DUP5 DUP5 PUSH1 0x40 MLOAD PUSH1 0x20 ADD PUSH3 0x250C SWAP5 SWAP4 SWAP3 SWAP2 SWAP1 PUSH3 0x45A2 JUMP JUMPDEST PUSH1 0x40 DUP1 MLOAD DUP1 DUP4 SUB PUSH1 0x1F NOT ADD DUP2 MSTORE SWAP1 DUP3 SWAP1 MSTORE DUP1 MLOAD PUSH1 0x20 SWAP1 SWAP2 ADD KECCAK256 PUSH4 0x1E29F979 PUSH1 0xE3 SHL DUP3 MSTORE PUSH1 0x4 DUP3 ADD DUP2 SWAP1 MSTORE SWAP2 POP PUSH1 0x1 PUSH1 0x1 PUSH1 0xA0 SHL SUB DUP8 AND SWAP1 PUSH4 0xF14FCBC8 SWAP1 PUSH1 0x24 ADD PUSH0 PUSH1 0x40 MLOAD DUP1 DUP4 SUB DUP2 PUSH0 DUP8 DUP1 EXTCODESIZE ISZERO DUP1 ISZERO PUSH3 0x2564 JUMPI PUSH0 DUP1 REVERT JUMPDEST POP GAS CALL ISZERO DUP1 ISZERO PUSH3 0x2577 JUMPI RETURNDATASIZE PUSH0 DUP1 RETURNDATACOPY RETURNDATASIZE PUSH0 REVERT JUMPDEST POP POP PUSH1 0x40 MLOAD PUSH32 0x834C2A4D71D55ED8DEC7315D6F415411621C166A477E4F3E316DCE3E077A4D56 SWAP3 POP PUSH0 SWAP2 POP PUSH3 0x25B9 SWAP1 DUP12 SWAP1 PUSH1 0x1 SWAP1 DUP9 SWAP1 DUP7 SWAP1 PUSH1 0x20 ADD PUSH3 0x45A2 JUMP JUMPDEST PUSH1 0x40 DUP1 MLOAD DUP1 DUP4 SUB PUSH1 0x1F NOT ADD DUP2 MSTORE SWAP1 DUP3 SWAP1 MSTORE DUP1 MLOAD PUSH1 0x20 SWAP1 SWAP2 ADD KECCAK256 PUSH4 0x1E29F979 PUSH1 0xE3 SHL DUP3 MSTORE PUSH1 0x4 DUP3 ADD DUP2 SWAP1 MSTORE SWAP2 POP PUSH1 0x1 PUSH1 0x1 PUSH1 0xA0 SHL SUB DUP9 AND SWAP1 PUSH4 0xF14FCBC8 SWAP1 PUSH1 0x24 ADD PUSH0 PUSH1 0x40 MLOAD DUP1 DUP4 SUB DUP2 PUSH0 DUP8 DUP1 EXTCODESIZE ISZERO DUP1 ISZERO PUSH3 0x2611 JUMPI PUSH0 DUP1 REVERT JUMPDEST POP GAS CALL ISZERO DUP1 ISZERO PUSH3 0x2624 JUMPI RETURNDATASIZE PUSH0 DUP1 RETURNDATACOPY RETURNDATASIZE PUSH0 REVERT JUMPDEST POP POP POP POP POP POP PUSH0 DUP8 PUSH1 0x1 PUSH1 0x1 PUSH1 0xA0 SHL SUB AND PUSH4 0xF14FCBC8 PUSH1 0xE0 SHL DUP4 PUSH1 0x40 MLOAD PUSH1 0x24 ADD PUSH3 0x2651 SWAP2 DUP2 MSTORE PUSH1 0x20 ADD SWAP1 JUMP JUMPDEST PUSH1 0x40 DUP1 MLOAD PUSH1 0x1F NOT DUP2 DUP5 SUB ADD DUP2 MSTORE SWAP2 DUP2 MSTORE PUSH1 0x20 DUP3 ADD DUP1 MLOAD PUSH1 0x1 PUSH1 0x1 PUSH1 0xE0 SHL SUB AND PUSH1 0x1 PUSH1 0x1 PUSH1 0xE0 SHL SUB NOT SWAP1 SWAP5 AND SWAP4 SWAP1 SWAP4 OR SWAP1 SWAP3 MSTORE SWAP1 MLOAD PUSH3 0x2691 SWAP2 SWAP1 PUSH3 0x467F JUMP JUMPDEST PUSH0 PUSH1 0x40 MLOAD DUP1 DUP4 SUB DUP2 PUSH0 DUP7 GAS CALL SWAP2 POP POP RETURNDATASIZE DUP1 PUSH0 DUP2 EQ PUSH3 0x26CC JUMPI PUSH1 0x40 MLOAD SWAP2 POP PUSH1 0x1F NOT PUSH1 0x3F RETURNDATASIZE ADD AND DUP3 ADD PUSH1 0x40 MSTORE RETURNDATASIZE DUP3 MSTORE RETURNDATASIZE PUSH0 PUSH1 0x20 DUP5 ADD RETURNDATACOPY PUSH3 0x26D1 JUMP JUMPDEST PUSH1 0x60 SWAP2 POP JUMPDEST POP POP PUSH1 0x40 MLOAD PUSH4 0x767392B3 PUSH1 0xE0 SHL DUP2 MSTORE DUP2 ISZERO ISZERO PUSH1 0x4 DUP3 ADD MSTORE PUSH0 PUSH1 0x24 DUP3 ADD MSTORE PUSH1 0x60 PUSH1 0x44 DUP3 ADD MSTORE PUSH1 0x16 PUSH1 0x64 DUP3 ADD MSTORE PUSH22 0x159A5B1B1859D95C8818D85B9B9BDD0818DBDB5B5A5D PUSH1 0x52 SHL PUSH1 0x84 DUP3 ADD MSTORE SWAP1 SWAP2 POP PUSH20 0x0 SWAP1 PUSH4 0x767392B3 SWAP1 PUSH1 0xA4 ADD PUSH1 0x20 PUSH1 0x40 MLOAD DUP1 DUP4 SUB DUP2 DUP7 GAS DELEGATECALL ISZERO DUP1 ISZERO PUSH3 0x2759 JUMPI RETURNDATASIZE PUSH0 DUP1 RETURNDATACOPY RETURNDATASIZE PUSH0 REVERT JUMPDEST POP POP POP POP PUSH1 0x40 MLOAD RETURNDATASIZE PUSH1 0x1F NOT PUSH1 0x1F DUP3 ADD AND DUP3 ADD DUP1 PUSH1 0x40 MSTORE POP DUP2 ADD SWAP1 PUSH3 0x277F SWAP2 SWAP1 PUSH3 0x4586 JUMP JUMPDEST POP PUSH1 0x40 MLOAD PUSH4 0xD88D9B7 PUSH1 0xE4 SHL DUP2 MSTORE PUSH1 0x1 PUSH1 0x1 PUSH1 0xA0 SHL SUB DUP9 DUP2 AND PUSH1 0x4 DUP4 ADD MSTORE PUSH20 0x0 SWAP2 PUSH4 0x767392B3 SWAP2 DUP13 AND SWAP1 PUSH4 0xD88D9B70 SWAP1 PUSH1 0x24 ADD PUSH1 0x20 PUSH1 0x40 MLOAD DUP1 DUP4 SUB DUP2 DUP7 GAS STATICCALL ISZERO DUP1 ISZERO PUSH3 0x27E1 JUMPI RETURNDATASIZE PUSH0 DUP1 RETURNDATACOPY RETURNDATASIZE PUSH0 REVERT JUMPDEST POP POP POP POP PUSH1 0x40 MLOAD RETURNDATASIZE PUSH1 0x1F NOT PUSH1 0x1F DUP3 ADD AND DUP3 ADD DUP1 PUSH1 0x40 MSTORE POP DUP2 ADD SWAP1 PUSH3 0x2807 SWAP2 SWAP1 PUSH3 0x4586 JUMP JUMPDEST PUSH1 0x40 MLOAD PUSH1 0x1 PUSH1 0x1 PUSH1 0xE0 SHL SUB NOT PUSH1 0xE0 DUP5 SWAP1 SHL AND DUP2 MSTORE SWAP1 ISZERO ISZERO PUSH1 0x4 DUP3 ADD MSTORE PUSH1 0x1 PUSH1 0x24 DUP3 ADD MSTORE PUSH1 0x60 PUSH1 0x44 DUP3 ADD MSTORE PUSH1 0xC PUSH1 0x64 DUP3 ADD MSTORE PUSH12 0x140C8818DBDB5B5A5D1D1959 PUSH1 0xA2 SHL PUSH1 0x84 DUP3 ADD MSTORE PUSH1 0xA4 ADD PUSH1 0x20 PUSH1 0x40 MLOAD DUP1 DUP4 SUB DUP2 DUP7 GAS DELEGATECALL ISZERO DUP1 ISZERO PUSH3 0x286C JUMPI RETURNDATASIZE PUSH0 DUP1 RETURNDATACOPY RETURNDATASIZE PUSH0 REVERT JUMPDEST POP POP POP POP PUSH1 0x40 MLOAD RETURNDATASIZE PUSH1 0x1F NOT PUSH1 0x1F DUP3 ADD AND DUP3 ADD DUP1 PUSH1 0x40 MSTORE POP DUP2 ADD SWAP1 PUSH3 0x2892 SWAP2 SWAP1 PUSH3 0x4586 JUMP JUMPDEST POP DUP9 PUSH1 0x1 PUSH1 0x1 PUSH1 0xA0 SHL SUB AND PUSH4 0x17E6FCEF PUSH1 0x40 MLOAD DUP2 PUSH4 0xFFFFFFFF AND PUSH1 0xE0 SHL DUP2 MSTORE PUSH1 0x4 ADD PUSH0 PUSH1 0x40 MLOAD DUP1 DUP4 SUB DUP2 PUSH0 DUP8 DUP1 EXTCODESIZE ISZERO DUP1 ISZERO PUSH3 0x28CC JUMPI PUSH0 DUP1 REVERT JUMPDEST POP GAS CALL ISZERO DUP1 ISZERO PUSH3 0x28DF JUMPI RETURNDATASIZE PUSH0 DUP1 RETURNDATACOPY RETURNDATASIZE PUSH0 REVERT JUMPDEST POP POP POP POP PUSH20 0x0 PUSH4 0xABCD7960 DUP11 PUSH1 0x1 PUSH1 0x1 PUSH1 0xA0 SHL SUB AND PUSH4 0xB1C9FE6E PUSH1 0x40 MLOAD DUP2 PUSH4 0xFFFFFFFF AND PUSH1 0xE0 SHL DUP2 MSTORE PUSH1 0x4 ADD PUSH1 0x20 PUSH1 0x40 MLOAD DUP1 DUP4 SUB DUP2 DUP7 GAS STATICCALL ISZERO DUP1 ISZERO PUSH3 0x293A JUMPI RETURNDATASIZE PUSH0 DUP1 RETURNDATACOPY RETURNDATASIZE PUSH0 REVERT JUMPDEST POP POP POP POP PUSH1 0x40 MLOAD RETURNDATASIZE PUSH1 0x1F NOT PUSH1 0x1F DUP3 ADD AND DUP3 ADD DUP1 PUSH1 0x40 MSTORE POP DUP2 ADD SWAP1 PUSH3 0x2960 SWAP2 SWAP1 PUSH3 0x465F JUMP JUMPDEST PUSH1 0x6 DUP2 GT ISZERO PUSH3 0x2974 JUMPI PUSH3 0x2974 PUSH3 0x44DB JUMP JUMPDEST PUSH1 0x3 PUSH1 0x40 MLOAD PUSH1 0x1 PUSH1 0x1 PUSH1 0xE0 SHL SUB NOT PUSH1 0xE0 DUP6 SWAP1 SHL AND DUP2 MSTORE PUSH1 0x4 DUP2 ADD SWAP3 SWAP1 SWAP3 MSTORE PUSH1 0x24 DUP3 ADD MSTORE PUSH1 0x60 PUSH1 0x44 DUP3 ADD MSTORE PUSH1 0x14 PUSH1 0x64 DUP3 ADD MSTORE PUSH20 0x141A185CD9480F4F48139A59DA1D14995D99585B PUSH1 0x62 SHL PUSH1 0x84 DUP3 ADD MSTORE PUSH1 0xA4 ADD PUSH1 0x20 PUSH1 0x40 MLOAD DUP1 DUP4 SUB DUP2 DUP7 GAS DELEGATECALL ISZERO DUP1 ISZERO PUSH3 0x29E1 JUMPI RETURNDATASIZE PUSH0 DUP1 RETURNDATACOPY RETURNDATASIZE PUSH0 REVERT JUMPDEST POP POP POP POP PUSH1 0x40 MLOAD RETURNDATASIZE PUSH1 0x1F NOT PUSH1 0x1F DUP3 ADD AND DUP3 ADD DUP1 PUSH1 0x40 MSTORE POP DUP2 ADD SWAP1 PUSH3 0x2A07 SWAP2 SWAP1 PUSH3 0x4586 JUMP JUMPDEST POP PUSH1 0x40 MLOAD PUSH4 0x1FE45703 PUSH1 0xE1 SHL DUP2 MSTORE PUSH1 0xFF DUP6 AND PUSH1 0x4 DUP3 ADD MSTORE PUSH1 0x24 DUP2 ADD DUP5 SWAP1 MSTORE PUSH1 0x1 PUSH1 0x1 PUSH1 0xA0 SHL SUB DUP9 AND SWAP1 PUSH4 0x3FC8AE06 SWAP1 PUSH1 0x44 ADD PUSH0 PUSH1 0x40 MLOAD DUP1 DUP4 SUB DUP2 PUSH0 DUP8 DUP1 EXTCODESIZE ISZERO DUP1 ISZERO PUSH3 0x2A51 JUMPI PUSH0 DUP1 REVERT JUMPDEST POP GAS CALL ISZERO DUP1 ISZERO PUSH3 0x2A64 JUMPI RETURNDATASIZE PUSH0 DUP1 RETURNDATACOPY RETURNDATASIZE PUSH0 REVERT JUMPDEST POP POP PUSH1 0x40 MLOAD PUSH4 0x1FE45703 PUSH1 0xE1 SHL DUP2 MSTORE PUSH1 0xFF DUP8 AND PUSH1 0x4 DUP3 ADD MSTORE PUSH32 0x834C2A4D71D55ED8DEC7315D6F415411621C166A477E4F3E316DCE3E077A4D56 PUSH1 0x24 DUP3 ADD DUP2 SWAP1 MSTORE SWAP3 POP PUSH1 0x1 PUSH1 0x1 PUSH1 0xA0 SHL SUB DUP10 AND SWAP2 POP PUSH4 0x3FC8AE06 SWAP1 PUSH1 0x44 ADD PUSH0 PUSH1 0x40 MLOAD DUP1 DUP4 SUB DUP2 PUSH0 DUP8 DUP1 EXTCODESIZE ISZERO DUP1 ISZERO PUSH3 0x2AD3 JUMPI PUSH0 DUP1 REVERT JUMPDEST POP GAS CALL ISZERO DUP1 ISZERO PUSH3 0x2AE6 JUMPI RETURNDATASIZE PUSH0 DUP1 RETURNDATACOPY RETURNDATASIZE PUSH0 REVERT JUMPDEST POP POP PUSH1 0x40 MLOAD PUSH4 0x27C0583F PUSH1 0xE0 SHL DUP2 MSTORE PUSH1 0x1 PUSH1 0x1 PUSH1 0xA0 SHL SUB DUP11 DUP2 AND PUSH1 0x4 DUP4 ADD MSTORE PUSH20 0x0 SWAP5 POP PUSH4 0x767392B3 SWAP4 POP DUP14 AND SWAP2 POP PUSH4 0x27C0583F SWAP1 PUSH1 0x24 ADD PUSH1 0x20 PUSH1 0x40 MLOAD DUP1 DUP4 SUB DUP2 DUP7 GAS STATICCALL ISZERO DUP1 ISZERO PUSH3 0x2B4C JUMPI RETURNDATASIZE PUSH0 DUP1 RETURNDATACOPY RETURNDATASIZE PUSH0 REVERT JUMPDEST POP POP POP POP PUSH1 0x40 MLOAD RETURNDATASIZE PUSH1 0x1F NOT PUSH1 0x1F DUP3 ADD AND DUP3 ADD DUP1 PUSH1 0x40 MSTORE POP DUP2 ADD SWAP1 PUSH3 0x2B72 SWAP2 SWAP1 PUSH3 0x4586 JUMP JUMPDEST PUSH1 0x40 MLOAD PUSH1 0x1 PUSH1 0x1 PUSH1 0xE0 SHL SUB NOT PUSH1 0xE0 DUP5 SWAP1 SHL AND DUP2 MSTORE SWAP1 ISZERO ISZERO PUSH1 0x4 DUP3 ADD MSTORE PUSH1 0x1 PUSH1 0x24 DUP3 ADD MSTORE PUSH1 0x60 PUSH1 0x44 DUP3 ADD MSTORE PUSH1 0xB PUSH1 0x64 DUP3 ADD MSTORE PUSH11 0x140CC81C995D99585B1959 PUSH1 0xAA SHL PUSH1 0x84 DUP3 ADD MSTORE PUSH1 0xA4 ADD PUSH1 0x20 PUSH1 0x40 MLOAD DUP1 DUP4 SUB DUP2 DUP7 GAS DELEGATECALL ISZERO DUP1 ISZERO PUSH3 0x2BD6 JUMPI RETURNDATASIZE PUSH0 DUP1 RETURNDATACOPY RETURNDATASIZE PUSH0 REVERT JUMPDEST POP POP POP POP PUSH1 0x40 MLOAD RETURNDATASIZE PUSH1 0x1F NOT PUSH1 0x1F DUP3 ADD AND DUP3 ADD DUP1 PUSH1 0x40 MSTORE POP DUP2 ADD SWAP1 PUSH3 0x2BFC SWAP2 SWAP1 PUSH3 0x4586 JUMP JUMPDEST POP DUP9 PUSH1 0x1 PUSH1 0x1 PUSH1 0xA0 SHL SUB AND PUSH4 0x59B7E6AD PUSH1 0x40 MLOAD DUP2 PUSH4 0xFFFFFFFF AND PUSH1 0xE0 SHL DUP2 MSTORE PUSH1 0x4 ADD PUSH0 PUSH1 0x40 MLOAD DUP1 DUP4 SUB DUP2 PUSH0 DUP8 DUP1 EXTCODESIZE ISZERO DUP1 ISZERO PUSH3 0x2C36 JUMPI PUSH0 DUP1 REVERT JUMPDEST POP GAS CALL ISZERO DUP1 ISZERO PUSH3 0x2C49 JUMPI RETURNDATASIZE PUSH0 DUP1 RETURNDATACOPY RETURNDATASIZE PUSH0 REVERT JUMPDEST POP POP POP POP DUP9 PUSH1 0x1 PUSH1 0x1 PUSH1 0xA0 SHL SUB AND PUSH4 0x61DC4610 PUSH1 0x40 MLOAD DUP2 PUSH4 0xFFFFFFFF AND PUSH1 0xE0 SHL DUP2 MSTORE PUSH1 0x4 ADD PUSH0 PUSH1 0x40 MLOAD DUP1 DUP4 SUB DUP2 PUSH0 DUP8 DUP1 EXTCODESIZE ISZERO DUP1 ISZERO PUSH3 0x2C86 JUMPI PUSH0 DUP1 REVERT JUMPDEST POP GAS CALL ISZERO DUP1 ISZERO PUSH3 0x2C99 JUMPI RETURNDATASIZE PUSH0 DUP1 RETURNDATACOPY RETURNDATASIZE PUSH0 REVERT JUMPDEST POP POP PUSH1 0x40 MLOAD PUSH4 0x1D99E381 PUSH1 0xE1 SHL DUP2 MSTORE PUSH0 PUSH1 0x4 DUP3 ADD DUP2 SWAP1 MSTORE SWAP3 POP PUSH1 0x1 PUSH1 0x1 PUSH1 0xA0 SHL SUB DUP13 AND SWAP2 POP PUSH4 0x3B33C702 SWAP1 PUSH1 0x24 ADD PUSH1 0x60 PUSH1 0x40 MLOAD DUP1 DUP4 SUB DUP2 DUP7 GAS STATICCALL ISZERO DUP1 ISZERO PUSH3 0x2CE3 JUMPI RETURNDATASIZE PUSH0 DUP1 RETURNDATACOPY RETURNDATASIZE PUSH0 REVERT JUMPDEST POP POP POP POP PUSH1 0x40 MLOAD RETURNDATASIZE PUSH1 0x1F NOT PUSH1 0x1F DUP3 ADD AND DUP3 ADD DUP1 PUSH1 0x40 MSTORE POP DUP2 ADD SWAP1 PUSH3 0x2D09 SWAP2 SWAP1 PUSH3 0x45DB JUMP JUMPDEST POP PUSH1 0x40 MLOAD PUSH4 0x767392B3 PUSH1 0xE0 SHL DUP2 MSTORE SWAP1 SWAP3 POP PUSH20 0x0 SWAP2 POP PUSH4 0x767392B3 SWAP1 PUSH3 0x2D49 SWAP1 DUP5 SWAP1 PUSH0 SWAP1 PUSH1 0x4 ADD PUSH3 0x4622 JUMP JUMPDEST PUSH1 0x20 PUSH1 0x40 MLOAD DUP1 DUP4 SUB DUP2 DUP7 GAS DELEGATECALL ISZERO DUP1 ISZERO PUSH3 0x2D65 JUMPI RETURNDATASIZE PUSH0 DUP1 RETURNDATACOPY RETURNDATASIZE PUSH0 REVERT JUMPDEST POP POP POP POP PUSH1 0x40 MLOAD RETURNDATASIZE PUSH1 0x1F NOT PUSH1 0x1F DUP3 ADD AND DUP3 ADD DUP1 PUSH1 0x40 MSTORE POP DUP2 ADD SWAP1 PUSH3 0x2D8B SWAP2 SWAP1 PUSH3 0x4586 JUMP JUMPDEST POP PUSH20 0x0 PUSH4 0xABCD7960 DUP12 PUSH1 0x1 PUSH1 0x1 PUSH1 0xA0 SHL SUB AND PUSH4 0x581FE69A PUSH1 0x40 MLOAD DUP2 PUSH4 0xFFFFFFFF AND PUSH1 0xE0 SHL DUP2 MSTORE PUSH1 0x4 ADD PUSH1 0x20 PUSH1 0x40 MLOAD DUP1 DUP4 SUB DUP2 DUP7 GAS STATICCALL ISZERO DUP1 ISZERO PUSH3 0x2DE3 JUMPI RETURNDATASIZE PUSH0 DUP1 RETURNDATACOPY RETURNDATASIZE PUSH0 REVERT JUMPDEST POP POP POP POP PUSH1 0x40 MLOAD RETURNDATASIZE PUSH1 0x1F NOT PUSH1 0x1F DUP3 ADD AND DUP3 ADD DUP1 PUSH1 0x40 MSTORE POP DUP2 ADD SWAP1 PUSH3 0x2E09 SWAP2 SWAP1 PUSH3 0x4551 JUMP JUMPDEST PUSH1 0x40 MLOAD PUSH1 0x1 PUSH1 0x1 PUSH1 0xE0 SHL SUB NOT PUSH1 0xE0 DUP5 SWAP1 SHL AND DUP2 MSTORE PUSH4 0xFFFFFFFF SWAP2 SWAP1 SWAP2 AND PUSH1 0x4 DUP3 ADD MSTORE PUSH1 0x2 PUSH1 0x24 DUP3 ADD MSTORE PUSH1 0x60 PUSH1 0x44 DUP3 ADD MSTORE PUSH1 0x11 PUSH1 0x64 DUP3 ADD MSTORE PUSH17 0xC881DDBDB1D995CC81CDD5C9D9A5D9959 PUSH1 0x7A SHL PUSH1 0x84 DUP3 ADD MSTORE PUSH1 0xA4 ADD PUSH1 0x20 PUSH1 0x40 MLOAD DUP1 DUP4 SUB DUP2 DUP7 GAS DELEGATECALL ISZERO DUP1 ISZERO PUSH3 0x2E79 JUMPI RETURNDATASIZE PUSH0 DUP1 RETURNDATACOPY RETURNDATASIZE PUSH0 REVERT JUMPDEST POP POP POP POP PUSH1 0x40 MLOAD RETURNDATASIZE PUSH1 0x1F NOT PUSH1 0x1F DUP3 ADD AND DUP3 ADD DUP1 PUSH1 0x40 MSTORE POP DUP2 ADD SWAP1 PUSH3 0x2E9F SWAP2 SWAP1 PUSH3 0x4586 JUMP JUMPDEST POP PUSH20 0x0 PUSH4 0xABCD7960 DUP12 PUSH1 0x1 PUSH1 0x1 PUSH1 0xA0 SHL SUB AND PUSH4 0x8C1D85D8 PUSH1 0x40 MLOAD DUP2 PUSH4 0xFFFFFFFF AND PUSH1 0xE0 SHL DUP2 MSTORE PUSH1 0x4 ADD PUSH1 0x20 PUSH1 0x40 MLOAD DUP1 DUP4 SUB DUP2 DUP7 GAS STATICCALL ISZERO DUP1 ISZERO PUSH3 0x2EF7 JUMPI RETURNDATASIZE PUSH0 DUP1 RETURNDATACOPY RETURNDATASIZE PUSH0 REVERT JUMPDEST POP POP POP POP PUSH1 0x40 MLOAD RETURNDATASIZE PUSH1 0x1F NOT PUSH1 0x1F DUP3 ADD AND DUP3 ADD DUP1 PUSH1 0x40 MSTORE POP DUP2 ADD SWAP1 PUSH3 0x2F1D SWAP2 SWAP1 PUSH3 0x4551 JUMP JUMPDEST PUSH1 0x40 MLOAD PUSH1 0x1 PUSH1 0x1 PUSH1 0xE0 SHL SUB NOT PUSH1 0xE0 DUP5 SWAP1 SHL AND DUP2 MSTORE PUSH4 0xFFFFFFFF SWAP2 SWAP1 SWAP2 AND PUSH1 0x4 DUP3 ADD MSTORE PUSH0 PUSH1 0x24 DUP3 ADD MSTORE PUSH1 0x60 PUSH1 0x44 DUP3 ADD MSTORE PUSH1 0x15 PUSH1 0x64 DUP3 ADD MSTORE PUSH21 0xC081B9BDB8B5DDBDB1D995CC81CDD5C9D9A5D9959 PUSH1 0x5A SHL PUSH1 0x84 DUP3 ADD MSTORE PUSH1 0xA4 ADD PUSH3 0xE9F JUMP JUMPDEST PUSH0 PUSH3 0x2F85 PUSH3 0x435C JUMP JUMPDEST PUSH0 DUP1 SLOAD PUSH1 0x40 MLOAD PUSH4 0x7DBF5FB PUSH1 0xE1 SHL DUP2 MSTORE SWAP3 SWAP4 POP SWAP1 SWAP2 PUSH1 0x1 PUSH1 0x1 PUSH1 0xA0 SHL SUB SWAP1 SWAP2 AND SWAP1 PUSH4 0xFB7EBF6 SWAP1 PUSH3 0x2FBC SWAP1 DUP6 SWAP1 PUSH1 0x4 ADD PUSH3 0x43FD JUMP JUMPDEST PUSH1 0x20 PUSH1 0x40 MLOAD DUP1 DUP4 SUB DUP2 PUSH0 DUP8 GAS CALL ISZERO DUP1 ISZERO PUSH3 0x2FD9 JUMPI RETURNDATASIZE PUSH0 DUP1 RETURNDATACOPY RETURNDATASIZE PUSH0 REVERT JUMPDEST POP POP POP POP PUSH1 0x40 MLOAD RETURNDATASIZE PUSH1 0x1F NOT PUSH1 0x1F DUP3 ADD AND DUP3 ADD DUP1 PUSH1 0x40 MSTORE POP DUP2 ADD SWAP1 PUSH3 0x2FFF SWAP2 SWAP1 PUSH3 0x44A4 JUMP JUMPDEST PUSH1 0x40 DUP1 MLOAD PUSH1 0x4 DUP2 MSTORE PUSH1 0x24 DUP2 ADD DUP3 MSTORE PUSH1 0x20 DUP2 ADD DUP1 MLOAD PUSH1 0x1 PUSH1 0x1 PUSH1 0xE0 SHL SUB AND PUSH4 0xB688A363 PUSH1 0xE0 SHL OR SWAP1 MSTORE SWAP1 MLOAD SWAP2 SWAP3 POP PUSH0 SWAP2 PUSH1 0x1 PUSH1 0x1 PUSH1 0xA0 SHL SUB DUP5 AND SWAP2 PUSH3 0x3044 SWAP2 PUSH3 0x467F JUMP JUMPDEST PUSH0 PUSH1 0x40 MLOAD DUP1 DUP4 SUB DUP2 PUSH0 DUP7 GAS CALL SWAP2 POP POP RETURNDATASIZE DUP1 PUSH0 DUP2 EQ PUSH3 0x307F JUMPI PUSH1 0x40 MLOAD SWAP2 POP PUSH1 0x1F NOT PUSH1 0x3F RETURNDATASIZE ADD AND DUP3 ADD PUSH1 0x40 MSTORE RETURNDATASIZE DUP3 MSTORE RETURNDATASIZE PUSH0 PUSH1 0x20 DUP5 ADD RETURNDATACOPY PUSH3 0x3084 JUMP JUMPDEST PUSH1 0x60 SWAP2 POP JUMPDEST POP POP PUSH1 0x40 MLOAD PUSH4 0x767392B3 PUSH1 0xE0 SHL DUP2 MSTORE DUP2 ISZERO ISZERO PUSH1 0x4 DUP3 ADD MSTORE PUSH0 PUSH1 0x24 DUP3 ADD MSTORE PUSH1 0x60 PUSH1 0x44 DUP3 ADD MSTORE PUSH1 0x19 PUSH1 0x64 DUP3 ADD MSTORE PUSH32 0x486F73742063616E6E6F74206A6F696E207468652067616D6500000000000000 PUSH1 0x84 DUP3 ADD MSTORE SWAP1 SWAP2 POP PUSH20 0x0 SWAP1 PUSH4 0x767392B3 SWAP1 PUSH1 0xA4 ADD PUSH3 0x14A2 JUMP JUMPDEST PUSH1 0x40 MLOAD PUSH3 0x310B SWAP1 PUSH3 0x43EF JUMP JUMPDEST PUSH1 0x40 MLOAD DUP1 SWAP2 SUB SWAP1 PUSH0 CREATE DUP1 ISZERO DUP1 ISZERO PUSH3 0x3125 JUMPI RETURNDATASIZE PUSH0 DUP1 RETURNDATACOPY RETURNDATASIZE PUSH0 REVERT JUMPDEST POP PUSH0 DUP1 SLOAD PUSH1 0x1 PUSH1 0x1 PUSH1 0xA0 SHL SUB SWAP3 SWAP1 SWAP3 AND PUSH1 0x1 PUSH1 0x1 PUSH1 0xA0 SHL SUB NOT SWAP3 DUP4 AND OR SWAP1 SSTORE PUSH1 0x1 DUP1 SLOAD SWAP1 SWAP2 AND ADDRESS OR SWAP1 SSTORE JUMP JUMPDEST PUSH0 PUSH3 0x315C PUSH3 0x435C JUMP JUMPDEST PUSH0 DUP1 SLOAD PUSH1 0x40 MLOAD PUSH4 0x7DBF5FB PUSH1 0xE1 SHL DUP2 MSTORE SWAP3 SWAP4 POP SWAP1 SWAP2 PUSH1 0x1 PUSH1 0x1 PUSH1 0xA0 SHL SUB SWAP1 SWAP2 AND SWAP1 PUSH4 0xFB7EBF6 SWAP1 PUSH3 0x3193 SWAP1 DUP6 SWAP1 PUSH1 0x4 ADD PUSH3 0x43FD JUMP JUMPDEST PUSH1 0x20 PUSH1 0x40 MLOAD DUP1 DUP4 SUB DUP2 PUSH0 DUP8 GAS CALL ISZERO DUP1 ISZERO PUSH3 0x31B0 JUMPI RETURNDATASIZE PUSH0 DUP1 RETURNDATACOPY RETURNDATASIZE PUSH0 REVERT JUMPDEST POP POP POP POP PUSH1 0x40 MLOAD RETURNDATASIZE PUSH1 0x1F NOT PUSH1 0x1F DUP3 ADD AND DUP3 ADD DUP1 PUSH1 0x40 MSTORE POP DUP2 ADD SWAP1 PUSH3 0x31D6 SWAP2 SWAP1 PUSH3 0x44A4 JUMP JUMPDEST SWAP1 POP PUSH0 DUP2 PUSH1 0x40 MLOAD PUSH3 0x31E8 SWAP1 PUSH3 0x43E1 JUMP JUMPDEST PUSH1 0x1 PUSH1 0x1 PUSH1 0xA0 SHL SUB SWAP1 SWAP2 AND DUP2 MSTORE PUSH1 0x20 ADD PUSH1 0x40 MLOAD DUP1 SWAP2 SUB SWAP1 PUSH0 CREATE DUP1 ISZERO DUP1 ISZERO PUSH3 0x3212 JUMPI RETURNDATASIZE PUSH0 DUP1 RETURNDATACOPY RETURNDATASIZE PUSH0 REVERT JUMPDEST POP SWAP1 POP PUSH0 DUP3 PUSH1 0x40 MLOAD PUSH3 0x3225 SWAP1 PUSH3 0x43E1 JUMP JUMPDEST PUSH1 0x1 PUSH1 0x1 PUSH1 0xA0 SHL SUB SWAP1 SWAP2 AND DUP2 MSTORE PUSH1 0x20 ADD PUSH1 0x40 MLOAD DUP1 SWAP2 SUB SWAP1 PUSH0 CREATE DUP1 ISZERO DUP1 ISZERO PUSH3 0x324F JUMPI RETURNDATASIZE PUSH0 DUP1 RETURNDATACOPY RETURNDATASIZE PUSH0 REVERT JUMPDEST POP PUSH1 0x40 MLOAD PUSH4 0x77D52AD PUSH1 0xE5 SHL DUP2 MSTORE PUSH0 PUSH1 0x4 DUP3 ADD MSTORE SWAP1 SWAP2 POP PUSH1 0x1 PUSH1 0x1 PUSH1 0xA0 SHL SUB DUP4 AND SWAP1 PUSH4 0xEFAA55A0 SWAP1 PUSH1 0x24 ADD PUSH0 PUSH1 0x40 MLOAD DUP1 DUP4 SUB DUP2 PUSH0 DUP8 DUP1 EXTCODESIZE ISZERO DUP1 ISZERO PUSH3 0x3292 JUMPI PUSH0 DUP1 REVERT JUMPDEST POP GAS CALL ISZERO DUP1 ISZERO PUSH3 0x32A5 JUMPI RETURNDATASIZE PUSH0 DUP1 RETURNDATACOPY RETURNDATASIZE PUSH0 REVERT JUMPDEST POP POP PUSH1 0x40 MLOAD PUSH4 0x77D52AD PUSH1 0xE5 SHL DUP2 MSTORE PUSH0 PUSH1 0x4 DUP3 ADD MSTORE PUSH1 0x1 PUSH1 0x1 PUSH1 0xA0 SHL SUB DUP5 AND SWAP3 POP PUSH4 0xEFAA55A0 SWAP2 POP PUSH1 0x24 ADD PUSH0 PUSH1 0x40 MLOAD DUP1 DUP4 SUB DUP2 PUSH0 DUP8 DUP1 EXTCODESIZE ISZERO DUP1 ISZERO PUSH3 0x32E8 JUMPI PUSH0 DUP1 REVERT JUMPDEST POP GAS CALL ISZERO DUP1 ISZERO PUSH3 0x32FB JUMPI RETURNDATASIZE PUSH0 DUP1 RETURNDATACOPY RETURNDATASIZE PUSH0 REVERT JUMPDEST POP POP POP POP PUSH20 0x0 PUSH4 0xABCD7960 DUP5 PUSH1 0x1 PUSH1 0x1 PUSH1 0xA0 SHL SUB AND PUSH4 0xBEDECC06 PUSH1 0x40 MLOAD DUP2 PUSH4 0xFFFFFFFF AND PUSH1 0xE0 SHL DUP2 MSTORE PUSH1 0x4 ADD PUSH1 0x20 PUSH1 0x40 MLOAD DUP1 DUP4 SUB DUP2 DUP7 GAS STATICCALL ISZERO DUP1 ISZERO PUSH3 0x3356 JUMPI RETURNDATASIZE PUSH0 DUP1 RETURNDATACOPY RETURNDATASIZE PUSH0 REVERT JUMPDEST POP POP POP POP PUSH1 0x40 MLOAD RETURNDATASIZE PUSH1 0x1F NOT PUSH1 0x1F DUP3 ADD AND DUP3 ADD DUP1 PUSH1 0x40 MSTORE POP DUP2 ADD SWAP1 PUSH3 0x337C SWAP2 SWAP1 PUSH3 0x46C9 JUMP JUMPDEST PUSH1 0x40 MLOAD PUSH1 0x1 PUSH1 0x1 PUSH1 0xE0 SHL SUB NOT PUSH1 0xE0 DUP5 SWAP1 SHL AND DUP2 MSTORE PUSH1 0x4 DUP2 ADD SWAP2 SWAP1 SWAP2 MSTORE PUSH1 0x2 PUSH1 0x24 DUP3 ADD MSTORE PUSH1 0x60 PUSH1 0x44 DUP3 ADD MSTORE PUSH1 0x10 PUSH1 0x64 DUP3 ADD MSTORE PUSH16 0xC881C1B185E595C9CC81A9BDA5B9959 PUSH1 0x82 SHL PUSH1 0x84 DUP3 ADD MSTORE PUSH1 0xA4 ADD PUSH1 0x20 PUSH1 0x40 MLOAD DUP1 DUP4 SUB DUP2 DUP7 GAS DELEGATECALL ISZERO DUP1 ISZERO PUSH3 0x33E5 JUMPI RETURNDATASIZE PUSH0 DUP1 RETURNDATACOPY RETURNDATASIZE PUSH0 REVERT JUMPDEST POP POP POP POP PUSH1 0x40 MLOAD RETURNDATASIZE PUSH1 0x1F NOT PUSH1 0x1F DUP3 ADD AND DUP3 ADD DUP1 PUSH1 0x40 MSTORE POP DUP2 ADD SWAP1 PUSH3 0x340B SWAP2 SWAP1 PUSH3 0x4586 JUMP JUMPDEST POP PUSH1 0x40 MLOAD PUSH4 0xB9CD92C3 PUSH1 0xE0 SHL DUP2 MSTORE PUSH1 0x1 PUSH1 0x1 PUSH1 0xA0 SHL SUB DUP4 DUP2 AND PUSH1 0x4 DUP4 ADD MSTORE PUSH20 0x0 SWAP2 PUSH4 0xABCD7960 SWAP2 DUP7 AND SWAP1 PUSH4 0xB9CD92C3 SWAP1 PUSH1 0x24 ADD PUSH1 0x20 PUSH1 0x40 MLOAD DUP1 DUP4 SUB DUP2 DUP7 GAS STATICCALL ISZERO DUP1 ISZERO PUSH3 0x346D JUMPI RETURNDATASIZE PUSH0 DUP1 RETURNDATACOPY RETURNDATASIZE PUSH0 REVERT JUMPDEST POP POP POP POP PUSH1 0x40 MLOAD RETURNDATASIZE PUSH1 0x1F NOT PUSH1 0x1F DUP3 ADD AND DUP3 ADD DUP1 PUSH1 0x40 MSTORE POP DUP2 ADD SWAP1 PUSH3 0x3493 SWAP2 SWAP1 PUSH3 0x46E1 JUMP JUMPDEST PUSH1 0x40 MLOAD PUSH1 0x1 PUSH1 0x1 PUSH1 0xE0 SHL SUB NOT PUSH1 0xE0 DUP5 SWAP1 SHL AND DUP2 MSTORE PUSH1 0xFF SWAP1 SWAP2 AND PUSH1 0x4 DUP3 ADD MSTORE PUSH1 0x1 PUSH1 0x24 DUP3 ADD MSTORE PUSH1 0x60 PUSH1 0x44 DUP3 ADD MSTORE PUSH1 0x16 PUSH1 0x64 DUP3 ADD MSTORE PUSH22 0x5031206973207365617420302028696E6465782B3129 PUSH1 0x50 SHL PUSH1 0x84 DUP3 ADD MSTORE PUSH1 0xA4 ADD PUSH1 0x20 PUSH1 0x40 MLOAD DUP1 DUP4 SUB DUP2 DUP7 GAS DELEGATECALL ISZERO DUP1 ISZERO PUSH3 0x3504 JUMPI RETURNDATASIZE PUSH0 DUP1 RETURNDATACOPY RETURNDATASIZE PUSH0 REVERT JUMPDEST POP POP POP POP PUSH1 0x40 MLOAD RETURNDATASIZE PUSH1 0x1F NOT PUSH1 0x1F DUP3 ADD AND DUP3 ADD DUP1 PUSH1 0x40 MSTORE POP DUP2 ADD SWAP1 PUSH3 0x352A SWAP2 SWAP1 PUSH3 0x4586 JUMP JUMPDEST POP PUSH1 0x40 MLOAD PUSH4 0xB9CD92C3 PUSH1 0xE0 SHL DUP2 MSTORE PUSH1 0x1 PUSH1 0x1 PUSH1 0xA0 SHL SUB DUP3 DUP2 AND PUSH1 0x4 DUP4 ADD MSTORE PUSH20 0x0 SWAP2 PUSH4 0xABCD7960 SWAP2 DUP7 AND SWAP1 PUSH4 0xB9CD92C3 SWAP1 PUSH1 0x24 ADD PUSH1 0x20 PUSH1 0x40 MLOAD DUP1 DUP4 SUB DUP2 DUP7 GAS STATICCALL ISZERO DUP1 ISZERO PUSH3 0x358C JUMPI RETURNDATASIZE PUSH0 DUP1 RETURNDATACOPY RETURNDATASIZE PUSH0 REVERT JUMPDEST POP POP POP POP PUSH1 0x40 MLOAD RETURNDATASIZE PUSH1 0x1F NOT PUSH1 0x1F DUP3 ADD AND DUP3 ADD DUP1 PUSH1 0x40 MSTORE POP DUP2 ADD SWAP1 PUSH3 0x35B2 SWAP2 SWAP1 PUSH3 0x46E1 JUMP JUMPDEST PUSH1 0x40 MLOAD PUSH1 0x1 PUSH1 0x1 PUSH1 0xE0 SHL SUB NOT PUSH1 0xE0 DUP5 SWAP1 SHL AND DUP2 MSTORE PUSH1 0xFF SWAP1 SWAP2 AND PUSH1 0x4 DUP3 ADD MSTORE PUSH1 0x2 PUSH1 0x24 DUP3 ADD MSTORE PUSH1 0x60 PUSH1 0x44 DUP3 ADD MSTORE PUSH1 0x16 PUSH1 0x64 DUP3 ADD MSTORE PUSH22 0x5032206973207365617420312028696E6465782B3129 PUSH1 0x50 SHL PUSH1 0x84 DUP3 ADD MSTORE PUSH1 0xA4 ADD PUSH3 0x1235 JUMP JUMPDEST PUSH0 PUSH3 0x3618 PUSH3 0x435C JUMP JUMPDEST PUSH0 DUP1 SLOAD PUSH1 0x40 MLOAD PUSH4 0x7DBF5FB PUSH1 0xE1 SHL DUP2 MSTORE SWAP3 SWAP4 POP SWAP1 SWAP2 PUSH1 0x1 PUSH1 0x1 PUSH1 0xA0 SHL SUB SWAP1 SWAP2 AND SWAP1 PUSH4 0xFB7EBF6 SWAP1 PUSH3 0x364F SWAP1 DUP6 SWAP1 PUSH1 0x4 ADD PUSH3 0x43FD JUMP JUMPDEST PUSH1 0x20 PUSH1 0x40 MLOAD DUP1 DUP4 SUB DUP2 PUSH0 DUP8 GAS CALL ISZERO DUP1 ISZERO PUSH3 0x366C JUMPI RETURNDATASIZE PUSH0 DUP1 RETURNDATACOPY RETURNDATASIZE PUSH0 REVERT JUMPDEST POP POP POP POP PUSH1 0x40 MLOAD RETURNDATASIZE PUSH1 0x1F NOT PUSH1 0x1F DUP3 ADD AND DUP3 ADD DUP1 PUSH1 0x40 MSTORE POP DUP2 ADD SWAP1 PUSH3 0x3692 SWAP2 SWAP1 PUSH3 0x44A4 JUMP JUMPDEST SWAP1 POP DUP1 PUSH1 0x40 MLOAD PUSH3 0x36A3 SWAP1 PUSH3 0x43E1 JUMP JUMPDEST PUSH1 0x1 PUSH1 0x1 PUSH1 0xA0 SHL SUB SWAP1 SWAP2 AND DUP2 MSTORE PUSH1 0x20 ADD PUSH1 0x40 MLOAD DUP1 SWAP2 SUB SWAP1 PUSH0 CREATE DUP1 ISZERO DUP1 ISZERO PUSH3 0x36CD JUMPI RETURNDATASIZE PUSH0 DUP1 RETURNDATACOPY RETURNDATASIZE PUSH0 REVERT JUMPDEST POP PUSH1 0x40 MLOAD PUSH4 0x77D52AD PUSH1 0xE5 SHL DUP2 MSTORE PUSH0 PUSH1 0x4 DUP3 ADD MSTORE PUSH1 0x1 PUSH1 0x1 PUSH1 0xA0 SHL SUB SWAP2 SWAP1 SWAP2 AND SWAP1 PUSH4 0xEFAA55A0 SWAP1 PUSH1 0x24 ADD PUSH0 PUSH1 0x40 MLOAD DUP1 DUP4 SUB DUP2 PUSH0 DUP8 DUP1 EXTCODESIZE ISZERO DUP1 ISZERO PUSH3 0x370F JUMPI PUSH0 DUP1 REVERT JUMPDEST POP GAS CALL ISZERO DUP1 ISZERO PUSH3 0x3722 JUMPI RETURNDATASIZE PUSH0 DUP1 RETURNDATACOPY RETURNDATASIZE PUSH0 REVERT JUMPDEST POP POP POP POP DUP1 PUSH1 0x40 MLOAD PUSH3 0x3735 SWAP1 PUSH3 0x43E1 JUMP JUMPDEST PUSH1 0x1 PUSH1 0x1 PUSH1 0xA0 SHL SUB SWAP1 SWAP2 AND DUP2 MSTORE PUSH1 0x20 ADD PUSH1 0x40 MLOAD DUP1 SWAP2 SUB SWAP1 PUSH0 CREATE DUP1 ISZERO DUP1 ISZERO PUSH3 0x375F JUMPI RETURNDATASIZE PUSH0 DUP1 RETURNDATACOPY RETURNDATASIZE PUSH0 REVERT JUMPDEST POP PUSH1 0x40 MLOAD PUSH4 0x77D52AD PUSH1 0xE5 SHL DUP2 MSTORE PUSH0 PUSH1 0x4 DUP3 ADD MSTORE PUSH1 0x1 PUSH1 0x1 PUSH1 0xA0 SHL SUB SWAP2 SWAP1 SWAP2 AND SWAP1 PUSH4 0xEFAA55A0 SWAP1 PUSH1 0x24 ADD PUSH0 PUSH1 0x40 MLOAD DUP1 DUP4 SUB DUP2 PUSH0 DUP8 DUP1 EXTCODESIZE ISZERO DUP1 ISZERO PUSH3 0x37A1 JUMPI PUSH0 DUP1 REVERT JUMPDEST POP GAS CALL ISZERO DUP1 ISZERO PUSH3 0x37B4 JUMPI RETURNDATASIZE PUSH0 DUP1 RETURNDATACOPY RETURNDATASIZE PUSH0 REVERT JUMPDEST POP POP POP POP DUP1 PUSH1 0x40 MLOAD PUSH3 0x37C7 SWAP1 PUSH3 0x43E1 JUMP JUMPDEST PUSH1 0x1 PUSH1 0x1 PUSH1 0xA0 SHL SUB SWAP1 SWAP2 AND DUP2 MSTORE PUSH1 0x20 ADD PUSH1 0x40 MLOAD DUP1 SWAP2 SUB SWAP1 PUSH0 CREATE DUP1 ISZERO DUP1 ISZERO PUSH3 0x37F1 JUMPI RETURNDATASIZE PUSH0 DUP1 RETURNDATACOPY RETURNDATASIZE PUSH0 REVERT JUMPDEST POP PUSH1 0x40 MLOAD PUSH4 0x77D52AD PUSH1 0xE5 SHL DUP2 MSTORE PUSH0 PUSH1 0x4 DUP3 ADD MSTORE PUSH1 0x1 PUSH1 0x1 PUSH1 0xA0 SHL SUB SWAP2 SWAP1 SWAP2 AND SWAP1 PUSH4 0xEFAA55A0 SWAP1 PUSH1 0x24 ADD PUSH0 PUSH1 0x40 MLOAD DUP1 DUP4 SUB DUP2 PUSH0 DUP8 DUP1 EXTCODESIZE ISZERO DUP1 ISZERO PUSH3 0x3833 JUMPI PUSH0 DUP1 REVERT JUMPDEST POP GAS CALL ISZERO DUP1 ISZERO PUSH3 0x3846 JUMPI RETURNDATASIZE PUSH0 DUP1 RETURNDATACOPY RETURNDATASIZE PUSH0 REVERT JUMPDEST POP POP POP POP DUP1 PUSH1 0x1 PUSH1 0x1 PUSH1 0xA0 SHL SUB AND PUSH4 0xBE9A6555 PUSH1 0x40 MLOAD DUP2 PUSH4 0xFFFFFFFF AND PUSH1 0xE0 SHL DUP2 MSTORE PUSH1 0x4 ADD PUSH0 PUSH1 0x40 MLOAD DUP1 DUP4 SUB DUP2 PUSH0 DUP8 DUP1 EXTCODESIZE ISZERO DUP1 ISZERO PUSH3 0x3883 JUMPI PUSH0 DUP1 REVERT JUMPDEST POP GAS CALL ISZERO DUP1 ISZERO PUSH3 0x3896 JUMPI RETURNDATASIZE PUSH0 DUP1 RETURNDATACOPY RETURNDATASIZE PUSH0 REVERT JUMPDEST POP POP POP POP PUSH20 0x0 PUSH4 0xABCD7960 DUP3 PUSH1 0x1 PUSH1 0x1 PUSH1 0xA0 SHL SUB AND PUSH4 0xB1C9FE6E PUSH1 0x40 MLOAD DUP2 PUSH4 0xFFFFFFFF AND PUSH1 0xE0 SHL DUP2 MSTORE PUSH1 0x4 ADD PUSH1 0x20 PUSH1 0x40 MLOAD DUP1 DUP4 SUB DUP2 DUP7 GAS STATICCALL ISZERO DUP1 ISZERO PUSH3 0x38F1 JUMPI RETURNDATASIZE PUSH0 DUP1 RETURNDATACOPY RETURNDATASIZE PUSH0 REVERT JUMPDEST POP POP POP POP PUSH1 0x40 MLOAD RETURNDATASIZE PUSH1 0x1F NOT PUSH1 0x1F DUP3 ADD AND DUP3 ADD DUP1 PUSH1 0x40 MSTORE POP DUP2 ADD SWAP1 PUSH3 0x3917 SWAP2 SWAP1 PUSH3 0x465F JUMP JUMPDEST PUSH1 0x6 DUP2 GT ISZERO PUSH3 0x392B JUMPI PUSH3 0x392B PUSH3 0x44DB JUMP JUMPDEST PUSH1 0x1 PUSH1 0x40 MLOAD PUSH1 0x1 PUSH1 0x1 PUSH1 0xE0 SHL SUB NOT PUSH1 0xE0 DUP6 SWAP1 SHL AND DUP2 MSTORE PUSH1 0x4 DUP2 ADD SWAP3 SWAP1 SWAP3 MSTORE PUSH1 0x24 DUP3 ADD MSTORE PUSH1 0x60 PUSH1 0x44 DUP3 ADD MSTORE PUSH1 0xE PUSH1 0x64 DUP3 ADD MSTORE PUSH14 0x5068617365203D3D20536574757 PUSH1 0x94 SHL PUSH1 0x84 DUP3 ADD MSTORE PUSH1 0xA4 ADD PUSH1 0x20 PUSH1 0x40 MLOAD DUP1 DUP4 SUB DUP2 DUP7 GAS DELEGATECALL ISZERO DUP1 ISZERO PUSH3 0x3992 JUMPI RETURNDATASIZE PUSH0 DUP1 RETURNDATACOPY RETURNDATASIZE PUSH0 REVERT JUMPDEST POP POP POP POP PUSH1 0x40 MLOAD RETURNDATASIZE PUSH1 0x1F NOT PUSH1 0x1F DUP3 ADD AND DUP3 ADD DUP1 PUSH1 0x40 MSTORE POP DUP2 ADD SWAP1 PUSH3 0x39B8 SWAP2 SWAP1 PUSH3 0x4586 JUMP JUMPDEST POP PUSH1 0x40 DUP1 MLOAD PUSH1 0x2 DUP1 DUP3 MSTORE PUSH1 0x60 DUP3 ADD DUP4 MSTORE PUSH0 SWAP3 PUSH1 0x20 DUP4 ADD SWAP1 DUP1 CALLDATASIZE DUP4 CALLDATACOPY ADD SWAP1 POP POP SWAP1 POP PUSH1 0x1 DUP2 PUSH0 DUP2 MLOAD DUP2 LT PUSH3 0x39F0 JUMPI PUSH3 0x39F0 PUSH3 0x44C7 JUMP JUMPDEST PUSH1 0x20 MUL PUSH1 0x20 ADD ADD SWAP1 PUSH1 0x4 DUP2 GT ISZERO PUSH3 0x3A0C JUMPI PUSH3 0x3A0C PUSH3 0x44DB JUMP JUMPDEST SWAP1 DUP2 PUSH1 0x4 DUP2 GT ISZERO PUSH3 0x3A22 JUMPI PUSH3 0x3A22 PUSH3 0x44DB JUMP JUMPDEST DUP2 MSTORE POP POP PUSH0 DUP2 PUSH1 0x1 DUP2 MLOAD DUP2 LT PUSH3 0x3A3D JUMPI PUSH3 0x3A3D PUSH3 0x44C7 JUMP JUMPDEST PUSH1 0x20 MUL PUSH1 0x20 ADD ADD SWAP1 PUSH1 0x4 DUP2 GT ISZERO PUSH3 0x3A59 JUMPI PUSH3 0x3A59 PUSH3 0x44DB JUMP JUMPDEST SWAP1 DUP2 PUSH1 0x4 DUP2 GT ISZERO PUSH3 0x3A6F JUMPI PUSH3 0x3A6F PUSH3 0x44DB JUMP JUMPDEST DUP2 MSTORE POP POP PUSH0 DUP3 PUSH1 0x1 PUSH1 0x1 PUSH1 0xA0 SHL SUB AND PUSH4 0xE373A7DE PUSH1 0xE0 SHL DUP4 PUSH1 0x40 MLOAD PUSH1 0x24 ADD PUSH3 0x3A99 SWAP2 SWAP1 PUSH3 0x44EF JUMP JUMPDEST PUSH1 0x40 DUP1 MLOAD PUSH1 0x1F NOT DUP2 DUP5 SUB ADD DUP2 MSTORE SWAP2 DUP2 MSTORE PUSH1 0x20 DUP3 ADD DUP1 MLOAD PUSH1 0x1 PUSH1 0x1 PUSH1 0xE0 SHL SUB AND PUSH1 0x1 PUSH1 0x1 PUSH1 0xE0 SHL SUB NOT SWAP1 SWAP5 AND SWAP4 SWAP1 SWAP4 OR SWAP1 SWAP3 MSTORE SWAP1 MLOAD PUSH3 0x3AD9 SWAP2 SWAP1 PUSH3 0x467F JUMP JUMPDEST PUSH0 PUSH1 0x40 MLOAD DUP1 DUP4 SUB DUP2 PUSH0 DUP7 GAS CALL SWAP2 POP POP RETURNDATASIZE DUP1 PUSH0 DUP2 EQ PUSH3 0x3B14 JUMPI PUSH1 0x40 MLOAD SWAP2 POP PUSH1 0x1F NOT PUSH1 0x3F RETURNDATASIZE ADD AND DUP3 ADD PUSH1 0x40 MSTORE RETURNDATASIZE DUP3 MSTORE RETURNDATASIZE PUSH0 PUSH1 0x20 DUP5 ADD RETURNDATACOPY PUSH3 0x3B19 JUMP JUMPDEST PUSH1 0x60 SWAP2 POP JUMPDEST POP POP PUSH1 0x40 MLOAD PUSH4 0x767392B3 PUSH1 0xE0 SHL DUP2 MSTORE DUP2 ISZERO ISZERO PUSH1 0x4 DUP3 ADD MSTORE PUSH0 PUSH1 0x24 DUP3 ADD MSTORE PUSH1 0x60 PUSH1 0x44 DUP3 ADD MSTORE PUSH1 0x2C PUSH1 0x64 DUP3 ADD MSTORE PUSH32 0x61737369676E526F6C65732073686F756C6420726576657274206966206C656E PUSH1 0x84 DUP3 ADD MSTORE PUSH12 0xCEE8D040DAD2E6DAC2E8C6D PUSH1 0xA3 SHL PUSH1 0xA4 DUP3 ADD MSTORE SWAP1 SWAP2 POP PUSH20 0x0 SWAP1 PUSH4 0x767392B3 SWAP1 PUSH1 0xC4 ADD PUSH3 0x1235 JUMP JUMPDEST PUSH0 PUSH3 0x3BB2 PUSH3 0x435C JUMP JUMPDEST PUSH0 DUP1 SLOAD PUSH1 0x40 MLOAD PUSH4 0x7DBF5FB PUSH1 0xE1 SHL DUP2 MSTORE SWAP3 SWAP4 POP SWAP1 SWAP2 PUSH1 0x1 PUSH1 0x1 PUSH1 0xA0 SHL SUB SWAP1 SWAP2 AND SWAP1 PUSH4 0xFB7EBF6 SWAP1 PUSH3 0x3BE9 SWAP1 DUP6 SWAP1 PUSH1 0x4 ADD PUSH3 0x43FD JUMP JUMPDEST PUSH1 0x20 PUSH1 0x40 MLOAD DUP1 DUP4 SUB DUP2 PUSH0 DUP8 GAS CALL ISZERO DUP1 ISZERO PUSH3 0x3C06 JUMPI RETURNDATASIZE PUSH0 DUP1 RETURNDATACOPY RETURNDATASIZE PUSH0 REVERT JUMPDEST POP POP POP POP PUSH1 0x40 MLOAD RETURNDATASIZE PUSH1 0x1F NOT PUSH1 0x1F DUP3 ADD AND DUP3 ADD DUP1 PUSH1 0x40 MSTORE POP DUP2 ADD SWAP1 PUSH3 0x3C2C SWAP2 SWAP1 PUSH3 0x44A4 JUMP JUMPDEST SWAP1 POP DUP1 PUSH1 0x40 MLOAD PUSH3 0x3C3D SWAP1 PUSH3 0x43E1 JUMP JUMPDEST PUSH1 0x1 PUSH1 0x1 PUSH1 0xA0 SHL SUB SWAP1 SWAP2 AND DUP2 MSTORE PUSH1 0x20 ADD PUSH1 0x40 MLOAD DUP1 SWAP2 SUB SWAP1 PUSH0 CREATE DUP1 ISZERO DUP1 ISZERO PUSH3 0x3C67 JUMPI RETURNDATASIZE PUSH0 DUP1 RETURNDATACOPY RETURNDATASIZE PUSH0 REVERT JUMPDEST POP PUSH1 0x40 MLOAD PUSH4 0x77D52AD PUSH1 0xE5 SHL DUP2 MSTORE PUSH0 PUSH1 0x4 DUP3 ADD MSTORE PUSH1 0x1 PUSH1 0x1 PUSH1 0xA0 SHL SUB SWAP2 SWAP1 SWAP2 AND SWAP1 PUSH4 0xEFAA55A0 SWAP1 PUSH1 0x24 ADD PUSH0 PUSH1 0x40 MLOAD DUP1 DUP4 SUB DUP2 PUSH0 DUP8 DUP1 EXTCODESIZE ISZERO DUP1 ISZERO PUSH3 0x3CA9 JUMPI PUSH0 DUP1 REVERT JUMPDEST POP GAS CALL ISZERO DUP1 ISZERO PUSH3 0x3CBC JUMPI RETURNDATASIZE PUSH0 DUP1 RETURNDATACOPY RETURNDATASIZE PUSH0 REVERT JUMPDEST POP POP POP POP DUP1 PUSH1 0x40 MLOAD PUSH3 0x3CCF SWAP1 PUSH3 0x43E1 JUMP JUMPDEST PUSH1 0x1 PUSH1 0x1 PUSH1 0xA0 SHL SUB SWAP1 SWAP2 AND DUP2 MSTORE PUSH1 0x20 ADD PUSH1 0x40 MLOAD DUP1 SWAP2 SUB SWAP1 PUSH0 CREATE DUP1 ISZERO DUP1 ISZERO PUSH3 0x3CF9 JUMPI RETURNDATASIZE PUSH0 DUP1 RETURNDATACOPY RETURNDATASIZE PUSH0 REVERT JUMPDEST POP PUSH1 0x40 MLOAD PUSH4 0x77D52AD PUSH1 0xE5 SHL DUP2 MSTORE PUSH0 PUSH1 0x4 DUP3 ADD MSTORE PUSH1 0x1 PUSH1 0x1 PUSH1 0xA0 SHL SUB SWAP2 SWAP1 SWAP2 AND SWAP1 PUSH4 0xEFAA55A0 SWAP1 PUSH1 0x24 ADD PUSH0 PUSH1 0x40 MLOAD DUP1 DUP4 SUB DUP2 PUSH0 DUP8 DUP1 EXTCODESIZE ISZERO DUP1 ISZERO PUSH3 0x3D3B JUMPI PUSH0 DUP1 REVERT JUMPDEST POP GAS CALL ISZERO DUP1 ISZERO PUSH3 0x3D4E JUMPI RETURNDATASIZE PUSH0 DUP1 RETURNDATACOPY RETURNDATASIZE PUSH0 REVERT JUMPDEST POP POP POP POP DUP1 PUSH1 0x40 MLOAD PUSH3 0x3D61 SWAP1 PUSH3 0x43E1 JUMP JUMPDEST PUSH1 0x1 PUSH1 0x1 PUSH1 0xA0 SHL SUB SWAP1 SWAP2 AND DUP2 MSTORE PUSH1 0x20 ADD PUSH1 0x40 MLOAD DUP1 SWAP2 SUB SWAP1 PUSH0 CREATE DUP1 ISZERO DUP1 ISZERO PUSH3 0x3D8B JUMPI RETURNDATASIZE PUSH0 DUP1 RETURNDATACOPY RETURNDATASIZE PUSH0 REVERT JUMPDEST POP PUSH1 0x40 MLOAD PUSH4 0x77D52AD PUSH1 0xE5 SHL DUP2 MSTORE PUSH0 PUSH1 0x4 DUP3 ADD MSTORE PUSH1 0x1 PUSH1 0x1 PUSH1 0xA0 SHL SUB SWAP2 SWAP1 SWAP2 AND SWAP1 PUSH4 0xEFAA55A0 SWAP1 PUSH1 0x24 ADD PUSH0 PUSH1 0x40 MLOAD DUP1 DUP4 SUB DUP2 PUSH0 DUP8 DUP1 EXTCODESIZE ISZERO DUP1 ISZERO PUSH3 0x3DCD JUMPI PUSH0 DUP1 REVERT JUMPDEST POP GAS CALL ISZERO DUP1 ISZERO PUSH3 0x3DE0 JUMPI RETURNDATASIZE PUSH0 DUP1 RETURNDATACOPY RETURNDATASIZE PUSH0 REVERT JUMPDEST POP POP POP POP DUP1 PUSH1 0x1 PUSH1 0x1 PUSH1 0xA0 SHL SUB AND PUSH4 0xBE9A6555 PUSH1 0x40 MLOAD DUP2 PUSH4 0xFFFFFFFF AND PUSH1 0xE0 SHL DUP2 MSTORE PUSH1 0x4 ADD PUSH0 PUSH1 0x40 MLOAD DUP1 DUP4 SUB DUP2 PUSH0 DUP8 DUP1 EXTCODESIZE ISZERO DUP1 ISZERO PUSH3 0x3E1D JUMPI PUSH0 DUP1 REVERT JUMPDEST POP GAS CALL ISZERO DUP1 ISZERO PUSH3 0x3E30 JUMPI RETURNDATASIZE PUSH0 DUP1 RETURNDATACOPY RETURNDATASIZE PUSH0 REVERT JUMPDEST POP PUSH0 SWAP3 POP PUSH1 0x3 SWAP2 POP PUSH3 0x3E40 SWAP1 POP JUMP JUMPDEST PUSH1 0x40 MLOAD SWAP1 DUP1 DUP3 MSTORE DUP1 PUSH1 0x20 MUL PUSH1 0x20 ADD DUP3 ADD PUSH1 0x40 MSTORE DUP1 ISZERO PUSH3 0x3E6A JUMPI DUP2 PUSH1 0x20 ADD PUSH1 0x20 DUP3 MUL DUP1 CALLDATASIZE DUP4 CALLDATACOPY ADD SWAP1 POP JUMPDEST POP SWAP1 POP PUSH1 0x1 DUP2 PUSH0 DUP2 MLOAD DUP2 LT PUSH3 0x3E84 JUMPI PUSH3 0x3E84 PUSH3 0x44C7 JUMP JUMPDEST PUSH1 0x20 MUL PUSH1 0x20 ADD ADD SWAP1 PUSH1 0x4 DUP2 GT ISZERO PUSH3 0x3EA0 JUMPI PUSH3 0x3EA0 PUSH3 0x44DB JUMP JUMPDEST SWAP1 DUP2 PUSH1 0x4 DUP2 GT ISZERO PUSH3 0x3EB6 JUMPI PUSH3 0x3EB6 PUSH3 0x44DB JUMP JUMPDEST DUP2 MSTORE POP POP PUSH0 DUP2 PUSH1 0x1 DUP2 MLOAD DUP2 LT PUSH3 0x3ED1 JUMPI PUSH3 0x3ED1 PUSH3 0x44C7 JUMP JUMPDEST PUSH1 0x20 MUL PUSH1 0x20 ADD ADD SWAP1 PUSH1 0x4 DUP2 GT ISZERO PUSH3 0x3EED JUMPI PUSH3 0x3EED PUSH3 0x44DB JUMP JUMPDEST SWAP1 DUP2 PUSH1 0x4 DUP2 GT ISZERO PUSH3 0x3F03 JUMPI PUSH3 0x3F03 PUSH3 0x44DB JUMP JUMPDEST DUP2 MSTORE POP POP PUSH0 DUP2 PUSH1 0x2 DUP2 MLOAD DUP2 LT PUSH3 0x3F1E JUMPI PUSH3 0x3F1E PUSH3 0x44C7 JUMP JUMPDEST PUSH1 0x20 MUL PUSH1 0x20 ADD ADD SWAP1 PUSH1 0x4 DUP2 GT ISZERO PUSH3 0x3F3A JUMPI PUSH3 0x3F3A PUSH3 0x44DB JUMP JUMPDEST SWAP1 DUP2 PUSH1 0x4 DUP2 GT ISZERO PUSH3 0x3F50 JUMPI PUSH3 0x3F50 PUSH3 0x44DB JUMP JUMPDEST DUP2 MSTORE POP POP PUSH0 DUP3 PUSH1 0x1 PUSH1 0x1 PUSH1 0xA0 SHL SUB AND PUSH4 0xE373A7DE PUSH1 0xE0 SHL DUP4 PUSH1 0x40 MLOAD PUSH1 0x24 ADD PUSH3 0x3F7A SWAP2 SWAP1 PUSH3 0x44EF JUMP JUMPDEST PUSH1 0x40 DUP1 MLOAD PUSH1 0x1F NOT DUP2 DUP5 SUB ADD DUP2 MSTORE SWAP2 DUP2 MSTORE PUSH1 0x20 DUP3 ADD DUP1 MLOAD PUSH1 0x1 PUSH1 0x1 PUSH1 0xE0 SHL SUB AND PUSH1 0x1 PUSH1 0x1 PUSH1 0xE0 SHL SUB NOT SWAP1 SWAP5 AND SWAP4 SWAP1 SWAP4 OR SWAP1 SWAP3 MSTORE SWAP1 MLOAD PUSH3 0x3FBA SWAP2 SWAP1 PUSH3 0x467F JUMP JUMPDEST PUSH0 PUSH1 0x40 MLOAD DUP1 DUP4 SUB DUP2 PUSH0 DUP7 GAS CALL SWAP2 POP POP RETURNDATASIZE DUP1 PUSH0 DUP2 EQ PUSH3 0x3FF5 JUMPI PUSH1 0x40 MLOAD SWAP2 POP PUSH1 0x1F NOT PUSH1 0x3F RETURNDATASIZE ADD AND DUP3 ADD PUSH1 0x40 MSTORE RETURNDATASIZE DUP3 MSTORE RETURNDATASIZE PUSH0 PUSH1 0x20 DUP5 ADD RETURNDATACOPY PUSH3 0x3FFA JUMP JUMPDEST PUSH1 0x60 SWAP2 POP JUMPDEST POP POP PUSH1 0x40 MLOAD PUSH4 0x767392B3 PUSH1 0xE0 SHL DUP2 MSTORE DUP2 ISZERO ISZERO PUSH1 0x4 DUP3 ADD MSTORE PUSH0 PUSH1 0x24 DUP3 ADD MSTORE PUSH1 0x60 PUSH1 0x44 DUP3 ADD MSTORE PUSH1 0x32 PUSH1 0x64 DUP3 ADD MSTORE PUSH32 0x61737369676E526F6C65732073686F756C642072657665727420696620776F6C PUSH1 0x84 DUP3 ADD MSTORE PUSH18 0xECCAE640C6DEEADCE840DAD2E6DAC2E8C6D PUSH1 0x73 SHL PUSH1 0xA4 DUP3 ADD MSTORE SWAP1 SWAP2 POP PUSH20 0x0 SWAP1 PUSH4 0x767392B3 SWAP1 PUSH1 0xC4 ADD PUSH3 0x1235 JUMP JUMPDEST PUSH0 PUSH3 0x4099 PUSH3 0x435C JUMP JUMPDEST PUSH0 DUP1 SLOAD PUSH1 0x40 MLOAD PUSH4 0x7DBF5FB PUSH1 0xE1 SHL DUP2 MSTORE SWAP3 SWAP4 POP SWAP1 SWAP2 PUSH1 0x1 PUSH1 0x1 PUSH1 0xA0 SHL SUB SWAP1 SWAP2 AND SWAP1 PUSH4 0xFB7EBF6 SWAP1 PUSH3 0x40D0 SWAP1 DUP6 SWAP1 PUSH1 0x4 ADD PUSH3 0x43FD JUMP JUMPDEST PUSH1 0x20 PUSH1 0x40 MLOAD DUP1 DUP4 SUB DUP2 PUSH0 DUP8 GAS CALL ISZERO DUP1 ISZERO PUSH3 0x40ED JUMPI RETURNDATASIZE PUSH0 DUP1 RETURNDATACOPY RETURNDATASIZE PUSH0 REVERT JUMPDEST POP POP POP POP PUSH1 0x40 MLOAD RETURNDATASIZE PUSH1 0x1F NOT PUSH1 0x1F DUP3 ADD AND DUP3 ADD DUP1 PUSH1 0x40 MSTORE POP DUP2 ADD SWAP1 PUSH3 0x4113 SWAP2 SWAP1 PUSH3 0x44A4 JUMP JUMPDEST SWAP1 POP PUSH20 0x0 PUSH4 0xABCD7960 DUP3 PUSH1 0x1 PUSH1 0x1 PUSH1 0xA0 SHL SUB AND PUSH4 0xB1C9FE6E PUSH1 0x40 MLOAD DUP2 PUSH4 0xFFFFFFFF AND PUSH1 0xE0 SHL DUP2 MSTORE PUSH1 0x4 ADD PUSH1 0x20 PUSH1 0x40 MLOAD DUP1 DUP4 SUB DUP2 DUP7 GAS STATICCALL ISZERO DUP1 ISZERO PUSH3 0x416C JUMPI RETURNDATASIZE PUSH0 DUP1 RETURNDATACOPY RETURNDATASIZE PUSH0 REVERT JUMPDEST POP POP POP POP PUSH1 0x40 MLOAD RETURNDATASIZE PUSH1 0x1F NOT PUSH1 0x1F DUP3 ADD AND DUP3 ADD DUP1 PUSH1 0x40 MSTORE POP DUP2 ADD SWAP1 PUSH3 0x4192 SWAP2 SWAP1 PUSH3 0x465F JUMP JUMPDEST PUSH1 0x6 DUP2 GT ISZERO PUSH3 0x41A6 JUMPI PUSH3 0x41A6 PUSH3 0x44DB JUMP JUMPDEST PUSH0 PUSH1 0x40 MLOAD PUSH1 0x1 PUSH1 0x1 PUSH1 0xE0 SHL SUB NOT PUSH1 0xE0 DUP6 SWAP1 SHL AND DUP2 MSTORE PUSH1 0x4 DUP2 ADD SWAP3 SWAP1 SWAP3 MSTORE PUSH1 0x24 DUP3 ADD MSTORE PUSH1 0x60 PUSH1 0x44 DUP3 ADD MSTORE PUSH1 0xE PUSH1 0x64 DUP3 ADD MSTORE PUSH14 0x5068617365203D3D204C6F626279 PUSH1 0x90 SHL PUSH1 0x84 DUP3 ADD MSTORE PUSH1 0xA4 ADD PUSH1 0x20 PUSH1 0x40 MLOAD DUP1 DUP4 SUB DUP2 DUP7 GAS DELEGATECALL ISZERO DUP1 ISZERO PUSH3 0x420C JUMPI RETURNDATASIZE PUSH0 DUP1 RETURNDATACOPY RETURNDATASIZE PUSH0 REVERT JUMPDEST POP POP POP POP PUSH1 0x40 MLOAD RETURNDATASIZE PUSH1 0x1F NOT PUSH1 0x1F DUP3 ADD AND DUP3 ADD DUP1 PUSH1 0x40 MSTORE POP DUP2 ADD SWAP1 PUSH3 0x4232 SWAP2 SWAP1 PUSH3 0x4586 JUMP JUMPDEST POP PUSH20 0x0 PUSH4 0xBFBA5DD6 DUP3 PUSH1 0x1 PUSH1 0x1 PUSH1 0xA0 SHL SUB AND PUSH4 0xF437BC59 PUSH1 0x40 MLOAD DUP2 PUSH4 0xFFFFFFFF AND PUSH1 0xE0 SHL DUP2 MSTORE PUSH1 0x4 ADD PUSH1 0x20 PUSH1 0x40 MLOAD DUP1 DUP4 SUB DUP2 DUP7 GAS STATICCALL ISZERO DUP1 ISZERO PUSH3 0x428A JUMPI RETURNDATASIZE PUSH0 DUP1 RETURNDATACOPY RETURNDATASIZE PUSH0 REVERT JUMPDEST POP POP POP POP PUSH1 0x40 MLOAD RETURNDATASIZE PUSH1 0x1F NOT PUSH1 0x1F DUP3 ADD AND DUP3 ADD DUP1 PUSH1 0x40 MSTORE POP DUP2 ADD SWAP1 PUSH3 0x42B0 SWAP2 SWAP1 PUSH3 0x44A4 JUMP JUMPDEST PUSH1 0x1 SLOAD PUSH1 0x40 MLOAD PUSH1 0xE0 DUP5 SWAP1 SHL PUSH1 0x1 PUSH1 0x1 PUSH1 0xE0 SHL SUB NOT AND DUP2 MSTORE PUSH1 0x1 PUSH1 0x1 PUSH1 0xA0 SHL SUB SWAP3 DUP4 AND PUSH1 0x4 DUP3 ADD MSTORE SWAP2 AND PUSH1 0x24 DUP3 ADD MSTORE PUSH1 0x60 PUSH1 0x44 DUP3 ADD MSTORE PUSH1 0x17 PUSH1 0x64 DUP3 ADD MSTORE PUSH32 0x486F7374206164647265737320697320636F7272656374000000000000000000 PUSH1 0x84 DUP3 ADD MSTORE PUSH1 0xA4 ADD PUSH1 0x20 PUSH1 0x40 MLOAD DUP1 DUP4 SUB DUP2 DUP7 GAS DELEGATECALL ISZERO DUP1 ISZERO PUSH3 0x4331 JUMPI RETURNDATASIZE PUSH0 DUP1 RETURNDATACOPY RETURNDATASIZE PUSH0 REVERT JUMPDEST POP POP POP POP PUSH1 0x40 MLOAD RETURNDATASIZE PUSH1 0x1F NOT PUSH1 0x1F DUP3 ADD AND DUP3 ADD DUP1 PUSH1 0x40 MSTORE POP DUP2 ADD SWAP1 PUSH3 0x4357 SWAP2 SWAP1 PUSH3 0x4586 JUMP JUMPDEST POP POP POP JUMP JUMPDEST PUSH1 0x40 DUP1 MLOAD PUSH2 0x100 DUP2 ADD DUP3 MSTORE PUSH0 DUP1 DUP3 MSTORE PUSH1 0x20 DUP3 ADD DUP2 SWAP1 MSTORE SWAP2 DUP2 ADD DUP3 SWAP1 MSTORE PUSH1 0x60 DUP2 ADD DUP3 SWAP1 MSTORE PUSH1 0x80 DUP2 ADD DUP3 SWAP1 MSTORE PUSH1 0xA0 DUP2 ADD DUP3 SWAP1 MSTORE PUSH1 0xC0 DUP2 ADD DUP3 SWAP1 MSTORE PUSH1 0xE0 DUP2 ADD SWAP2 SWAP1 SWAP2 MSTORE POP PUSH1 0x40 DUP1 MLOAD PUSH2 0x100 DUP2 ADD DUP3 MSTORE PUSH1 0x3 DUP2 MSTORE PUSH1 0x5 PUSH1 0x20 DUP3 ADD MSTORE PUSH1 0x2 SWAP2 DUP2 ADD SWAP2 SWAP1 SWAP2 MSTORE PUSH0 PUSH1 0x60 DUP3 ADD MSTORE PUSH1 0x1 PUSH1 0x80 DUP3 ADD DUP2 SWAP1 MSTORE PUSH1 0xA0 DUP3 ADD DUP2 SWAP1 MSTORE PUSH1 0xC0 DUP3 ADD DUP2 SWAP1 MSTORE PUSH1 0xE0 DUP3 ADD MSTORE SWAP1 JUMP JUMPDEST PUSH2 0x52C DUP1 PUSH3 0x4704 DUP4 CODECOPY ADD SWAP1 JUMP JUMPDEST PUSH2 0x261D DUP1 PUSH3 0x4C30 DUP4 CODECOPY ADD SWAP1 JUMP JUMPDEST PUSH0 PUSH2 0x100 DUP3 ADD SWAP1 POP PUSH1 0xFF DUP4 MLOAD AND DUP3 MSTORE PUSH1 0xFF PUSH1 0x20 DUP5 ADD MLOAD AND PUSH1 0x20 DUP4 ADD MSTORE PUSH1 0xFF PUSH1 0x40 DUP5 ADD MLOAD AND PUSH1 0x40 DUP4 ADD MSTORE PUSH1 0x60 DUP4 ADD MLOAD PUSH1 0x60 DUP4 ADD MSTORE PUSH1 0x80 DUP4 ADD MLOAD PUSH4 0xFFFFFFFF DUP1 DUP3 AND PUSH1 0x80 DUP6 ADD MSTORE DUP1 PUSH1 0xA0 DUP7 ADD MLOAD AND PUSH1 0xA0 DUP6 ADD MSTORE POP POP PUSH1 0xC0 DUP4 ADD MLOAD PUSH3 0x4468 PUSH1 0xC0 DUP5 ADD DUP3 PUSH4 0xFFFFFFFF AND SWAP1 MSTORE JUMP JUMPDEST POP PUSH1 0xE0 DUP4 ADD MLOAD PUSH3 0x4481 PUSH1 0xE0 DUP5 ADD DUP3 PUSH4 0xFFFFFFFF AND SWAP1 MSTORE JUMP JUMPDEST POP SWAP3 SWAP2 POP POP JUMP JUMPDEST DUP1 MLOAD PUSH1 0x1 PUSH1 0x1 PUSH1 0xA0 SHL SUB DUP2 AND DUP2 EQ PUSH3 0x449F JUMPI PUSH0 DUP1 REVERT JUMPDEST SWAP2 SWAP1 POP JUMP JUMPDEST PUSH0 PUSH1 0x20 DUP3 DUP5 SUB SLT ISZERO PUSH3 0x44B5 JUMPI PUSH0 DUP1 REVERT JUMPDEST PUSH3 0x44C0 DUP3 PUSH3 0x4488 JUMP JUMPDEST SWAP4 SWAP3 POP POP POP JUMP JUMPDEST PUSH4 0x4E487B71 PUSH1 0xE0 SHL PUSH0 MSTORE PUSH1 0x32 PUSH1 0x4 MSTORE PUSH1 0x24 PUSH0 REVERT JUMPDEST PUSH4 0x4E487B71 PUSH1 0xE0 SHL PUSH0 MSTORE PUSH1 0x21 PUSH1 0x4 MSTORE PUSH1 0x24 PUSH0 REVERT JUMPDEST PUSH1 0x20 DUP1 DUP3 MSTORE DUP3 MLOAD DUP3 DUP3 ADD DUP2 SWAP1 MSTORE PUSH0 SWAP2 SWAP1 DUP5 DUP3 ADD SWAP1 PUSH1 0x40 DUP6 ADD SWAP1 DUP5 JUMPDEST DUP2 DUP2 LT ISZERO PUSH3 0x4545 JUMPI DUP4 MLOAD PUSH1 0x5 DUP2 LT PUSH3 0x4532 JUMPI PUSH4 0x4E487B71 PUSH1 0xE0 SHL PUSH0 MSTORE PUSH1 0x21 PUSH1 0x4 MSTORE PUSH1 0x24 PUSH0 REVERT JUMPDEST DUP4 MSTORE SWAP3 DUP5 ADD SWAP3 SWAP2 DUP5 ADD SWAP2 PUSH1 0x1 ADD PUSH3 0x450A JUMP JUMPDEST POP SWAP1 SWAP7 SWAP6 POP POP POP POP POP POP JUMP JUMPDEST PUSH0 PUSH1 0x20 DUP3 DUP5 SUB SLT ISZERO PUSH3 0x4562 JUMPI PUSH0 DUP1 REVERT JUMPDEST DUP2 MLOAD PUSH4 0xFFFFFFFF DUP2 AND DUP2 EQ PUSH3 0x44C0 JUMPI PUSH0 DUP1 REVERT JUMPDEST DUP1 MLOAD DUP1 ISZERO ISZERO DUP2 EQ PUSH3 0x449F JUMPI PUSH0 DUP1 REVERT JUMPDEST PUSH0 PUSH1 0x20 DUP3 DUP5 SUB SLT ISZERO PUSH3 0x4597 JUMPI PUSH0 DUP1 REVERT JUMPDEST PUSH3 0x44C0 DUP3 PUSH3 0x4576 JUMP JUMPDEST PUSH1 0x1 PUSH1 0x1 PUSH1 0xA0 SHL SUB SWAP5 SWAP1 SWAP5 AND DUP5 MSTORE PUSH1 0xFF SWAP3 DUP4 AND PUSH1 0x20 DUP6 ADD MSTORE SWAP2 AND PUSH1 0x40 DUP4 ADD MSTORE PUSH1 0x60 DUP3 ADD MSTORE PUSH1 0x80 ADD SWAP1 JUMP JUMPDEST DUP1 MLOAD PUSH1 0x5 DUP2 LT PUSH3 0x449F JUMPI PUSH0 DUP1 REVERT JUMPDEST PUSH0 DUP1 PUSH0 PUSH1 0x60 DUP5 DUP7 SUB SLT ISZERO PUSH3 0x45EE JUMPI PUSH0 DUP1 REVERT JUMPDEST PUSH3 0x45F9 DUP5 PUSH3 0x4488 JUMP JUMPDEST SWAP3 POP PUSH3 0x4609 PUSH1 0x20 DUP6 ADD PUSH3 0x4576 JUMP JUMPDEST SWAP2 POP PUSH3 0x4619 PUSH1 0x40 DUP6 ADD PUSH3 0x45CC JUMP JUMPDEST SWAP1 POP SWAP3 POP SWAP3 POP SWAP3 JUMP JUMPDEST SWAP2 ISZERO ISZERO DUP3 MSTORE ISZERO ISZERO PUSH1 0x20 DUP3 ADD MSTORE PUSH1 0x60 PUSH1 0x40 DUP3 ADD DUP2 SWAP1 MSTORE PUSH1 0x13 SWAP1 DUP3 ADD MSTORE PUSH19 0x140C480A14D9585D080C0A481A5CC819195859 PUSH1 0x6A SHL PUSH1 0x80 DUP3 ADD MSTORE PUSH1 0xA0 ADD SWAP1 JUMP JUMPDEST PUSH0 PUSH1 0x20 DUP3 DUP5 SUB SLT ISZERO PUSH3 0x4670 JUMPI PUSH0 DUP1 REVERT JUMPDEST DUP2 MLOAD PUSH1 0x7 DUP2 LT PUSH3 0x44C0 JUMPI PUSH0 DUP1 REVERT JUMPDEST PUSH0 DUP3 MLOAD PUSH0 JUMPDEST DUP2 DUP2 LT ISZERO PUSH3 0x46A0 JUMPI PUSH1 0x20 DUP2 DUP7 ADD DUP2 ADD MLOAD DUP6 DUP4 ADD MSTORE ADD PUSH3 0x4684 JUMP JUMPDEST POP PUSH0 SWAP3 ADD SWAP2 DUP3 MSTORE POP SWAP2 SWAP1 POP JUMP JUMPDEST PUSH0 PUSH1 0x20 DUP3 DUP5 SUB SLT ISZERO PUSH3 0x46BE JUMPI PUSH0 DUP1 REVERT JUMPDEST PUSH3 0x44C0 DUP3 PUSH3 0x45CC JUMP JUMPDEST PUSH0 PUSH1 0x20 DUP3 DUP5 SUB SLT ISZERO PUSH3 0x46DA JUMPI PUSH0 DUP1 REVERT JUMPDEST POP MLOAD SWAP2 SWAP1 POP JUMP JUMPDEST PUSH0 PUSH1 0x20 DUP3 DUP5 SUB SLT ISZERO PUSH3 0x46F2 JUMPI PUSH0 DUP1 REVERT JUMPDEST DUP2 MLOAD PUSH1 0xFF DUP2 AND DUP2 EQ PUSH3 0x44C0 JUMPI PUSH0 DUP1 REVERT INVALID PUSH1 0x80 PUSH1 0x40 MSTORE CALLVALUE DUP1 ISZERO PUSH2 0xF JUMPI PUSH0 DUP1 REVERT JUMPDEST POP PUSH1 0x40 MLOAD PUSH2 0x52C CODESIZE SUB DUP1 PUSH2 0x52C DUP4 CODECOPY DUP2 ADD PUSH1 0x40 DUP2 SWAP1 MSTORE PUSH2 0x2E SWAP2 PUSH2 0x52 JUMP JUMPDEST PUSH0 DUP1 SLOAD PUSH1 0x1 PUSH1 0x1 PUSH1 0xA0 SHL SUB NOT AND PUSH1 0x1 PUSH1 0x1 PUSH1 0xA0 SHL SUB SWAP3 SWAP1 SWAP3 AND SWAP2 SWAP1 SWAP2 OR SWAP1 SSTORE PUSH2 0x7F JUMP JUMPDEST PUSH0 PUSH1 0x20 DUP3 DUP5 SUB SLT ISZERO PUSH2 0x62 JUMPI PUSH0 DUP1 REVERT JUMPDEST DUP2 MLOAD PUSH1 0x1 PUSH1 0x1 PUSH1 0xA0 SHL SUB DUP2 AND DUP2 EQ PUSH2 0x78 JUMPI PUSH0 DUP1 REVERT JUMPDEST SWAP4 SWAP3 POP POP POP JUMP JUMPDEST PUSH2 0x4A0 DUP1 PUSH2 0x8C PUSH0 CODECOPY PUSH0 RETURN INVALID PUSH1 0x80 PUSH1 0x40 MSTORE PUSH1 0x4 CALLDATASIZE LT PUSH2 0x71 JUMPI PUSH0 CALLDATALOAD PUSH1 0xE0 SHR DUP1 PUSH4 0xC3FE3E28 GT PUSH2 0x4C JUMPI DUP1 PUSH4 0xC3FE3E28 EQ PUSH2 0xF1 JUMPI DUP1 PUSH4 0xDE70CA7B EQ PUSH2 0x127 JUMPI DUP1 PUSH4 0xEFAA55A0 EQ PUSH2 0x13B JUMPI DUP1 PUSH4 0xF14FCBC8 EQ PUSH2 0x14E JUMPI PUSH0 DUP1 REVERT JUMPDEST DUP1 PUSH4 0x3FC8AE06 EQ PUSH2 0x7C JUMPI DUP1 PUSH4 0x931A5313 EQ PUSH2 0x9D JUMPI DUP1 PUSH4 0xB3F98ADC EQ PUSH2 0xD2 JUMPI PUSH0 DUP1 REVERT JUMPDEST CALLDATASIZE PUSH2 0x78 JUMPI STOP JUMPDEST PUSH0 DUP1 REVERT JUMPDEST CALLVALUE DUP1 ISZERO PUSH2 0x87 JUMPI PUSH0 DUP1 REVERT JUMPDEST POP PUSH2 0x9B PUSH2 0x96 CALLDATASIZE PUSH1 0x4 PUSH2 0x3A1 JUMP JUMPDEST PUSH2 0x16D JUMP JUMPDEST STOP JUMPDEST CALLVALUE DUP1 ISZERO PUSH2 0xA8 JUMPI PUSH0 DUP1 REVERT JUMPDEST POP PUSH2 0xBC PUSH2 0xB7 CALLDATASIZE PUSH1 0x4 PUSH2 0x3C9 JUMP JUMPDEST PUSH2 0x1D2 JUMP JUMPDEST PUSH1 0x40 MLOAD PUSH2 0xC9 SWAP2 SWAP1 PUSH2 0x3F6 JUMP JUMPDEST PUSH1 0x40 MLOAD DUP1 SWAP2 SUB SWAP1 RETURN JUMPDEST CALLVALUE DUP1 ISZERO PUSH2 0xDD JUMPI PUSH0 DUP1 REVERT JUMPDEST POP PUSH2 0x9B PUSH2 0xEC CALLDATASIZE PUSH1 0x4 PUSH2 0x41C JUMP JUMPDEST PUSH2 0x244 JUMP JUMPDEST CALLVALUE DUP1 ISZERO PUSH2 0xFC JUMPI PUSH0 DUP1 REVERT JUMPDEST POP PUSH0 SLOAD PUSH2 0x10F SWAP1 PUSH1 0x1 PUSH1 0x1 PUSH1 0xA0 SHL SUB AND DUP2 JUMP JUMPDEST PUSH1 0x40 MLOAD PUSH1 0x1 PUSH1 0x1 PUSH1 0xA0 SHL SUB SWAP1 SWAP2 AND DUP2 MSTORE PUSH1 0x20 ADD PUSH2 0xC9 JUMP JUMPDEST CALLVALUE DUP1 ISZERO PUSH2 0x132 JUMPI PUSH0 DUP1 REVERT JUMPDEST POP PUSH2 0xBC PUSH2 0x2A2 JUMP JUMPDEST PUSH2 0x9B PUSH2 0x149 CALLDATASIZE PUSH1 0x4 PUSH2 0x435 JUMP JUMPDEST PUSH2 0x311 JUMP JUMPDEST CALLVALUE DUP1 ISZERO PUSH2 0x159 JUMPI PUSH0 DUP1 REVERT JUMPDEST POP PUSH2 0x9B PUSH2 0x168 CALLDATASIZE PUSH1 0x4 PUSH2 0x435 JUMP JUMPDEST PUSH2 0x35C JUMP JUMPDEST PUSH0 SLOAD PUSH1 0x40 MLOAD PUSH4 0x62B49303 PUSH1 0xE1 SHL DUP2 MSTORE PUSH1 0xFF DUP5 AND PUSH1 0x4 DUP3 ADD MSTORE PUSH1 0x24 DUP2 ADD DUP4 SWAP1 MSTORE PUSH1 0x1 PUSH1 0x1 PUSH1 0xA0 SHL SUB SWAP1 SWAP2 AND SWAP1 PUSH4 0xC5692606 SWAP1 PUSH1 0x44 ADD PUSH0 PUSH1 0x40 MLOAD DUP1 DUP4 SUB DUP2 PUSH0 DUP8 DUP1 EXTCODESIZE ISZERO DUP1 ISZERO PUSH2 0x1B8 JUMPI PUSH0 DUP1 REVERT JUMPDEST POP GAS CALL ISZERO DUP1 ISZERO PUSH2 0x1CA JUMPI RETURNDATASIZE PUSH0 DUP1 RETURNDATACOPY RETURNDATASIZE PUSH0 REVERT JUMPDEST POP POP POP POP POP POP JUMP JUMPDEST PUSH0 DUP1 SLOAD PUSH1 0x40 MLOAD PUSH4 0x52EBC13F PUSH1 0xE1 SHL DUP2 MSTORE PUSH1 0x1 PUSH1 0x1 PUSH1 0xA0 SHL SUB DUP5 DUP2 AND PUSH1 0x4 DUP4 ADD MSTORE SWAP1 SWAP2 AND SWAP1 PUSH4 0xA5D7827E SWAP1 PUSH1 0x24 ADD PUSH1 0x20 PUSH1 0x40 MLOAD DUP1 DUP4 SUB DUP2 DUP7 GAS STATICCALL ISZERO DUP1 ISZERO PUSH2 0x21A JUMPI RETURNDATASIZE PUSH0 DUP1 RETURNDATACOPY RETURNDATASIZE PUSH0 REVERT JUMPDEST POP POP POP POP PUSH1 0x40 MLOAD RETURNDATASIZE PUSH1 0x1F NOT PUSH1 0x1F DUP3 ADD AND DUP3 ADD DUP1 PUSH1 0x40 MSTORE POP DUP2 ADD SWAP1 PUSH2 0x23E SWAP2 SWAP1 PUSH2 0x44C JUMP JUMPDEST SWAP3 SWAP2 POP POP JUMP JUMPDEST PUSH0 SLOAD PUSH1 0x40 MLOAD PUSH4 0x2CFE62B7 PUSH1 0xE2 SHL DUP2 MSTORE PUSH1 0xFF DUP4 AND PUSH1 0x4 DUP3 ADD MSTORE PUSH1 0x1 PUSH1 0x1 PUSH1 0xA0 SHL SUB SWAP1 SWAP2 AND SWAP1 PUSH4 0xB3F98ADC SWAP1 PUSH1 0x24 ADD JUMPDEST PUSH0 PUSH1 0x40 MLOAD DUP1 DUP4 SUB DUP2 PUSH0 DUP8 DUP1 EXTCODESIZE ISZERO DUP1 ISZERO PUSH2 0x289 JUMPI PUSH0 DUP1 REVERT JUMPDEST POP GAS CALL ISZERO DUP1 ISZERO PUSH2 0x29B JUMPI RETURNDATASIZE PUSH0 DUP1 RETURNDATACOPY RETURNDATASIZE PUSH0 REVERT JUMPDEST POP POP POP POP POP JUMP JUMPDEST PUSH0 DUP1 SLOAD PUSH1 0x40 MLOAD PUSH4 0x52EBC13F PUSH1 0xE1 SHL DUP2 MSTORE ADDRESS PUSH1 0x4 DUP3 ADD MSTORE PUSH1 0x1 PUSH1 0x1 PUSH1 0xA0 SHL SUB SWAP1 SWAP2 AND SWAP1 PUSH4 0xA5D7827E SWAP1 PUSH1 0x24 ADD PUSH1 0x20 PUSH1 0x40 MLOAD DUP1 DUP4 SUB DUP2 DUP7 GAS STATICCALL ISZERO DUP1 ISZERO PUSH2 0x2E8 JUMPI RETURNDATASIZE PUSH0 DUP1 RETURNDATACOPY RETURNDATASIZE PUSH0 REVERT JUMPDEST POP POP POP POP PUSH1 0x40 MLOAD RETURNDATASIZE PUSH1 0x1F NOT PUSH1 0x1F DUP3 ADD AND DUP3 ADD DUP1 PUSH1 0x40 MSTORE POP DUP2 ADD SWAP1 PUSH2 0x30C SWAP2 SWAP1 PUSH2 0x44C JUMP JUMPDEST SWAP1 POP SWAP1 JUMP JUMPDEST PUSH0 DUP1 SLOAD SWAP1 PUSH2 0x100 EXP SWAP1 DIV PUSH1 0x1 PUSH1 0x1 PUSH1 0xA0 SHL SUB AND PUSH1 0x1 PUSH1 0x1 PUSH1 0xA0 SHL SUB AND PUSH4 0xB688A363 DUP3 PUSH1 0x40 MLOAD DUP3 PUSH4 0xFFFFFFFF AND PUSH1 0xE0 SHL DUP2 MSTORE PUSH1 0x4 ADD PUSH0 PUSH1 0x40 MLOAD DUP1 DUP4 SUB DUP2 DUP6 DUP9 DUP1 EXTCODESIZE ISZERO DUP1 ISZERO PUSH2 0x1B8 JUMPI PUSH0 DUP1 REVERT JUMPDEST PUSH0 SLOAD PUSH1 0x40 MLOAD PUSH4 0x5371BB7D PUSH1 0xE1 SHL DUP2 MSTORE PUSH1 0x4 DUP2 ADD DUP4 SWAP1 MSTORE PUSH1 0x1 PUSH1 0x1 PUSH1 0xA0 SHL SUB SWAP1 SWAP2 AND SWAP1 PUSH4 0xA6E376FA SWAP1 PUSH1 0x24 ADD PUSH2 0x272 JUMP JUMPDEST DUP1 CALLDATALOAD PUSH1 0xFF DUP2 AND DUP2 EQ PUSH2 0x39C JUMPI PUSH0 DUP1 REVERT JUMPDEST SWAP2 SWAP1 POP JUMP JUMPDEST PUSH0 DUP1 PUSH1 0x40 DUP4 DUP6 SUB SLT ISZERO PUSH2 0x3B2 JUMPI PUSH0 DUP1 REVERT JUMPDEST PUSH2 0x3BB DUP4 PUSH2 0x38C JUMP JUMPDEST SWAP5 PUSH1 0x20 SWAP4 SWAP1 SWAP4 ADD CALLDATALOAD SWAP4 POP POP POP JUMP JUMPDEST PUSH0 PUSH1 0x20 DUP3 DUP5 SUB SLT ISZERO PUSH2 0x3D9 JUMPI PUSH0 DUP1 REVERT JUMPDEST DUP2 CALLDATALOAD PUSH1 0x1 PUSH1 0x1 PUSH1 0xA0 SHL SUB DUP2 AND DUP2 EQ PUSH2 0x3EF JUMPI PUSH0 DUP1 REVERT JUMPDEST SWAP4 SWAP3 POP POP POP JUMP JUMPDEST PUSH1 0x20 DUP2 ADD PUSH1 0x5 DUP4 LT PUSH2 0x416 JUMPI PUSH4 0x4E487B71 PUSH1 0xE0 SHL PUSH0 MSTORE PUSH1 0x21 PUSH1 0x4 MSTORE PUSH1 0x24 PUSH0 REVERT JUMPDEST SWAP2 SWAP1 MSTORE SWAP1 JUMP JUMPDEST PUSH0 PUSH1 0x20 DUP3 DUP5 SUB SLT ISZERO PUSH2 0x42C JUMPI PUSH0 DUP1 REVERT JUMPDEST PUSH2 0x3EF DUP3 PUSH2 0x38C JUMP JUMPDEST PUSH0 PUSH1 0x20 DUP3 DUP5 SUB SLT ISZERO PUSH2 0x445 JUMPI PUSH0 DUP1 REVERT JUMPDEST POP CALLDATALOAD SWAP2 SWAP1 POP JUMP JUMPDEST PUSH0 PUSH1 0x20 DUP3 DUP5 SUB SLT ISZERO PUSH2 0x45C JUMPI PUSH0 DUP1 REVERT JUMPDEST DUP2 MLOAD PUSH1 0x5 DUP2 LT PUSH2 0x3EF JUMPI PUSH0 DUP1 REVERT INVALID LOG2 PUSH5 0x6970667358 0x22 SLT KECCAK256 MOD CODESIZE CALLER 0xB0 SELFBALANCE JUMP SDIV 0xE9 CODESIZE SELFBALANCE 0x27 MLOAD PUSH23 0x33087F93F187EED965AFFAE5FD64671914650064736F6C PUSH4 0x43000818 STOP CALLER PUSH1 0x80 PUSH1 0x40 MSTORE CALLVALUE DUP1 ISZERO PUSH2 0xF JUMPI PUSH0 DUP1 REVERT JUMPDEST POP PUSH2 0x2600 DUP1 PUSH2 0x1D PUSH0 CODECOPY PUSH0 RETURN INVALID PUSH1 0x80 PUSH1 0x40 MSTORE CALLVALUE DUP1 ISZERO PUSH2 0xF JUMPI PUSH0 DUP1 REVERT JUMPDEST POP PUSH1 0x4 CALLDATASIZE LT PUSH2 0x29 JUMPI PUSH0 CALLDATALOAD PUSH1 0xE0 SHR DUP1 PUSH4 0xFB7EBF6 EQ PUSH2 0x2D JUMPI JUMPDEST PUSH0 DUP1 REVERT JUMPDEST PUSH2 0x40 PUSH2 0x3B CALLDATASIZE PUSH1 0x4 PUSH2 0x102 JUMP JUMPDEST PUSH2 0x5C JUMP JUMPDEST PUSH1 0x40 MLOAD PUSH1 0x1 PUSH1 0x1 PUSH1 0xA0 SHL SUB SWAP1 SWAP2 AND DUP2 MSTORE PUSH1 0x20 ADD PUSH1 0x40 MLOAD DUP1 SWAP2 SUB SWAP1 RETURN JUMPDEST PUSH0 CALLER DUP3 PUSH1 0x40 MLOAD PUSH2 0x6B SWAP1 PUSH2 0xCD JUMP JUMPDEST PUSH2 0x76 SWAP3 SWAP2 SWAP1 PUSH2 0x1CA JUMP JUMPDEST PUSH1 0x40 MLOAD DUP1 SWAP2 SUB SWAP1 PUSH0 CREATE DUP1 ISZERO DUP1 ISZERO PUSH2 0x8F JUMPI RETURNDATASIZE PUSH0 DUP1 RETURNDATACOPY RETURNDATASIZE PUSH0 REVERT JUMPDEST POP PUSH1 0x40 MLOAD SWAP1 SWAP2 POP CALLER SWAP1 PUSH1 0x1 PUSH1 0x1 PUSH1 0xA0 SHL SUB DUP4 AND SWAP1 PUSH32 0xB60D84E37A6658EFFCE28870B1D123CB86F86409DF5888679310C0F276E1F5D2 SWAP1 PUSH0 SWAP1 LOG3 SWAP2 SWAP1 POP JUMP JUMPDEST PUSH2 0x2369 DUP1 PUSH2 0x262 DUP4 CODECOPY ADD SWAP1 JUMP JUMPDEST DUP1 CALLDATALOAD PUSH1 0xFF DUP2 AND DUP2 EQ PUSH2 0xEA JUMPI PUSH0 DUP1 REVERT JUMPDEST SWAP2 SWAP1 POP JUMP JUMPDEST DUP1 CALLDATALOAD PUSH4 0xFFFFFFFF DUP2 AND DUP2 EQ PUSH2 0xEA JUMPI PUSH0 DUP1 REVERT JUMPDEST PUSH0 PUSH2 0x100 DUP1 DUP4 DUP6 SUB SLT ISZERO PUSH2 0x114 JUMPI PUSH0 DUP1 REVERT JUMPDEST PUSH1 0x40 MLOAD SWAP1 DUP2 ADD SWAP1 PUSH8 0xFFFFFFFFFFFFFFFF DUP3 GT DUP2 DUP4 LT OR ISZERO PUSH2 0x143 JUMPI PUSH4 0x4E487B71 PUSH1 0xE0 SHL PUSH0 MSTORE PUSH1 0x41 PUSH1 0x4 MSTORE PUSH1 0x24 PUSH0 REVERT JUMPDEST DUP2 PUSH1 0x40 MSTORE PUSH2 0x150 DUP5 PUSH2 0xDA JUMP JUMPDEST DUP2 MSTORE PUSH2 0x15E PUSH1 0x20 DUP6 ADD PUSH2 0xDA JUMP JUMPDEST PUSH1 0x20 DUP3 ADD MSTORE PUSH2 0x16F PUSH1 0x40 DUP6 ADD PUSH2 0xDA JUMP JUMPDEST PUSH1 0x40 DUP3 ADD MSTORE PUSH1 0x60 DUP5 ADD CALLDATALOAD PUSH1 0x60 DUP3 ADD MSTORE PUSH2 0x18A PUSH1 0x80 DUP6 ADD PUSH2 0xEF JUMP JUMPDEST PUSH1 0x80 DUP3 ADD MSTORE PUSH2 0x19B PUSH1 0xA0 DUP6 ADD PUSH2 0xEF JUMP JUMPDEST PUSH1 0xA0 DUP3 ADD MSTORE PUSH2 0x1AC PUSH1 0xC0 DUP6 ADD PUSH2 0xEF JUMP JUMPDEST PUSH1 0xC0 DUP3 ADD MSTORE PUSH2 0x1BD PUSH1 0xE0 DUP6 ADD PUSH2 0xEF JUMP JUMPDEST PUSH1 0xE0 DUP3 ADD MSTORE SWAP5 SWAP4 POP POP POP POP JUMP JUMPDEST PUSH0 PUSH2 0x120 DUP3 ADD SWAP1 POP PUSH1 0x1 DUP1 PUSH1 0xA0 SHL SUB DUP5 AND DUP3 MSTORE PUSH1 0xFF DUP4 MLOAD AND PUSH1 0x20 DUP4 ADD MSTORE PUSH1 0xFF PUSH1 0x20 DUP5 ADD MLOAD AND PUSH1 0x40 DUP4 ADD MSTORE PUSH1 0xFF PUSH1 0x40 DUP5 ADD MLOAD AND PUSH1 0x60 DUP4 ADD MSTORE PUSH1 0x60 DUP4 ADD MLOAD PUSH1 0x80 DUP4 ADD MSTORE PUSH1 0x80 DUP4 ADD MLOAD PUSH2 0x222 PUSH1 0xA0 DUP5 ADD DUP3 PUSH4 0xFFFFFFFF AND SWAP1 MSTORE JUMP JUMPDEST POP PUSH1 0xA0 DUP4 ADD MLOAD PUSH4 0xFFFFFFFF DUP2 AND PUSH1 0xC0 DUP5 ADD MSTORE POP PUSH1 0xC0 DUP4 ADD MLOAD PUSH4 0xFFFFFFFF DUP2 AND PUSH1 0xE0 DUP5 ADD MSTORE POP PUSH1 0xE0 DUP4 ADD MLOAD PUSH4 0xFFFFFFFF DUP2 AND PUSH2 0x100 DUP5 ADD MSTORE POP SWAP4 SWAP3 POP POP POP JUMP INVALID PUSH1 0x80 PUSH1 0x40 MSTORE CALLVALUE DUP1 ISZERO PUSH3 0x10 JUMPI PUSH0 DUP1 REVERT JUMPDEST POP PUSH1 0x40 MLOAD PUSH3 0x2369 CODESIZE SUB DUP1 PUSH3 0x2369 DUP4 CODECOPY DUP2 ADD PUSH1 0x40 DUP2 SWAP1 MSTORE PUSH3 0x33 SWAP2 PUSH3 0x251 JUMP JUMPDEST PUSH1 0x3 DUP2 PUSH0 ADD MLOAD PUSH1 0xFF AND LT ISZERO PUSH3 0x80 JUMPI PUSH1 0x40 MLOAD PUSH3 0x461BCD PUSH1 0xE5 SHL DUP2 MSTORE PUSH1 0x20 PUSH1 0x4 DUP3 ADD MSTORE PUSH1 0xD PUSH1 0x24 DUP3 ADD MSTORE PUSH13 0x1B5A5B881D1BDBC81CDB585B1B PUSH1 0x9A SHL PUSH1 0x44 DUP3 ADD MSTORE PUSH1 0x64 ADD JUMPDEST PUSH1 0x40 MLOAD DUP1 SWAP2 SUB SWAP1 REVERT JUMPDEST DUP1 PUSH0 ADD MLOAD PUSH1 0xFF AND DUP2 PUSH1 0x20 ADD MLOAD PUSH1 0xFF AND LT ISZERO PUSH3 0xC9 JUMPI PUSH1 0x40 MLOAD PUSH3 0x461BCD PUSH1 0xE5 SHL DUP2 MSTORE PUSH1 0x20 PUSH1 0x4 DUP3 ADD MSTORE PUSH1 0x7 PUSH1 0x24 DUP3 ADD MSTORE PUSH7 0x36B0BC1E36B4B7 PUSH1 0xC9 SHL PUSH1 0x44 DUP3 ADD MSTORE PUSH1 0x64 ADD PUSH3 0x77 JUMP JUMPDEST PUSH1 0x1 DUP2 PUSH1 0x40 ADD MLOAD PUSH1 0xFF AND LT ISZERO DUP1 ISZERO PUSH3 0xEF JUMPI POP DUP1 PUSH1 0x20 ADD MLOAD PUSH1 0xFF AND DUP2 PUSH1 0x40 ADD MLOAD PUSH1 0xFF AND LT JUMPDEST PUSH3 0x12A JUMPI PUSH1 0x40 MLOAD PUSH3 0x461BCD PUSH1 0xE5 SHL DUP2 MSTORE PUSH1 0x20 PUSH1 0x4 DUP3 ADD MSTORE PUSH1 0xA PUSH1 0x24 DUP3 ADD MSTORE PUSH10 0x1DDBDB1D995CC8189859 PUSH1 0xB2 SHL PUSH1 0x44 DUP3 ADD MSTORE PUSH1 0x64 ADD PUSH3 0x77 JUMP JUMPDEST PUSH0 DUP1 SLOAD PUSH1 0x1 PUSH1 0x1 PUSH1 0xA0 SHL SUB DUP5 AND PUSH1 0x1 PUSH1 0x1 PUSH1 0xA0 SHL SUB NOT SWAP1 SWAP2 AND OR DUP2 SSTORE DUP2 MLOAD PUSH1 0x1 DUP1 SLOAD PUSH1 0x20 DUP6 ADD MLOAD PUSH1 0x40 DUP7 ADD MLOAD PUSH1 0xFF SWAP1 DUP2 AND PUSH3 0x10000 MUL PUSH3 0xFF0000 NOT SWAP3 DUP3 AND PUSH2 0x100 MUL PUSH2 0xFFFF NOT SWAP1 SWAP5 AND SWAP2 SWAP1 SWAP6 AND OR SWAP2 SWAP1 SWAP2 OR AND SWAP2 SWAP1 SWAP2 OR DUP2 SSTORE PUSH1 0x60 DUP4 ADD MLOAD PUSH1 0x2 SSTORE PUSH1 0x80 DUP4 ADD MLOAD PUSH1 0x3 DUP1 SLOAD PUSH1 0xA0 DUP7 ADD MLOAD PUSH1 0xC0 DUP8 ADD MLOAD PUSH1 0xE0 DUP9 ADD MLOAD PUSH4 0xFFFFFFFF SWAP1 DUP2 AND PUSH13 0x1000000000000000000000000 MUL PUSH4 0xFFFFFFFF PUSH1 0x60 SHL NOT SWAP3 DUP3 AND PUSH9 0x10000000000000000 MUL SWAP3 SWAP1 SWAP3 AND PUSH1 0x1 PUSH1 0x40 SHL PUSH1 0x1 PUSH1 0x80 SHL SUB NOT SWAP4 DUP3 AND PUSH5 0x100000000 MUL PUSH1 0x1 PUSH1 0x1 PUSH1 0x40 SHL SUB NOT SWAP1 SWAP6 AND SWAP2 SWAP1 SWAP7 AND OR SWAP3 SWAP1 SWAP3 OR AND SWAP3 SWAP1 SWAP3 OR SWAP2 SWAP1 SWAP2 OR SWAP1 SSTORE PUSH1 0x4 DUP1 SLOAD SWAP1 SWAP2 PUSH1 0xFF NOT SWAP2 SWAP1 SWAP2 AND SWAP1 DUP4 MUL OR SWAP1 SSTORE POP POP POP PUSH3 0x35C JUMP JUMPDEST DUP1 MLOAD PUSH1 0xFF DUP2 AND DUP2 EQ PUSH3 0x238 JUMPI PUSH0 DUP1 REVERT JUMPDEST SWAP2 SWAP1 POP JUMP JUMPDEST DUP1 MLOAD PUSH4 0xFFFFFFFF DUP2 AND DUP2 EQ PUSH3 0x238 JUMPI PUSH0 DUP1 REVERT JUMPDEST PUSH0 DUP1 DUP3 DUP5 SUB PUSH2 0x120 DUP2 SLT ISZERO PUSH3 0x265 JUMPI PUSH0 DUP1 REVERT JUMPDEST DUP4 MLOAD PUSH1 0x1 PUSH1 0x1 PUSH1 0xA0 SHL SUB DUP2 AND DUP2 EQ PUSH3 0x27C JUMPI PUSH0 DUP1 REVERT JUMPDEST SWAP3 POP PUSH2 0x100 PUSH1 0x1F NOT DUP3 ADD DUP2 SGT ISZERO PUSH3 0x292 JUMPI PUSH0 DUP1 REVERT JUMPDEST PUSH1 0x40 MLOAD SWAP2 POP DUP1 DUP3 ADD PUSH1 0x1 PUSH1 0x1 PUSH1 0x40 SHL SUB DUP2 GT DUP4 DUP3 LT OR ISZERO PUSH3 0x2C2 JUMPI PUSH4 0x4E487B71 PUSH1 0xE0 SHL PUSH0 MSTORE PUSH1 0x41 PUSH1 0x4 MSTORE PUSH1 0x24 PUSH0 REVERT JUMPDEST PUSH1 0x40 MSTORE PUSH3 0x2D3 PUSH1 0x20 DUP7 ADD PUSH3 0x227 JUMP JUMPDEST DUP3 MSTORE PUSH3 0x2E3 PUSH1 0x40 DUP7 ADD PUSH3 0x227 JUMP JUMPDEST PUSH1 0x20 DUP4 ADD MSTORE PUSH3 0x2F6 PUSH1 0x60 DUP7 ADD PUSH3 0x227 JUMP JUMPDEST PUSH1 0x40 DUP4 ADD MSTORE PUSH1 0x80 DUP6 ADD MLOAD PUSH1 0x60 DUP4 ADD MSTORE PUSH3 0x313 PUSH1 0xA0 DUP7 ADD PUSH3 0x23D JUMP JUMPDEST PUSH1 0x80 DUP4 ADD MSTORE PUSH3 0x326 PUSH1 0xC0 DUP7 ADD PUSH3 0x23D JUMP JUMPDEST PUSH1 0xA0 DUP4 ADD MSTORE PUSH3 0x339 PUSH1 0xE0 DUP7 ADD PUSH3 0x23D JUMP JUMPDEST PUSH1 0xC0 DUP4 ADD MSTORE PUSH3 0x34B DUP2 DUP7 ADD PUSH3 0x23D JUMP JUMPDEST PUSH1 0xE0 DUP4 ADD MSTORE POP DUP1 SWAP2 POP POP SWAP3 POP SWAP3 SWAP1 POP JUMP JUMPDEST PUSH2 0x1FFF DUP1 PUSH3 0x36A PUSH0 CODECOPY PUSH0 RETURN INVALID PUSH1 0x80 PUSH1 0x40 MSTORE PUSH1 0x4 CALLDATASIZE LT PUSH2 0x1AF JUMPI PUSH0 CALLDATALOAD PUSH1 0xE0 SHR DUP1 PUSH4 0x8C1D85D8 GT PUSH2 0xE7 JUMPI DUP1 PUSH4 0xBE9A6555 GT PUSH2 0x87 JUMPI DUP1 PUSH4 0xC8DC00F1 GT PUSH2 0x62 JUMPI DUP1 PUSH4 0xC8DC00F1 EQ PUSH2 0x5A6 JUMPI DUP1 PUSH4 0xD88D9B70 EQ PUSH2 0x5D1 JUMPI DUP1 PUSH4 0xE373A7DE EQ PUSH2 0x5FF JUMPI DUP1 PUSH4 0xF437BC59 EQ PUSH2 0x61E JUMPI PUSH0 DUP1 REVERT JUMPDEST DUP1 PUSH4 0xBE9A6555 EQ PUSH2 0x55F JUMPI DUP1 PUSH4 0xBEDECC06 EQ PUSH2 0x573 JUMPI DUP1 PUSH4 0xC5692606 EQ PUSH2 0x587 JUMPI PUSH0 DUP1 REVERT JUMPDEST DUP1 PUSH4 0xB1C9FE6E GT PUSH2 0xC2 JUMPI DUP1 PUSH4 0xB1C9FE6E EQ PUSH2 0x4E4 JUMPI DUP1 PUSH4 0xB3F98ADC EQ PUSH2 0x50A JUMPI DUP1 PUSH4 0xB688A363 EQ PUSH2 0x529 JUMPI DUP1 PUSH4 0xB9CD92C3 EQ PUSH2 0x531 JUMPI PUSH0 DUP1 REVERT JUMPDEST DUP1 PUSH4 0x8C1D85D8 EQ PUSH2 0x476 JUMPI DUP1 PUSH4 0xA5D7827E EQ PUSH2 0x499 JUMPI DUP1 PUSH4 0xA6E376FA EQ PUSH2 0x4C5 JUMPI PUSH0 DUP1 REVERT JUMPDEST DUP1 PUSH4 0x3B33C702 GT PUSH2 0x152 JUMPI DUP1 PUSH4 0x59B7E6AD GT PUSH2 0x12D JUMPI DUP1 PUSH4 0x59B7E6AD EQ PUSH2 0x3F2 JUMPI DUP1 PUSH4 0x5FCBF372 EQ PUSH2 0x406 JUMPI DUP1 PUSH4 0x61DC4610 EQ PUSH2 0x434 JUMPI DUP1 PUSH4 0x6662C26E EQ PUSH2 0x448 JUMPI PUSH0 DUP1 REVERT JUMPDEST DUP1 PUSH4 0x3B33C702 EQ PUSH2 0x37F JUMPI DUP1 PUSH4 0x413D0956 EQ PUSH2 0x3AD JUMPI DUP1 PUSH4 0x581FE69A EQ PUSH2 0x3C1 JUMPI PUSH0 DUP1 REVERT JUMPDEST DUP1 PUSH4 0x266E2A56 GT PUSH2 0x18D JUMPI DUP1 PUSH4 0x266E2A56 EQ PUSH2 0x29F JUMPI DUP1 PUSH4 0x27C0583F EQ PUSH2 0x2DB JUMPI DUP1 PUSH4 0x29DCB0CF EQ PUSH2 0x319 JUMPI DUP1 PUSH4 0x33898621 EQ PUSH2 0x33F JUMPI PUSH0 DUP1 REVERT JUMPDEST DUP1 PUSH4 0x457DAD2 EQ PUSH2 0x1B3 JUMPI DUP1 PUSH4 0x86E6917 EQ PUSH2 0x266 JUMPI DUP1 PUSH4 0x17E6FCEF EQ PUSH2 0x289 JUMPI JUMPDEST PUSH0 DUP1 REVERT JUMPDEST CALLVALUE DUP1 ISZERO PUSH2 0x1BE JUMPI PUSH0 DUP1 REVERT JUMPDEST POP PUSH1 0x1 SLOAD PUSH1 0x2 SLOAD PUSH1 0x3 SLOAD PUSH2 0x20D SWAP3 PUSH1 0xFF DUP1 DUP3 AND SWAP4 PUSH2 0x100 DUP4 DIV DUP3 AND SWAP4 PUSH3 0x10000 SWAP1 SWAP4 DIV SWAP1 SWAP2 AND SWAP2 PUSH4 0xFFFFFFFF DUP1 DUP3 AND SWAP2 PUSH1 0x1 PUSH1 0x20 SHL DUP2 DIV DUP3 AND SWAP2 PUSH1 0x1 PUSH1 0x40 SHL DUP3 DIV DUP2 AND SWAP2 PUSH1 0x1 PUSH1 0x60 SHL SWAP1 DIV AND DUP9 JUMP JUMPDEST PUSH1 0x40 DUP1 MLOAD PUSH1 0xFF SWAP10 DUP11 AND DUP2 MSTORE SWAP8 DUP10 AND PUSH1 0x20 DUP10 ADD MSTORE SWAP6 SWAP1 SWAP8 AND SWAP5 DUP7 ADD SWAP5 SWAP1 SWAP5 MSTORE PUSH1 0x60 DUP6 ADD SWAP3 SWAP1 SWAP3 MSTORE PUSH4 0xFFFFFFFF SWAP1 DUP2 AND PUSH1 0x80 DUP6 ADD MSTORE SWAP1 DUP2 AND PUSH1 0xA0 DUP5 ADD MSTORE SWAP1 DUP2 AND PUSH1 0xC0 DUP4 ADD MSTORE SWAP1 SWAP2 AND PUSH1 0xE0 DUP3 ADD MSTORE PUSH2 0x100 ADD JUMPDEST PUSH1 0x40 MLOAD DUP1 SWAP2 SUB SWAP1 RETURN JUMPDEST CALLVALUE DUP1 ISZERO PUSH2 0x271 JUMPI PUSH0 DUP1 REVERT JUMPDEST POP PUSH2 0x27B PUSH1 0xE SLOAD DUP2 JUMP JUMPDEST PUSH1 0x40 MLOAD SWAP1 DUP2 MSTORE PUSH1 0x20 ADD PUSH2 0x25D JUMP JUMPDEST CALLVALUE DUP1 ISZERO PUSH2 0x294 JUMPI PUSH0 DUP1 REVERT JUMPDEST POP PUSH2 0x29D PUSH2 0x654 JUMP JUMPDEST STOP JUMPDEST CALLVALUE DUP1 ISZERO PUSH2 0x2AA JUMPI PUSH0 DUP1 REVERT JUMPDEST POP PUSH1 0x4 SLOAD PUSH2 0x2C3 SWAP1 PUSH2 0x100 SWAP1 DIV PUSH1 0x1 PUSH1 0x1 PUSH1 0x40 SHL SUB AND DUP2 JUMP JUMPDEST PUSH1 0x40 MLOAD PUSH1 0x1 PUSH1 0x1 PUSH1 0x40 SHL SUB SWAP1 SWAP2 AND DUP2 MSTORE PUSH1 0x20 ADD PUSH2 0x25D JUMP JUMPDEST CALLVALUE DUP1 ISZERO PUSH2 0x2E6 JUMPI PUSH0 DUP1 REVERT JUMPDEST POP PUSH2 0x309 PUSH2 0x2F5 CALLDATASIZE PUSH1 0x4 PUSH2 0x1C36 JUMP JUMPDEST PUSH1 0xA PUSH1 0x20 MSTORE PUSH0 SWAP1 DUP2 MSTORE PUSH1 0x40 SWAP1 KECCAK256 SLOAD PUSH1 0xFF AND DUP2 JUMP JUMPDEST PUSH1 0x40 MLOAD SWAP1 ISZERO ISZERO DUP2 MSTORE PUSH1 0x20 ADD PUSH2 0x25D JUMP JUMPDEST CALLVALUE DUP1 ISZERO PUSH2 0x324 JUMPI PUSH0 DUP1 REVERT JUMPDEST POP PUSH1 0x4 SLOAD PUSH2 0x2C3 SWAP1 PUSH1 0x1 PUSH1 0x48 SHL SWAP1 DIV PUSH1 0x1 PUSH1 0x1 PUSH1 0x40 SHL SUB AND DUP2 JUMP JUMPDEST CALLVALUE DUP1 ISZERO PUSH2 0x34A JUMPI PUSH0 DUP1 REVERT JUMPDEST POP PUSH2 0x36D PUSH2 0x359 CALLDATASIZE PUSH1 0x4 PUSH2 0x1C78 JUMP JUMPDEST PUSH1 0xC PUSH1 0x20 MSTORE PUSH0 SWAP1 DUP2 MSTORE PUSH1 0x40 SWAP1 KECCAK256 SLOAD PUSH1 0xFF AND DUP2 JUMP JUMPDEST PUSH1 0x40 MLOAD PUSH1 0xFF SWAP1 SWAP2 AND DUP2 MSTORE PUSH1 0x20 ADD PUSH2 0x25D JUMP JUMPDEST CALLVALUE DUP1 ISZERO PUSH2 0x38A JUMPI PUSH0 DUP1 REVERT JUMPDEST POP PUSH2 0x39E PUSH2 0x399 CALLDATASIZE PUSH1 0x4 PUSH2 0x1C91 JUMP JUMPDEST PUSH2 0x6FF JUMP JUMPDEST PUSH1 0x40 MLOAD PUSH2 0x25D SWAP4 SWAP3 SWAP2 SWAP1 PUSH2 0x1CD0 JUMP JUMPDEST CALLVALUE DUP1 ISZERO PUSH2 0x3B8 JUMPI PUSH0 DUP1 REVERT JUMPDEST POP PUSH2 0x29D PUSH2 0x73C JUMP JUMPDEST CALLVALUE DUP1 ISZERO PUSH2 0x3CC JUMPI PUSH0 DUP1 REVERT JUMPDEST POP PUSH1 0xD SLOAD PUSH2 0x3DD SWAP1 PUSH4 0xFFFFFFFF AND DUP2 JUMP JUMPDEST PUSH1 0x40 MLOAD PUSH4 0xFFFFFFFF SWAP1 SWAP2 AND DUP2 MSTORE PUSH1 0x20 ADD PUSH2 0x25D JUMP JUMPDEST CALLVALUE DUP1 ISZERO PUSH2 0x3FD JUMPI PUSH0 DUP1 REVERT JUMPDEST POP PUSH2 0x29D PUSH2 0x8B3 JUMP JUMPDEST CALLVALUE DUP1 ISZERO PUSH2 0x411 JUMPI PUSH0 DUP1 REVERT JUMPDEST POP PUSH2 0x36D PUSH2 0x420 CALLDATASIZE PUSH1 0x4 PUSH2 0x1C36 JUMP JUMPDEST PUSH1 0xB PUSH1 0x20 MSTORE PUSH0 SWAP1 DUP2 MSTORE PUSH1 0x40 SWAP1 KECCAK256 SLOAD PUSH1 0xFF AND DUP2 JUMP JUMPDEST CALLVALUE DUP1 ISZERO PUSH2 0x43F JUMPI PUSH0 DUP1 REVERT JUMPDEST POP PUSH2 0x29D PUSH2 0x943 JUMP JUMPDEST CALLVALUE DUP1 ISZERO PUSH2 0x453 JUMPI PUSH0 DUP1 REVERT JUMPDEST POP PUSH2 0x36D PUSH2 0x462 CALLDATASIZE PUSH1 0x4 PUSH2 0x1C36 JUMP JUMPDEST PUSH1 0x8 PUSH1 0x20 MSTORE PUSH0 SWAP1 DUP2 MSTORE PUSH1 0x40 SWAP1 KECCAK256 SLOAD PUSH1 0xFF AND DUP2 JUMP JUMPDEST CALLVALUE DUP1 ISZERO PUSH2 0x481 JUMPI PUSH0 DUP1 REVERT JUMPDEST POP PUSH1 0xD SLOAD PUSH2 0x3DD SWAP1 PUSH1 0x1 PUSH1 0x20 SHL SWAP1 DIV PUSH4 0xFFFFFFFF AND DUP2 JUMP JUMPDEST CALLVALUE DUP1 ISZERO PUSH2 0x4A4 JUMPI PUSH0 DUP1 REVERT JUMPDEST POP PUSH2 0x4B8 PUSH2 0x4B3 CALLDATASIZE PUSH1 0x4 PUSH2 0x1C36 JUMP JUMPDEST PUSH2 0xC45 JUMP JUMPDEST PUSH1 0x40 MLOAD PUSH2 0x25D SWAP2 SWAP1 PUSH2 0x1CFD JUMP JUMPDEST CALLVALUE DUP1 ISZERO PUSH2 0x4D0 JUMPI PUSH0 DUP1 REVERT JUMPDEST POP PUSH2 0x29D PUSH2 0x4DF CALLDATASIZE PUSH1 0x4 PUSH2 0x1C91 JUMP JUMPDEST PUSH2 0xD32 JUMP JUMPDEST CALLVALUE DUP1 ISZERO PUSH2 0x4EF JUMPI PUSH0 DUP1 REVERT JUMPDEST POP PUSH1 0x4 SLOAD PUSH2 0x4FD SWAP1 PUSH1 0xFF AND DUP2 JUMP JUMPDEST PUSH1 0x40 MLOAD PUSH2 0x25D SWAP2 SWAP1 PUSH2 0x1D21 JUMP JUMPDEST CALLVALUE DUP1 ISZERO PUSH2 0x515 JUMPI PUSH0 DUP1 REVERT JUMPDEST POP PUSH2 0x29D PUSH2 0x524 CALLDATASIZE PUSH1 0x4 PUSH2 0x1C78 JUMP JUMPDEST PUSH2 0xEE3 JUMP JUMPDEST PUSH2 0x29D PUSH2 0x1104 JUMP JUMPDEST CALLVALUE DUP1 ISZERO PUSH2 0x53C JUMPI PUSH0 DUP1 REVERT JUMPDEST POP PUSH2 0x36D PUSH2 0x54B CALLDATASIZE PUSH1 0x4 PUSH2 0x1C36 JUMP JUMPDEST PUSH1 0x6 PUSH1 0x20 MSTORE PUSH0 SWAP1 DUP2 MSTORE PUSH1 0x40 SWAP1 KECCAK256 SLOAD PUSH1 0xFF AND DUP2 JUMP JUMPDEST CALLVALUE DUP1 ISZERO PUSH2 0x56A JUMPI PUSH0 DUP1 REVERT JUMPDEST POP PUSH2 0x29D PUSH2 0x137E JUMP JUMPDEST CALLVALUE DUP1 ISZERO PUSH2 0x57E JUMPI PUSH0 DUP1 REVERT JUMPDEST POP PUSH1 0x5 SLOAD PUSH2 0x27B JUMP JUMPDEST CALLVALUE DUP1 ISZERO PUSH2 0x592 JUMPI PUSH0 DUP1 REVERT JUMPDEST POP PUSH2 0x29D PUSH2 0x5A1 CALLDATASIZE PUSH1 0x4 PUSH2 0x1D2F JUMP JUMPDEST PUSH2 0x1451 JUMP JUMPDEST CALLVALUE DUP1 ISZERO PUSH2 0x5B1 JUMPI PUSH0 DUP1 REVERT JUMPDEST POP PUSH2 0x27B PUSH2 0x5C0 CALLDATASIZE PUSH1 0x4 PUSH2 0x1C36 JUMP JUMPDEST PUSH1 0x7 PUSH1 0x20 MSTORE PUSH0 SWAP1 DUP2 MSTORE PUSH1 0x40 SWAP1 KECCAK256 SLOAD DUP2 JUMP JUMPDEST CALLVALUE DUP1 ISZERO PUSH2 0x5DC JUMPI PUSH0 DUP1 REVERT JUMPDEST POP PUSH2 0x309 PUSH2 0x5EB CALLDATASIZE PUSH1 0x4 PUSH2 0x1C36 JUMP JUMPDEST PUSH1 0x9 PUSH1 0x20 MSTORE PUSH0 SWAP1 DUP2 MSTORE PUSH1 0x40 SWAP1 KECCAK256 SLOAD PUSH1 0xFF AND DUP2 JUMP JUMPDEST CALLVALUE DUP1 ISZERO PUSH2 0x60A JUMPI PUSH0 DUP1 REVERT JUMPDEST POP PUSH2 0x29D PUSH2 0x619 CALLDATASIZE PUSH1 0x4 PUSH2 0x1D57 JUMP JUMPDEST PUSH2 0x16F5 JUMP JUMPDEST CALLVALUE DUP1 ISZERO PUSH2 0x629 JUMPI PUSH0 DUP1 REVERT JUMPDEST POP PUSH0 SLOAD PUSH2 0x63C SWAP1 PUSH1 0x1 PUSH1 0x1 PUSH1 0xA0 SHL SUB AND DUP2 JUMP JUMPDEST PUSH1 0x40 MLOAD PUSH1 0x1 PUSH1 0x1 PUSH1 0xA0 SHL SUB SWAP1 SWAP2 AND DUP2 MSTORE PUSH1 0x20 ADD PUSH2 0x25D JUMP JUMPDEST PUSH1 0x2 DUP1 PUSH1 0x4 SLOAD PUSH1 0xFF AND PUSH1 0x6 DUP2 GT ISZERO PUSH2 0x66E JUMPI PUSH2 0x66E PUSH2 0x1CA8 JUMP JUMPDEST EQ PUSH2 0x694 JUMPI PUSH1 0x40 MLOAD PUSH3 0x461BCD PUSH1 0xE5 SHL DUP2 MSTORE PUSH1 0x4 ADD PUSH2 0x68B SWAP1 PUSH2 0x1DC5 JUMP JUMPDEST PUSH1 0x40 MLOAD DUP1 SWAP2 SUB SWAP1 REVERT JUMPDEST PUSH1 0x4 SLOAD PUSH1 0x1 PUSH1 0x48 SHL SWAP1 DIV PUSH1 0x1 PUSH1 0x1 PUSH1 0x40 SHL SUB AND TIMESTAMP GT PUSH2 0x6E1 JUMPI PUSH1 0x40 MLOAD PUSH3 0x461BCD PUSH1 0xE5 SHL DUP2 MSTORE PUSH1 0x20 PUSH1 0x4 DUP3 ADD MSTORE PUSH1 0x9 PUSH1 0x24 DUP3 ADD MSTORE PUSH9 0x746F6F206561726C79 PUSH1 0xB8 SHL PUSH1 0x44 DUP3 ADD MSTORE PUSH1 0x64 ADD PUSH2 0x68B JUMP JUMPDEST PUSH1 0x3 DUP1 SLOAD PUSH2 0x6FC SWAP2 SWAP1 PUSH1 0x1 PUSH1 0x40 SHL SWAP1 DIV PUSH4 0xFFFFFFFF AND PUSH2 0x1988 JUMP JUMPDEST POP JUMP JUMPDEST PUSH1 0x5 DUP2 DUP2 SLOAD DUP2 LT PUSH2 0x70E JUMPI PUSH0 DUP1 REVERT JUMPDEST PUSH0 SWAP2 DUP3 MSTORE PUSH1 0x20 SWAP1 SWAP2 KECCAK256 ADD SLOAD PUSH1 0x1 PUSH1 0x1 PUSH1 0xA0 SHL SUB DUP2 AND SWAP2 POP PUSH1 0xFF PUSH1 0x1 PUSH1 0xA0 SHL DUP3 DIV DUP2 AND SWAP2 PUSH1 0x1 PUSH1 0xA8 SHL SWAP1 DIV AND DUP4 JUMP JUMPDEST PUSH1 0x5 DUP1 PUSH1 0x4 SLOAD PUSH1 0xFF AND PUSH1 0x6 DUP2 GT ISZERO PUSH2 0x756 JUMPI PUSH2 0x756 PUSH2 0x1CA8 JUMP JUMPDEST EQ PUSH2 0x773 JUMPI PUSH1 0x40 MLOAD PUSH3 0x461BCD PUSH1 0xE5 SHL DUP2 MSTORE PUSH1 0x4 ADD PUSH2 0x68B SWAP1 PUSH2 0x1DC5 JUMP JUMPDEST PUSH1 0xFF PUSH0 DUP1 JUMPDEST PUSH1 0x5 SLOAD PUSH1 0xFF DUP3 AND LT ISZERO PUSH2 0x7EF JUMPI PUSH1 0x5 DUP2 PUSH1 0xFF AND DUP2 SLOAD DUP2 LT PUSH2 0x79B JUMPI PUSH2 0x79B PUSH2 0x1DE8 JUMP JUMPDEST PUSH0 SWAP2 DUP3 MSTORE PUSH1 0x20 SWAP1 SWAP2 KECCAK256 ADD SLOAD PUSH1 0x1 PUSH1 0xA0 SHL SWAP1 DIV PUSH1 0xFF AND ISZERO PUSH2 0x7DD JUMPI PUSH1 0xFF DUP1 DUP3 AND PUSH0 SWAP1 DUP2 MSTORE PUSH1 0xC PUSH1 0x20 MSTORE PUSH1 0x40 SWAP1 KECCAK256 SLOAD DUP2 AND SWAP1 DUP4 AND DUP2 GT ISZERO PUSH2 0x7DB JUMPI DUP1 SWAP3 POP DUP2 SWAP4 POP JUMPDEST POP JUMPDEST DUP1 PUSH2 0x7E7 DUP2 PUSH2 0x1E10 JUMP JUMPDEST SWAP2 POP POP PUSH2 0x778 JUMP JUMPDEST POP PUSH1 0x5 SLOAD PUSH1 0xFF DUP4 AND LT DUP1 ISZERO PUSH2 0x82B JUMPI POP PUSH1 0x5 DUP3 PUSH1 0xFF AND DUP2 SLOAD DUP2 LT PUSH2 0x815 JUMPI PUSH2 0x815 PUSH2 0x1DE8 JUMP JUMPDEST PUSH0 SWAP2 DUP3 MSTORE PUSH1 0x20 SWAP1 SWAP2 KECCAK256 ADD SLOAD PUSH1 0x1 PUSH1 0xA0 SHL SWAP1 DIV PUSH1 0xFF AND JUMPDEST ISZERO PUSH2 0x839 JUMPI PUSH2 0x839 DUP3 PUSH2 0x1A2E JUMP JUMPDEST PUSH2 0x841 PUSH2 0x1B7F JUMP JUMPDEST ISZERO PUSH2 0x84B JUMPI POP POP POP JUMP JUMPDEST PUSH1 0x4 DUP1 SLOAD PUSH2 0x100 SWAP1 DIV PUSH1 0x1 PUSH1 0x1 PUSH1 0x40 SHL SUB AND SWAP1 PUSH1 0x1 PUSH2 0x869 DUP4 PUSH2 0x1E2E JUMP JUMPDEST SWAP2 SWAP1 PUSH2 0x100 EXP DUP2 SLOAD DUP2 PUSH1 0x1 PUSH1 0x1 PUSH1 0x40 SHL SUB MUL NOT AND SWAP1 DUP4 PUSH1 0x1 PUSH1 0x1 PUSH1 0x40 SHL SUB AND MUL OR SWAP1 SSTORE POP POP PUSH2 0x8AE PUSH1 0x2 PUSH1 0x1 PUSH1 0x2 ADD PUSH1 0x4 SWAP1 SLOAD SWAP1 PUSH2 0x100 EXP SWAP1 DIV PUSH4 0xFFFFFFFF AND PUSH2 0x1988 JUMP JUMPDEST POP POP POP JUMP JUMPDEST PUSH1 0x3 DUP1 PUSH1 0x4 SLOAD PUSH1 0xFF AND PUSH1 0x6 DUP2 GT ISZERO PUSH2 0x8CD JUMPI PUSH2 0x8CD PUSH2 0x1CA8 JUMP JUMPDEST EQ PUSH2 0x8EA JUMPI PUSH1 0x40 MLOAD PUSH3 0x461BCD PUSH1 0xE5 SHL DUP2 MSTORE PUSH1 0x4 ADD PUSH2 0x68B SWAP1 PUSH2 0x1DC5 JUMP JUMPDEST PUSH1 0x4 SLOAD PUSH1 0x1 PUSH1 0x48 SHL SWAP1 DIV PUSH1 0x1 PUSH1 0x1 PUSH1 0x40 SHL SUB AND TIMESTAMP GT PUSH2 0x937 JUMPI PUSH1 0x40 MLOAD PUSH3 0x461BCD PUSH1 0xE5 SHL DUP2 MSTORE PUSH1 0x20 PUSH1 0x4 DUP3 ADD MSTORE PUSH1 0x9 PUSH1 0x24 DUP3 ADD MSTORE PUSH9 0x746F6F206561726C79 PUSH1 0xB8 SHL PUSH1 0x44 DUP3 ADD MSTORE PUSH1 0x64 ADD PUSH2 0x68B JUMP JUMPDEST PUSH2 0x6FC PUSH1 0x4 PUSH1 0x5 PUSH2 0x1988 JUMP JUMPDEST PUSH1 0x4 DUP1 PUSH1 0x4 SLOAD PUSH1 0xFF AND PUSH1 0x6 DUP2 GT ISZERO PUSH2 0x95D JUMPI PUSH2 0x95D PUSH2 0x1CA8 JUMP JUMPDEST EQ PUSH2 0x97A JUMPI PUSH1 0x40 MLOAD PUSH3 0x461BCD PUSH1 0xE5 SHL DUP2 MSTORE PUSH1 0x4 ADD PUSH2 0x68B SWAP1 PUSH2 0x1DC5 JUMP JUMPDEST PUSH1 0x5 SLOAD PUSH0 DUP2 PUSH1 0x1 PUSH1 0x1 PUSH1 0x40 SHL SUB DUP2 GT ISZERO PUSH2 0x996 JUMPI PUSH2 0x996 PUSH2 0x1E53 JUMP JUMPDEST PUSH1 0x40 MLOAD SWAP1 DUP1 DUP3 MSTORE DUP1 PUSH1 0x20 MUL PUSH1 0x20 ADD DUP3 ADD PUSH1 0x40 MSTORE DUP1 ISZERO PUSH2 0x9BF JUMPI DUP2 PUSH1 0x20 ADD PUSH1 0x20 DUP3 MUL DUP1 CALLDATASIZE DUP4 CALLDATACOPY ADD SWAP1 POP JUMPDEST POP SWAP1 POP PUSH0 JUMPDEST DUP3 DUP2 LT ISZERO PUSH2 0xB20 JUMPI PUSH0 PUSH1 0x5 DUP3 DUP2 SLOAD DUP2 LT PUSH2 0x9E0 JUMPI PUSH2 0x9E0 PUSH2 0x1DE8 JUMP JUMPDEST PUSH0 SWAP2 DUP3 MSTORE PUSH1 0x20 SWAP1 SWAP2 KECCAK256 ADD SLOAD PUSH1 0x5 DUP1 SLOAD PUSH1 0x1 PUSH1 0x1 PUSH1 0xA0 SHL SUB SWAP1 SWAP3 AND SWAP3 POP SWAP1 DUP4 SWAP1 DUP2 LT PUSH2 0xA0D JUMPI PUSH2 0xA0D PUSH2 0x1DE8 JUMP JUMPDEST PUSH0 SWAP2 DUP3 MSTORE PUSH1 0x20 SWAP1 SWAP2 KECCAK256 ADD SLOAD PUSH1 0x1 PUSH1 0xA0 SHL SWAP1 DIV PUSH1 0xFF AND DUP1 ISZERO PUSH2 0xA66 JUMPI POP PUSH1 0x1 PUSH1 0x5 DUP4 DUP2 SLOAD DUP2 LT PUSH2 0xA3E JUMPI PUSH2 0xA3E PUSH2 0x1DE8 JUMP JUMPDEST PUSH0 SWAP2 DUP3 MSTORE PUSH1 0x20 SWAP1 SWAP2 KECCAK256 ADD SLOAD PUSH1 0x1 PUSH1 0xA8 SHL SWAP1 DIV PUSH1 0xFF AND PUSH1 0x4 DUP2 GT ISZERO PUSH2 0xA64 JUMPI PUSH2 0xA64 PUSH2 0x1CA8 JUMP JUMPDEST EQ JUMPDEST DUP1 ISZERO PUSH2 0xA89 JUMPI POP PUSH1 0x1 PUSH1 0x1 PUSH1 0xA0 SHL SUB DUP2 AND PUSH0 SWAP1 DUP2 MSTORE PUSH1 0xA PUSH1 0x20 MSTORE PUSH1 0x40 SWAP1 KECCAK256 SLOAD PUSH1 0xFF AND JUMPDEST ISZERO PUSH2 0xB17 JUMPI PUSH1 0x1 PUSH1 0x1 PUSH1 0xA0 SHL SUB DUP2 AND PUSH0 SWAP1 DUP2 MSTORE PUSH1 0x8 PUSH1 0x20 MSTORE PUSH1 0x40 SWAP1 KECCAK256 SLOAD PUSH1 0xFF AND DUP5 DUP2 LT DUP1 ISZERO PUSH2 0xADF JUMPI POP PUSH1 0x5 DUP2 PUSH1 0xFF AND DUP2 SLOAD DUP2 LT PUSH2 0xAC9 JUMPI PUSH2 0xAC9 PUSH2 0x1DE8 JUMP JUMPDEST PUSH0 SWAP2 DUP3 MSTORE PUSH1 0x20 SWAP1 SWAP2 KECCAK256 ADD SLOAD PUSH1 0x1 PUSH1 0xA0 SHL SWAP1 DIV PUSH1 0xFF AND JUMPDEST ISZERO PUSH2 0xB15 JUMPI DUP4 DUP2 PUSH1 0xFF AND DUP2 MLOAD DUP2 LT PUSH2 0xAF9 JUMPI PUSH2 0xAF9 PUSH2 0x1DE8 JUMP JUMPDEST PUSH1 0x20 MUL PUSH1 0x20 ADD ADD DUP1 MLOAD DUP1 SWAP2 SWAP1 PUSH2 0xB0E SWAP1 PUSH2 0x1E10 JUMP JUMPDEST PUSH1 0xFF AND SWAP1 MSTORE POP JUMPDEST POP JUMPDEST POP PUSH1 0x1 ADD PUSH2 0x9C4 JUMP JUMPDEST POP PUSH1 0xFF PUSH0 DUP1 JUMPDEST DUP5 DUP2 PUSH1 0xFF AND LT ISZERO PUSH2 0xB90 JUMPI DUP2 PUSH1 0xFF AND DUP5 DUP3 PUSH1 0xFF AND DUP2 MLOAD DUP2 LT PUSH2 0xB4A JUMPI PUSH2 0xB4A PUSH2 0x1DE8 JUMP JUMPDEST PUSH1 0x20 MUL PUSH1 0x20 ADD ADD MLOAD PUSH1 0xFF AND GT ISZERO PUSH2 0xB7E JUMPI DUP4 DUP2 PUSH1 0xFF AND DUP2 MLOAD DUP2 LT PUSH2 0xB70 JUMPI PUSH2 0xB70 PUSH2 0x1DE8 JUMP JUMPDEST PUSH1 0x20 MUL PUSH1 0x20 ADD ADD MLOAD SWAP2 POP DUP1 SWAP3 POP JUMPDEST DUP1 PUSH2 0xB88 DUP2 PUSH2 0x1E10 JUMP JUMPDEST SWAP2 POP POP PUSH2 0xB26 JUMP JUMPDEST POP DUP4 DUP3 PUSH1 0xFF AND LT DUP1 ISZERO PUSH2 0xBCA JUMPI POP PUSH1 0x5 DUP3 PUSH1 0xFF AND DUP2 SLOAD DUP2 LT PUSH2 0xBB4 JUMPI PUSH2 0xBB4 PUSH2 0x1DE8 JUMP JUMPDEST PUSH0 SWAP2 DUP3 MSTORE PUSH1 0x20 SWAP1 SWAP2 KECCAK256 ADD SLOAD PUSH1 0x1 PUSH1 0xA0 SHL SWAP1 DIV PUSH1 0xFF AND JUMPDEST ISZERO PUSH2 0xBD8 JUMPI PUSH2 0xBD8 DUP3 PUSH2 0x1A2E JUMP JUMPDEST PUSH1 0x40 MLOAD PUSH1 0xFF DUP4 AND DUP2 MSTORE PUSH32 0x54A51AD4C2C44A9A8F17512F2F98D5CFEC2E0BBA7CC0C3E24976B8C50B3EDE28 SWAP1 PUSH1 0x20 ADD PUSH1 0x40 MLOAD DUP1 SWAP2 SUB SWAP1 LOG1 PUSH2 0xC16 PUSH2 0x1B7F JUMP JUMPDEST ISZERO PUSH2 0xC22 JUMPI POP POP POP POP POP JUMP JUMPDEST PUSH1 0x3 SLOAD PUSH2 0xC3E SWAP1 PUSH1 0x5 SWAP1 PUSH1 0x1 PUSH1 0x60 SHL SWAP1 DIV PUSH4 0xFFFFFFFF AND PUSH2 0x1988 JUMP JUMPDEST POP POP POP POP POP JUMP JUMPDEST PUSH1 0x1 PUSH1 0x1 PUSH1 0xA0 SHL SUB DUP2 AND PUSH0 SWAP1 DUP2 MSTORE PUSH1 0x6 PUSH1 0x20 MSTORE PUSH1 0x40 DUP2 KECCAK256 SLOAD PUSH1 0xFF AND DUP1 PUSH2 0xC97 JUMPI PUSH1 0x40 MLOAD PUSH3 0x461BCD PUSH1 0xE5 SHL DUP2 MSTORE PUSH1 0x20 PUSH1 0x4 DUP3 ADD MSTORE PUSH1 0x7 PUSH1 0x24 DUP3 ADD MSTORE PUSH7 0x1B9BC81CD9585D PUSH1 0xCA SHL PUSH1 0x44 DUP3 ADD MSTORE PUSH1 0x64 ADD PUSH2 0x68B JUMP JUMPDEST PUSH1 0x6 PUSH1 0x4 SLOAD PUSH1 0xFF AND PUSH1 0x6 DUP2 GT ISZERO PUSH2 0xCB0 JUMPI PUSH2 0xCB0 PUSH2 0x1CA8 JUMP JUMPDEST EQ PUSH2 0xCF6 JUMPI PUSH1 0x1 PUSH1 0x1 PUSH1 0xA0 SHL SUB DUP4 AND CALLER EQ PUSH2 0xCF6 JUMPI PUSH1 0x40 MLOAD PUSH3 0x461BCD PUSH1 0xE5 SHL DUP2 MSTORE PUSH1 0x20 PUSH1 0x4 DUP3 ADD MSTORE PUSH1 0x6 PUSH1 0x24 DUP3 ADD MSTORE PUSH6 0x3434B23232B7 PUSH1 0xD1 SHL PUSH1 0x44 DUP3 ADD MSTORE PUSH1 0x64 ADD PUSH2 0x68B JUMP JUMPDEST PUSH1 0x5 PUSH2 0xD03 PUSH1 0x1 DUP4 PUSH2 0x1E67 JUMP JUMPDEST PUSH1 0xFF AND DUP2 SLOAD DUP2 LT PUSH2 0xD16 JUMPI PUSH2 0xD16 PUSH2 0x1DE8 JUMP JUMPDEST PUSH0 SWAP2 DUP3 MSTORE PUSH1 0x20 SWAP1 SWAP2 KECCAK256 ADD SLOAD PUSH1 0x1 PUSH1 0xA8 SHL SWAP1 DIV PUSH1 0xFF AND SWAP4 SWAP3 POP POP POP JUMP JUMPDEST PUSH1 0x2 DUP1 PUSH1 0x4 SLOAD PUSH1 0xFF AND PUSH1 0x6 DUP2 GT ISZERO PUSH2 0xD4C JUMPI PUSH2 0xD4C PUSH2 0x1CA8 JUMP JUMPDEST EQ PUSH2 0xD69 JUMPI PUSH1 0x40 MLOAD PUSH3 0x461BCD PUSH1 0xE5 SHL DUP2 MSTORE PUSH1 0x4 ADD PUSH2 0x68B SWAP1 PUSH2 0x1DC5 JUMP JUMPDEST CALLER PUSH0 SWAP1 DUP2 MSTORE PUSH1 0x6 PUSH1 0x20 MSTORE PUSH1 0x40 SWAP1 KECCAK256 SLOAD PUSH1 0xFF AND PUSH2 0xD97 JUMPI PUSH1 0x40 MLOAD PUSH3 0x461BCD PUSH1 0xE5 SHL DUP2 MSTORE PUSH1 0x4 ADD PUSH2 0x68B SWAP1 PUSH2 0x1E80 JUMP JUMPDEST CALLER PUSH0 SWAP1 DUP2 MSTORE PUSH1 0x6 PUSH1 0x20 MSTORE PUSH1 0x40 SWAP1 KECCAK256 SLOAD PUSH1 0x5 SWAP1 PUSH2 0xDB8 SWAP1 PUSH1 0x1 SWAP1 PUSH1 0xFF AND PUSH2 0x1E67 JUMP JUMPDEST PUSH1 0xFF AND DUP2 SLOAD DUP2 LT PUSH2 0xDCB JUMPI PUSH2 0xDCB PUSH2 0x1DE8 JUMP JUMPDEST PUSH0 SWAP2 DUP3 MSTORE PUSH1 0x20 SWAP1 SWAP2 KECCAK256 ADD SLOAD PUSH1 0x1 PUSH1 0xA0 SHL SWAP1 DIV PUSH1 0xFF AND PUSH2 0xDFC JUMPI PUSH1 0x40 MLOAD PUSH3 0x461BCD PUSH1 0xE5 SHL DUP2 MSTORE PUSH1 0x4 ADD PUSH2 0x68B SWAP1 PUSH2 0x1EA4 JUMP JUMPDEST CALLER PUSH0 SWAP1 DUP2 MSTORE PUSH1 0x6 PUSH1 0x20 MSTORE PUSH1 0x40 DUP2 KECCAK256 SLOAD PUSH2 0xE1A SWAP1 PUSH1 0x1 SWAP1 PUSH1 0xFF AND PUSH2 0x1E67 JUMP JUMPDEST SWAP1 POP PUSH1 0x1 PUSH1 0x5 DUP3 PUSH1 0xFF AND DUP2 SLOAD DUP2 LT PUSH2 0xE34 JUMPI PUSH2 0xE34 PUSH2 0x1DE8 JUMP JUMPDEST PUSH0 SWAP2 DUP3 MSTORE PUSH1 0x20 SWAP1 SWAP2 KECCAK256 ADD SLOAD PUSH1 0x1 PUSH1 0xA8 SHL SWAP1 DIV PUSH1 0xFF AND PUSH1 0x4 DUP2 GT ISZERO PUSH2 0xE5A JUMPI PUSH2 0xE5A PUSH2 0x1CA8 JUMP JUMPDEST EQ PUSH2 0xE92 JUMPI PUSH1 0x40 MLOAD PUSH3 0x461BCD PUSH1 0xE5 SHL DUP2 MSTORE PUSH1 0x20 PUSH1 0x4 DUP3 ADD MSTORE PUSH1 0x8 PUSH1 0x24 DUP3 ADD MSTORE PUSH8 0x3737BA103BB7B633 PUSH1 0xC1 SHL PUSH1 0x44 DUP3 ADD MSTORE PUSH1 0x64 ADD PUSH2 0x68B JUMP JUMPDEST CALLER PUSH0 DUP2 DUP2 MSTORE PUSH1 0x7 PUSH1 0x20 SWAP1 DUP2 MSTORE PUSH1 0x40 DUP1 DUP4 KECCAK256 DUP8 SWAP1 SSTORE PUSH1 0x9 SWAP1 SWAP2 MSTORE DUP1 DUP3 KECCAK256 DUP1 SLOAD PUSH1 0xFF NOT AND PUSH1 0x1 OR SWAP1 SSTORE MLOAD PUSH32 0xB7DB70CFDF71703C34A6CA0D742714F04FDD7676B4A28607D32028F3C74AE5A5 SWAP2 SWAP1 LOG2 POP POP POP JUMP JUMPDEST PUSH1 0x5 DUP1 PUSH1 0x4 SLOAD PUSH1 0xFF AND PUSH1 0x6 DUP2 GT ISZERO PUSH2 0xEFD JUMPI PUSH2 0xEFD PUSH2 0x1CA8 JUMP JUMPDEST EQ PUSH2 0xF1A JUMPI PUSH1 0x40 MLOAD PUSH3 0x461BCD PUSH1 0xE5 SHL DUP2 MSTORE PUSH1 0x4 ADD PUSH2 0x68B SWAP1 PUSH2 0x1DC5 JUMP JUMPDEST CALLER PUSH0 SWAP1 DUP2 MSTORE PUSH1 0x6 PUSH1 0x20 MSTORE PUSH1 0x40 SWAP1 KECCAK256 SLOAD PUSH1 0xFF AND PUSH2 0xF48 JUMPI PUSH1 0x40 MLOAD PUSH3 0x461BCD PUSH1 0xE5 SHL DUP2 MSTORE PUSH1 0x4 ADD PUSH2 0x68B SWAP1 PUSH2 0x1E80 JUMP JUMPDEST CALLER PUSH0 SWAP1 DUP2 MSTORE PUSH1 0x6 PUSH1 0x20 MSTORE PUSH1 0x40 SWAP1 KECCAK256 SLOAD PUSH1 0x5 SWAP1 PUSH2 0xF69 SWAP1 PUSH1 0x1 SWAP1 PUSH1 0xFF AND PUSH2 0x1E67 JUMP JUMPDEST PUSH1 0xFF AND DUP2 SLOAD DUP2 LT PUSH2 0xF7C JUMPI PUSH2 0xF7C PUSH2 0x1DE8 JUMP JUMPDEST PUSH0 SWAP2 DUP3 MSTORE PUSH1 0x20 SWAP1 SWAP2 KECCAK256 ADD SLOAD PUSH1 0x1 PUSH1 0xA0 SHL SWAP1 DIV PUSH1 0xFF AND PUSH2 0xFAD JUMPI PUSH1 0x40 MLOAD PUSH3 0x461BCD PUSH1 0xE5 SHL DUP2 MSTORE PUSH1 0x4 ADD PUSH2 0x68B SWAP1 PUSH2 0x1EA4 JUMP JUMPDEST PUSH1 0x5 SLOAD PUSH1 0xFF DUP4 AND LT PUSH2 0xFEE JUMPI PUSH1 0x40 MLOAD PUSH3 0x461BCD PUSH1 0xE5 SHL DUP2 MSTORE PUSH1 0x20 PUSH1 0x4 DUP3 ADD MSTORE PUSH1 0xA PUSH1 0x24 DUP3 ADD MSTORE PUSH10 0x189859081D185C99D95D PUSH1 0xB2 SHL PUSH1 0x44 DUP3 ADD MSTORE PUSH1 0x64 ADD PUSH2 0x68B JUMP JUMPDEST CALLER PUSH0 SWAP1 DUP2 MSTORE PUSH1 0xB PUSH1 0x20 MSTORE PUSH1 0x40 SWAP1 KECCAK256 SLOAD PUSH1 0xFF AND DUP1 ISZERO DUP1 ISZERO SWAP1 PUSH2 0x1021 JUMPI POP PUSH1 0xFF DUP1 DUP3 AND PUSH0 SWAP1 DUP2 MSTORE PUSH1 0xC PUSH1 0x20 MSTORE PUSH1 0x40 SWAP1 KECCAK256 SLOAD AND ISZERO ISZERO JUMPDEST ISZERO PUSH2 0x1062 JUMPI PUSH1 0xFF DUP1 DUP3 AND PUSH0 SWAP1 DUP2 MSTORE PUSH1 0xC PUSH1 0x20 MSTORE PUSH1 0x40 DUP2 KECCAK256 DUP1 SLOAD SWAP1 SWAP3 AND SWAP2 SWAP1 PUSH2 0x1048 DUP4 PUSH2 0x1EC2 JUMP JUMPDEST SWAP2 SWAP1 PUSH2 0x100 EXP DUP2 SLOAD DUP2 PUSH1 0xFF MUL NOT AND SWAP1 DUP4 PUSH1 0xFF AND MUL OR SWAP1 SSTORE POP POP JUMPDEST CALLER PUSH0 SWAP1 DUP2 MSTORE PUSH1 0xB PUSH1 0x20 SWAP1 DUP2 MSTORE PUSH1 0x40 DUP1 DUP4 KECCAK256 DUP1 SLOAD PUSH1 0xFF NOT AND PUSH1 0xFF DUP9 DUP2 AND SWAP2 DUP3 OR SWAP1 SWAP3 SSTORE DUP5 MSTORE PUSH1 0xC SWAP1 SWAP3 MSTORE DUP3 KECCAK256 DUP1 SLOAD SWAP1 SWAP2 AND SWAP2 PUSH2 0x109C DUP4 PUSH2 0x1E10 JUMP JUMPDEST SWAP2 SWAP1 PUSH2 0x100 EXP DUP2 SLOAD DUP2 PUSH1 0xFF MUL NOT AND SWAP1 DUP4 PUSH1 0xFF AND MUL OR SWAP1 SSTORE POP POP CALLER PUSH1 0x1 PUSH1 0x1 PUSH1 0xA0 SHL SUB AND PUSH32 0xEE56D44878E148B464D0E758841B67CB6ABDBE1ECA1B8788BBC3EDF4B2DA6EA3 DUP5 PUSH1 0x40 MLOAD PUSH2 0x10F7 SWAP2 SWAP1 PUSH1 0xFF SWAP2 SWAP1 SWAP2 AND DUP2 MSTORE PUSH1 0x20 ADD SWAP1 JUMP JUMPDEST PUSH1 0x40 MLOAD DUP1 SWAP2 SUB SWAP1 LOG2 POP POP POP JUMP JUMPDEST PUSH0 DUP1 PUSH1 0x4 SLOAD PUSH1 0xFF AND PUSH1 0x6 DUP2 GT ISZERO PUSH2 0x111D JUMPI PUSH2 0x111D PUSH2 0x1CA8 JUMP JUMPDEST EQ PUSH2 0x113A JUMPI PUSH1 0x40 MLOAD PUSH3 0x461BCD PUSH1 0xE5 SHL DUP2 MSTORE PUSH1 0x4 ADD PUSH2 0x68B SWAP1 PUSH2 0x1DC5 JUMP JUMPDEST PUSH1 0x1 SLOAD PUSH1 0x5 SLOAD PUSH2 0x100 SWAP1 SWAP2 DIV PUSH1 0xFF AND GT PUSH2 0x117F JUMPI PUSH1 0x40 MLOAD PUSH3 0x461BCD PUSH1 0xE5 SHL DUP2 MSTORE PUSH1 0x4 ADD PUSH2 0x68B SWAP1 PUSH1 0x20 DUP1 DUP3 MSTORE PUSH1 0x4 SWAP1 DUP3 ADD MSTORE PUSH4 0x199D5B1B PUSH1 0xE2 SHL PUSH1 0x40 DUP3 ADD MSTORE PUSH1 0x60 ADD SWAP1 JUMP JUMPDEST CALLER PUSH0 SWAP1 DUP2 MSTORE PUSH1 0x6 PUSH1 0x20 MSTORE PUSH1 0x40 SWAP1 KECCAK256 SLOAD PUSH1 0xFF AND ISZERO PUSH2 0x11C7 JUMPI PUSH1 0x40 MLOAD PUSH3 0x461BCD PUSH1 0xE5 SHL DUP2 MSTORE PUSH1 0x20 PUSH1 0x4 DUP3 ADD MSTORE PUSH1 0x6 PUSH1 0x24 DUP3 ADD MSTORE PUSH6 0x1A9BDA5B9959 PUSH1 0xD2 SHL PUSH1 0x44 DUP3 ADD MSTORE PUSH1 0x64 ADD PUSH2 0x68B JUMP JUMPDEST PUSH0 SLOAD PUSH1 0x1 PUSH1 0x1 PUSH1 0xA0 SHL SUB AND CALLER SUB PUSH2 0x1213 JUMPI PUSH1 0x40 MLOAD PUSH3 0x461BCD PUSH1 0xE5 SHL DUP2 MSTORE PUSH1 0x20 PUSH1 0x4 DUP3 ADD MSTORE PUSH1 0x10 PUSH1 0x24 DUP3 ADD MSTORE PUSH16 0x3437B9BA1031B0B73737BA103537B4B7 PUSH1 0x81 SHL PUSH1 0x44 DUP3 ADD MSTORE PUSH1 0x64 ADD PUSH2 0x68B JUMP JUMPDEST PUSH1 0x2 SLOAD CALLVALUE EQ PUSH2 0x1255 JUMPI PUSH1 0x40 MLOAD PUSH3 0x461BCD PUSH1 0xE5 SHL DUP2 MSTORE PUSH1 0x20 PUSH1 0x4 DUP3 ADD MSTORE PUSH1 0xE PUSH1 0x24 DUP3 ADD MSTORE PUSH14 0xE6E8C2D6CA40DAD2E6DAC2E8C6D PUSH1 0x93 SHL PUSH1 0x44 DUP3 ADD MSTORE PUSH1 0x64 ADD PUSH2 0x68B JUMP JUMPDEST PUSH1 0x40 DUP1 MLOAD PUSH1 0x60 DUP2 ADD DUP3 MSTORE CALLER DUP2 MSTORE PUSH1 0x1 PUSH1 0x20 DUP3 ADD MSTORE PUSH1 0x5 SWAP2 DUP2 ADD PUSH0 SWAP1 MSTORE DUP2 SLOAD PUSH1 0x1 DUP2 ADD DUP4 SSTORE PUSH0 SWAP3 DUP4 MSTORE PUSH1 0x20 SWAP3 DUP4 SWAP1 KECCAK256 DUP3 MLOAD SWAP2 ADD DUP1 SLOAD SWAP4 DUP4 ADD MLOAD ISZERO ISZERO PUSH1 0x1 PUSH1 0xA0 SHL MUL PUSH1 0x1 PUSH1 0x1 PUSH1 0xA8 SHL SUB NOT SWAP1 SWAP5 AND PUSH1 0x1 PUSH1 0x1 PUSH1 0xA0 SHL SUB SWAP1 SWAP3 AND SWAP2 SWAP1 SWAP2 OR SWAP3 SWAP1 SWAP3 OR DUP1 DUP4 SSTORE PUSH1 0x40 DUP3 ADD MLOAD SWAP2 SWAP3 SWAP2 SWAP1 DUP3 SWAP1 PUSH1 0xFF PUSH1 0xA8 SHL NOT AND PUSH1 0x1 PUSH1 0xA8 SHL DUP4 PUSH1 0x4 DUP2 GT ISZERO PUSH2 0x12E0 JUMPI PUSH2 0x12E0 PUSH2 0x1CA8 JUMP JUMPDEST MUL OR SWAP1 SSTORE POP POP PUSH1 0x5 SLOAD PUSH0 SWAP2 POP PUSH2 0x12F8 SWAP1 PUSH1 0x1 SWAP1 PUSH2 0x1EDD JUMP JUMPDEST SWAP1 POP PUSH2 0x1305 DUP2 PUSH1 0x1 PUSH2 0x1EF0 JUMP JUMPDEST CALLER PUSH0 SWAP1 DUP2 MSTORE PUSH1 0x6 PUSH1 0x20 MSTORE PUSH1 0x40 SWAP1 KECCAK256 DUP1 SLOAD PUSH1 0xFF NOT AND PUSH1 0xFF SWAP3 SWAP1 SWAP3 AND SWAP2 SWAP1 SWAP2 OR SWAP1 SSTORE CALLVALUE ISZERO PUSH2 0x1342 JUMPI CALLVALUE PUSH1 0xE PUSH0 DUP3 DUP3 SLOAD PUSH2 0x133C SWAP2 SWAP1 PUSH2 0x1F09 JUMP JUMPDEST SWAP1 SWAP2 SSTORE POP POP JUMPDEST PUSH1 0x40 MLOAD PUSH1 0xFF DUP3 AND DUP2 MSTORE CALLER SWAP1 PUSH32 0xD0EB1B69A7DD0E2A54C7F88607B1A7FDB2088D2B3685B36E3F5148B8F19F7757 SWAP1 PUSH1 0x20 ADD PUSH1 0x40 MLOAD DUP1 SWAP2 SUB SWAP1 LOG2 POP POP JUMP JUMPDEST PUSH0 DUP1 PUSH1 0x4 SLOAD PUSH1 0xFF AND PUSH1 0x6 DUP2 GT ISZERO PUSH2 0x1397 JUMPI PUSH2 0x1397 PUSH2 0x1CA8 JUMP JUMPDEST EQ PUSH2 0x13B4 JUMPI PUSH1 0x40 MLOAD PUSH3 0x461BCD PUSH1 0xE5 SHL DUP2 MSTORE PUSH1 0x4 ADD PUSH2 0x68B SWAP1 PUSH2 0x1DC5 JUMP JUMPDEST PUSH0 SLOAD PUSH1 0x1 PUSH1 0x1 PUSH1 0xA0 SHL SUB AND CALLER EQ PUSH2 0x13F9 JUMPI PUSH1 0x40 MLOAD PUSH3 0x461BCD PUSH1 0xE5 SHL DUP2 MSTORE PUSH1 0x20 PUSH1 0x4 DUP3 ADD MSTORE PUSH1 0x9 PUSH1 0x24 DUP3 ADD MSTORE PUSH9 0x1BDB9B1E481A1BDCDD PUSH1 0xBA SHL PUSH1 0x44 DUP3 ADD MSTORE PUSH1 0x64 ADD PUSH2 0x68B JUMP JUMPDEST PUSH1 0x1 SLOAD PUSH1 0x5 SLOAD PUSH1 0xFF SWAP1 SWAP2 AND GT ISZERO PUSH2 0x143C JUMPI PUSH1 0x40 MLOAD PUSH3 0x461BCD PUSH1 0xE5 SHL DUP2 MSTORE PUSH1 0x20 PUSH1 0x4 DUP3 ADD MSTORE PUSH1 0x7 PUSH1 0x24 DUP3 ADD MSTORE PUSH7 0x746F6F20666577 PUSH1 0xC8 SHL PUSH1 0x44 DUP3 ADD MSTORE PUSH1 0x64 ADD PUSH2 0x68B JUMP JUMPDEST PUSH1 0x3 SLOAD PUSH2 0x6FC SWAP1 PUSH1 0x1 SWAP1 PUSH4 0xFFFFFFFF AND PUSH2 0x1988 JUMP JUMPDEST PUSH1 0x3 DUP1 PUSH1 0x4 SLOAD PUSH1 0xFF AND PUSH1 0x6 DUP2 GT ISZERO PUSH2 0x146B JUMPI PUSH2 0x146B PUSH2 0x1CA8 JUMP JUMPDEST EQ PUSH2 0x1488 JUMPI PUSH1 0x40 MLOAD PUSH3 0x461BCD PUSH1 0xE5 SHL DUP2 MSTORE PUSH1 0x4 ADD PUSH2 0x68B SWAP1 PUSH2 0x1DC5 JUMP JUMPDEST CALLER PUSH0 SWAP1 DUP2 MSTORE PUSH1 0x6 PUSH1 0x20 MSTORE PUSH1 0x40 SWAP1 KECCAK256 SLOAD PUSH1 0xFF AND PUSH2 0x14B6 JUMPI PUSH1 0x40 MLOAD PUSH3 0x461BCD PUSH1 0xE5 SHL DUP2 MSTORE PUSH1 0x4 ADD PUSH2 0x68B SWAP1 PUSH2 0x1E80 JUMP JUMPDEST CALLER PUSH0 SWAP1 DUP2 MSTORE PUSH1 0x6 PUSH1 0x20 MSTORE PUSH1 0x40 SWAP1 KECCAK256 SLOAD PUSH1 0x5 SWAP1 PUSH2 0x14D7 SWAP1 PUSH1 0x1 SWAP1 PUSH1 0xFF AND PUSH2 0x1E67 JUMP JUMPDEST PUSH1 0xFF AND DUP2 SLOAD DUP2 LT PUSH2 0x14EA JUMPI PUSH2 0x14EA PUSH2 0x1DE8 JUMP JUMPDEST PUSH0 SWAP2 DUP3 MSTORE PUSH1 0x20 SWAP1 SWAP2 KECCAK256 ADD SLOAD PUSH1 0x1 PUSH1 0xA0 SHL SWAP1 DIV PUSH1 0xFF AND PUSH2 0x151B JUMPI PUSH1 0x40 MLOAD PUSH3 0x461BCD PUSH1 0xE5 SHL DUP2 MSTORE PUSH1 0x4 ADD PUSH2 0x68B SWAP1 PUSH2 0x1EA4 JUMP JUMPDEST CALLER PUSH0 SWAP1 DUP2 MSTORE PUSH1 0x6 PUSH1 0x20 MSTORE PUSH1 0x40 DUP2 KECCAK256 SLOAD PUSH2 0x1539 SWAP1 PUSH1 0x1 SWAP1 PUSH1 0xFF AND PUSH2 0x1E67 JUMP JUMPDEST SWAP1 POP PUSH1 0x1 PUSH1 0x5 DUP3 PUSH1 0xFF AND DUP2 SLOAD DUP2 LT PUSH2 0x1553 JUMPI PUSH2 0x1553 PUSH2 0x1DE8 JUMP JUMPDEST PUSH0 SWAP2 DUP3 MSTORE PUSH1 0x20 SWAP1 SWAP2 KECCAK256 ADD SLOAD PUSH1 0x1 PUSH1 0xA8 SHL SWAP1 DIV PUSH1 0xFF AND PUSH1 0x4 DUP2 GT ISZERO PUSH2 0x1579 JUMPI PUSH2 0x1579 PUSH2 0x1CA8 JUMP JUMPDEST EQ PUSH2 0x15B1 JUMPI PUSH1 0x40 MLOAD PUSH3 0x461BCD PUSH1 0xE5 SHL DUP2 MSTORE PUSH1 0x20 PUSH1 0x4 DUP3 ADD MSTORE PUSH1 0x8 PUSH1 0x24 DUP3 ADD MSTORE PUSH8 0x3737BA103BB7B633 PUSH1 0xC1 SHL PUSH1 0x44 DUP3 ADD MSTORE PUSH1 0x64 ADD PUSH2 0x68B JUMP JUMPDEST PUSH1 0x5 SLOAD PUSH1 0xFF DUP6 AND LT PUSH2 0x15F2 JUMPI PUSH1 0x40 MLOAD PUSH3 0x461BCD PUSH1 0xE5 SHL DUP2 MSTORE PUSH1 0x20 PUSH1 0x4 DUP3 ADD MSTORE PUSH1 0xA PUSH1 0x24 DUP3 ADD MSTORE PUSH10 0x189859081D185C99D95D PUSH1 0xB2 SHL PUSH1 0x44 DUP3 ADD MSTORE PUSH1 0x64 ADD PUSH2 0x68B JUMP JUMPDEST PUSH1 0x4 SLOAD PUSH1 0x40 DUP1 MLOAD ADDRESS PUSH1 0x20 DUP3 ADD MSTORE PUSH2 0x100 SWAP1 SWAP3 DIV PUSH1 0x1 PUSH1 0x1 PUSH1 0x40 SHL SUB AND SWAP1 DUP3 ADD MSTORE PUSH1 0xFF DUP6 AND PUSH1 0x60 DUP3 ADD MSTORE PUSH1 0x80 DUP2 ADD DUP5 SWAP1 MSTORE PUSH0 SWAP1 PUSH1 0xA0 ADD PUSH1 0x40 DUP1 MLOAD PUSH1 0x1F NOT DUP2 DUP5 SUB ADD DUP2 MSTORE SWAP2 DUP2 MSTORE DUP2 MLOAD PUSH1 0x20 SWAP3 DUP4 ADD KECCAK256 CALLER PUSH0 SWAP1 DUP2 MSTORE PUSH1 0x7 SWAP1 SWAP4 MSTORE SWAP2 KECCAK256 SLOAD SWAP1 SWAP2 POP DUP2 EQ PUSH2 0x168A JUMPI PUSH1 0x40 MLOAD PUSH3 0x461BCD PUSH1 0xE5 SHL DUP2 MSTORE PUSH1 0x20 PUSH1 0x4 DUP3 ADD MSTORE PUSH1 0xA PUSH1 0x24 DUP3 ADD MSTORE PUSH10 0x189859081C995D99585B PUSH1 0xB2 SHL PUSH1 0x44 DUP3 ADD MSTORE PUSH1 0x64 ADD PUSH2 0x68B JUMP JUMPDEST CALLER PUSH0 DUP2 DUP2 MSTORE PUSH1 0x8 PUSH1 0x20 SWAP1 DUP2 MSTORE PUSH1 0x40 DUP1 DUP4 KECCAK256 DUP1 SLOAD PUSH1 0xFF DUP12 AND PUSH1 0xFF NOT SWAP2 DUP3 AND DUP2 OR SWAP1 SWAP3 SSTORE PUSH1 0xA DUP5 MSTORE SWAP4 DUP3 SWAP1 KECCAK256 DUP1 SLOAD SWAP1 SWAP5 AND PUSH1 0x1 OR SWAP1 SWAP4 SSTORE MLOAD SWAP2 DUP3 MSTORE PUSH32 0x49103A491A4335733DB53F518C83416EC87F30BEF07E166FB97B19C4BE972EF SWAP2 ADD PUSH1 0x40 MLOAD DUP1 SWAP2 SUB SWAP1 LOG2 POP POP POP POP POP JUMP JUMPDEST PUSH1 0x1 DUP1 PUSH1 0x4 SLOAD PUSH1 0xFF AND PUSH1 0x6 DUP2 GT ISZERO PUSH2 0x170F JUMPI PUSH2 0x170F PUSH2 0x1CA8 JUMP JUMPDEST EQ PUSH2 0x172C JUMPI PUSH1 0x40 MLOAD PUSH3 0x461BCD PUSH1 0xE5 SHL DUP2 MSTORE PUSH1 0x4 ADD PUSH2 0x68B SWAP1 PUSH2 0x1DC5 JUMP JUMPDEST PUSH0 SLOAD PUSH1 0x1 PUSH1 0x1 PUSH1 0xA0 SHL SUB AND CALLER EQ PUSH2 0x1771 JUMPI PUSH1 0x40 MLOAD PUSH3 0x461BCD PUSH1 0xE5 SHL DUP2 MSTORE PUSH1 0x20 PUSH1 0x4 DUP3 ADD MSTORE PUSH1 0x9 PUSH1 0x24 DUP3 ADD MSTORE PUSH9 0x1BDB9B1E481A1BDCDD PUSH1 0xBA SHL PUSH1 0x44 DUP3 ADD MSTORE PUSH1 0x64 ADD PUSH2 0x68B JUMP JUMPDEST PUSH1 0x5 SLOAD DUP3 DUP2 EQ PUSH2 0x17B5 JUMPI PUSH1 0x40 MLOAD PUSH3 0x461BCD PUSH1 0xE5 SHL DUP2 MSTORE PUSH1 0x20 PUSH1 0x4 DUP3 ADD MSTORE PUSH1 0xF PUSH1 0x24 DUP3 ADD MSTORE PUSH15 0xD8CADCCEE8D040DAD2E6DAC2E8C6D PUSH1 0x8B SHL PUSH1 0x44 DUP3 ADD MSTORE PUSH1 0x64 ADD PUSH2 0x68B JUMP JUMPDEST PUSH0 DUP1 JUMPDEST DUP3 DUP2 LT ISZERO PUSH2 0x187E JUMPI DUP6 DUP6 DUP3 DUP2 DUP2 LT PUSH2 0x17D2 JUMPI PUSH2 0x17D2 PUSH2 0x1DE8 JUMP JUMPDEST SWAP1 POP PUSH1 0x20 MUL ADD PUSH1 0x20 DUP2 ADD SWAP1 PUSH2 0x17E7 SWAP2 SWAP1 PUSH2 0x1F1C JUMP JUMPDEST PUSH1 0x5 DUP3 DUP2 SLOAD DUP2 LT PUSH2 0x17FA JUMPI PUSH2 0x17FA PUSH2 0x1DE8 JUMP JUMPDEST PUSH0 SWAP2 DUP3 MSTORE PUSH1 0x20 SWAP1 SWAP2 KECCAK256 ADD DUP1 SLOAD PUSH1 0xFF PUSH1 0xA8 SHL NOT AND PUSH1 0x1 PUSH1 0xA8 SHL DUP4 PUSH1 0x4 DUP2 GT ISZERO PUSH2 0x1824 JUMPI PUSH2 0x1824 PUSH2 0x1CA8 JUMP JUMPDEST MUL OR SWAP1 SSTORE POP PUSH1 0x1 DUP7 DUP7 DUP4 DUP2 DUP2 LT PUSH2 0x183D JUMPI PUSH2 0x183D PUSH2 0x1DE8 JUMP JUMPDEST SWAP1 POP PUSH1 0x20 MUL ADD PUSH1 0x20 DUP2 ADD SWAP1 PUSH2 0x1852 SWAP2 SWAP1 PUSH2 0x1F1C JUMP JUMPDEST PUSH1 0x4 DUP2 GT ISZERO PUSH2 0x1863 JUMPI PUSH2 0x1863 PUSH2 0x1CA8 JUMP JUMPDEST SUB PUSH2 0x1876 JUMPI DUP2 PUSH2 0x1872 DUP2 PUSH2 0x1F3A JUMP JUMPDEST SWAP3 POP POP JUMPDEST PUSH1 0x1 ADD PUSH2 0x17B8 JUMP JUMPDEST POP PUSH1 0x1 SLOAD PUSH3 0x10000 SWAP1 DIV PUSH1 0xFF AND DUP2 EQ PUSH2 0x18D1 JUMPI PUSH1 0x40 MLOAD PUSH3 0x461BCD PUSH1 0xE5 SHL DUP2 MSTORE PUSH1 0x20 PUSH1 0x4 DUP3 ADD MSTORE PUSH1 0x15 PUSH1 0x24 DUP3 ADD MSTORE PUSH21 0xEEDED8ECCAE640C6DEEADCE840DAD2E6DAC2E8C6D PUSH1 0x5B SHL PUSH1 0x44 DUP3 ADD MSTORE PUSH1 0x64 ADD PUSH2 0x68B JUMP JUMPDEST PUSH1 0xD DUP1 SLOAD PUSH4 0xFFFFFFFF NOT AND PUSH4 0xFFFFFFFF DUP4 AND SWAP1 DUP2 OR SWAP1 SWAP2 SSTORE PUSH2 0x18F3 SWAP1 DUP4 PUSH2 0x1F52 JUMP JUMPDEST PUSH1 0xD DUP1 SLOAD PUSH4 0xFFFFFFFF SWAP3 SWAP1 SWAP3 AND PUSH1 0x1 PUSH1 0x20 SHL MUL PUSH8 0xFFFFFFFF00000000 NOT SWAP1 SWAP3 AND SWAP2 SWAP1 SWAP2 OR SWAP1 SSTORE PUSH1 0x4 DUP1 SLOAD PUSH9 0xFFFFFFFFFFFFFFFF00 NOT AND PUSH2 0x100 SWAP1 DUP2 OR SWAP2 DUP3 SWAP1 SSTORE PUSH1 0x40 MLOAD SWAP2 DIV PUSH1 0x1 PUSH1 0x1 PUSH1 0x40 SHL SUB AND DUP2 MSTORE PUSH32 0x7C178A84A532DCF384B5F27F769236737BF60960E2F89ED77C47940ADB9A1DC1 SWAP1 PUSH1 0x20 ADD PUSH1 0x40 MLOAD DUP1 SWAP2 SUB SWAP1 LOG1 PUSH1 0x3 SLOAD PUSH2 0xC3E SWAP1 PUSH1 0x2 SWAP1 PUSH1 0x1 PUSH1 0x20 SHL SWAP1 DIV PUSH4 0xFFFFFFFF AND JUMPDEST PUSH1 0x4 DUP1 SLOAD DUP4 SWAP2 SWAP1 PUSH1 0xFF NOT AND PUSH1 0x1 DUP4 PUSH1 0x6 DUP2 GT ISZERO PUSH2 0x19A7 JUMPI PUSH2 0x19A7 PUSH2 0x1CA8 JUMP JUMPDEST MUL OR SWAP1 SSTORE POP PUSH2 0x19BC PUSH4 0xFFFFFFFF DUP3 AND TIMESTAMP PUSH2 0x1F09 JUMP JUMPDEST PUSH1 0x4 DUP1 SLOAD PUSH17 0xFFFFFFFFFFFFFFFF000000000000000000 NOT AND PUSH1 0x1 PUSH1 0x48 SHL PUSH1 0x1 PUSH1 0x1 PUSH1 0x40 SHL SUB SWAP4 DUP5 AND DUP2 MUL SWAP2 SWAP1 SWAP2 OR SWAP2 DUP3 SWAP1 SSTORE PUSH1 0x40 MLOAD PUSH32 0xA168AAA8E825B21E98DCEE38B892D4129112660726ABA9D9565661C2D3F2BF73 SWAP4 PUSH2 0x1A22 SWAP4 DUP8 SWAP4 SWAP1 DIV AND SWAP1 PUSH2 0x1F76 JUMP JUMPDEST PUSH1 0x40 MLOAD DUP1 SWAP2 SUB SWAP1 LOG1 POP POP JUMP JUMPDEST PUSH0 PUSH1 0x5 DUP3 PUSH1 0xFF AND DUP2 SLOAD DUP2 LT PUSH2 0x1A45 JUMPI PUSH2 0x1A45 PUSH2 0x1DE8 JUMP JUMPDEST PUSH0 SWAP2 DUP3 MSTORE PUSH1 0x20 SWAP1 SWAP2 KECCAK256 ADD DUP1 SLOAD SWAP2 ISZERO ISZERO PUSH1 0x1 PUSH1 0xA0 SHL MUL PUSH1 0xFF PUSH1 0xA0 SHL NOT SWAP1 SWAP3 AND SWAP2 SWAP1 SWAP2 OR SWAP1 SSTORE PUSH1 0x1 PUSH1 0x5 DUP3 PUSH1 0xFF AND DUP2 SLOAD DUP2 LT PUSH2 0x1A81 JUMPI PUSH2 0x1A81 PUSH2 0x1DE8 JUMP JUMPDEST PUSH0 SWAP2 DUP3 MSTORE PUSH1 0x20 SWAP1 SWAP2 KECCAK256 ADD SLOAD PUSH1 0x1 PUSH1 0xA8 SHL SWAP1 DIV PUSH1 0xFF AND PUSH1 0x4 DUP2 GT ISZERO PUSH2 0x1AA7 JUMPI PUSH2 0x1AA7 PUSH2 0x1CA8 JUMP JUMPDEST SUB PUSH2 0x1AF4 JUMPI PUSH1 0xD SLOAD PUSH4 0xFFFFFFFF AND ISZERO PUSH2 0x1AEF JUMPI PUSH1 0xD DUP1 SLOAD PUSH4 0xFFFFFFFF AND SWAP1 PUSH0 PUSH2 0x1ACF DUP4 PUSH2 0x1F9A JUMP JUMPDEST SWAP2 SWAP1 PUSH2 0x100 EXP DUP2 SLOAD DUP2 PUSH4 0xFFFFFFFF MUL NOT AND SWAP1 DUP4 PUSH4 0xFFFFFFFF AND MUL OR SWAP1 SSTORE POP POP JUMPDEST PUSH2 0x1B46 JUMP JUMPDEST PUSH1 0xD SLOAD PUSH1 0x1 PUSH1 0x20 SHL SWAP1 DIV PUSH4 0xFFFFFFFF AND ISZERO PUSH2 0x1B46 JUMPI PUSH1 0xD DUP1 SLOAD PUSH1 0x1 PUSH1 0x20 SHL SWAP1 DIV PUSH4 0xFFFFFFFF AND SWAP1 PUSH1 0x4 PUSH2 0x1B26 DUP4 PUSH2 0x1F9A JUMP JUMPDEST SWAP2 SWAP1 PUSH2 0x100 EXP DUP2 SLOAD DUP2 PUSH4 0xFFFFFFFF MUL NOT AND SWAP1 DUP4 PUSH4 0xFFFFFFFF AND MUL OR SWAP1 SSTORE POP POP JUMPDEST PUSH1 0x40 MLOAD PUSH1 0xFF DUP3 AND DUP2 MSTORE PUSH32 0xDA9F09A62E6F9C4451AC1EB8A8036191BD92BE66DDE0E6732E3E9108EA18B8B0 SWAP1 PUSH1 0x20 ADD PUSH1 0x40 MLOAD DUP1 SWAP2 SUB SWAP1 LOG1 POP JUMP JUMPDEST PUSH1 0xD SLOAD PUSH0 SWAP1 PUSH4 0xFFFFFFFF AND DUP2 SUB PUSH2 0x1BDB JUMPI PUSH1 0x4 DUP1 SLOAD PUSH1 0xFF NOT AND PUSH1 0x6 OR SWAP1 SSTORE PUSH1 0x40 MLOAD PUSH32 0x4DF34531B3F238BC8F90AD83236D8C752E7444E434BB5FC99F888F0A6345C0E7 SWAP1 PUSH2 0x1BCD SWAP1 PUSH0 SWAP1 PUSH2 0x1FAF JUMP JUMPDEST PUSH1 0x40 MLOAD DUP1 SWAP2 SUB SWAP1 LOG1 POP PUSH1 0x1 SWAP1 JUMP JUMPDEST PUSH1 0xD SLOAD PUSH4 0xFFFFFFFF PUSH1 0x1 PUSH1 0x20 SHL DUP3 DIV DUP2 AND SWAP2 AND LT PUSH2 0x1C31 JUMPI PUSH1 0x4 DUP1 SLOAD PUSH1 0xFF NOT AND PUSH1 0x6 OR SWAP1 SSTORE PUSH1 0x40 MLOAD PUSH32 0x4DF34531B3F238BC8F90AD83236D8C752E7444E434BB5FC99F888F0A6345C0E7 SWAP1 PUSH2 0x1BCD SWAP1 PUSH1 0x1 SWAP1 PUSH2 0x1FAF JUMP JUMPDEST POP PUSH0 SWAP1 JUMP JUMPDEST PUSH0 PUSH1 0x20 DUP3 DUP5 SUB SLT ISZERO PUSH2 0x1C46 JUMPI PUSH0 DUP1 REVERT JUMPDEST DUP2 CALLDATALOAD PUSH1 0x1 PUSH1 0x1 PUSH1 0xA0 SHL SUB DUP2 AND DUP2 EQ PUSH2 0x1C5C JUMPI PUSH0 DUP1 REVERT JUMPDEST SWAP4 SWAP3 POP POP POP JUMP JUMPDEST DUP1 CALLDATALOAD PUSH1 0xFF DUP2 AND DUP2 EQ PUSH2 0x1C73 JUMPI PUSH0 DUP1 REVERT JUMPDEST SWAP2 SWAP1 POP JUMP JUMPDEST PUSH0 PUSH1 0x20 DUP3 DUP5 SUB SLT ISZERO PUSH2 0x1C88 JUMPI PUSH0 DUP1 REVERT JUMPDEST PUSH2 0x1C5C DUP3 PUSH2 0x1C63 JUMP JUMPDEST PUSH0 PUSH1 0x20 DUP3 DUP5 SUB SLT ISZERO PUSH2 0x1CA1 JUMPI PUSH0 DUP1 REVERT JUMPDEST POP CALLDATALOAD SWAP2 SWAP1 POP JUMP JUMPDEST PUSH4 0x4E487B71 PUSH1 0xE0 SHL PUSH0 MSTORE PUSH1 0x21 PUSH1 0x4 MSTORE PUSH1 0x24 PUSH0 REVERT JUMPDEST PUSH1 0x5 DUP2 LT PUSH2 0x1CCC JUMPI PUSH2 0x1CCC PUSH2 0x1CA8 JUMP JUMPDEST SWAP1 MSTORE JUMP JUMPDEST PUSH1 0x1 PUSH1 0x1 PUSH1 0xA0 SHL SUB DUP5 AND DUP2 MSTORE DUP3 ISZERO ISZERO PUSH1 0x20 DUP3 ADD MSTORE PUSH1 0x60 DUP2 ADD PUSH2 0x1CF5 PUSH1 0x40 DUP4 ADD DUP5 PUSH2 0x1CBC JUMP JUMPDEST SWAP5 SWAP4 POP POP POP POP JUMP JUMPDEST PUSH1 0x20 DUP2 ADD PUSH2 0x1D0B DUP3 DUP5 PUSH2 0x1CBC JUMP JUMPDEST SWAP3 SWAP2 POP POP JUMP JUMPDEST PUSH1 0x7 DUP2 LT PUSH2 0x1CCC JUMPI PUSH2 0x1CCC PUSH2 0x1CA8 JUMP JUMPDEST PUSH1 0x20 DUP2 ADD PUSH2 0x1D0B DUP3 DUP5 PUSH2 0x1D11 JUMP JUMPDEST PUSH0 DUP1 PUSH1 0x40 DUP4 DUP6 SUB SLT ISZERO PUSH2 0x1D40 JUMPI PUSH0 DUP1 REVERT JUMPDEST PUSH2 0x1D49 DUP4 PUSH2 0x1C63 JUMP JUMPDEST SWAP5 PUSH1 0x20 SWAP4 SWAP1 SWAP4 ADD CALLDATALOAD SWAP4 POP POP POP JUMP JUMPDEST PUSH0 DUP1 PUSH1 0x20 DUP4 DUP6 SUB SLT ISZERO PUSH2 0x1D68 JUMPI PUSH0 DUP1 REVERT JUMPDEST DUP3 CALLDATALOAD PUSH1 0x1 PUSH1 0x1 PUSH1 0x40 SHL SUB DUP1 DUP3 GT ISZERO PUSH2 0x1D7E JUMPI PUSH0 DUP1 REVERT JUMPDEST DUP2 DUP6 ADD SWAP2 POP DUP6 PUSH1 0x1F DUP4 ADD SLT PUSH2 0x1D91 JUMPI PUSH0 DUP1 REVERT JUMPDEST DUP2 CALLDATALOAD DUP2 DUP2 GT ISZERO PUSH2 0x1D9F JUMPI PUSH0 DUP1 REVERT JUMPDEST DUP7 PUSH1 0x20 DUP3 PUSH1 0x5 SHL DUP6 ADD ADD GT ISZERO PUSH2 0x1DB3 JUMPI PUSH0 DUP1 REVERT JUMPDEST PUSH1 0x20 SWAP3 SWAP1 SWAP3 ADD SWAP7 SWAP2 SWAP6 POP SWAP1 SWAP4 POP POP POP POP JUMP JUMPDEST PUSH1 0x20 DUP1 DUP3 MSTORE PUSH1 0x9 SWAP1 DUP3 ADD MSTORE PUSH9 0x626164207068617365 PUSH1 0xB8 SHL PUSH1 0x40 DUP3 ADD MSTORE PUSH1 0x60 ADD SWAP1 JUMP JUMPDEST PUSH4 0x4E487B71 PUSH1 0xE0 SHL PUSH0 MSTORE PUSH1 0x32 PUSH1 0x4 MSTORE PUSH1 0x24 PUSH0 REVERT JUMPDEST PUSH4 0x4E487B71 PUSH1 0xE0 SHL PUSH0 MSTORE PUSH1 0x11 PUSH1 0x4 MSTORE PUSH1 0x24 PUSH0 REVERT JUMPDEST PUSH0 PUSH1 0xFF DUP3 AND PUSH1 0xFF DUP2 SUB PUSH2 0x1E25 JUMPI PUSH2 0x1E25 PUSH2 0x1DFC JUMP JUMPDEST PUSH1 0x1 ADD SWAP3 SWAP2 POP POP JUMP JUMPDEST PUSH0 PUSH1 0x1 PUSH1 0x1 PUSH1 0x40 SHL SUB DUP1 DUP4 AND DUP2 DUP2 SUB PUSH2 0x1E49 JUMPI PUSH2 0x1E49 PUSH2 0x1DFC JUMP JUMPDEST PUSH1 0x1 ADD SWAP4 SWAP3 POP POP POP JUMP JUMPDEST PUSH4 0x4E487B71 PUSH1 0xE0 SHL PUSH0 MSTORE PUSH1 0x41 PUSH1 0x4 MSTORE PUSH1 0x24 PUSH0 REVERT JUMPDEST PUSH1 0xFF DUP3 DUP2 AND DUP3 DUP3 AND SUB SWAP1 DUP2 GT ISZERO PUSH2 0x1D0B JUMPI PUSH2 0x1D0B PUSH2 0x1DFC JUMP JUMPDEST PUSH1 0x20 DUP1 DUP3 MSTORE PUSH1 0xA SWAP1 DUP3 ADD MSTORE PUSH10 0x1B9BDD081A9BDA5B9959 PUSH1 0xB2 SHL PUSH1 0x40 DUP3 ADD MSTORE PUSH1 0x60 ADD SWAP1 JUMP JUMPDEST PUSH1 0x20 DUP1 DUP3 MSTORE PUSH1 0x4 SWAP1 DUP3 ADD MSTORE PUSH4 0x19195859 PUSH1 0xE2 SHL PUSH1 0x40 DUP3 ADD MSTORE PUSH1 0x60 ADD SWAP1 JUMP JUMPDEST PUSH0 PUSH1 0xFF DUP3 AND DUP1 PUSH2 0x1ED4 JUMPI PUSH2 0x1ED4 PUSH2 0x1DFC JUMP JUMPDEST PUSH0 NOT ADD SWAP3 SWAP2 POP POP JUMP JUMPDEST DUP2 DUP2 SUB DUP2 DUP2 GT ISZERO PUSH2 0x1D0B JUMPI PUSH2 0x1D0B PUSH2 0x1DFC JUMP JUMPDEST PUSH1 0xFF DUP2 DUP2 AND DUP4 DUP3 AND ADD SWAP1 DUP2 GT ISZERO PUSH2 0x1D0B JUMPI PUSH2 0x1D0B PUSH2 0x1DFC JUMP JUMPDEST DUP1 DUP3 ADD DUP1 DUP3 GT ISZERO PUSH2 0x1D0B JUMPI PUSH2 0x1D0B PUSH2 0x1DFC JUMP JUMPDEST PUSH0 PUSH1 0x20 DUP3 DUP5 SUB SLT ISZERO PUSH2 0x1F2C JUMPI PUSH0 DUP1 REVERT JUMPDEST DUP2 CALLDATALOAD PUSH1 0x5 DUP2 LT PUSH2 0x1C5C JUMPI PUSH0 DUP1 REVERT JUMPDEST PUSH0 PUSH1 0x1 DUP3 ADD PUSH2 0x1F4B JUMPI PUSH2 0x1F4B PUSH2 0x1DFC JUMP JUMPDEST POP PUSH1 0x1 ADD SWAP1 JUMP JUMPDEST PUSH4 0xFFFFFFFF DUP3 DUP2 AND DUP3 DUP3 AND SUB SWAP1 DUP1 DUP3 GT ISZERO PUSH2 0x1F6F JUMPI PUSH2 0x1F6F PUSH2 0x1DFC JUMP JUMPDEST POP SWAP3 SWAP2 POP POP JUMP JUMPDEST PUSH1 0x40 DUP2 ADD PUSH2 0x1F84 DUP3 DUP6 PUSH2 0x1D11 JUMP JUMPDEST PUSH1 0x1 PUSH1 0x1 PUSH1 0x40 SHL SUB DUP4 AND PUSH1 0x20 DUP4 ADD MSTORE SWAP4 SWAP3 POP POP POP JUMP JUMPDEST PUSH0 PUSH4 0xFFFFFFFF DUP3 AND DUP1 PUSH2 0x1ED4 JUMPI PUSH2 0x1ED4 PUSH2 0x1DFC JUMP JUMPDEST PUSH1 0x20 DUP2 ADD PUSH1 0x2 DUP4 LT PUSH2 0x1FC3 JUMPI PUSH2 0x1FC3 PUSH2 0x1CA8 JUMP JUMPDEST SWAP2 SWAP1 MSTORE SWAP1 JUMP INVALID LOG2 PUSH5 0x6970667358 0x22 SLT KECCAK256 SWAP9 SWAP6 0xC5 CODESIZE DUP1 ADDRESS SELFDESTRUCT 0xF9 GASPRICE 0xE4 0xAC EXTCODESIZE 0xC1 PUSH14 0x910D82742C1C4C34E779F1210424 0xE6 0xD7 RETURNDATASIZE PUSH18 0x64736F6C63430008180033A2646970667358 0x22 SLT KECCAK256 RETURNDATACOPY GT PUSH17 0x7FB7391887FA83C6EF29C62BB4DFB16596 ADDRESS PUSH20 0x4F4989805BDB59E091E664736F6C634300081800 CALLER LOG2 PUSH5 0x6970667358 0x22 SLT KECCAK256 PUSH5 0x750BACDF1 SDIV 0xF6 LOG1 CODESIZE PUSH24 0x19E30F7D71B3B7FA84A6BF7FAAF0C117540E91B75164736F PUSH13 0x63430008180033000000000000 "
		},
		"gasEstimates": {
			"creation": {
				"codeDepositCost": "5862800",
				"executionCost": "7193",
				"totalCost": "5869993"
			},
			"external": {
				"beforeAll()": "infinite",
				"testEnded_CanReadRoles()": "infinite",
				"testGameFlow_GoodWin()": "infinite",
				"testGameFlow_WolvesWin()": "infinite",
				"testLobby_HostCannotJoin()": "infinite",
				"testLobby_InitialState()": "infinite",
				"testLobby_PlayerCannotJoinTwice()": "infinite",
				"testLobby_PlayersCanJoin()": "infinite",
				"testLobby_StartGameFailsIfTooFewPlayers()": "infinite",
				"testSetup_AssignRolesFailsWrongLength()": "infinite",
				"testSetup_AssignRolesFailsWrongWolfCount()": "infinite"
			},
			"internal": {
				"_createStdCfg()": "infinite"
			}
		},
		"methodIdentifiers": {
			"beforeAll()": "7fea0d4b",
			"testEnded_CanReadRoles()": "56b85a5b",
			"testGameFlow_GoodWin()": "2a115a79",
			"testGameFlow_WolvesWin()": "60a7ad18",
			"testLobby_HostCannotJoin()": "7dc31bbf",
			"testLobby_InitialState()": "a2d79fb8",
			"testLobby_PlayerCannotJoinTwice()": "2b85a0f2",
			"testLobby_PlayersCanJoin()": "8c103e73",
			"testLobby_StartGameFailsIfTooFewPlayers()": "5336ebe7",
			"testSetup_AssignRolesFailsWrongLength()": "8f7a043e",
			"testSetup_AssignRolesFailsWrongWolfCount()": "9eb2b5b2"
		}
	},
	"abi": [
		{
			"inputs": [],
			"name": "beforeAll",
			"outputs": [],
			"stateMutability": "nonpayable",
			"type": "function"
		},
		{
			"inputs": [],
			"name": "testEnded_CanReadRoles",
			"outputs": [],
			"stateMutability": "nonpayable",
			"type": "function"
		},
		{
			"inputs": [],
			"name": "testGameFlow_GoodWin",
			"outputs": [],
			"stateMutability": "nonpayable",
			"type": "function"
		},
		{
			"inputs": [],
			"name": "testGameFlow_WolvesWin",
			"outputs": [],
			"stateMutability": "nonpayable",
			"type": "function"
		},
		{
			"inputs": [],
			"name": "testLobby_HostCannotJoin",
			"outputs": [],
			"stateMutability": "nonpayable",
			"type": "function"
		},
		{
			"inputs": [],
			"name": "testLobby_InitialState",
			"outputs": [],
			"stateMutability": "nonpayable",
			"type": "function"
		},
		{
			"inputs": [],
			"name": "testLobby_PlayerCannotJoinTwice",
			"outputs": [],
			"stateMutability": "nonpayable",
			"type": "function"
		},
		{
			"inputs": [],
			"name": "testLobby_PlayersCanJoin",
			"outputs": [],
			"stateMutability": "nonpayable",
			"type": "function"
		},
		{
			"inputs": [],
			"name": "testLobby_StartGameFailsIfTooFewPlayers",
			"outputs": [],
			"stateMutability": "nonpayable",
			"type": "function"
		},
		{
			"inputs": [],
			"name": "testSetup_AssignRolesFailsWrongLength",
			"outputs": [],
			"stateMutability": "nonpayable",
			"type": "function"
		},
		{
			"inputs": [],
			"name": "testSetup_AssignRolesFailsWrongWolfCount",
			"outputs": [],
			"stateMutability": "nonpayable",
			"type": "function"
		}
	]
}