{
	"data": {
		"bytecode": {
			"linkReferences": {},
			"object": "6080604052600e805462ffffff191661ffff17905534801562000020575f80fd5b50604051620030be380380620030be833981016040819052620000439162000261565b6003815f015160ff161015620000905760405162461bcd60e51b815260206004820152600d60248201526c1b5a5b881d1bdbc81cdb585b1b609a1b60448201526064015b60405180910390fd5b805f015160ff16816020015160ff161015620000d95760405162461bcd60e51b815260206004820152600760248201526636b0bc1e36b4b760c91b604482015260640162000087565b6001816040015160ff1610158015620000ff5750806020015160ff16816040015160ff16105b6200013a5760405162461bcd60e51b815260206004820152600a6024820152691ddbdb1d995cc818985960b21b604482015260640162000087565b5f80546001600160a01b0384166001600160a01b03199091161781558151600180546020850151604086015160ff908116620100000262ff0000199282166101000261ffff1990941691909516179190911716919091178155606083015160025560808301516003805460a086015160c087015160e088015163ffffffff9081166c010000000000000000000000000263ffffffff60601b19928216680100000000000000000292909216600160401b600160801b0319938216640100000000026001600160401b0319909516919096161792909217169290921791909117905560048054909160ff19919091169083021790555050506200036c565b805160ff8116811462000248575f80fd5b919050565b805163ffffffff8116811462000248575f80fd5b5f8082840361012081121562000275575f80fd5b83516001600160a01b03811681146200028c575f80fd5b9250610100601f198201811315620002a2575f80fd5b60405191508082016001600160401b0381118382101715620002d257634e487b7160e01b5f52604160045260245ffd5b604052620002e36020860162000237565b8252620002f36040860162000237565b6020830152620003066060860162000237565b6040830152608085015160608301526200032360a086016200024d565b60808301526200033660c086016200024d565b60a08301526200034960e086016200024d565b60c08301526200035b8186016200024d565b60e083015250809150509250929050565b612d44806200037a5f395ff3fe60806040526004361061021d575f3560e01c80636aadb9ee1161011e578063b688a363116100a8578063c8dc00f11161006d578063c8dc00f11461074c578063d88d9b7014610777578063e373a7de146107a5578063f437bc59146107c4578063f90886d8146107fa575f80fd5b8063b688a363146106da578063b9cd92c3146106e2578063bb7a640c14610710578063be9a655514610724578063bedecc0614610738575f80fd5b80638c1d85d8116100ee5780638c1d85d81461062757806396dda2131461064a578063a5d7827e14610669578063b1c9fe6e14610695578063b3f98adc146106bb575f80fd5b80636aadb9ee1461059d5780637b69af0f146105cb5780637bea3016146105ea5780637d04fc4414610609575f80fd5b806333898621116101aa578063537e14111161016f578063537e1411146104ce578063581fe69a146104fc5780635fcbf3721461052d57806361dc46101461055b5780636662c26e1461056f575f80fd5b80633389862114610411578063346548801461043f5780633b33c7021461046d5780633b7e0a271461049b578063413d0956146104ba575f80fd5b80630e405642116101f05780630e40564214610349578063266e2a561461035d57806327c0583f1461039957806329dcb0cf146103d757806333771e6d146103fd575f80fd5b80630457dad214610221578063055a079f146102d4578063086e6917146103055780630e09287a14610328575b5f80fd5b34801561022c575f80fd5b5060015460025460035461027b9260ff808216936101008304821693620100009093049091169163ffffffff80821691600160201b8104821691600160401b8204811691600160601b90041688565b6040805160ff998a16815297891660208901529590971694860194909452606085019290925263ffffffff908116608085015290811660a084015290811660c083015290911660e0820152610100015b60405180910390f35b3480156102df575f80fd5b50600e546102f39062010000900460ff1681565b60405160ff90911681526020016102cb565b348015610310575f80fd5b5061031a60125481565b6040519081526020016102cb565b348015610333575f80fd5b506103476103423660046128fd565b610813565b005b348015610354575f80fd5b50610347610aa7565b348015610368575f80fd5b506004546103819061010090046001600160401b031681565b6040516001600160401b0390911681526020016102cb565b3480156103a4575f80fd5b506103c76103b336600461291d565b600a6020525f908152604090205460ff1681565b60405190151581526020016102cb565b3480156103e2575f80fd5b5060045461038190600160481b90046001600160401b031681565b348015610408575f80fd5b50610347610b2d565b34801561041c575f80fd5b506102f361042b3660046128fd565b60106020525f908152604090205460ff1681565b34801561044a575f80fd5b506103c761045936600461291d565b600c6020525f908152604090205460ff1681565b348015610478575f80fd5b5061048c610487366004612943565b610c80565b6040516102cb93929190612982565b3480156104a6575f80fd5b506103476104b53660046129af565b610cbd565b3480156104c5575f80fd5b50610347610f44565b3480156104d9575f80fd5b506103c76104e836600461291d565b600b6020525f908152604090205460ff1681565b348015610507575f80fd5b506011546105189063ffffffff1681565b60405163ffffffff90911681526020016102cb565b348015610538575f80fd5b506102f361054736600461291d565b600f6020525f908152604090205460ff1681565b348015610566575f80fd5b50610347611191565b34801561057a575f80fd5b506102f361058936600461291d565b60086020525f908152604090205460ff1681565b3480156105a8575f80fd5b506103c76105b736600461291d565b600d6020525f908152604090205460ff1681565b3480156105d6575f80fd5b506103476105e53660046128fd565b61144c565b3480156105f5575f80fd5b506103476106043660046129d7565b6115ea565b348015610614575f80fd5b50600e546102f390610100900460ff1681565b348015610632575f80fd5b5060115461051890600160201b900463ffffffff1681565b348015610655575f80fd5b50610347610664366004612943565b611997565b348015610674575f80fd5b5061068861068336600461291d565b611b48565b6040516102cb9190612a08565b3480156106a0575f80fd5b506004546106ae9060ff1681565b6040516102cb9190612a2c565b3480156106c6575f80fd5b506103476106d53660046128fd565b611c35565b610347611e39565b3480156106ed575f80fd5b506102f36106fc36600461291d565b60066020525f908152604090205460ff1681565b34801561071b575f80fd5b506103476120b3565b34801561072f575f80fd5b50610347612127565b348015610743575f80fd5b5060055461031a565b348015610757575f80fd5b5061031a61076636600461291d565b60076020525f908152604090205481565b348015610782575f80fd5b506103c761079136600461291d565b60096020525f908152604090205460ff1681565b3480156107b0575f80fd5b506103476107bf366004612a3a565b6121fa565b3480156107cf575f80fd5b505f546107e2906001600160a01b031681565b6040516001600160a01b0390911681526020016102cb565b348015610805575f80fd5b50600e546102f39060ff1681565b60028060045460ff16600881111561082d5761082d61295a565b146108535760405162461bcd60e51b815260040161084a90612aa8565b60405180910390fd5b335f9081526006602052604090205460ff166108815760405162461bcd60e51b815260040161084a90612acb565b335f908152600660205260409020546005906108a29060019060ff16612b03565b60ff16815481106108b5576108b5612b1c565b5f91825260209091200154600160a01b900460ff166108e65760405162461bcd60e51b815260040161084a90612b30565b335f908152600660205260408120546109049060019060ff16612b03565b9050600260058260ff168154811061091e5761091e612b1c565b5f91825260209091200154600160a81b900460ff1660048111156109445761094461295a565b1461097c5760405162461bcd60e51b81526020600482015260086024820152673737ba1039b2b2b960c11b604482015260640161084a565b335f908152600b602052604090205460ff16156109d25760405162461bcd60e51b815260206004820152601460248201527318589a5b1a5d1e48185b1c9958591e481d5cd95960621b604482015260640161084a565b60055460ff8416106109f65760405162461bcd60e51b815260040161084a90612b4e565b335f908152600b60205260408120805460ff1916600190811790915560058560ff1681548110610a2857610a28612b1c565b5f91825260209091200154600160a81b900460ff166004811115610a4e57610a4e61295a565b14610a59575f610a5c565b60015b9050336001600160a01b03167f965443698dcadd7cd06d2d9e1ec539899aabc081d823bb2b7f1fb6778f2212d18583604051610a99929190612b82565b60405180910390a250505050565b60028060045460ff166008811115610ac157610ac161295a565b14610ade5760405162461bcd60e51b815260040161084a90612aa8565b600454600160481b90046001600160401b03164211610b0f5760405162461bcd60e51b815260040161084a90612b99565b60038054610b2a9190600160401b900463ffffffff16612568565b50565b60078060045460ff166008811115610b4757610b4761295a565b14610b645760405162461bcd60e51b815260040161084a90612aa8565b600454600160481b90046001600160401b03164211610b955760405162461bcd60e51b815260040161084a90612b99565b600554600e5460ff16108015610bd75750600e5460058054909160ff16908110610bc157610bc1612b1c565b5f91825260209091200154600160a01b900460ff165b15610beb57600e54610beb9060ff1661260e565b600554600e54610100900460ff16108015610c375750600e54600580549091610100900460ff16908110610c2157610c21612b1c565b5f91825260209091200154600160a01b900460ff165b15610c5057600e54610c5090610100900460ff1661260e565b610c5861275f565b610b2a57610c64612810565b600354610b2a90600590600160601b900463ffffffff16612568565b60058181548110610c8f575f80fd5b5f918252602090912001546001600160a01b038116915060ff600160a01b8204811691600160a81b90041683565b60038060045460ff166008811115610cd757610cd761295a565b14610cf45760405162461bcd60e51b815260040161084a90612aa8565b335f9081526006602052604090205460ff16610d225760405162461bcd60e51b815260040161084a90612acb565b335f90815260066020526040902054600590610d439060019060ff16612b03565b60ff1681548110610d5657610d56612b1c565b5f91825260209091200154600160a01b900460ff16610d875760405162461bcd60e51b815260040161084a90612b30565b335f90815260066020526040812054610da59060019060ff16612b03565b9050600160058260ff1681548110610dbf57610dbf612b1c565b5f91825260209091200154600160a81b900460ff166004811115610de557610de561295a565b14610e1d5760405162461bcd60e51b81526020600482015260086024820152673737ba103bb7b63360c11b604482015260640161084a565b60055460ff851610610e415760405162461bcd60e51b815260040161084a90612b4e565b600454604080513060208201526101009092046001600160401b03169082015260ff85166060820152608081018490525f9060a00160408051601f198184030181529181528151602092830120335f90815260079093529120549091508114610ed95760405162461bcd60e51b815260206004820152600a602482015269189859081c995d99585b60b21b604482015260640161084a565b335f818152600860209081526040808320805460ff8b1660ff199182168117909255600a8452938290208054909416600117909355519182527f049103a491a4335733db53f518c83416ec87f30bef07e166fb97b19c4be972ef910160405180910390a25050505050565b60058060045460ff166008811115610f5e57610f5e61295a565b14610f7b5760405162461bcd60e51b815260040161084a90612aa8565b60ff5f805b60055460ff82161015610ff75760058160ff1681548110610fa357610fa3612b1c565b5f91825260209091200154600160a01b900460ff1615610fe55760ff8082165f908152601060205260409020548116908316811115610fe3578092508193505b505b80610fef81612bbc565b915050610f80565b5060055460ff8316108015611033575060058260ff168154811061101d5761101d612b1c565b5f91825260209091200154600160a01b900460ff165b1561111857600360058360ff168154811061105057611050612b1c565b5f91825260209091200154600160a81b900460ff1660048111156110765761107661295a565b0361110f576110848261260e565b61108c61275f565b1561109657505050565b60065f60058460ff16815481106110af576110af612b1c565b5f918252602080832091909101546001600160a01b03168352820192909252604001902054600e805462ff0000191660ff909216620100000291909117905560035461110a90600890600160601b900463ffffffff16612568565b505050565b6111188261260e565b61112061275f565b1561112a57505050565b6004805461010090046001600160401b031690600161114883612bda565b91906101000a8154816001600160401b0302191690836001600160401b0316021790555050611175612810565b60035461110a90600290600160201b900463ffffffff16612568565b60048060045460ff1660088111156111ab576111ab61295a565b146111c85760405162461bcd60e51b815260040161084a90612aa8565b6005545f816001600160401b038111156111e4576111e4612bff565b60405190808252806020026020018201604052801561120d578160200160208202803683370190505b5090505f5b8281101561136e575f6005828154811061122e5761122e612b1c565b5f91825260209091200154600580546001600160a01b039092169250908390811061125b5761125b612b1c565b5f91825260209091200154600160a01b900460ff1680156112b4575060016005838154811061128c5761128c612b1c565b5f91825260209091200154600160a81b900460ff1660048111156112b2576112b261295a565b145b80156112d757506001600160a01b0381165f908152600a602052604090205460ff165b15611365576001600160a01b0381165f9081526008602052604090205460ff16848110801561132d575060058160ff168154811061131757611317612b1c565b5f91825260209091200154600160a01b900460ff165b1561136357838160ff168151811061134757611347612b1c565b60200260200101805180919061135c90612bbc565b60ff169052505b505b50600101611212565b5060ff5f805b848160ff1610156113de578160ff16848260ff168151811061139857611398612b1c565b602002602001015160ff1611156113cc57838160ff16815181106113be576113be612b1c565b602002602001015191508092505b806113d681612bbc565b915050611374565b50600e805461ffff191660ff841690811761ff00179091556040519081527f54a51ad4c2c44a9a8f17512f2f98d5cfec2e0bba7cc0c3e24976b8c50b3ede289060200160405180910390a160035461144590600790600160401b900463ffffffff16612568565b5050505050565b60088060045460ff1660088111156114665761146661295a565b146114835760405162461bcd60e51b815260040161084a90612aa8565b335f9081526006602052604090205460ff166114b15760405162461bcd60e51b815260040161084a90612acb565b600e54335f9081526006602052604090205460ff9081166201000090920416146115075760405162461bcd60e51b81526020600482015260076024820152666e6f7420796f7560c81b604482015260640161084a565b60055460ff8316108015611542575060058260ff168154811061152c5761152c612b1c565b5f91825260209091200154600160a01b900460ff165b61155e5760405162461bcd60e51b815260040161084a90612b4e565b600e805462ff0000191690556115738261260e565b61157b61275f565b6115e6576004805461010090046001600160401b031690600161159d83612bda565b91906101000a8154816001600160401b0302191690836001600160401b03160217905550506115ca612810565b6003546115e690600290600160201b900463ffffffff16612568565b5050565b60078060045460ff1660088111156116045761160461295a565b146116215760405162461bcd60e51b815260040161084a90612aa8565b335f9081526006602052604090205460ff1661164f5760405162461bcd60e51b815260040161084a90612acb565b335f908152600660205260409020546005906116709060019060ff16612b03565b60ff168154811061168357611683612b1c565b5f91825260209091200154600160a01b900460ff166116b45760405162461bcd60e51b815260040161084a90612b30565b335f908152600660205260408120546116d29060019060ff16612b03565b9050600460058260ff16815481106116ec576116ec612b1c565b5f91825260209091200154600160a81b900460ff1660048111156117125761171261295a565b1461174b5760405162461bcd60e51b81526020600482015260096024820152680dcdee840eed2e8c6d60bb1b604482015260640161084a565b335f908152600b602052604090205460ff16156117a15760405162461bcd60e51b815260206004820152601460248201527318589a5b1a5d1e48185b1c9958591e481d5cd95960621b604482015260640161084a565b335f908152600b60205260409020805460ff1916600190811790915560ff8516900361188457335f908152600c602052604090205460ff166118135760405162461bcd60e51b815260206004820152600b60248201526a6e6f20616e7469646f746560a81b604482015260640161084a565b600554600e5460ff161061185a5760405162461bcd60e51b815260206004820152600e60248201526d6e6f206f6e6520746f207361766560901b604482015260640161084a565b335f908152600c60205260409020805460ff19908116909155600e805490911660ff17905561195b565b8360ff1660020361195b57335f908152600d602052604090205460ff166118d95760405162461bcd60e51b81526020600482015260096024820152683737903837b4b9b7b760b91b604482015260640161084a565b60055460ff8416108015611914575060058360ff16815481106118fe576118fe612b1c565b5f91825260209091200154600160a01b900460ff165b6119305760405162461bcd60e51b815260040161084a90612b4e565b335f908152600d60205260409020805460ff19169055600e805461ff00191661010060ff8616021790555b6040805160ff80871682528516602082015233917fe9c9d6cbc07a2efb2bd75b02599f1bb3b9867c3c4d4430c8525a8158389e4f5d9101610a99565b60028060045460ff1660088111156119b1576119b161295a565b146119ce5760405162461bcd60e51b815260040161084a90612aa8565b335f9081526006602052604090205460ff166119fc5760405162461bcd60e51b815260040161084a90612acb565b335f90815260066020526040902054600590611a1d9060019060ff16612b03565b60ff1681548110611a3057611a30612b1c565b5f91825260209091200154600160a01b900460ff16611a615760405162461bcd60e51b815260040161084a90612b30565b335f90815260066020526040812054611a7f9060019060ff16612b03565b9050600160058260ff1681548110611a9957611a99612b1c565b5f91825260209091200154600160a81b900460ff166004811115611abf57611abf61295a565b14611af75760405162461bcd60e51b81526020600482015260086024820152673737ba103bb7b63360c11b604482015260640161084a565b335f8181526007602090815260408083208790556009909152808220805460ff19166001179055517fb7db70cfdf71703c34a6ca0d742714f04fdd7676b4a28607d32028f3c74ae5a59190a2505050565b6001600160a01b0381165f9081526006602052604081205460ff1680611b9a5760405162461bcd60e51b81526020600482015260076024820152661b9bc81cd9585d60ca1b604482015260640161084a565b600660045460ff166008811115611bb357611bb361295a565b14611bf9576001600160a01b0383163314611bf95760405162461bcd60e51b81526020600482015260066024820152653434b23232b760d11b604482015260640161084a565b6005611c06600183612b03565b60ff1681548110611c1957611c19612b1c565b5f91825260209091200154600160a81b900460ff169392505050565b60058060045460ff166008811115611c4f57611c4f61295a565b14611c6c5760405162461bcd60e51b815260040161084a90612aa8565b335f9081526006602052604090205460ff16611c9a5760405162461bcd60e51b815260040161084a90612acb565b335f90815260066020526040902054600590611cbb9060019060ff16612b03565b60ff1681548110611cce57611cce612b1c565b5f91825260209091200154600160a01b900460ff16611cff5760405162461bcd60e51b815260040161084a90612b30565b60055460ff831610611d235760405162461bcd60e51b815260040161084a90612b4e565b335f908152600f602052604090205460ff168015801590611d56575060ff8082165f908152601060205260409020541615155b15611d975760ff8082165f90815260106020526040812080549092169190611d7d83612c13565b91906101000a81548160ff021916908360ff160217905550505b335f908152600f60209081526040808320805460ff191660ff888116918217909255845260109092528220805490911691611dd183612bbc565b91906101000a81548160ff021916908360ff16021790555050336001600160a01b03167fee56d44878e148b464d0e758841b67cb6abdbe1eca1b8788bbc3edf4b2da6ea384604051611e2c919060ff91909116815260200190565b60405180910390a2505050565b5f8060045460ff166008811115611e5257611e5261295a565b14611e6f5760405162461bcd60e51b815260040161084a90612aa8565b60015460055461010090910460ff1611611eb45760405162461bcd60e51b815260040161084a90602080825260049082015263199d5b1b60e21b604082015260600190565b335f9081526006602052604090205460ff1615611efc5760405162461bcd60e51b81526020600482015260066024820152651a9bda5b995960d21b604482015260640161084a565b5f546001600160a01b03163303611f485760405162461bcd60e51b815260206004820152601060248201526f3437b9ba1031b0b73737ba103537b4b760811b604482015260640161084a565b6002543414611f8a5760405162461bcd60e51b815260206004820152600e60248201526d0e6e8c2d6ca40dad2e6dac2e8c6d60931b604482015260640161084a565b604080516060810182523381526001602082015260059181015f905281546001810183555f928352602092839020825191018054938301511515600160a01b026001600160a81b03199094166001600160a01b039092169190911792909217808355604082015191929190829060ff60a81b1916600160a81b8360048111156120155761201561295a565b0217905550506005545f915061202d90600190612c2e565b905061203a816001612c41565b335f908152600660205260409020805460ff191660ff929092169190911790553415612077573460125f8282546120719190612c5a565b90915550505b60405160ff8216815233907fd0eb1b69a7dd0e2a54c7f88607b1a7fdb2088d2b3685b36e3f5148b8f19f77579060200160405180910390a25050565b60038060045460ff1660088111156120cd576120cd61295a565b146120ea5760405162461bcd60e51b815260040161084a90612aa8565b600454600160481b90046001600160401b0316421161211b5760405162461bcd60e51b815260040161084a90612b99565b610b2a60046005612568565b5f8060045460ff1660088111156121405761214061295a565b1461215d5760405162461bcd60e51b815260040161084a90612aa8565b5f546001600160a01b031633146121a25760405162461bcd60e51b81526020600482015260096024820152681bdb9b1e481a1bdcdd60ba1b604482015260640161084a565b60015460055460ff90911611156121e55760405162461bcd60e51b8152602060048201526007602482015266746f6f2066657760c81b604482015260640161084a565b600354610b2a9060019063ffffffff16612568565b60018060045460ff1660088111156122145761221461295a565b146122315760405162461bcd60e51b815260040161084a90612aa8565b5f546001600160a01b031633146122765760405162461bcd60e51b81526020600482015260096024820152681bdb9b1e481a1bdcdd60ba1b604482015260640161084a565b6005548281146122ba5760405162461bcd60e51b815260206004820152600f60248201526e0d8cadccee8d040dad2e6dac2e8c6d608b1b604482015260640161084a565b5f805b8281101561245e578585828181106122d7576122d7612b1c565b90506020020160208101906122ec9190612c6d565b600582815481106122ff576122ff612b1c565b5f918252602090912001805460ff60a81b1916600160a81b8360048111156123295761232961295a565b0217905550600186868381811061234257612342612b1c565b90506020020160208101906123579190612c6d565b60048111156123685761236861295a565b0361237b578161237781612c8b565b9250505b600486868381811061238f5761238f612b1c565b90506020020160208101906123a49190612c6d565b60048111156123b5576123b561295a565b03612456576001600c5f600584815481106123d2576123d2612b1c565b5f918252602080832091909101546001600160a01b031683528201929092526040018120805460ff19169215159290921790915560058054600192600d9290918590811061242257612422612b1c565b5f918252602080832091909101546001600160a01b031683528201929092526040019020805460ff19169115159190911790555b6001016122bd565b5060015462010000900460ff1681146124b15760405162461bcd60e51b81526020600482015260156024820152740eeded8eccae640c6deeadce840dad2e6dac2e8c6d605b1b604482015260640161084a565b6011805463ffffffff191663ffffffff83169081179091556124d39083612ca3565b6011805463ffffffff92909216600160201b0267ffffffff00000000199092169190911790556004805468ffffffffffffffff0019166101009081179182905560405191046001600160401b031681527f7c178a84a532dcf384b5f27f769236737bf60960e2f89ed77c47940adb9a1dc19060200160405180910390a160035461144590600290600160201b900463ffffffff165b6004805483919060ff191660018360088111156125875761258761295a565b021790555061259c63ffffffff821642612c5a565b6004805470ffffffffffffffff0000000000000000001916600160481b6001600160401b03938416810291909117918290556040517fa168aaa8e825b21e98dcee38b892d4129112660726aba9d9565661c2d3f2bf739361260293879390041690612cc7565b60405180910390a15050565b5f60058260ff168154811061262557612625612b1c565b5f9182526020909120018054911515600160a01b0260ff60a01b19909216919091179055600160058260ff168154811061266157612661612b1c565b5f91825260209091200154600160a81b900460ff1660048111156126875761268761295a565b036126d45760115463ffffffff16156126cf576011805463ffffffff16905f6126af83612ceb565b91906101000a81548163ffffffff021916908363ffffffff160217905550505b612726565b601154600160201b900463ffffffff16156127265760118054600160201b900463ffffffff1690600461270683612ceb565b91906101000a81548163ffffffff021916908363ffffffff160217905550505b60405160ff821681527fda9f09a62e6f9c4451ac1eb8a8036191bd92be66dde0e6732e3e9108ea18b8b09060200160405180910390a150565b6011545f9063ffffffff1681036127b85761277b60065f612568565b7f4df34531b3f238bc8f90ad83236d8c752e7444e434bb5fc99f888f0a6345c0e75f6040516127aa9190612d00565b60405180910390a150600190565b60115463ffffffff600160201b8204811691161061280b576127db60065f612568565b7f4df34531b3f238bc8f90ad83236d8c752e7444e434bb5fc99f888f0a6345c0e760016040516127aa9190612d00565b505f90565b6005545f5b818110156128d5575f6005828154811061283157612831612b1c565b5f918252602090912001546001600160a01b0316905080156128b3576001600160a01b0381165f908152600b60209081526040808320805460ff19908116909155600783528184208490556008835281842080548216905560098352818420805482169055600a8352818420805482169055600f909252909120805490911690555b5060ff81165f908152601060205260409020805460ff19169055600101612815565b5050600e805461ffff191661ffff179055565b803560ff811681146128f8575f80fd5b919050565b5f6020828403121561290d575f80fd5b612916826128e8565b9392505050565b5f6020828403121561292d575f80fd5b81356001600160a01b0381168114612916575f80fd5b5f60208284031215612953575f80fd5b5035919050565b634e487b7160e01b5f52602160045260245ffd5b6005811061297e5761297e61295a565b9052565b6001600160a01b03841681528215156020820152606081016129a7604083018461296e565b949350505050565b5f80604083850312156129c0575f80fd5b6129c9836128e8565b946020939093013593505050565b5f80604083850312156129e8575f80fd5b6129f1836128e8565b91506129ff602084016128e8565b90509250929050565b60208101612a16828461296e565b92915050565b6009811061297e5761297e61295a565b60208101612a168284612a1c565b5f8060208385031215612a4b575f80fd5b82356001600160401b0380821115612a61575f80fd5b818501915085601f830112612a74575f80fd5b813581811115612a82575f80fd5b8660208260051b8501011115612a96575f80fd5b60209290920196919550909350505050565b60208082526009908201526862616420706861736560b81b604082015260600190565b6020808252600a90820152691b9bdd081a9bda5b995960b21b604082015260600190565b634e487b7160e01b5f52601160045260245ffd5b60ff8281168282160390811115612a1657612a16612aef565b634e487b7160e01b5f52603260045260245ffd5b6020808252600490820152631919585960e21b604082015260600190565b6020808252600a9082015269189859081d185c99d95d60b21b604082015260600190565b6002811061297e5761297e61295a565b60ff83168152604081016129166020830184612b72565b602080825260099082015268746f6f206561726c7960b81b604082015260600190565b5f60ff821660ff8103612bd157612bd1612aef565b60010192915050565b5f6001600160401b03808316818103612bf557612bf5612aef565b6001019392505050565b634e487b7160e01b5f52604160045260245ffd5b5f60ff821680612c2557612c25612aef565b5f190192915050565b81810381811115612a1657612a16612aef565b60ff8181168382160190811115612a1657612a16612aef565b80820180821115612a1657612a16612aef565b5f60208284031215612c7d575f80fd5b813560058110612916575f80fd5b5f60018201612c9c57612c9c612aef565b5060010190565b63ffffffff828116828216039080821115612cc057612cc0612aef565b5092915050565b60408101612cd58285612a1c565b6001600160401b03831660208301529392505050565b5f63ffffffff821680612c2557612c25612aef565b60208101612a168284612b7256fea2646970667358221220a2fbfa1331fccf01836a4895c4bd1d164fd9def55a1b2a8d781b839fa203ff8864736f6c63430008180033",
			"opcodes": "PUSH1 0x80 PUSH1 0x40 MSTORE PUSH1 0xE DUP1 SLOAD PUSH3 0xFFFFFF NOT AND PUSH2 0xFFFF OR SWAP1 SSTORE CALLVALUE DUP1 ISZERO PUSH3 0x20 JUMPI PUSH0 DUP1 REVERT JUMPDEST POP PUSH1 0x40 MLOAD PUSH3 0x30BE CODESIZE SUB DUP1 PUSH3 0x30BE DUP4 CODECOPY DUP2 ADD PUSH1 0x40 DUP2 SWAP1 MSTORE PUSH3 0x43 SWAP2 PUSH3 0x261 JUMP JUMPDEST PUSH1 0x3 DUP2 PUSH0 ADD MLOAD PUSH1 0xFF AND LT ISZERO PUSH3 0x90 JUMPI PUSH1 0x40 MLOAD PUSH3 0x461BCD PUSH1 0xE5 SHL DUP2 MSTORE PUSH1 0x20 PUSH1 0x4 DUP3 ADD MSTORE PUSH1 0xD PUSH1 0x24 DUP3 ADD MSTORE PUSH13 0x1B5A5B881D1BDBC81CDB585B1B PUSH1 0x9A SHL PUSH1 0x44 DUP3 ADD MSTORE PUSH1 0x64 ADD JUMPDEST PUSH1 0x40 MLOAD DUP1 SWAP2 SUB SWAP1 REVERT JUMPDEST DUP1 PUSH0 ADD MLOAD PUSH1 0xFF AND DUP2 PUSH1 0x20 ADD MLOAD PUSH1 0xFF AND LT ISZERO PUSH3 0xD9 JUMPI PUSH1 0x40 MLOAD PUSH3 0x461BCD PUSH1 0xE5 SHL DUP2 MSTORE PUSH1 0x20 PUSH1 0x4 DUP3 ADD MSTORE PUSH1 0x7 PUSH1 0x24 DUP3 ADD MSTORE PUSH7 0x36B0BC1E36B4B7 PUSH1 0xC9 SHL PUSH1 0x44 DUP3 ADD MSTORE PUSH1 0x64 ADD PUSH3 0x87 JUMP JUMPDEST PUSH1 0x1 DUP2 PUSH1 0x40 ADD MLOAD PUSH1 0xFF AND LT ISZERO DUP1 ISZERO PUSH3 0xFF JUMPI POP DUP1 PUSH1 0x20 ADD MLOAD PUSH1 0xFF AND DUP2 PUSH1 0x40 ADD MLOAD PUSH1 0xFF AND LT JUMPDEST PUSH3 0x13A JUMPI PUSH1 0x40 MLOAD PUSH3 0x461BCD PUSH1 0xE5 SHL DUP2 MSTORE PUSH1 0x20 PUSH1 0x4 DUP3 ADD MSTORE PUSH1 0xA PUSH1 0x24 DUP3 ADD MSTORE PUSH10 0x1DDBDB1D995CC8189859 PUSH1 0xB2 SHL PUSH1 0x44 DUP3 ADD MSTORE PUSH1 0x64 ADD PUSH3 0x87 JUMP JUMPDEST PUSH0 DUP1 SLOAD PUSH1 0x1 PUSH1 0x1 PUSH1 0xA0 SHL SUB DUP5 AND PUSH1 0x1 PUSH1 0x1 PUSH1 0xA0 SHL SUB NOT SWAP1 SWAP2 AND OR DUP2 SSTORE DUP2 MLOAD PUSH1 0x1 DUP1 SLOAD PUSH1 0x20 DUP6 ADD MLOAD PUSH1 0x40 DUP7 ADD MLOAD PUSH1 0xFF SWAP1 DUP2 AND PUSH3 0x10000 MUL PUSH3 0xFF0000 NOT SWAP3 DUP3 AND PUSH2 0x100 MUL PUSH2 0xFFFF NOT SWAP1 SWAP5 AND SWAP2 SWAP1 SWAP6 AND OR SWAP2 SWAP1 SWAP2 OR AND SWAP2 SWAP1 SWAP2 OR DUP2 SSTORE PUSH1 0x60 DUP4 ADD MLOAD PUSH1 0x2 SSTORE PUSH1 0x80 DUP4 ADD MLOAD PUSH1 0x3 DUP1 SLOAD PUSH1 0xA0 DUP7 ADD MLOAD PUSH1 0xC0 DUP8 ADD MLOAD PUSH1 0xE0 DUP9 ADD MLOAD PUSH4 0xFFFFFFFF SWAP1 DUP2 AND PUSH13 0x1000000000000000000000000 MUL PUSH4 0xFFFFFFFF PUSH1 0x60 SHL NOT SWAP3 DUP3 AND PUSH9 0x10000000000000000 MUL SWAP3 SWAP1 SWAP3 AND PUSH1 0x1 PUSH1 0x40 SHL PUSH1 0x1 PUSH1 0x80 SHL SUB NOT SWAP4 DUP3 AND PUSH5 0x100000000 MUL PUSH1 0x1 PUSH1 0x1 PUSH1 0x40 SHL SUB NOT SWAP1 SWAP6 AND SWAP2 SWAP1 SWAP7 AND OR SWAP3 SWAP1 SWAP3 OR AND SWAP3 SWAP1 SWAP3 OR SWAP2 SWAP1 SWAP2 OR SWAP1 SSTORE PUSH1 0x4 DUP1 SLOAD SWAP1 SWAP2 PUSH1 0xFF NOT SWAP2 SWAP1 SWAP2 AND SWAP1 DUP4 MUL OR SWAP1 SSTORE POP POP POP PUSH3 0x36C JUMP JUMPDEST DUP1 MLOAD PUSH1 0xFF DUP2 AND DUP2 EQ PUSH3 0x248 JUMPI PUSH0 DUP1 REVERT JUMPDEST SWAP2 SWAP1 POP JUMP JUMPDEST DUP1 MLOAD PUSH4 0xFFFFFFFF DUP2 AND DUP2 EQ PUSH3 0x248 JUMPI PUSH0 DUP1 REVERT JUMPDEST PUSH0 DUP1 DUP3 DUP5 SUB PUSH2 0x120 DUP2 SLT ISZERO PUSH3 0x275 JUMPI PUSH0 DUP1 REVERT JUMPDEST DUP4 MLOAD PUSH1 0x1 PUSH1 0x1 PUSH1 0xA0 SHL SUB DUP2 AND DUP2 EQ PUSH3 0x28C JUMPI PUSH0 DUP1 REVERT JUMPDEST SWAP3 POP PUSH2 0x100 PUSH1 0x1F NOT DUP3 ADD DUP2 SGT ISZERO PUSH3 0x2A2 JUMPI PUSH0 DUP1 REVERT JUMPDEST PUSH1 0x40 MLOAD SWAP2 POP DUP1 DUP3 ADD PUSH1 0x1 PUSH1 0x1 PUSH1 0x40 SHL SUB DUP2 GT DUP4 DUP3 LT OR ISZERO PUSH3 0x2D2 JUMPI PUSH4 0x4E487B71 PUSH1 0xE0 SHL PUSH0 MSTORE PUSH1 0x41 PUSH1 0x4 MSTORE PUSH1 0x24 PUSH0 REVERT JUMPDEST PUSH1 0x40 MSTORE PUSH3 0x2E3 PUSH1 0x20 DUP7 ADD PUSH3 0x237 JUMP JUMPDEST DUP3 MSTORE PUSH3 0x2F3 PUSH1 0x40 DUP7 ADD PUSH3 0x237 JUMP JUMPDEST PUSH1 0x20 DUP4 ADD MSTORE PUSH3 0x306 PUSH1 0x60 DUP7 ADD PUSH3 0x237 JUMP JUMPDEST PUSH1 0x40 DUP4 ADD MSTORE PUSH1 0x80 DUP6 ADD MLOAD PUSH1 0x60 DUP4 ADD MSTORE PUSH3 0x323 PUSH1 0xA0 DUP7 ADD PUSH3 0x24D JUMP JUMPDEST PUSH1 0x80 DUP4 ADD MSTORE PUSH3 0x336 PUSH1 0xC0 DUP7 ADD PUSH3 0x24D JUMP JUMPDEST PUSH1 0xA0 DUP4 ADD MSTORE PUSH3 0x349 PUSH1 0xE0 DUP7 ADD PUSH3 0x24D JUMP JUMPDEST PUSH1 0xC0 DUP4 ADD MSTORE PUSH3 0x35B DUP2 DUP7 ADD PUSH3 0x24D JUMP JUMPDEST PUSH1 0xE0 DUP4 ADD MSTORE POP DUP1 SWAP2 POP POP SWAP3 POP SWAP3 SWAP1 POP JUMP JUMPDEST PUSH2 0x2D44 DUP1 PUSH3 0x37A PUSH0 CODECOPY PUSH0 RETURN INVALID PUSH1 0x80 PUSH1 0x40 MSTORE PUSH1 0x4 CALLDATASIZE LT PUSH2 0x21D JUMPI PUSH0 CALLDATALOAD PUSH1 0xE0 SHR DUP1 PUSH4 0x6AADB9EE GT PUSH2 0x11E JUMPI DUP1 PUSH4 0xB688A363 GT PUSH2 0xA8 JUMPI DUP1 PUSH4 0xC8DC00F1 GT PUSH2 0x6D JUMPI DUP1 PUSH4 0xC8DC00F1 EQ PUSH2 0x74C JUMPI DUP1 PUSH4 0xD88D9B70 EQ PUSH2 0x777 JUMPI DUP1 PUSH4 0xE373A7DE EQ PUSH2 0x7A5 JUMPI DUP1 PUSH4 0xF437BC59 EQ PUSH2 0x7C4 JUMPI DUP1 PUSH4 0xF90886D8 EQ PUSH2 0x7FA JUMPI PUSH0 DUP1 REVERT JUMPDEST DUP1 PUSH4 0xB688A363 EQ PUSH2 0x6DA JUMPI DUP1 PUSH4 0xB9CD92C3 EQ PUSH2 0x6E2 JUMPI DUP1 PUSH4 0xBB7A640C EQ PUSH2 0x710 JUMPI DUP1 PUSH4 0xBE9A6555 EQ PUSH2 0x724 JUMPI DUP1 PUSH4 0xBEDECC06 EQ PUSH2 0x738 JUMPI PUSH0 DUP1 REVERT JUMPDEST DUP1 PUSH4 0x8C1D85D8 GT PUSH2 0xEE JUMPI DUP1 PUSH4 0x8C1D85D8 EQ PUSH2 0x627 JUMPI DUP1 PUSH4 0x96DDA213 EQ PUSH2 0x64A JUMPI DUP1 PUSH4 0xA5D7827E EQ PUSH2 0x669 JUMPI DUP1 PUSH4 0xB1C9FE6E EQ PUSH2 0x695 JUMPI DUP1 PUSH4 0xB3F98ADC EQ PUSH2 0x6BB JUMPI PUSH0 DUP1 REVERT JUMPDEST DUP1 PUSH4 0x6AADB9EE EQ PUSH2 0x59D JUMPI DUP1 PUSH4 0x7B69AF0F EQ PUSH2 0x5CB JUMPI DUP1 PUSH4 0x7BEA3016 EQ PUSH2 0x5EA JUMPI DUP1 PUSH4 0x7D04FC44 EQ PUSH2 0x609 JUMPI PUSH0 DUP1 REVERT JUMPDEST DUP1 PUSH4 0x33898621 GT PUSH2 0x1AA JUMPI DUP1 PUSH4 0x537E1411 GT PUSH2 0x16F JUMPI DUP1 PUSH4 0x537E1411 EQ PUSH2 0x4CE JUMPI DUP1 PUSH4 0x581FE69A EQ PUSH2 0x4FC JUMPI DUP1 PUSH4 0x5FCBF372 EQ PUSH2 0x52D JUMPI DUP1 PUSH4 0x61DC4610 EQ PUSH2 0x55B JUMPI DUP1 PUSH4 0x6662C26E EQ PUSH2 0x56F JUMPI PUSH0 DUP1 REVERT JUMPDEST DUP1 PUSH4 0x33898621 EQ PUSH2 0x411 JUMPI DUP1 PUSH4 0x34654880 EQ PUSH2 0x43F JUMPI DUP1 PUSH4 0x3B33C702 EQ PUSH2 0x46D JUMPI DUP1 PUSH4 0x3B7E0A27 EQ PUSH2 0x49B JUMPI DUP1 PUSH4 0x413D0956 EQ PUSH2 0x4BA JUMPI PUSH0 DUP1 REVERT JUMPDEST DUP1 PUSH4 0xE405642 GT PUSH2 0x1F0 JUMPI DUP1 PUSH4 0xE405642 EQ PUSH2 0x349 JUMPI DUP1 PUSH4 0x266E2A56 EQ PUSH2 0x35D JUMPI DUP1 PUSH4 0x27C0583F EQ PUSH2 0x399 JUMPI DUP1 PUSH4 0x29DCB0CF EQ PUSH2 0x3D7 JUMPI DUP1 PUSH4 0x33771E6D EQ PUSH2 0x3FD JUMPI PUSH0 DUP1 REVERT JUMPDEST DUP1 PUSH4 0x457DAD2 EQ PUSH2 0x221 JUMPI DUP1 PUSH4 0x55A079F EQ PUSH2 0x2D4 JUMPI DUP1 PUSH4 0x86E6917 EQ PUSH2 0x305 JUMPI DUP1 PUSH4 0xE09287A EQ PUSH2 0x328 JUMPI JUMPDEST PUSH0 DUP1 REVERT JUMPDEST CALLVALUE DUP1 ISZERO PUSH2 0x22C JUMPI PUSH0 DUP1 REVERT JUMPDEST POP PUSH1 0x1 SLOAD PUSH1 0x2 SLOAD PUSH1 0x3 SLOAD PUSH2 0x27B SWAP3 PUSH1 0xFF DUP1 DUP3 AND SWAP4 PUSH2 0x100 DUP4 DIV DUP3 AND SWAP4 PUSH3 0x10000 SWAP1 SWAP4 DIV SWAP1 SWAP2 AND SWAP2 PUSH4 0xFFFFFFFF DUP1 DUP3 AND SWAP2 PUSH1 0x1 PUSH1 0x20 SHL DUP2 DIV DUP3 AND SWAP2 PUSH1 0x1 PUSH1 0x40 SHL DUP3 DIV DUP2 AND SWAP2 PUSH1 0x1 PUSH1 0x60 SHL SWAP1 DIV AND DUP9 JUMP JUMPDEST PUSH1 0x40 DUP1 MLOAD PUSH1 0xFF SWAP10 DUP11 AND DUP2 MSTORE SWAP8 DUP10 AND PUSH1 0x20 DUP10 ADD MSTORE SWAP6 SWAP1 SWAP8 AND SWAP5 DUP7 ADD SWAP5 SWAP1 SWAP5 MSTORE PUSH1 0x60 DUP6 ADD SWAP3 SWAP1 SWAP3 MSTORE PUSH4 0xFFFFFFFF SWAP1 DUP2 AND PUSH1 0x80 DUP6 ADD MSTORE SWAP1 DUP2 AND PUSH1 0xA0 DUP5 ADD MSTORE SWAP1 DUP2 AND PUSH1 0xC0 DUP4 ADD MSTORE SWAP1 SWAP2 AND PUSH1 0xE0 DUP3 ADD MSTORE PUSH2 0x100 ADD JUMPDEST PUSH1 0x40 MLOAD DUP1 SWAP2 SUB SWAP1 RETURN JUMPDEST CALLVALUE DUP1 ISZERO PUSH2 0x2DF JUMPI PUSH0 DUP1 REVERT JUMPDEST POP PUSH1 0xE SLOAD PUSH2 0x2F3 SWAP1 PUSH3 0x10000 SWAP1 DIV PUSH1 0xFF AND DUP2 JUMP JUMPDEST PUSH1 0x40 MLOAD PUSH1 0xFF SWAP1 SWAP2 AND DUP2 MSTORE PUSH1 0x20 ADD PUSH2 0x2CB JUMP JUMPDEST CALLVALUE DUP1 ISZERO PUSH2 0x310 JUMPI PUSH0 DUP1 REVERT JUMPDEST POP PUSH2 0x31A PUSH1 0x12 SLOAD DUP2 JUMP JUMPDEST PUSH1 0x40 MLOAD SWAP1 DUP2 MSTORE PUSH1 0x20 ADD PUSH2 0x2CB JUMP JUMPDEST CALLVALUE DUP1 ISZERO PUSH2 0x333 JUMPI PUSH0 DUP1 REVERT JUMPDEST POP PUSH2 0x347 PUSH2 0x342 CALLDATASIZE PUSH1 0x4 PUSH2 0x28FD JUMP JUMPDEST PUSH2 0x813 JUMP JUMPDEST STOP JUMPDEST CALLVALUE DUP1 ISZERO PUSH2 0x354 JUMPI PUSH0 DUP1 REVERT JUMPDEST POP PUSH2 0x347 PUSH2 0xAA7 JUMP JUMPDEST CALLVALUE DUP1 ISZERO PUSH2 0x368 JUMPI PUSH0 DUP1 REVERT JUMPDEST POP PUSH1 0x4 SLOAD PUSH2 0x381 SWAP1 PUSH2 0x100 SWAP1 DIV PUSH1 0x1 PUSH1 0x1 PUSH1 0x40 SHL SUB AND DUP2 JUMP JUMPDEST PUSH1 0x40 MLOAD PUSH1 0x1 PUSH1 0x1 PUSH1 0x40 SHL SUB SWAP1 SWAP2 AND DUP2 MSTORE PUSH1 0x20 ADD PUSH2 0x2CB JUMP JUMPDEST CALLVALUE DUP1 ISZERO PUSH2 0x3A4 JUMPI PUSH0 DUP1 REVERT JUMPDEST POP PUSH2 0x3C7 PUSH2 0x3B3 CALLDATASIZE PUSH1 0x4 PUSH2 0x291D JUMP JUMPDEST PUSH1 0xA PUSH1 0x20 MSTORE PUSH0 SWAP1 DUP2 MSTORE PUSH1 0x40 SWAP1 KECCAK256 SLOAD PUSH1 0xFF AND DUP2 JUMP JUMPDEST PUSH1 0x40 MLOAD SWAP1 ISZERO ISZERO DUP2 MSTORE PUSH1 0x20 ADD PUSH2 0x2CB JUMP JUMPDEST CALLVALUE DUP1 ISZERO PUSH2 0x3E2 JUMPI PUSH0 DUP1 REVERT JUMPDEST POP PUSH1 0x4 SLOAD PUSH2 0x381 SWAP1 PUSH1 0x1 PUSH1 0x48 SHL SWAP1 DIV PUSH1 0x1 PUSH1 0x1 PUSH1 0x40 SHL SUB AND DUP2 JUMP JUMPDEST CALLVALUE DUP1 ISZERO PUSH2 0x408 JUMPI PUSH0 DUP1 REVERT JUMPDEST POP PUSH2 0x347 PUSH2 0xB2D JUMP JUMPDEST CALLVALUE DUP1 ISZERO PUSH2 0x41C JUMPI PUSH0 DUP1 REVERT JUMPDEST POP PUSH2 0x2F3 PUSH2 0x42B CALLDATASIZE PUSH1 0x4 PUSH2 0x28FD JUMP JUMPDEST PUSH1 0x10 PUSH1 0x20 MSTORE PUSH0 SWAP1 DUP2 MSTORE PUSH1 0x40 SWAP1 KECCAK256 SLOAD PUSH1 0xFF AND DUP2 JUMP JUMPDEST CALLVALUE DUP1 ISZERO PUSH2 0x44A JUMPI PUSH0 DUP1 REVERT JUMPDEST POP PUSH2 0x3C7 PUSH2 0x459 CALLDATASIZE PUSH1 0x4 PUSH2 0x291D JUMP JUMPDEST PUSH1 0xC PUSH1 0x20 MSTORE PUSH0 SWAP1 DUP2 MSTORE PUSH1 0x40 SWAP1 KECCAK256 SLOAD PUSH1 0xFF AND DUP2 JUMP JUMPDEST CALLVALUE DUP1 ISZERO PUSH2 0x478 JUMPI PUSH0 DUP1 REVERT JUMPDEST POP PUSH2 0x48C PUSH2 0x487 CALLDATASIZE PUSH1 0x4 PUSH2 0x2943 JUMP JUMPDEST PUSH2 0xC80 JUMP JUMPDEST PUSH1 0x40 MLOAD PUSH2 0x2CB SWAP4 SWAP3 SWAP2 SWAP1 PUSH2 0x2982 JUMP JUMPDEST CALLVALUE DUP1 ISZERO PUSH2 0x4A6 JUMPI PUSH0 DUP1 REVERT JUMPDEST POP PUSH2 0x347 PUSH2 0x4B5 CALLDATASIZE PUSH1 0x4 PUSH2 0x29AF JUMP JUMPDEST PUSH2 0xCBD JUMP JUMPDEST CALLVALUE DUP1 ISZERO PUSH2 0x4C5 JUMPI PUSH0 DUP1 REVERT JUMPDEST POP PUSH2 0x347 PUSH2 0xF44 JUMP JUMPDEST CALLVALUE DUP1 ISZERO PUSH2 0x4D9 JUMPI PUSH0 DUP1 REVERT JUMPDEST POP PUSH2 0x3C7 PUSH2 0x4E8 CALLDATASIZE PUSH1 0x4 PUSH2 0x291D JUMP JUMPDEST PUSH1 0xB PUSH1 0x20 MSTORE PUSH0 SWAP1 DUP2 MSTORE PUSH1 0x40 SWAP1 KECCAK256 SLOAD PUSH1 0xFF AND DUP2 JUMP JUMPDEST CALLVALUE DUP1 ISZERO PUSH2 0x507 JUMPI PUSH0 DUP1 REVERT JUMPDEST POP PUSH1 0x11 SLOAD PUSH2 0x518 SWAP1 PUSH4 0xFFFFFFFF AND DUP2 JUMP JUMPDEST PUSH1 0x40 MLOAD PUSH4 0xFFFFFFFF SWAP1 SWAP2 AND DUP2 MSTORE PUSH1 0x20 ADD PUSH2 0x2CB JUMP JUMPDEST CALLVALUE DUP1 ISZERO PUSH2 0x538 JUMPI PUSH0 DUP1 REVERT JUMPDEST POP PUSH2 0x2F3 PUSH2 0x547 CALLDATASIZE PUSH1 0x4 PUSH2 0x291D JUMP JUMPDEST PUSH1 0xF PUSH1 0x20 MSTORE PUSH0 SWAP1 DUP2 MSTORE PUSH1 0x40 SWAP1 KECCAK256 SLOAD PUSH1 0xFF AND DUP2 JUMP JUMPDEST CALLVALUE DUP1 ISZERO PUSH2 0x566 JUMPI PUSH0 DUP1 REVERT JUMPDEST POP PUSH2 0x347 PUSH2 0x1191 JUMP JUMPDEST CALLVALUE DUP1 ISZERO PUSH2 0x57A JUMPI PUSH0 DUP1 REVERT JUMPDEST POP PUSH2 0x2F3 PUSH2 0x589 CALLDATASIZE PUSH1 0x4 PUSH2 0x291D JUMP JUMPDEST PUSH1 0x8 PUSH1 0x20 MSTORE PUSH0 SWAP1 DUP2 MSTORE PUSH1 0x40 SWAP1 KECCAK256 SLOAD PUSH1 0xFF AND DUP2 JUMP JUMPDEST CALLVALUE DUP1 ISZERO PUSH2 0x5A8 JUMPI PUSH0 DUP1 REVERT JUMPDEST POP PUSH2 0x3C7 PUSH2 0x5B7 CALLDATASIZE PUSH1 0x4 PUSH2 0x291D JUMP JUMPDEST PUSH1 0xD PUSH1 0x20 MSTORE PUSH0 SWAP1 DUP2 MSTORE PUSH1 0x40 SWAP1 KECCAK256 SLOAD PUSH1 0xFF AND DUP2 JUMP JUMPDEST CALLVALUE DUP1 ISZERO PUSH2 0x5D6 JUMPI PUSH0 DUP1 REVERT JUMPDEST POP PUSH2 0x347 PUSH2 0x5E5 CALLDATASIZE PUSH1 0x4 PUSH2 0x28FD JUMP JUMPDEST PUSH2 0x144C JUMP JUMPDEST CALLVALUE DUP1 ISZERO PUSH2 0x5F5 JUMPI PUSH0 DUP1 REVERT JUMPDEST POP PUSH2 0x347 PUSH2 0x604 CALLDATASIZE PUSH1 0x4 PUSH2 0x29D7 JUMP JUMPDEST PUSH2 0x15EA JUMP JUMPDEST CALLVALUE DUP1 ISZERO PUSH2 0x614 JUMPI PUSH0 DUP1 REVERT JUMPDEST POP PUSH1 0xE SLOAD PUSH2 0x2F3 SWAP1 PUSH2 0x100 SWAP1 DIV PUSH1 0xFF AND DUP2 JUMP JUMPDEST CALLVALUE DUP1 ISZERO PUSH2 0x632 JUMPI PUSH0 DUP1 REVERT JUMPDEST POP PUSH1 0x11 SLOAD PUSH2 0x518 SWAP1 PUSH1 0x1 PUSH1 0x20 SHL SWAP1 DIV PUSH4 0xFFFFFFFF AND DUP2 JUMP JUMPDEST CALLVALUE DUP1 ISZERO PUSH2 0x655 JUMPI PUSH0 DUP1 REVERT JUMPDEST POP PUSH2 0x347 PUSH2 0x664 CALLDATASIZE PUSH1 0x4 PUSH2 0x2943 JUMP JUMPDEST PUSH2 0x1997 JUMP JUMPDEST CALLVALUE DUP1 ISZERO PUSH2 0x674 JUMPI PUSH0 DUP1 REVERT JUMPDEST POP PUSH2 0x688 PUSH2 0x683 CALLDATASIZE PUSH1 0x4 PUSH2 0x291D JUMP JUMPDEST PUSH2 0x1B48 JUMP JUMPDEST PUSH1 0x40 MLOAD PUSH2 0x2CB SWAP2 SWAP1 PUSH2 0x2A08 JUMP JUMPDEST CALLVALUE DUP1 ISZERO PUSH2 0x6A0 JUMPI PUSH0 DUP1 REVERT JUMPDEST POP PUSH1 0x4 SLOAD PUSH2 0x6AE SWAP1 PUSH1 0xFF AND DUP2 JUMP JUMPDEST PUSH1 0x40 MLOAD PUSH2 0x2CB SWAP2 SWAP1 PUSH2 0x2A2C JUMP JUMPDEST CALLVALUE DUP1 ISZERO PUSH2 0x6C6 JUMPI PUSH0 DUP1 REVERT JUMPDEST POP PUSH2 0x347 PUSH2 0x6D5 CALLDATASIZE PUSH1 0x4 PUSH2 0x28FD JUMP JUMPDEST PUSH2 0x1C35 JUMP JUMPDEST PUSH2 0x347 PUSH2 0x1E39 JUMP JUMPDEST CALLVALUE DUP1 ISZERO PUSH2 0x6ED JUMPI PUSH0 DUP1 REVERT JUMPDEST POP PUSH2 0x2F3 PUSH2 0x6FC CALLDATASIZE PUSH1 0x4 PUSH2 0x291D JUMP JUMPDEST PUSH1 0x6 PUSH1 0x20 MSTORE PUSH0 SWAP1 DUP2 MSTORE PUSH1 0x40 SWAP1 KECCAK256 SLOAD PUSH1 0xFF AND DUP2 JUMP JUMPDEST CALLVALUE DUP1 ISZERO PUSH2 0x71B JUMPI PUSH0 DUP1 REVERT JUMPDEST POP PUSH2 0x347 PUSH2 0x20B3 JUMP JUMPDEST CALLVALUE DUP1 ISZERO PUSH2 0x72F JUMPI PUSH0 DUP1 REVERT JUMPDEST POP PUSH2 0x347 PUSH2 0x2127 JUMP JUMPDEST CALLVALUE DUP1 ISZERO PUSH2 0x743 JUMPI PUSH0 DUP1 REVERT JUMPDEST POP PUSH1 0x5 SLOAD PUSH2 0x31A JUMP JUMPDEST CALLVALUE DUP1 ISZERO PUSH2 0x757 JUMPI PUSH0 DUP1 REVERT JUMPDEST POP PUSH2 0x31A PUSH2 0x766 CALLDATASIZE PUSH1 0x4 PUSH2 0x291D JUMP JUMPDEST PUSH1 0x7 PUSH1 0x20 MSTORE PUSH0 SWAP1 DUP2 MSTORE PUSH1 0x40 SWAP1 KECCAK256 SLOAD DUP2 JUMP JUMPDEST CALLVALUE DUP1 ISZERO PUSH2 0x782 JUMPI PUSH0 DUP1 REVERT JUMPDEST POP PUSH2 0x3C7 PUSH2 0x791 CALLDATASIZE PUSH1 0x4 PUSH2 0x291D JUMP JUMPDEST PUSH1 0x9 PUSH1 0x20 MSTORE PUSH0 SWAP1 DUP2 MSTORE PUSH1 0x40 SWAP1 KECCAK256 SLOAD PUSH1 0xFF AND DUP2 JUMP JUMPDEST CALLVALUE DUP1 ISZERO PUSH2 0x7B0 JUMPI PUSH0 DUP1 REVERT JUMPDEST POP PUSH2 0x347 PUSH2 0x7BF CALLDATASIZE PUSH1 0x4 PUSH2 0x2A3A JUMP JUMPDEST PUSH2 0x21FA JUMP JUMPDEST CALLVALUE DUP1 ISZERO PUSH2 0x7CF JUMPI PUSH0 DUP1 REVERT JUMPDEST POP PUSH0 SLOAD PUSH2 0x7E2 SWAP1 PUSH1 0x1 PUSH1 0x1 PUSH1 0xA0 SHL SUB AND DUP2 JUMP JUMPDEST PUSH1 0x40 MLOAD PUSH1 0x1 PUSH1 0x1 PUSH1 0xA0 SHL SUB SWAP1 SWAP2 AND DUP2 MSTORE PUSH1 0x20 ADD PUSH2 0x2CB JUMP JUMPDEST CALLVALUE DUP1 ISZERO PUSH2 0x805 JUMPI PUSH0 DUP1 REVERT JUMPDEST POP PUSH1 0xE SLOAD PUSH2 0x2F3 SWAP1 PUSH1 0xFF AND DUP2 JUMP JUMPDEST PUSH1 0x2 DUP1 PUSH1 0x4 SLOAD PUSH1 0xFF AND PUSH1 0x8 DUP2 GT ISZERO PUSH2 0x82D JUMPI PUSH2 0x82D PUSH2 0x295A JUMP JUMPDEST EQ PUSH2 0x853 JUMPI PUSH1 0x40 MLOAD PUSH3 0x461BCD PUSH1 0xE5 SHL DUP2 MSTORE PUSH1 0x4 ADD PUSH2 0x84A SWAP1 PUSH2 0x2AA8 JUMP JUMPDEST PUSH1 0x40 MLOAD DUP1 SWAP2 SUB SWAP1 REVERT JUMPDEST CALLER PUSH0 SWAP1 DUP2 MSTORE PUSH1 0x6 PUSH1 0x20 MSTORE PUSH1 0x40 SWAP1 KECCAK256 SLOAD PUSH1 0xFF AND PUSH2 0x881 JUMPI PUSH1 0x40 MLOAD PUSH3 0x461BCD PUSH1 0xE5 SHL DUP2 MSTORE PUSH1 0x4 ADD PUSH2 0x84A SWAP1 PUSH2 0x2ACB JUMP JUMPDEST CALLER PUSH0 SWAP1 DUP2 MSTORE PUSH1 0x6 PUSH1 0x20 MSTORE PUSH1 0x40 SWAP1 KECCAK256 SLOAD PUSH1 0x5 SWAP1 PUSH2 0x8A2 SWAP1 PUSH1 0x1 SWAP1 PUSH1 0xFF AND PUSH2 0x2B03 JUMP JUMPDEST PUSH1 0xFF AND DUP2 SLOAD DUP2 LT PUSH2 0x8B5 JUMPI PUSH2 0x8B5 PUSH2 0x2B1C JUMP JUMPDEST PUSH0 SWAP2 DUP3 MSTORE PUSH1 0x20 SWAP1 SWAP2 KECCAK256 ADD SLOAD PUSH1 0x1 PUSH1 0xA0 SHL SWAP1 DIV PUSH1 0xFF AND PUSH2 0x8E6 JUMPI PUSH1 0x40 MLOAD PUSH3 0x461BCD PUSH1 0xE5 SHL DUP2 MSTORE PUSH1 0x4 ADD PUSH2 0x84A SWAP1 PUSH2 0x2B30 JUMP JUMPDEST CALLER PUSH0 SWAP1 DUP2 MSTORE PUSH1 0x6 PUSH1 0x20 MSTORE PUSH1 0x40 DUP2 KECCAK256 SLOAD PUSH2 0x904 SWAP1 PUSH1 0x1 SWAP1 PUSH1 0xFF AND PUSH2 0x2B03 JUMP JUMPDEST SWAP1 POP PUSH1 0x2 PUSH1 0x5 DUP3 PUSH1 0xFF AND DUP2 SLOAD DUP2 LT PUSH2 0x91E JUMPI PUSH2 0x91E PUSH2 0x2B1C JUMP JUMPDEST PUSH0 SWAP2 DUP3 MSTORE PUSH1 0x20 SWAP1 SWAP2 KECCAK256 ADD SLOAD PUSH1 0x1 PUSH1 0xA8 SHL SWAP1 DIV PUSH1 0xFF AND PUSH1 0x4 DUP2 GT ISZERO PUSH2 0x944 JUMPI PUSH2 0x944 PUSH2 0x295A JUMP JUMPDEST EQ PUSH2 0x97C JUMPI PUSH1 0x40 MLOAD PUSH3 0x461BCD PUSH1 0xE5 SHL DUP2 MSTORE PUSH1 0x20 PUSH1 0x4 DUP3 ADD MSTORE PUSH1 0x8 PUSH1 0x24 DUP3 ADD MSTORE PUSH8 0x3737BA1039B2B2B9 PUSH1 0xC1 SHL PUSH1 0x44 DUP3 ADD MSTORE PUSH1 0x64 ADD PUSH2 0x84A JUMP JUMPDEST CALLER PUSH0 SWAP1 DUP2 MSTORE PUSH1 0xB PUSH1 0x20 MSTORE PUSH1 0x40 SWAP1 KECCAK256 SLOAD PUSH1 0xFF AND ISZERO PUSH2 0x9D2 JUMPI PUSH1 0x40 MLOAD PUSH3 0x461BCD PUSH1 0xE5 SHL DUP2 MSTORE PUSH1 0x20 PUSH1 0x4 DUP3 ADD MSTORE PUSH1 0x14 PUSH1 0x24 DUP3 ADD MSTORE PUSH20 0x18589A5B1A5D1E48185B1C9958591E481D5CD959 PUSH1 0x62 SHL PUSH1 0x44 DUP3 ADD MSTORE PUSH1 0x64 ADD PUSH2 0x84A JUMP JUMPDEST PUSH1 0x5 SLOAD PUSH1 0xFF DUP5 AND LT PUSH2 0x9F6 JUMPI PUSH1 0x40 MLOAD PUSH3 0x461BCD PUSH1 0xE5 SHL DUP2 MSTORE PUSH1 0x4 ADD PUSH2 0x84A SWAP1 PUSH2 0x2B4E JUMP JUMPDEST CALLER PUSH0 SWAP1 DUP2 MSTORE PUSH1 0xB PUSH1 0x20 MSTORE PUSH1 0x40 DUP2 KECCAK256 DUP1 SLOAD PUSH1 0xFF NOT AND PUSH1 0x1 SWAP1 DUP2 OR SWAP1 SWAP2 SSTORE PUSH1 0x5 DUP6 PUSH1 0xFF AND DUP2 SLOAD DUP2 LT PUSH2 0xA28 JUMPI PUSH2 0xA28 PUSH2 0x2B1C JUMP JUMPDEST PUSH0 SWAP2 DUP3 MSTORE PUSH1 0x20 SWAP1 SWAP2 KECCAK256 ADD SLOAD PUSH1 0x1 PUSH1 0xA8 SHL SWAP1 DIV PUSH1 0xFF AND PUSH1 0x4 DUP2 GT ISZERO PUSH2 0xA4E JUMPI PUSH2 0xA4E PUSH2 0x295A JUMP JUMPDEST EQ PUSH2 0xA59 JUMPI PUSH0 PUSH2 0xA5C JUMP JUMPDEST PUSH1 0x1 JUMPDEST SWAP1 POP CALLER PUSH1 0x1 PUSH1 0x1 PUSH1 0xA0 SHL SUB AND PUSH32 0x965443698DCADD7CD06D2D9E1EC539899AABC081D823BB2B7F1FB6778F2212D1 DUP6 DUP4 PUSH1 0x40 MLOAD PUSH2 0xA99 SWAP3 SWAP2 SWAP1 PUSH2 0x2B82 JUMP JUMPDEST PUSH1 0x40 MLOAD DUP1 SWAP2 SUB SWAP1 LOG2 POP POP POP POP JUMP JUMPDEST PUSH1 0x2 DUP1 PUSH1 0x4 SLOAD PUSH1 0xFF AND PUSH1 0x8 DUP2 GT ISZERO PUSH2 0xAC1 JUMPI PUSH2 0xAC1 PUSH2 0x295A JUMP JUMPDEST EQ PUSH2 0xADE JUMPI PUSH1 0x40 MLOAD PUSH3 0x461BCD PUSH1 0xE5 SHL DUP2 MSTORE PUSH1 0x4 ADD PUSH2 0x84A SWAP1 PUSH2 0x2AA8 JUMP JUMPDEST PUSH1 0x4 SLOAD PUSH1 0x1 PUSH1 0x48 SHL SWAP1 DIV PUSH1 0x1 PUSH1 0x1 PUSH1 0x40 SHL SUB AND TIMESTAMP GT PUSH2 0xB0F JUMPI PUSH1 0x40 MLOAD PUSH3 0x461BCD PUSH1 0xE5 SHL DUP2 MSTORE PUSH1 0x4 ADD PUSH2 0x84A SWAP1 PUSH2 0x2B99 JUMP JUMPDEST PUSH1 0x3 DUP1 SLOAD PUSH2 0xB2A SWAP2 SWAP1 PUSH1 0x1 PUSH1 0x40 SHL SWAP1 DIV PUSH4 0xFFFFFFFF AND PUSH2 0x2568 JUMP JUMPDEST POP JUMP JUMPDEST PUSH1 0x7 DUP1 PUSH1 0x4 SLOAD PUSH1 0xFF AND PUSH1 0x8 DUP2 GT ISZERO PUSH2 0xB47 JUMPI PUSH2 0xB47 PUSH2 0x295A JUMP JUMPDEST EQ PUSH2 0xB64 JUMPI PUSH1 0x40 MLOAD PUSH3 0x461BCD PUSH1 0xE5 SHL DUP2 MSTORE PUSH1 0x4 ADD PUSH2 0x84A SWAP1 PUSH2 0x2AA8 JUMP JUMPDEST PUSH1 0x4 SLOAD PUSH1 0x1 PUSH1 0x48 SHL SWAP1 DIV PUSH1 0x1 PUSH1 0x1 PUSH1 0x40 SHL SUB AND TIMESTAMP GT PUSH2 0xB95 JUMPI PUSH1 0x40 MLOAD PUSH3 0x461BCD PUSH1 0xE5 SHL DUP2 MSTORE PUSH1 0x4 ADD PUSH2 0x84A SWAP1 PUSH2 0x2B99 JUMP JUMPDEST PUSH1 0x5 SLOAD PUSH1 0xE SLOAD PUSH1 0xFF AND LT DUP1 ISZERO PUSH2 0xBD7 JUMPI POP PUSH1 0xE SLOAD PUSH1 0x5 DUP1 SLOAD SWAP1 SWAP2 PUSH1 0xFF AND SWAP1 DUP2 LT PUSH2 0xBC1 JUMPI PUSH2 0xBC1 PUSH2 0x2B1C JUMP JUMPDEST PUSH0 SWAP2 DUP3 MSTORE PUSH1 0x20 SWAP1 SWAP2 KECCAK256 ADD SLOAD PUSH1 0x1 PUSH1 0xA0 SHL SWAP1 DIV PUSH1 0xFF AND JUMPDEST ISZERO PUSH2 0xBEB JUMPI PUSH1 0xE SLOAD PUSH2 0xBEB SWAP1 PUSH1 0xFF AND PUSH2 0x260E JUMP JUMPDEST PUSH1 0x5 SLOAD PUSH1 0xE SLOAD PUSH2 0x100 SWAP1 DIV PUSH1 0xFF AND LT DUP1 ISZERO PUSH2 0xC37 JUMPI POP PUSH1 0xE SLOAD PUSH1 0x5 DUP1 SLOAD SWAP1 SWAP2 PUSH2 0x100 SWAP1 DIV PUSH1 0xFF AND SWAP1 DUP2 LT PUSH2 0xC21 JUMPI PUSH2 0xC21 PUSH2 0x2B1C JUMP JUMPDEST PUSH0 SWAP2 DUP3 MSTORE PUSH1 0x20 SWAP1 SWAP2 KECCAK256 ADD SLOAD PUSH1 0x1 PUSH1 0xA0 SHL SWAP1 DIV PUSH1 0xFF AND JUMPDEST ISZERO PUSH2 0xC50 JUMPI PUSH1 0xE SLOAD PUSH2 0xC50 SWAP1 PUSH2 0x100 SWAP1 DIV PUSH1 0xFF AND PUSH2 0x260E JUMP JUMPDEST PUSH2 0xC58 PUSH2 0x275F JUMP JUMPDEST PUSH2 0xB2A JUMPI PUSH2 0xC64 PUSH2 0x2810 JUMP JUMPDEST PUSH1 0x3 SLOAD PUSH2 0xB2A SWAP1 PUSH1 0x5 SWAP1 PUSH1 0x1 PUSH1 0x60 SHL SWAP1 DIV PUSH4 0xFFFFFFFF AND PUSH2 0x2568 JUMP JUMPDEST PUSH1 0x5 DUP2 DUP2 SLOAD DUP2 LT PUSH2 0xC8F JUMPI PUSH0 DUP1 REVERT JUMPDEST PUSH0 SWAP2 DUP3 MSTORE PUSH1 0x20 SWAP1 SWAP2 KECCAK256 ADD SLOAD PUSH1 0x1 PUSH1 0x1 PUSH1 0xA0 SHL SUB DUP2 AND SWAP2 POP PUSH1 0xFF PUSH1 0x1 PUSH1 0xA0 SHL DUP3 DIV DUP2 AND SWAP2 PUSH1 0x1 PUSH1 0xA8 SHL SWAP1 DIV AND DUP4 JUMP JUMPDEST PUSH1 0x3 DUP1 PUSH1 0x4 SLOAD PUSH1 0xFF AND PUSH1 0x8 DUP2 GT ISZERO PUSH2 0xCD7 JUMPI PUSH2 0xCD7 PUSH2 0x295A JUMP JUMPDEST EQ PUSH2 0xCF4 JUMPI PUSH1 0x40 MLOAD PUSH3 0x461BCD PUSH1 0xE5 SHL DUP2 MSTORE PUSH1 0x4 ADD PUSH2 0x84A SWAP1 PUSH2 0x2AA8 JUMP JUMPDEST CALLER PUSH0 SWAP1 DUP2 MSTORE PUSH1 0x6 PUSH1 0x20 MSTORE PUSH1 0x40 SWAP1 KECCAK256 SLOAD PUSH1 0xFF AND PUSH2 0xD22 JUMPI PUSH1 0x40 MLOAD PUSH3 0x461BCD PUSH1 0xE5 SHL DUP2 MSTORE PUSH1 0x4 ADD PUSH2 0x84A SWAP1 PUSH2 0x2ACB JUMP JUMPDEST CALLER PUSH0 SWAP1 DUP2 MSTORE PUSH1 0x6 PUSH1 0x20 MSTORE PUSH1 0x40 SWAP1 KECCAK256 SLOAD PUSH1 0x5 SWAP1 PUSH2 0xD43 SWAP1 PUSH1 0x1 SWAP1 PUSH1 0xFF AND PUSH2 0x2B03 JUMP JUMPDEST PUSH1 0xFF AND DUP2 SLOAD DUP2 LT PUSH2 0xD56 JUMPI PUSH2 0xD56 PUSH2 0x2B1C JUMP JUMPDEST PUSH0 SWAP2 DUP3 MSTORE PUSH1 0x20 SWAP1 SWAP2 KECCAK256 ADD SLOAD PUSH1 0x1 PUSH1 0xA0 SHL SWAP1 DIV PUSH1 0xFF AND PUSH2 0xD87 JUMPI PUSH1 0x40 MLOAD PUSH3 0x461BCD PUSH1 0xE5 SHL DUP2 MSTORE PUSH1 0x4 ADD PUSH2 0x84A SWAP1 PUSH2 0x2B30 JUMP JUMPDEST CALLER PUSH0 SWAP1 DUP2 MSTORE PUSH1 0x6 PUSH1 0x20 MSTORE PUSH1 0x40 DUP2 KECCAK256 SLOAD PUSH2 0xDA5 SWAP1 PUSH1 0x1 SWAP1 PUSH1 0xFF AND PUSH2 0x2B03 JUMP JUMPDEST SWAP1 POP PUSH1 0x1 PUSH1 0x5 DUP3 PUSH1 0xFF AND DUP2 SLOAD DUP2 LT PUSH2 0xDBF JUMPI PUSH2 0xDBF PUSH2 0x2B1C JUMP JUMPDEST PUSH0 SWAP2 DUP3 MSTORE PUSH1 0x20 SWAP1 SWAP2 KECCAK256 ADD SLOAD PUSH1 0x1 PUSH1 0xA8 SHL SWAP1 DIV PUSH1 0xFF AND PUSH1 0x4 DUP2 GT ISZERO PUSH2 0xDE5 JUMPI PUSH2 0xDE5 PUSH2 0x295A JUMP JUMPDEST EQ PUSH2 0xE1D JUMPI PUSH1 0x40 MLOAD PUSH3 0x461BCD PUSH1 0xE5 SHL DUP2 MSTORE PUSH1 0x20 PUSH1 0x4 DUP3 ADD MSTORE PUSH1 0x8 PUSH1 0x24 DUP3 ADD MSTORE PUSH8 0x3737BA103BB7B633 PUSH1 0xC1 SHL PUSH1 0x44 DUP3 ADD MSTORE PUSH1 0x64 ADD PUSH2 0x84A JUMP JUMPDEST PUSH1 0x5 SLOAD PUSH1 0xFF DUP6 AND LT PUSH2 0xE41 JUMPI PUSH1 0x40 MLOAD PUSH3 0x461BCD PUSH1 0xE5 SHL DUP2 MSTORE PUSH1 0x4 ADD PUSH2 0x84A SWAP1 PUSH2 0x2B4E JUMP JUMPDEST PUSH1 0x4 SLOAD PUSH1 0x40 DUP1 MLOAD ADDRESS PUSH1 0x20 DUP3 ADD MSTORE PUSH2 0x100 SWAP1 SWAP3 DIV PUSH1 0x1 PUSH1 0x1 PUSH1 0x40 SHL SUB AND SWAP1 DUP3 ADD MSTORE PUSH1 0xFF DUP6 AND PUSH1 0x60 DUP3 ADD MSTORE PUSH1 0x80 DUP2 ADD DUP5 SWAP1 MSTORE PUSH0 SWAP1 PUSH1 0xA0 ADD PUSH1 0x40 DUP1 MLOAD PUSH1 0x1F NOT DUP2 DUP5 SUB ADD DUP2 MSTORE SWAP2 DUP2 MSTORE DUP2 MLOAD PUSH1 0x20 SWAP3 DUP4 ADD KECCAK256 CALLER PUSH0 SWAP1 DUP2 MSTORE PUSH1 0x7 SWAP1 SWAP4 MSTORE SWAP2 KECCAK256 SLOAD SWAP1 SWAP2 POP DUP2 EQ PUSH2 0xED9 JUMPI PUSH1 0x40 MLOAD PUSH3 0x461BCD PUSH1 0xE5 SHL DUP2 MSTORE PUSH1 0x20 PUSH1 0x4 DUP3 ADD MSTORE PUSH1 0xA PUSH1 0x24 DUP3 ADD MSTORE PUSH10 0x189859081C995D99585B PUSH1 0xB2 SHL PUSH1 0x44 DUP3 ADD MSTORE PUSH1 0x64 ADD PUSH2 0x84A JUMP JUMPDEST CALLER PUSH0 DUP2 DUP2 MSTORE PUSH1 0x8 PUSH1 0x20 SWAP1 DUP2 MSTORE PUSH1 0x40 DUP1 DUP4 KECCAK256 DUP1 SLOAD PUSH1 0xFF DUP12 AND PUSH1 0xFF NOT SWAP2 DUP3 AND DUP2 OR SWAP1 SWAP3 SSTORE PUSH1 0xA DUP5 MSTORE SWAP4 DUP3 SWAP1 KECCAK256 DUP1 SLOAD SWAP1 SWAP5 AND PUSH1 0x1 OR SWAP1 SWAP4 SSTORE MLOAD SWAP2 DUP3 MSTORE PUSH32 0x49103A491A4335733DB53F518C83416EC87F30BEF07E166FB97B19C4BE972EF SWAP2 ADD PUSH1 0x40 MLOAD DUP1 SWAP2 SUB SWAP1 LOG2 POP POP POP POP POP JUMP JUMPDEST PUSH1 0x5 DUP1 PUSH1 0x4 SLOAD PUSH1 0xFF AND PUSH1 0x8 DUP2 GT ISZERO PUSH2 0xF5E JUMPI PUSH2 0xF5E PUSH2 0x295A JUMP JUMPDEST EQ PUSH2 0xF7B JUMPI PUSH1 0x40 MLOAD PUSH3 0x461BCD PUSH1 0xE5 SHL DUP2 MSTORE PUSH1 0x4 ADD PUSH2 0x84A SWAP1 PUSH2 0x2AA8 JUMP JUMPDEST PUSH1 0xFF PUSH0 DUP1 JUMPDEST PUSH1 0x5 SLOAD PUSH1 0xFF DUP3 AND LT ISZERO PUSH2 0xFF7 JUMPI PUSH1 0x5 DUP2 PUSH1 0xFF AND DUP2 SLOAD DUP2 LT PUSH2 0xFA3 JUMPI PUSH2 0xFA3 PUSH2 0x2B1C JUMP JUMPDEST PUSH0 SWAP2 DUP3 MSTORE PUSH1 0x20 SWAP1 SWAP2 KECCAK256 ADD SLOAD PUSH1 0x1 PUSH1 0xA0 SHL SWAP1 DIV PUSH1 0xFF AND ISZERO PUSH2 0xFE5 JUMPI PUSH1 0xFF DUP1 DUP3 AND PUSH0 SWAP1 DUP2 MSTORE PUSH1 0x10 PUSH1 0x20 MSTORE PUSH1 0x40 SWAP1 KECCAK256 SLOAD DUP2 AND SWAP1 DUP4 AND DUP2 GT ISZERO PUSH2 0xFE3 JUMPI DUP1 SWAP3 POP DUP2 SWAP4 POP JUMPDEST POP JUMPDEST DUP1 PUSH2 0xFEF DUP2 PUSH2 0x2BBC JUMP JUMPDEST SWAP2 POP POP PUSH2 0xF80 JUMP JUMPDEST POP PUSH1 0x5 SLOAD PUSH1 0xFF DUP4 AND LT DUP1 ISZERO PUSH2 0x1033 JUMPI POP PUSH1 0x5 DUP3 PUSH1 0xFF AND DUP2 SLOAD DUP2 LT PUSH2 0x101D JUMPI PUSH2 0x101D PUSH2 0x2B1C JUMP JUMPDEST PUSH0 SWAP2 DUP3 MSTORE PUSH1 0x20 SWAP1 SWAP2 KECCAK256 ADD SLOAD PUSH1 0x1 PUSH1 0xA0 SHL SWAP1 DIV PUSH1 0xFF AND JUMPDEST ISZERO PUSH2 0x1118 JUMPI PUSH1 0x3 PUSH1 0x5 DUP4 PUSH1 0xFF AND DUP2 SLOAD DUP2 LT PUSH2 0x1050 JUMPI PUSH2 0x1050 PUSH2 0x2B1C JUMP JUMPDEST PUSH0 SWAP2 DUP3 MSTORE PUSH1 0x20 SWAP1 SWAP2 KECCAK256 ADD SLOAD PUSH1 0x1 PUSH1 0xA8 SHL SWAP1 DIV PUSH1 0xFF AND PUSH1 0x4 DUP2 GT ISZERO PUSH2 0x1076 JUMPI PUSH2 0x1076 PUSH2 0x295A JUMP JUMPDEST SUB PUSH2 0x110F JUMPI PUSH2 0x1084 DUP3 PUSH2 0x260E JUMP JUMPDEST PUSH2 0x108C PUSH2 0x275F JUMP JUMPDEST ISZERO PUSH2 0x1096 JUMPI POP POP POP JUMP JUMPDEST PUSH1 0x6 PUSH0 PUSH1 0x5 DUP5 PUSH1 0xFF AND DUP2 SLOAD DUP2 LT PUSH2 0x10AF JUMPI PUSH2 0x10AF PUSH2 0x2B1C JUMP JUMPDEST PUSH0 SWAP2 DUP3 MSTORE PUSH1 0x20 DUP1 DUP4 KECCAK256 SWAP2 SWAP1 SWAP2 ADD SLOAD PUSH1 0x1 PUSH1 0x1 PUSH1 0xA0 SHL SUB AND DUP4 MSTORE DUP3 ADD SWAP3 SWAP1 SWAP3 MSTORE PUSH1 0x40 ADD SWAP1 KECCAK256 SLOAD PUSH1 0xE DUP1 SLOAD PUSH3 0xFF0000 NOT AND PUSH1 0xFF SWAP1 SWAP3 AND PUSH3 0x10000 MUL SWAP2 SWAP1 SWAP2 OR SWAP1 SSTORE PUSH1 0x3 SLOAD PUSH2 0x110A SWAP1 PUSH1 0x8 SWAP1 PUSH1 0x1 PUSH1 0x60 SHL SWAP1 DIV PUSH4 0xFFFFFFFF AND PUSH2 0x2568 JUMP JUMPDEST POP POP POP JUMP JUMPDEST PUSH2 0x1118 DUP3 PUSH2 0x260E JUMP JUMPDEST PUSH2 0x1120 PUSH2 0x275F JUMP JUMPDEST ISZERO PUSH2 0x112A JUMPI POP POP POP JUMP JUMPDEST PUSH1 0x4 DUP1 SLOAD PUSH2 0x100 SWAP1 DIV PUSH1 0x1 PUSH1 0x1 PUSH1 0x40 SHL SUB AND SWAP1 PUSH1 0x1 PUSH2 0x1148 DUP4 PUSH2 0x2BDA JUMP JUMPDEST SWAP2 SWAP1 PUSH2 0x100 EXP DUP2 SLOAD DUP2 PUSH1 0x1 PUSH1 0x1 PUSH1 0x40 SHL SUB MUL NOT AND SWAP1 DUP4 PUSH1 0x1 PUSH1 0x1 PUSH1 0x40 SHL SUB AND MUL OR SWAP1 SSTORE POP POP PUSH2 0x1175 PUSH2 0x2810 JUMP JUMPDEST PUSH1 0x3 SLOAD PUSH2 0x110A SWAP1 PUSH1 0x2 SWAP1 PUSH1 0x1 PUSH1 0x20 SHL SWAP1 DIV PUSH4 0xFFFFFFFF AND PUSH2 0x2568 JUMP JUMPDEST PUSH1 0x4 DUP1 PUSH1 0x4 SLOAD PUSH1 0xFF AND PUSH1 0x8 DUP2 GT ISZERO PUSH2 0x11AB JUMPI PUSH2 0x11AB PUSH2 0x295A JUMP JUMPDEST EQ PUSH2 0x11C8 JUMPI PUSH1 0x40 MLOAD PUSH3 0x461BCD PUSH1 0xE5 SHL DUP2 MSTORE PUSH1 0x4 ADD PUSH2 0x84A SWAP1 PUSH2 0x2AA8 JUMP JUMPDEST PUSH1 0x5 SLOAD PUSH0 DUP2 PUSH1 0x1 PUSH1 0x1 PUSH1 0x40 SHL SUB DUP2 GT ISZERO PUSH2 0x11E4 JUMPI PUSH2 0x11E4 PUSH2 0x2BFF JUMP JUMPDEST PUSH1 0x40 MLOAD SWAP1 DUP1 DUP3 MSTORE DUP1 PUSH1 0x20 MUL PUSH1 0x20 ADD DUP3 ADD PUSH1 0x40 MSTORE DUP1 ISZERO PUSH2 0x120D JUMPI DUP2 PUSH1 0x20 ADD PUSH1 0x20 DUP3 MUL DUP1 CALLDATASIZE DUP4 CALLDATACOPY ADD SWAP1 POP JUMPDEST POP SWAP1 POP PUSH0 JUMPDEST DUP3 DUP2 LT ISZERO PUSH2 0x136E JUMPI PUSH0 PUSH1 0x5 DUP3 DUP2 SLOAD DUP2 LT PUSH2 0x122E JUMPI PUSH2 0x122E PUSH2 0x2B1C JUMP JUMPDEST PUSH0 SWAP2 DUP3 MSTORE PUSH1 0x20 SWAP1 SWAP2 KECCAK256 ADD SLOAD PUSH1 0x5 DUP1 SLOAD PUSH1 0x1 PUSH1 0x1 PUSH1 0xA0 SHL SUB SWAP1 SWAP3 AND SWAP3 POP SWAP1 DUP4 SWAP1 DUP2 LT PUSH2 0x125B JUMPI PUSH2 0x125B PUSH2 0x2B1C JUMP JUMPDEST PUSH0 SWAP2 DUP3 MSTORE PUSH1 0x20 SWAP1 SWAP2 KECCAK256 ADD SLOAD PUSH1 0x1 PUSH1 0xA0 SHL SWAP1 DIV PUSH1 0xFF AND DUP1 ISZERO PUSH2 0x12B4 JUMPI POP PUSH1 0x1 PUSH1 0x5 DUP4 DUP2 SLOAD DUP2 LT PUSH2 0x128C JUMPI PUSH2 0x128C PUSH2 0x2B1C JUMP JUMPDEST PUSH0 SWAP2 DUP3 MSTORE PUSH1 0x20 SWAP1 SWAP2 KECCAK256 ADD SLOAD PUSH1 0x1 PUSH1 0xA8 SHL SWAP1 DIV PUSH1 0xFF AND PUSH1 0x4 DUP2 GT ISZERO PUSH2 0x12B2 JUMPI PUSH2 0x12B2 PUSH2 0x295A JUMP JUMPDEST EQ JUMPDEST DUP1 ISZERO PUSH2 0x12D7 JUMPI POP PUSH1 0x1 PUSH1 0x1 PUSH1 0xA0 SHL SUB DUP2 AND PUSH0 SWAP1 DUP2 MSTORE PUSH1 0xA PUSH1 0x20 MSTORE PUSH1 0x40 SWAP1 KECCAK256 SLOAD PUSH1 0xFF AND JUMPDEST ISZERO PUSH2 0x1365 JUMPI PUSH1 0x1 PUSH1 0x1 PUSH1 0xA0 SHL SUB DUP2 AND PUSH0 SWAP1 DUP2 MSTORE PUSH1 0x8 PUSH1 0x20 MSTORE PUSH1 0x40 SWAP1 KECCAK256 SLOAD PUSH1 0xFF AND DUP5 DUP2 LT DUP1 ISZERO PUSH2 0x132D JUMPI POP PUSH1 0x5 DUP2 PUSH1 0xFF AND DUP2 SLOAD DUP2 LT PUSH2 0x1317 JUMPI PUSH2 0x1317 PUSH2 0x2B1C JUMP JUMPDEST PUSH0 SWAP2 DUP3 MSTORE PUSH1 0x20 SWAP1 SWAP2 KECCAK256 ADD SLOAD PUSH1 0x1 PUSH1 0xA0 SHL SWAP1 DIV PUSH1 0xFF AND JUMPDEST ISZERO PUSH2 0x1363 JUMPI DUP4 DUP2 PUSH1 0xFF AND DUP2 MLOAD DUP2 LT PUSH2 0x1347 JUMPI PUSH2 0x1347 PUSH2 0x2B1C JUMP JUMPDEST PUSH1 0x20 MUL PUSH1 0x20 ADD ADD DUP1 MLOAD DUP1 SWAP2 SWAP1 PUSH2 0x135C SWAP1 PUSH2 0x2BBC JUMP JUMPDEST PUSH1 0xFF AND SWAP1 MSTORE POP JUMPDEST POP JUMPDEST POP PUSH1 0x1 ADD PUSH2 0x1212 JUMP JUMPDEST POP PUSH1 0xFF PUSH0 DUP1 JUMPDEST DUP5 DUP2 PUSH1 0xFF AND LT ISZERO PUSH2 0x13DE JUMPI DUP2 PUSH1 0xFF AND DUP5 DUP3 PUSH1 0xFF AND DUP2 MLOAD DUP2 LT PUSH2 0x1398 JUMPI PUSH2 0x1398 PUSH2 0x2B1C JUMP JUMPDEST PUSH1 0x20 MUL PUSH1 0x20 ADD ADD MLOAD PUSH1 0xFF AND GT ISZERO PUSH2 0x13CC JUMPI DUP4 DUP2 PUSH1 0xFF AND DUP2 MLOAD DUP2 LT PUSH2 0x13BE JUMPI PUSH2 0x13BE PUSH2 0x2B1C JUMP JUMPDEST PUSH1 0x20 MUL PUSH1 0x20 ADD ADD MLOAD SWAP2 POP DUP1 SWAP3 POP JUMPDEST DUP1 PUSH2 0x13D6 DUP2 PUSH2 0x2BBC JUMP JUMPDEST SWAP2 POP POP PUSH2 0x1374 JUMP JUMPDEST POP PUSH1 0xE DUP1 SLOAD PUSH2 0xFFFF NOT AND PUSH1 0xFF DUP5 AND SWAP1 DUP2 OR PUSH2 0xFF00 OR SWAP1 SWAP2 SSTORE PUSH1 0x40 MLOAD SWAP1 DUP2 MSTORE PUSH32 0x54A51AD4C2C44A9A8F17512F2F98D5CFEC2E0BBA7CC0C3E24976B8C50B3EDE28 SWAP1 PUSH1 0x20 ADD PUSH1 0x40 MLOAD DUP1 SWAP2 SUB SWAP1 LOG1 PUSH1 0x3 SLOAD PUSH2 0x1445 SWAP1 PUSH1 0x7 SWAP1 PUSH1 0x1 PUSH1 0x40 SHL SWAP1 DIV PUSH4 0xFFFFFFFF AND PUSH2 0x2568 JUMP JUMPDEST POP POP POP POP POP JUMP JUMPDEST PUSH1 0x8 DUP1 PUSH1 0x4 SLOAD PUSH1 0xFF AND PUSH1 0x8 DUP2 GT ISZERO PUSH2 0x1466 JUMPI PUSH2 0x1466 PUSH2 0x295A JUMP JUMPDEST EQ PUSH2 0x1483 JUMPI PUSH1 0x40 MLOAD PUSH3 0x461BCD PUSH1 0xE5 SHL DUP2 MSTORE PUSH1 0x4 ADD PUSH2 0x84A SWAP1 PUSH2 0x2AA8 JUMP JUMPDEST CALLER PUSH0 SWAP1 DUP2 MSTORE PUSH1 0x6 PUSH1 0x20 MSTORE PUSH1 0x40 SWAP1 KECCAK256 SLOAD PUSH1 0xFF AND PUSH2 0x14B1 JUMPI PUSH1 0x40 MLOAD PUSH3 0x461BCD PUSH1 0xE5 SHL DUP2 MSTORE PUSH1 0x4 ADD PUSH2 0x84A SWAP1 PUSH2 0x2ACB JUMP JUMPDEST PUSH1 0xE SLOAD CALLER PUSH0 SWAP1 DUP2 MSTORE PUSH1 0x6 PUSH1 0x20 MSTORE PUSH1 0x40 SWAP1 KECCAK256 SLOAD PUSH1 0xFF SWAP1 DUP2 AND PUSH3 0x10000 SWAP1 SWAP3 DIV AND EQ PUSH2 0x1507 JUMPI PUSH1 0x40 MLOAD PUSH3 0x461BCD PUSH1 0xE5 SHL DUP2 MSTORE PUSH1 0x20 PUSH1 0x4 DUP3 ADD MSTORE PUSH1 0x7 PUSH1 0x24 DUP3 ADD MSTORE PUSH7 0x6E6F7420796F75 PUSH1 0xC8 SHL PUSH1 0x44 DUP3 ADD MSTORE PUSH1 0x64 ADD PUSH2 0x84A JUMP JUMPDEST PUSH1 0x5 SLOAD PUSH1 0xFF DUP4 AND LT DUP1 ISZERO PUSH2 0x1542 JUMPI POP PUSH1 0x5 DUP3 PUSH1 0xFF AND DUP2 SLOAD DUP2 LT PUSH2 0x152C JUMPI PUSH2 0x152C PUSH2 0x2B1C JUMP JUMPDEST PUSH0 SWAP2 DUP3 MSTORE PUSH1 0x20 SWAP1 SWAP2 KECCAK256 ADD SLOAD PUSH1 0x1 PUSH1 0xA0 SHL SWAP1 DIV PUSH1 0xFF AND JUMPDEST PUSH2 0x155E JUMPI PUSH1 0x40 MLOAD PUSH3 0x461BCD PUSH1 0xE5 SHL DUP2 MSTORE PUSH1 0x4 ADD PUSH2 0x84A SWAP1 PUSH2 0x2B4E JUMP JUMPDEST PUSH1 0xE DUP1 SLOAD PUSH3 0xFF0000 NOT AND SWAP1 SSTORE PUSH2 0x1573 DUP3 PUSH2 0x260E JUMP JUMPDEST PUSH2 0x157B PUSH2 0x275F JUMP JUMPDEST PUSH2 0x15E6 JUMPI PUSH1 0x4 DUP1 SLOAD PUSH2 0x100 SWAP1 DIV PUSH1 0x1 PUSH1 0x1 PUSH1 0x40 SHL SUB AND SWAP1 PUSH1 0x1 PUSH2 0x159D DUP4 PUSH2 0x2BDA JUMP JUMPDEST SWAP2 SWAP1 PUSH2 0x100 EXP DUP2 SLOAD DUP2 PUSH1 0x1 PUSH1 0x1 PUSH1 0x40 SHL SUB MUL NOT AND SWAP1 DUP4 PUSH1 0x1 PUSH1 0x1 PUSH1 0x40 SHL SUB AND MUL OR SWAP1 SSTORE POP POP PUSH2 0x15CA PUSH2 0x2810 JUMP JUMPDEST PUSH1 0x3 SLOAD PUSH2 0x15E6 SWAP1 PUSH1 0x2 SWAP1 PUSH1 0x1 PUSH1 0x20 SHL SWAP1 DIV PUSH4 0xFFFFFFFF AND PUSH2 0x2568 JUMP JUMPDEST POP POP JUMP JUMPDEST PUSH1 0x7 DUP1 PUSH1 0x4 SLOAD PUSH1 0xFF AND PUSH1 0x8 DUP2 GT ISZERO PUSH2 0x1604 JUMPI PUSH2 0x1604 PUSH2 0x295A JUMP JUMPDEST EQ PUSH2 0x1621 JUMPI PUSH1 0x40 MLOAD PUSH3 0x461BCD PUSH1 0xE5 SHL DUP2 MSTORE PUSH1 0x4 ADD PUSH2 0x84A SWAP1 PUSH2 0x2AA8 JUMP JUMPDEST CALLER PUSH0 SWAP1 DUP2 MSTORE PUSH1 0x6 PUSH1 0x20 MSTORE PUSH1 0x40 SWAP1 KECCAK256 SLOAD PUSH1 0xFF AND PUSH2 0x164F JUMPI PUSH1 0x40 MLOAD PUSH3 0x461BCD PUSH1 0xE5 SHL DUP2 MSTORE PUSH1 0x4 ADD PUSH2 0x84A SWAP1 PUSH2 0x2ACB JUMP JUMPDEST CALLER PUSH0 SWAP1 DUP2 MSTORE PUSH1 0x6 PUSH1 0x20 MSTORE PUSH1 0x40 SWAP1 KECCAK256 SLOAD PUSH1 0x5 SWAP1 PUSH2 0x1670 SWAP1 PUSH1 0x1 SWAP1 PUSH1 0xFF AND PUSH2 0x2B03 JUMP JUMPDEST PUSH1 0xFF AND DUP2 SLOAD DUP2 LT PUSH2 0x1683 JUMPI PUSH2 0x1683 PUSH2 0x2B1C JUMP JUMPDEST PUSH0 SWAP2 DUP3 MSTORE PUSH1 0x20 SWAP1 SWAP2 KECCAK256 ADD SLOAD PUSH1 0x1 PUSH1 0xA0 SHL SWAP1 DIV PUSH1 0xFF AND PUSH2 0x16B4 JUMPI PUSH1 0x40 MLOAD PUSH3 0x461BCD PUSH1 0xE5 SHL DUP2 MSTORE PUSH1 0x4 ADD PUSH2 0x84A SWAP1 PUSH2 0x2B30 JUMP JUMPDEST CALLER PUSH0 SWAP1 DUP2 MSTORE PUSH1 0x6 PUSH1 0x20 MSTORE PUSH1 0x40 DUP2 KECCAK256 SLOAD PUSH2 0x16D2 SWAP1 PUSH1 0x1 SWAP1 PUSH1 0xFF AND PUSH2 0x2B03 JUMP JUMPDEST SWAP1 POP PUSH1 0x4 PUSH1 0x5 DUP3 PUSH1 0xFF AND DUP2 SLOAD DUP2 LT PUSH2 0x16EC JUMPI PUSH2 0x16EC PUSH2 0x2B1C JUMP JUMPDEST PUSH0 SWAP2 DUP3 MSTORE PUSH1 0x20 SWAP1 SWAP2 KECCAK256 ADD SLOAD PUSH1 0x1 PUSH1 0xA8 SHL SWAP1 DIV PUSH1 0xFF AND PUSH1 0x4 DUP2 GT ISZERO PUSH2 0x1712 JUMPI PUSH2 0x1712 PUSH2 0x295A JUMP JUMPDEST EQ PUSH2 0x174B JUMPI PUSH1 0x40 MLOAD PUSH3 0x461BCD PUSH1 0xE5 SHL DUP2 MSTORE PUSH1 0x20 PUSH1 0x4 DUP3 ADD MSTORE PUSH1 0x9 PUSH1 0x24 DUP3 ADD MSTORE PUSH9 0xDCDEE840EED2E8C6D PUSH1 0xBB SHL PUSH1 0x44 DUP3 ADD MSTORE PUSH1 0x64 ADD PUSH2 0x84A JUMP JUMPDEST CALLER PUSH0 SWAP1 DUP2 MSTORE PUSH1 0xB PUSH1 0x20 MSTORE PUSH1 0x40 SWAP1 KECCAK256 SLOAD PUSH1 0xFF AND ISZERO PUSH2 0x17A1 JUMPI PUSH1 0x40 MLOAD PUSH3 0x461BCD PUSH1 0xE5 SHL DUP2 MSTORE PUSH1 0x20 PUSH1 0x4 DUP3 ADD MSTORE PUSH1 0x14 PUSH1 0x24 DUP3 ADD MSTORE PUSH20 0x18589A5B1A5D1E48185B1C9958591E481D5CD959 PUSH1 0x62 SHL PUSH1 0x44 DUP3 ADD MSTORE PUSH1 0x64 ADD PUSH2 0x84A JUMP JUMPDEST CALLER PUSH0 SWAP1 DUP2 MSTORE PUSH1 0xB PUSH1 0x20 MSTORE PUSH1 0x40 SWAP1 KECCAK256 DUP1 SLOAD PUSH1 0xFF NOT AND PUSH1 0x1 SWAP1 DUP2 OR SWAP1 SWAP2 SSTORE PUSH1 0xFF DUP6 AND SWAP1 SUB PUSH2 0x1884 JUMPI CALLER PUSH0 SWAP1 DUP2 MSTORE PUSH1 0xC PUSH1 0x20 MSTORE PUSH1 0x40 SWAP1 KECCAK256 SLOAD PUSH1 0xFF AND PUSH2 0x1813 JUMPI PUSH1 0x40 MLOAD PUSH3 0x461BCD PUSH1 0xE5 SHL DUP2 MSTORE PUSH1 0x20 PUSH1 0x4 DUP3 ADD MSTORE PUSH1 0xB PUSH1 0x24 DUP3 ADD MSTORE PUSH11 0x6E6F20616E7469646F7465 PUSH1 0xA8 SHL PUSH1 0x44 DUP3 ADD MSTORE PUSH1 0x64 ADD PUSH2 0x84A JUMP JUMPDEST PUSH1 0x5 SLOAD PUSH1 0xE SLOAD PUSH1 0xFF AND LT PUSH2 0x185A JUMPI PUSH1 0x40 MLOAD PUSH3 0x461BCD PUSH1 0xE5 SHL DUP2 MSTORE PUSH1 0x20 PUSH1 0x4 DUP3 ADD MSTORE PUSH1 0xE PUSH1 0x24 DUP3 ADD MSTORE PUSH14 0x6E6F206F6E6520746F2073617665 PUSH1 0x90 SHL PUSH1 0x44 DUP3 ADD MSTORE PUSH1 0x64 ADD PUSH2 0x84A JUMP JUMPDEST CALLER PUSH0 SWAP1 DUP2 MSTORE PUSH1 0xC PUSH1 0x20 MSTORE PUSH1 0x40 SWAP1 KECCAK256 DUP1 SLOAD PUSH1 0xFF NOT SWAP1 DUP2 AND SWAP1 SWAP2 SSTORE PUSH1 0xE DUP1 SLOAD SWAP1 SWAP2 AND PUSH1 0xFF OR SWAP1 SSTORE PUSH2 0x195B JUMP JUMPDEST DUP4 PUSH1 0xFF AND PUSH1 0x2 SUB PUSH2 0x195B JUMPI CALLER PUSH0 SWAP1 DUP2 MSTORE PUSH1 0xD PUSH1 0x20 MSTORE PUSH1 0x40 SWAP1 KECCAK256 SLOAD PUSH1 0xFF AND PUSH2 0x18D9 JUMPI PUSH1 0x40 MLOAD PUSH3 0x461BCD PUSH1 0xE5 SHL DUP2 MSTORE PUSH1 0x20 PUSH1 0x4 DUP3 ADD MSTORE PUSH1 0x9 PUSH1 0x24 DUP3 ADD MSTORE PUSH9 0x3737903837B4B9B7B7 PUSH1 0xB9 SHL PUSH1 0x44 DUP3 ADD MSTORE PUSH1 0x64 ADD PUSH2 0x84A JUMP JUMPDEST PUSH1 0x5 SLOAD PUSH1 0xFF DUP5 AND LT DUP1 ISZERO PUSH2 0x1914 JUMPI POP PUSH1 0x5 DUP4 PUSH1 0xFF AND DUP2 SLOAD DUP2 LT PUSH2 0x18FE JUMPI PUSH2 0x18FE PUSH2 0x2B1C JUMP JUMPDEST PUSH0 SWAP2 DUP3 MSTORE PUSH1 0x20 SWAP1 SWAP2 KECCAK256 ADD SLOAD PUSH1 0x1 PUSH1 0xA0 SHL SWAP1 DIV PUSH1 0xFF AND JUMPDEST PUSH2 0x1930 JUMPI PUSH1 0x40 MLOAD PUSH3 0x461BCD PUSH1 0xE5 SHL DUP2 MSTORE PUSH1 0x4 ADD PUSH2 0x84A SWAP1 PUSH2 0x2B4E JUMP JUMPDEST CALLER PUSH0 SWAP1 DUP2 MSTORE PUSH1 0xD PUSH1 0x20 MSTORE PUSH1 0x40 SWAP1 KECCAK256 DUP1 SLOAD PUSH1 0xFF NOT AND SWAP1 SSTORE PUSH1 0xE DUP1 SLOAD PUSH2 0xFF00 NOT AND PUSH2 0x100 PUSH1 0xFF DUP7 AND MUL OR SWAP1 SSTORE JUMPDEST PUSH1 0x40 DUP1 MLOAD PUSH1 0xFF DUP1 DUP8 AND DUP3 MSTORE DUP6 AND PUSH1 0x20 DUP3 ADD MSTORE CALLER SWAP2 PUSH32 0xE9C9D6CBC07A2EFB2BD75B02599F1BB3B9867C3C4D4430C8525A8158389E4F5D SWAP2 ADD PUSH2 0xA99 JUMP JUMPDEST PUSH1 0x2 DUP1 PUSH1 0x4 SLOAD PUSH1 0xFF AND PUSH1 0x8 DUP2 GT ISZERO PUSH2 0x19B1 JUMPI PUSH2 0x19B1 PUSH2 0x295A JUMP JUMPDEST EQ PUSH2 0x19CE JUMPI PUSH1 0x40 MLOAD PUSH3 0x461BCD PUSH1 0xE5 SHL DUP2 MSTORE PUSH1 0x4 ADD PUSH2 0x84A SWAP1 PUSH2 0x2AA8 JUMP JUMPDEST CALLER PUSH0 SWAP1 DUP2 MSTORE PUSH1 0x6 PUSH1 0x20 MSTORE PUSH1 0x40 SWAP1 KECCAK256 SLOAD PUSH1 0xFF AND PUSH2 0x19FC JUMPI PUSH1 0x40 MLOAD PUSH3 0x461BCD PUSH1 0xE5 SHL DUP2 MSTORE PUSH1 0x4 ADD PUSH2 0x84A SWAP1 PUSH2 0x2ACB JUMP JUMPDEST CALLER PUSH0 SWAP1 DUP2 MSTORE PUSH1 0x6 PUSH1 0x20 MSTORE PUSH1 0x40 SWAP1 KECCAK256 SLOAD PUSH1 0x5 SWAP1 PUSH2 0x1A1D SWAP1 PUSH1 0x1 SWAP1 PUSH1 0xFF AND PUSH2 0x2B03 JUMP JUMPDEST PUSH1 0xFF AND DUP2 SLOAD DUP2 LT PUSH2 0x1A30 JUMPI PUSH2 0x1A30 PUSH2 0x2B1C JUMP JUMPDEST PUSH0 SWAP2 DUP3 MSTORE PUSH1 0x20 SWAP1 SWAP2 KECCAK256 ADD SLOAD PUSH1 0x1 PUSH1 0xA0 SHL SWAP1 DIV PUSH1 0xFF AND PUSH2 0x1A61 JUMPI PUSH1 0x40 MLOAD PUSH3 0x461BCD PUSH1 0xE5 SHL DUP2 MSTORE PUSH1 0x4 ADD PUSH2 0x84A SWAP1 PUSH2 0x2B30 JUMP JUMPDEST CALLER PUSH0 SWAP1 DUP2 MSTORE PUSH1 0x6 PUSH1 0x20 MSTORE PUSH1 0x40 DUP2 KECCAK256 SLOAD PUSH2 0x1A7F SWAP1 PUSH1 0x1 SWAP1 PUSH1 0xFF AND PUSH2 0x2B03 JUMP JUMPDEST SWAP1 POP PUSH1 0x1 PUSH1 0x5 DUP3 PUSH1 0xFF AND DUP2 SLOAD DUP2 LT PUSH2 0x1A99 JUMPI PUSH2 0x1A99 PUSH2 0x2B1C JUMP JUMPDEST PUSH0 SWAP2 DUP3 MSTORE PUSH1 0x20 SWAP1 SWAP2 KECCAK256 ADD SLOAD PUSH1 0x1 PUSH1 0xA8 SHL SWAP1 DIV PUSH1 0xFF AND PUSH1 0x4 DUP2 GT ISZERO PUSH2 0x1ABF JUMPI PUSH2 0x1ABF PUSH2 0x295A JUMP JUMPDEST EQ PUSH2 0x1AF7 JUMPI PUSH1 0x40 MLOAD PUSH3 0x461BCD PUSH1 0xE5 SHL DUP2 MSTORE PUSH1 0x20 PUSH1 0x4 DUP3 ADD MSTORE PUSH1 0x8 PUSH1 0x24 DUP3 ADD MSTORE PUSH8 0x3737BA103BB7B633 PUSH1 0xC1 SHL PUSH1 0x44 DUP3 ADD MSTORE PUSH1 0x64 ADD PUSH2 0x84A JUMP JUMPDEST CALLER PUSH0 DUP2 DUP2 MSTORE PUSH1 0x7 PUSH1 0x20 SWAP1 DUP2 MSTORE PUSH1 0x40 DUP1 DUP4 KECCAK256 DUP8 SWAP1 SSTORE PUSH1 0x9 SWAP1 SWAP2 MSTORE DUP1 DUP3 KECCAK256 DUP1 SLOAD PUSH1 0xFF NOT AND PUSH1 0x1 OR SWAP1 SSTORE MLOAD PUSH32 0xB7DB70CFDF71703C34A6CA0D742714F04FDD7676B4A28607D32028F3C74AE5A5 SWAP2 SWAP1 LOG2 POP POP POP JUMP JUMPDEST PUSH1 0x1 PUSH1 0x1 PUSH1 0xA0 SHL SUB DUP2 AND PUSH0 SWAP1 DUP2 MSTORE PUSH1 0x6 PUSH1 0x20 MSTORE PUSH1 0x40 DUP2 KECCAK256 SLOAD PUSH1 0xFF AND DUP1 PUSH2 0x1B9A JUMPI PUSH1 0x40 MLOAD PUSH3 0x461BCD PUSH1 0xE5 SHL DUP2 MSTORE PUSH1 0x20 PUSH1 0x4 DUP3 ADD MSTORE PUSH1 0x7 PUSH1 0x24 DUP3 ADD MSTORE PUSH7 0x1B9BC81CD9585D PUSH1 0xCA SHL PUSH1 0x44 DUP3 ADD MSTORE PUSH1 0x64 ADD PUSH2 0x84A JUMP JUMPDEST PUSH1 0x6 PUSH1 0x4 SLOAD PUSH1 0xFF AND PUSH1 0x8 DUP2 GT ISZERO PUSH2 0x1BB3 JUMPI PUSH2 0x1BB3 PUSH2 0x295A JUMP JUMPDEST EQ PUSH2 0x1BF9 JUMPI PUSH1 0x1 PUSH1 0x1 PUSH1 0xA0 SHL SUB DUP4 AND CALLER EQ PUSH2 0x1BF9 JUMPI PUSH1 0x40 MLOAD PUSH3 0x461BCD PUSH1 0xE5 SHL DUP2 MSTORE PUSH1 0x20 PUSH1 0x4 DUP3 ADD MSTORE PUSH1 0x6 PUSH1 0x24 DUP3 ADD MSTORE PUSH6 0x3434B23232B7 PUSH1 0xD1 SHL PUSH1 0x44 DUP3 ADD MSTORE PUSH1 0x64 ADD PUSH2 0x84A JUMP JUMPDEST PUSH1 0x5 PUSH2 0x1C06 PUSH1 0x1 DUP4 PUSH2 0x2B03 JUMP JUMPDEST PUSH1 0xFF AND DUP2 SLOAD DUP2 LT PUSH2 0x1C19 JUMPI PUSH2 0x1C19 PUSH2 0x2B1C JUMP JUMPDEST PUSH0 SWAP2 DUP3 MSTORE PUSH1 0x20 SWAP1 SWAP2 KECCAK256 ADD SLOAD PUSH1 0x1 PUSH1 0xA8 SHL SWAP1 DIV PUSH1 0xFF AND SWAP4 SWAP3 POP POP POP JUMP JUMPDEST PUSH1 0x5 DUP1 PUSH1 0x4 SLOAD PUSH1 0xFF AND PUSH1 0x8 DUP2 GT ISZERO PUSH2 0x1C4F JUMPI PUSH2 0x1C4F PUSH2 0x295A JUMP JUMPDEST EQ PUSH2 0x1C6C JUMPI PUSH1 0x40 MLOAD PUSH3 0x461BCD PUSH1 0xE5 SHL DUP2 MSTORE PUSH1 0x4 ADD PUSH2 0x84A SWAP1 PUSH2 0x2AA8 JUMP JUMPDEST CALLER PUSH0 SWAP1 DUP2 MSTORE PUSH1 0x6 PUSH1 0x20 MSTORE PUSH1 0x40 SWAP1 KECCAK256 SLOAD PUSH1 0xFF AND PUSH2 0x1C9A JUMPI PUSH1 0x40 MLOAD PUSH3 0x461BCD PUSH1 0xE5 SHL DUP2 MSTORE PUSH1 0x4 ADD PUSH2 0x84A SWAP1 PUSH2 0x2ACB JUMP JUMPDEST CALLER PUSH0 SWAP1 DUP2 MSTORE PUSH1 0x6 PUSH1 0x20 MSTORE PUSH1 0x40 SWAP1 KECCAK256 SLOAD PUSH1 0x5 SWAP1 PUSH2 0x1CBB SWAP1 PUSH1 0x1 SWAP1 PUSH1 0xFF AND PUSH2 0x2B03 JUMP JUMPDEST PUSH1 0xFF AND DUP2 SLOAD DUP2 LT PUSH2 0x1CCE JUMPI PUSH2 0x1CCE PUSH2 0x2B1C JUMP JUMPDEST PUSH0 SWAP2 DUP3 MSTORE PUSH1 0x20 SWAP1 SWAP2 KECCAK256 ADD SLOAD PUSH1 0x1 PUSH1 0xA0 SHL SWAP1 DIV PUSH1 0xFF AND PUSH2 0x1CFF JUMPI PUSH1 0x40 MLOAD PUSH3 0x461BCD PUSH1 0xE5 SHL DUP2 MSTORE PUSH1 0x4 ADD PUSH2 0x84A SWAP1 PUSH2 0x2B30 JUMP JUMPDEST PUSH1 0x5 SLOAD PUSH1 0xFF DUP4 AND LT PUSH2 0x1D23 JUMPI PUSH1 0x40 MLOAD PUSH3 0x461BCD PUSH1 0xE5 SHL DUP2 MSTORE PUSH1 0x4 ADD PUSH2 0x84A SWAP1 PUSH2 0x2B4E JUMP JUMPDEST CALLER PUSH0 SWAP1 DUP2 MSTORE PUSH1 0xF PUSH1 0x20 MSTORE PUSH1 0x40 SWAP1 KECCAK256 SLOAD PUSH1 0xFF AND DUP1 ISZERO DUP1 ISZERO SWAP1 PUSH2 0x1D56 JUMPI POP PUSH1 0xFF DUP1 DUP3 AND PUSH0 SWAP1 DUP2 MSTORE PUSH1 0x10 PUSH1 0x20 MSTORE PUSH1 0x40 SWAP1 KECCAK256 SLOAD AND ISZERO ISZERO JUMPDEST ISZERO PUSH2 0x1D97 JUMPI PUSH1 0xFF DUP1 DUP3 AND PUSH0 SWAP1 DUP2 MSTORE PUSH1 0x10 PUSH1 0x20 MSTORE PUSH1 0x40 DUP2 KECCAK256 DUP1 SLOAD SWAP1 SWAP3 AND SWAP2 SWAP1 PUSH2 0x1D7D DUP4 PUSH2 0x2C13 JUMP JUMPDEST SWAP2 SWAP1 PUSH2 0x100 EXP DUP2 SLOAD DUP2 PUSH1 0xFF MUL NOT AND SWAP1 DUP4 PUSH1 0xFF AND MUL OR SWAP1 SSTORE POP POP JUMPDEST CALLER PUSH0 SWAP1 DUP2 MSTORE PUSH1 0xF PUSH1 0x20 SWAP1 DUP2 MSTORE PUSH1 0x40 DUP1 DUP4 KECCAK256 DUP1 SLOAD PUSH1 0xFF NOT AND PUSH1 0xFF DUP9 DUP2 AND SWAP2 DUP3 OR SWAP1 SWAP3 SSTORE DUP5 MSTORE PUSH1 0x10 SWAP1 SWAP3 MSTORE DUP3 KECCAK256 DUP1 SLOAD SWAP1 SWAP2 AND SWAP2 PUSH2 0x1DD1 DUP4 PUSH2 0x2BBC JUMP JUMPDEST SWAP2 SWAP1 PUSH2 0x100 EXP DUP2 SLOAD DUP2 PUSH1 0xFF MUL NOT AND SWAP1 DUP4 PUSH1 0xFF AND MUL OR SWAP1 SSTORE POP POP CALLER PUSH1 0x1 PUSH1 0x1 PUSH1 0xA0 SHL SUB AND PUSH32 0xEE56D44878E148B464D0E758841B67CB6ABDBE1ECA1B8788BBC3EDF4B2DA6EA3 DUP5 PUSH1 0x40 MLOAD PUSH2 0x1E2C SWAP2 SWAP1 PUSH1 0xFF SWAP2 SWAP1 SWAP2 AND DUP2 MSTORE PUSH1 0x20 ADD SWAP1 JUMP JUMPDEST PUSH1 0x40 MLOAD DUP1 SWAP2 SUB SWAP1 LOG2 POP POP POP JUMP JUMPDEST PUSH0 DUP1 PUSH1 0x4 SLOAD PUSH1 0xFF AND PUSH1 0x8 DUP2 GT ISZERO PUSH2 0x1E52 JUMPI PUSH2 0x1E52 PUSH2 0x295A JUMP JUMPDEST EQ PUSH2 0x1E6F JUMPI PUSH1 0x40 MLOAD PUSH3 0x461BCD PUSH1 0xE5 SHL DUP2 MSTORE PUSH1 0x4 ADD PUSH2 0x84A SWAP1 PUSH2 0x2AA8 JUMP JUMPDEST PUSH1 0x1 SLOAD PUSH1 0x5 SLOAD PUSH2 0x100 SWAP1 SWAP2 DIV PUSH1 0xFF AND GT PUSH2 0x1EB4 JUMPI PUSH1 0x40 MLOAD PUSH3 0x461BCD PUSH1 0xE5 SHL DUP2 MSTORE PUSH1 0x4 ADD PUSH2 0x84A SWAP1 PUSH1 0x20 DUP1 DUP3 MSTORE PUSH1 0x4 SWAP1 DUP3 ADD MSTORE PUSH4 0x199D5B1B PUSH1 0xE2 SHL PUSH1 0x40 DUP3 ADD MSTORE PUSH1 0x60 ADD SWAP1 JUMP JUMPDEST CALLER PUSH0 SWAP1 DUP2 MSTORE PUSH1 0x6 PUSH1 0x20 MSTORE PUSH1 0x40 SWAP1 KECCAK256 SLOAD PUSH1 0xFF AND ISZERO PUSH2 0x1EFC JUMPI PUSH1 0x40 MLOAD PUSH3 0x461BCD PUSH1 0xE5 SHL DUP2 MSTORE PUSH1 0x20 PUSH1 0x4 DUP3 ADD MSTORE PUSH1 0x6 PUSH1 0x24 DUP3 ADD MSTORE PUSH6 0x1A9BDA5B9959 PUSH1 0xD2 SHL PUSH1 0x44 DUP3 ADD MSTORE PUSH1 0x64 ADD PUSH2 0x84A JUMP JUMPDEST PUSH0 SLOAD PUSH1 0x1 PUSH1 0x1 PUSH1 0xA0 SHL SUB AND CALLER SUB PUSH2 0x1F48 JUMPI PUSH1 0x40 MLOAD PUSH3 0x461BCD PUSH1 0xE5 SHL DUP2 MSTORE PUSH1 0x20 PUSH1 0x4 DUP3 ADD MSTORE PUSH1 0x10 PUSH1 0x24 DUP3 ADD MSTORE PUSH16 0x3437B9BA1031B0B73737BA103537B4B7 PUSH1 0x81 SHL PUSH1 0x44 DUP3 ADD MSTORE PUSH1 0x64 ADD PUSH2 0x84A JUMP JUMPDEST PUSH1 0x2 SLOAD CALLVALUE EQ PUSH2 0x1F8A JUMPI PUSH1 0x40 MLOAD PUSH3 0x461BCD PUSH1 0xE5 SHL DUP2 MSTORE PUSH1 0x20 PUSH1 0x4 DUP3 ADD MSTORE PUSH1 0xE PUSH1 0x24 DUP3 ADD MSTORE PUSH14 0xE6E8C2D6CA40DAD2E6DAC2E8C6D PUSH1 0x93 SHL PUSH1 0x44 DUP3 ADD MSTORE PUSH1 0x64 ADD PUSH2 0x84A JUMP JUMPDEST PUSH1 0x40 DUP1 MLOAD PUSH1 0x60 DUP2 ADD DUP3 MSTORE CALLER DUP2 MSTORE PUSH1 0x1 PUSH1 0x20 DUP3 ADD MSTORE PUSH1 0x5 SWAP2 DUP2 ADD PUSH0 SWAP1 MSTORE DUP2 SLOAD PUSH1 0x1 DUP2 ADD DUP4 SSTORE PUSH0 SWAP3 DUP4 MSTORE PUSH1 0x20 SWAP3 DUP4 SWAP1 KECCAK256 DUP3 MLOAD SWAP2 ADD DUP1 SLOAD SWAP4 DUP4 ADD MLOAD ISZERO ISZERO PUSH1 0x1 PUSH1 0xA0 SHL MUL PUSH1 0x1 PUSH1 0x1 PUSH1 0xA8 SHL SUB NOT SWAP1 SWAP5 AND PUSH1 0x1 PUSH1 0x1 PUSH1 0xA0 SHL SUB SWAP1 SWAP3 AND SWAP2 SWAP1 SWAP2 OR SWAP3 SWAP1 SWAP3 OR DUP1 DUP4 SSTORE PUSH1 0x40 DUP3 ADD MLOAD SWAP2 SWAP3 SWAP2 SWAP1 DUP3 SWAP1 PUSH1 0xFF PUSH1 0xA8 SHL NOT AND PUSH1 0x1 PUSH1 0xA8 SHL DUP4 PUSH1 0x4 DUP2 GT ISZERO PUSH2 0x2015 JUMPI PUSH2 0x2015 PUSH2 0x295A JUMP JUMPDEST MUL OR SWAP1 SSTORE POP POP PUSH1 0x5 SLOAD PUSH0 SWAP2 POP PUSH2 0x202D SWAP1 PUSH1 0x1 SWAP1 PUSH2 0x2C2E JUMP JUMPDEST SWAP1 POP PUSH2 0x203A DUP2 PUSH1 0x1 PUSH2 0x2C41 JUMP JUMPDEST CALLER PUSH0 SWAP1 DUP2 MSTORE PUSH1 0x6 PUSH1 0x20 MSTORE PUSH1 0x40 SWAP1 KECCAK256 DUP1 SLOAD PUSH1 0xFF NOT AND PUSH1 0xFF SWAP3 SWAP1 SWAP3 AND SWAP2 SWAP1 SWAP2 OR SWAP1 SSTORE CALLVALUE ISZERO PUSH2 0x2077 JUMPI CALLVALUE PUSH1 0x12 PUSH0 DUP3 DUP3 SLOAD PUSH2 0x2071 SWAP2 SWAP1 PUSH2 0x2C5A JUMP JUMPDEST SWAP1 SWAP2 SSTORE POP POP JUMPDEST PUSH1 0x40 MLOAD PUSH1 0xFF DUP3 AND DUP2 MSTORE CALLER SWAP1 PUSH32 0xD0EB1B69A7DD0E2A54C7F88607B1A7FDB2088D2B3685B36E3F5148B8F19F7757 SWAP1 PUSH1 0x20 ADD PUSH1 0x40 MLOAD DUP1 SWAP2 SUB SWAP1 LOG2 POP POP JUMP JUMPDEST PUSH1 0x3 DUP1 PUSH1 0x4 SLOAD PUSH1 0xFF AND PUSH1 0x8 DUP2 GT ISZERO PUSH2 0x20CD JUMPI PUSH2 0x20CD PUSH2 0x295A JUMP JUMPDEST EQ PUSH2 0x20EA JUMPI PUSH1 0x40 MLOAD PUSH3 0x461BCD PUSH1 0xE5 SHL DUP2 MSTORE PUSH1 0x4 ADD PUSH2 0x84A SWAP1 PUSH2 0x2AA8 JUMP JUMPDEST PUSH1 0x4 SLOAD PUSH1 0x1 PUSH1 0x48 SHL SWAP1 DIV PUSH1 0x1 PUSH1 0x1 PUSH1 0x40 SHL SUB AND TIMESTAMP GT PUSH2 0x211B JUMPI PUSH1 0x40 MLOAD PUSH3 0x461BCD PUSH1 0xE5 SHL DUP2 MSTORE PUSH1 0x4 ADD PUSH2 0x84A SWAP1 PUSH2 0x2B99 JUMP JUMPDEST PUSH2 0xB2A PUSH1 0x4 PUSH1 0x5 PUSH2 0x2568 JUMP JUMPDEST PUSH0 DUP1 PUSH1 0x4 SLOAD PUSH1 0xFF AND PUSH1 0x8 DUP2 GT ISZERO PUSH2 0x2140 JUMPI PUSH2 0x2140 PUSH2 0x295A JUMP JUMPDEST EQ PUSH2 0x215D JUMPI PUSH1 0x40 MLOAD PUSH3 0x461BCD PUSH1 0xE5 SHL DUP2 MSTORE PUSH1 0x4 ADD PUSH2 0x84A SWAP1 PUSH2 0x2AA8 JUMP JUMPDEST PUSH0 SLOAD PUSH1 0x1 PUSH1 0x1 PUSH1 0xA0 SHL SUB AND CALLER EQ PUSH2 0x21A2 JUMPI PUSH1 0x40 MLOAD PUSH3 0x461BCD PUSH1 0xE5 SHL DUP2 MSTORE PUSH1 0x20 PUSH1 0x4 DUP3 ADD MSTORE PUSH1 0x9 PUSH1 0x24 DUP3 ADD MSTORE PUSH9 0x1BDB9B1E481A1BDCDD PUSH1 0xBA SHL PUSH1 0x44 DUP3 ADD MSTORE PUSH1 0x64 ADD PUSH2 0x84A JUMP JUMPDEST PUSH1 0x1 SLOAD PUSH1 0x5 SLOAD PUSH1 0xFF SWAP1 SWAP2 AND GT ISZERO PUSH2 0x21E5 JUMPI PUSH1 0x40 MLOAD PUSH3 0x461BCD PUSH1 0xE5 SHL DUP2 MSTORE PUSH1 0x20 PUSH1 0x4 DUP3 ADD MSTORE PUSH1 0x7 PUSH1 0x24 DUP3 ADD MSTORE PUSH7 0x746F6F20666577 PUSH1 0xC8 SHL PUSH1 0x44 DUP3 ADD MSTORE PUSH1 0x64 ADD PUSH2 0x84A JUMP JUMPDEST PUSH1 0x3 SLOAD PUSH2 0xB2A SWAP1 PUSH1 0x1 SWAP1 PUSH4 0xFFFFFFFF AND PUSH2 0x2568 JUMP JUMPDEST PUSH1 0x1 DUP1 PUSH1 0x4 SLOAD PUSH1 0xFF AND PUSH1 0x8 DUP2 GT ISZERO PUSH2 0x2214 JUMPI PUSH2 0x2214 PUSH2 0x295A JUMP JUMPDEST EQ PUSH2 0x2231 JUMPI PUSH1 0x40 MLOAD PUSH3 0x461BCD PUSH1 0xE5 SHL DUP2 MSTORE PUSH1 0x4 ADD PUSH2 0x84A SWAP1 PUSH2 0x2AA8 JUMP JUMPDEST PUSH0 SLOAD PUSH1 0x1 PUSH1 0x1 PUSH1 0xA0 SHL SUB AND CALLER EQ PUSH2 0x2276 JUMPI PUSH1 0x40 MLOAD PUSH3 0x461BCD PUSH1 0xE5 SHL DUP2 MSTORE PUSH1 0x20 PUSH1 0x4 DUP3 ADD MSTORE PUSH1 0x9 PUSH1 0x24 DUP3 ADD MSTORE PUSH9 0x1BDB9B1E481A1BDCDD PUSH1 0xBA SHL PUSH1 0x44 DUP3 ADD MSTORE PUSH1 0x64 ADD PUSH2 0x84A JUMP JUMPDEST PUSH1 0x5 SLOAD DUP3 DUP2 EQ PUSH2 0x22BA JUMPI PUSH1 0x40 MLOAD PUSH3 0x461BCD PUSH1 0xE5 SHL DUP2 MSTORE PUSH1 0x20 PUSH1 0x4 DUP3 ADD MSTORE PUSH1 0xF PUSH1 0x24 DUP3 ADD MSTORE PUSH15 0xD8CADCCEE8D040DAD2E6DAC2E8C6D PUSH1 0x8B SHL PUSH1 0x44 DUP3 ADD MSTORE PUSH1 0x64 ADD PUSH2 0x84A JUMP JUMPDEST PUSH0 DUP1 JUMPDEST DUP3 DUP2 LT ISZERO PUSH2 0x245E JUMPI DUP6 DUP6 DUP3 DUP2 DUP2 LT PUSH2 0x22D7 JUMPI PUSH2 0x22D7 PUSH2 0x2B1C JUMP JUMPDEST SWAP1 POP PUSH1 0x20 MUL ADD PUSH1 0x20 DUP2 ADD SWAP1 PUSH2 0x22EC SWAP2 SWAP1 PUSH2 0x2C6D JUMP JUMPDEST PUSH1 0x5 DUP3 DUP2 SLOAD DUP2 LT PUSH2 0x22FF JUMPI PUSH2 0x22FF PUSH2 0x2B1C JUMP JUMPDEST PUSH0 SWAP2 DUP3 MSTORE PUSH1 0x20 SWAP1 SWAP2 KECCAK256 ADD DUP1 SLOAD PUSH1 0xFF PUSH1 0xA8 SHL NOT AND PUSH1 0x1 PUSH1 0xA8 SHL DUP4 PUSH1 0x4 DUP2 GT ISZERO PUSH2 0x2329 JUMPI PUSH2 0x2329 PUSH2 0x295A JUMP JUMPDEST MUL OR SWAP1 SSTORE POP PUSH1 0x1 DUP7 DUP7 DUP4 DUP2 DUP2 LT PUSH2 0x2342 JUMPI PUSH2 0x2342 PUSH2 0x2B1C JUMP JUMPDEST SWAP1 POP PUSH1 0x20 MUL ADD PUSH1 0x20 DUP2 ADD SWAP1 PUSH2 0x2357 SWAP2 SWAP1 PUSH2 0x2C6D JUMP JUMPDEST PUSH1 0x4 DUP2 GT ISZERO PUSH2 0x2368 JUMPI PUSH2 0x2368 PUSH2 0x295A JUMP JUMPDEST SUB PUSH2 0x237B JUMPI DUP2 PUSH2 0x2377 DUP2 PUSH2 0x2C8B JUMP JUMPDEST SWAP3 POP POP JUMPDEST PUSH1 0x4 DUP7 DUP7 DUP4 DUP2 DUP2 LT PUSH2 0x238F JUMPI PUSH2 0x238F PUSH2 0x2B1C JUMP JUMPDEST SWAP1 POP PUSH1 0x20 MUL ADD PUSH1 0x20 DUP2 ADD SWAP1 PUSH2 0x23A4 SWAP2 SWAP1 PUSH2 0x2C6D JUMP JUMPDEST PUSH1 0x4 DUP2 GT ISZERO PUSH2 0x23B5 JUMPI PUSH2 0x23B5 PUSH2 0x295A JUMP JUMPDEST SUB PUSH2 0x2456 JUMPI PUSH1 0x1 PUSH1 0xC PUSH0 PUSH1 0x5 DUP5 DUP2 SLOAD DUP2 LT PUSH2 0x23D2 JUMPI PUSH2 0x23D2 PUSH2 0x2B1C JUMP JUMPDEST PUSH0 SWAP2 DUP3 MSTORE PUSH1 0x20 DUP1 DUP4 KECCAK256 SWAP2 SWAP1 SWAP2 ADD SLOAD PUSH1 0x1 PUSH1 0x1 PUSH1 0xA0 SHL SUB AND DUP4 MSTORE DUP3 ADD SWAP3 SWAP1 SWAP3 MSTORE PUSH1 0x40 ADD DUP2 KECCAK256 DUP1 SLOAD PUSH1 0xFF NOT AND SWAP3 ISZERO ISZERO SWAP3 SWAP1 SWAP3 OR SWAP1 SWAP2 SSTORE PUSH1 0x5 DUP1 SLOAD PUSH1 0x1 SWAP3 PUSH1 0xD SWAP3 SWAP1 SWAP2 DUP6 SWAP1 DUP2 LT PUSH2 0x2422 JUMPI PUSH2 0x2422 PUSH2 0x2B1C JUMP JUMPDEST PUSH0 SWAP2 DUP3 MSTORE PUSH1 0x20 DUP1 DUP4 KECCAK256 SWAP2 SWAP1 SWAP2 ADD SLOAD PUSH1 0x1 PUSH1 0x1 PUSH1 0xA0 SHL SUB AND DUP4 MSTORE DUP3 ADD SWAP3 SWAP1 SWAP3 MSTORE PUSH1 0x40 ADD SWAP1 KECCAK256 DUP1 SLOAD PUSH1 0xFF NOT AND SWAP2 ISZERO ISZERO SWAP2 SWAP1 SWAP2 OR SWAP1 SSTORE JUMPDEST PUSH1 0x1 ADD PUSH2 0x22BD JUMP JUMPDEST POP PUSH1 0x1 SLOAD PUSH3 0x10000 SWAP1 DIV PUSH1 0xFF AND DUP2 EQ PUSH2 0x24B1 JUMPI PUSH1 0x40 MLOAD PUSH3 0x461BCD PUSH1 0xE5 SHL DUP2 MSTORE PUSH1 0x20 PUSH1 0x4 DUP3 ADD MSTORE PUSH1 0x15 PUSH1 0x24 DUP3 ADD MSTORE PUSH21 0xEEDED8ECCAE640C6DEEADCE840DAD2E6DAC2E8C6D PUSH1 0x5B SHL PUSH1 0x44 DUP3 ADD MSTORE PUSH1 0x64 ADD PUSH2 0x84A JUMP JUMPDEST PUSH1 0x11 DUP1 SLOAD PUSH4 0xFFFFFFFF NOT AND PUSH4 0xFFFFFFFF DUP4 AND SWAP1 DUP2 OR SWAP1 SWAP2 SSTORE PUSH2 0x24D3 SWAP1 DUP4 PUSH2 0x2CA3 JUMP JUMPDEST PUSH1 0x11 DUP1 SLOAD PUSH4 0xFFFFFFFF SWAP3 SWAP1 SWAP3 AND PUSH1 0x1 PUSH1 0x20 SHL MUL PUSH8 0xFFFFFFFF00000000 NOT SWAP1 SWAP3 AND SWAP2 SWAP1 SWAP2 OR SWAP1 SSTORE PUSH1 0x4 DUP1 SLOAD PUSH9 0xFFFFFFFFFFFFFFFF00 NOT AND PUSH2 0x100 SWAP1 DUP2 OR SWAP2 DUP3 SWAP1 SSTORE PUSH1 0x40 MLOAD SWAP2 DIV PUSH1 0x1 PUSH1 0x1 PUSH1 0x40 SHL SUB AND DUP2 MSTORE PUSH32 0x7C178A84A532DCF384B5F27F769236737BF60960E2F89ED77C47940ADB9A1DC1 SWAP1 PUSH1 0x20 ADD PUSH1 0x40 MLOAD DUP1 SWAP2 SUB SWAP1 LOG1 PUSH1 0x3 SLOAD PUSH2 0x1445 SWAP1 PUSH1 0x2 SWAP1 PUSH1 0x1 PUSH1 0x20 SHL SWAP1 DIV PUSH4 0xFFFFFFFF AND JUMPDEST PUSH1 0x4 DUP1 SLOAD DUP4 SWAP2 SWAP1 PUSH1 0xFF NOT AND PUSH1 0x1 DUP4 PUSH1 0x8 DUP2 GT ISZERO PUSH2 0x2587 JUMPI PUSH2 0x2587 PUSH2 0x295A JUMP JUMPDEST MUL OR SWAP1 SSTORE POP PUSH2 0x259C PUSH4 0xFFFFFFFF DUP3 AND TIMESTAMP PUSH2 0x2C5A JUMP JUMPDEST PUSH1 0x4 DUP1 SLOAD PUSH17 0xFFFFFFFFFFFFFFFF000000000000000000 NOT AND PUSH1 0x1 PUSH1 0x48 SHL PUSH1 0x1 PUSH1 0x1 PUSH1 0x40 SHL SUB SWAP4 DUP5 AND DUP2 MUL SWAP2 SWAP1 SWAP2 OR SWAP2 DUP3 SWAP1 SSTORE PUSH1 0x40 MLOAD PUSH32 0xA168AAA8E825B21E98DCEE38B892D4129112660726ABA9D9565661C2D3F2BF73 SWAP4 PUSH2 0x2602 SWAP4 DUP8 SWAP4 SWAP1 DIV AND SWAP1 PUSH2 0x2CC7 JUMP JUMPDEST PUSH1 0x40 MLOAD DUP1 SWAP2 SUB SWAP1 LOG1 POP POP JUMP JUMPDEST PUSH0 PUSH1 0x5 DUP3 PUSH1 0xFF AND DUP2 SLOAD DUP2 LT PUSH2 0x2625 JUMPI PUSH2 0x2625 PUSH2 0x2B1C JUMP JUMPDEST PUSH0 SWAP2 DUP3 MSTORE PUSH1 0x20 SWAP1 SWAP2 KECCAK256 ADD DUP1 SLOAD SWAP2 ISZERO ISZERO PUSH1 0x1 PUSH1 0xA0 SHL MUL PUSH1 0xFF PUSH1 0xA0 SHL NOT SWAP1 SWAP3 AND SWAP2 SWAP1 SWAP2 OR SWAP1 SSTORE PUSH1 0x1 PUSH1 0x5 DUP3 PUSH1 0xFF AND DUP2 SLOAD DUP2 LT PUSH2 0x2661 JUMPI PUSH2 0x2661 PUSH2 0x2B1C JUMP JUMPDEST PUSH0 SWAP2 DUP3 MSTORE PUSH1 0x20 SWAP1 SWAP2 KECCAK256 ADD SLOAD PUSH1 0x1 PUSH1 0xA8 SHL SWAP1 DIV PUSH1 0xFF AND PUSH1 0x4 DUP2 GT ISZERO PUSH2 0x2687 JUMPI PUSH2 0x2687 PUSH2 0x295A JUMP JUMPDEST SUB PUSH2 0x26D4 JUMPI PUSH1 0x11 SLOAD PUSH4 0xFFFFFFFF AND ISZERO PUSH2 0x26CF JUMPI PUSH1 0x11 DUP1 SLOAD PUSH4 0xFFFFFFFF AND SWAP1 PUSH0 PUSH2 0x26AF DUP4 PUSH2 0x2CEB JUMP JUMPDEST SWAP2 SWAP1 PUSH2 0x100 EXP DUP2 SLOAD DUP2 PUSH4 0xFFFFFFFF MUL NOT AND SWAP1 DUP4 PUSH4 0xFFFFFFFF AND MUL OR SWAP1 SSTORE POP POP JUMPDEST PUSH2 0x2726 JUMP JUMPDEST PUSH1 0x11 SLOAD PUSH1 0x1 PUSH1 0x20 SHL SWAP1 DIV PUSH4 0xFFFFFFFF AND ISZERO PUSH2 0x2726 JUMPI PUSH1 0x11 DUP1 SLOAD PUSH1 0x1 PUSH1 0x20 SHL SWAP1 DIV PUSH4 0xFFFFFFFF AND SWAP1 PUSH1 0x4 PUSH2 0x2706 DUP4 PUSH2 0x2CEB JUMP JUMPDEST SWAP2 SWAP1 PUSH2 0x100 EXP DUP2 SLOAD DUP2 PUSH4 0xFFFFFFFF MUL NOT AND SWAP1 DUP4 PUSH4 0xFFFFFFFF AND MUL OR SWAP1 SSTORE POP POP JUMPDEST PUSH1 0x40 MLOAD PUSH1 0xFF DUP3 AND DUP2 MSTORE PUSH32 0xDA9F09A62E6F9C4451AC1EB8A8036191BD92BE66DDE0E6732E3E9108EA18B8B0 SWAP1 PUSH1 0x20 ADD PUSH1 0x40 MLOAD DUP1 SWAP2 SUB SWAP1 LOG1 POP JUMP JUMPDEST PUSH1 0x11 SLOAD PUSH0 SWAP1 PUSH4 0xFFFFFFFF AND DUP2 SUB PUSH2 0x27B8 JUMPI PUSH2 0x277B PUSH1 0x6 PUSH0 PUSH2 0x2568 JUMP JUMPDEST PUSH32 0x4DF34531B3F238BC8F90AD83236D8C752E7444E434BB5FC99F888F0A6345C0E7 PUSH0 PUSH1 0x40 MLOAD PUSH2 0x27AA SWAP2 SWAP1 PUSH2 0x2D00 JUMP JUMPDEST PUSH1 0x40 MLOAD DUP1 SWAP2 SUB SWAP1 LOG1 POP PUSH1 0x1 SWAP1 JUMP JUMPDEST PUSH1 0x11 SLOAD PUSH4 0xFFFFFFFF PUSH1 0x1 PUSH1 0x20 SHL DUP3 DIV DUP2 AND SWAP2 AND LT PUSH2 0x280B JUMPI PUSH2 0x27DB PUSH1 0x6 PUSH0 PUSH2 0x2568 JUMP JUMPDEST PUSH32 0x4DF34531B3F238BC8F90AD83236D8C752E7444E434BB5FC99F888F0A6345C0E7 PUSH1 0x1 PUSH1 0x40 MLOAD PUSH2 0x27AA SWAP2 SWAP1 PUSH2 0x2D00 JUMP JUMPDEST POP PUSH0 SWAP1 JUMP JUMPDEST PUSH1 0x5 SLOAD PUSH0 JUMPDEST DUP2 DUP2 LT ISZERO PUSH2 0x28D5 JUMPI PUSH0 PUSH1 0x5 DUP3 DUP2 SLOAD DUP2 LT PUSH2 0x2831 JUMPI PUSH2 0x2831 PUSH2 0x2B1C JUMP JUMPDEST PUSH0 SWAP2 DUP3 MSTORE PUSH1 0x20 SWAP1 SWAP2 KECCAK256 ADD SLOAD PUSH1 0x1 PUSH1 0x1 PUSH1 0xA0 SHL SUB AND SWAP1 POP DUP1 ISZERO PUSH2 0x28B3 JUMPI PUSH1 0x1 PUSH1 0x1 PUSH1 0xA0 SHL SUB DUP2 AND PUSH0 SWAP1 DUP2 MSTORE PUSH1 0xB PUSH1 0x20 SWAP1 DUP2 MSTORE PUSH1 0x40 DUP1 DUP4 KECCAK256 DUP1 SLOAD PUSH1 0xFF NOT SWAP1 DUP2 AND SWAP1 SWAP2 SSTORE PUSH1 0x7 DUP4 MSTORE DUP2 DUP5 KECCAK256 DUP5 SWAP1 SSTORE PUSH1 0x8 DUP4 MSTORE DUP2 DUP5 KECCAK256 DUP1 SLOAD DUP3 AND SWAP1 SSTORE PUSH1 0x9 DUP4 MSTORE DUP2 DUP5 KECCAK256 DUP1 SLOAD DUP3 AND SWAP1 SSTORE PUSH1 0xA DUP4 MSTORE DUP2 DUP5 KECCAK256 DUP1 SLOAD DUP3 AND SWAP1 SSTORE PUSH1 0xF SWAP1 SWAP3 MSTORE SWAP1 SWAP2 KECCAK256 DUP1 SLOAD SWAP1 SWAP2 AND SWAP1 SSTORE JUMPDEST POP PUSH1 0xFF DUP2 AND PUSH0 SWAP1 DUP2 MSTORE PUSH1 0x10 PUSH1 0x20 MSTORE PUSH1 0x40 SWAP1 KECCAK256 DUP1 SLOAD PUSH1 0xFF NOT AND SWAP1 SSTORE PUSH1 0x1 ADD PUSH2 0x2815 JUMP JUMPDEST POP POP PUSH1 0xE DUP1 SLOAD PUSH2 0xFFFF NOT AND PUSH2 0xFFFF OR SWAP1 SSTORE JUMP JUMPDEST DUP1 CALLDATALOAD PUSH1 0xFF DUP2 AND DUP2 EQ PUSH2 0x28F8 JUMPI PUSH0 DUP1 REVERT JUMPDEST SWAP2 SWAP1 POP JUMP JUMPDEST PUSH0 PUSH1 0x20 DUP3 DUP5 SUB SLT ISZERO PUSH2 0x290D JUMPI PUSH0 DUP1 REVERT JUMPDEST PUSH2 0x2916 DUP3 PUSH2 0x28E8 JUMP JUMPDEST SWAP4 SWAP3 POP POP POP JUMP JUMPDEST PUSH0 PUSH1 0x20 DUP3 DUP5 SUB SLT ISZERO PUSH2 0x292D JUMPI PUSH0 DUP1 REVERT JUMPDEST DUP2 CALLDATALOAD PUSH1 0x1 PUSH1 0x1 PUSH1 0xA0 SHL SUB DUP2 AND DUP2 EQ PUSH2 0x2916 JUMPI PUSH0 DUP1 REVERT JUMPDEST PUSH0 PUSH1 0x20 DUP3 DUP5 SUB SLT ISZERO PUSH2 0x2953 JUMPI PUSH0 DUP1 REVERT JUMPDEST POP CALLDATALOAD SWAP2 SWAP1 POP JUMP JUMPDEST PUSH4 0x4E487B71 PUSH1 0xE0 SHL PUSH0 MSTORE PUSH1 0x21 PUSH1 0x4 MSTORE PUSH1 0x24 PUSH0 REVERT JUMPDEST PUSH1 0x5 DUP2 LT PUSH2 0x297E JUMPI PUSH2 0x297E PUSH2 0x295A JUMP JUMPDEST SWAP1 MSTORE JUMP JUMPDEST PUSH1 0x1 PUSH1 0x1 PUSH1 0xA0 SHL SUB DUP5 AND DUP2 MSTORE DUP3 ISZERO ISZERO PUSH1 0x20 DUP3 ADD MSTORE PUSH1 0x60 DUP2 ADD PUSH2 0x29A7 PUSH1 0x40 DUP4 ADD DUP5 PUSH2 0x296E JUMP JUMPDEST SWAP5 SWAP4 POP POP POP POP JUMP JUMPDEST PUSH0 DUP1 PUSH1 0x40 DUP4 DUP6 SUB SLT ISZERO PUSH2 0x29C0 JUMPI PUSH0 DUP1 REVERT JUMPDEST PUSH2 0x29C9 DUP4 PUSH2 0x28E8 JUMP JUMPDEST SWAP5 PUSH1 0x20 SWAP4 SWAP1 SWAP4 ADD CALLDATALOAD SWAP4 POP POP POP JUMP JUMPDEST PUSH0 DUP1 PUSH1 0x40 DUP4 DUP6 SUB SLT ISZERO PUSH2 0x29E8 JUMPI PUSH0 DUP1 REVERT JUMPDEST PUSH2 0x29F1 DUP4 PUSH2 0x28E8 JUMP JUMPDEST SWAP2 POP PUSH2 0x29FF PUSH1 0x20 DUP5 ADD PUSH2 0x28E8 JUMP JUMPDEST SWAP1 POP SWAP3 POP SWAP3 SWAP1 POP JUMP JUMPDEST PUSH1 0x20 DUP2 ADD PUSH2 0x2A16 DUP3 DUP5 PUSH2 0x296E JUMP JUMPDEST SWAP3 SWAP2 POP POP JUMP JUMPDEST PUSH1 0x9 DUP2 LT PUSH2 0x297E JUMPI PUSH2 0x297E PUSH2 0x295A JUMP JUMPDEST PUSH1 0x20 DUP2 ADD PUSH2 0x2A16 DUP3 DUP5 PUSH2 0x2A1C JUMP JUMPDEST PUSH0 DUP1 PUSH1 0x20 DUP4 DUP6 SUB SLT ISZERO PUSH2 0x2A4B JUMPI PUSH0 DUP1 REVERT JUMPDEST DUP3 CALLDATALOAD PUSH1 0x1 PUSH1 0x1 PUSH1 0x40 SHL SUB DUP1 DUP3 GT ISZERO PUSH2 0x2A61 JUMPI PUSH0 DUP1 REVERT JUMPDEST DUP2 DUP6 ADD SWAP2 POP DUP6 PUSH1 0x1F DUP4 ADD SLT PUSH2 0x2A74 JUMPI PUSH0 DUP1 REVERT JUMPDEST DUP2 CALLDATALOAD DUP2 DUP2 GT ISZERO PUSH2 0x2A82 JUMPI PUSH0 DUP1 REVERT JUMPDEST DUP7 PUSH1 0x20 DUP3 PUSH1 0x5 SHL DUP6 ADD ADD GT ISZERO PUSH2 0x2A96 JUMPI PUSH0 DUP1 REVERT JUMPDEST PUSH1 0x20 SWAP3 SWAP1 SWAP3 ADD SWAP7 SWAP2 SWAP6 POP SWAP1 SWAP4 POP POP POP POP JUMP JUMPDEST PUSH1 0x20 DUP1 DUP3 MSTORE PUSH1 0x9 SWAP1 DUP3 ADD MSTORE PUSH9 0x626164207068617365 PUSH1 0xB8 SHL PUSH1 0x40 DUP3 ADD MSTORE PUSH1 0x60 ADD SWAP1 JUMP JUMPDEST PUSH1 0x20 DUP1 DUP3 MSTORE PUSH1 0xA SWAP1 DUP3 ADD MSTORE PUSH10 0x1B9BDD081A9BDA5B9959 PUSH1 0xB2 SHL PUSH1 0x40 DUP3 ADD MSTORE PUSH1 0x60 ADD SWAP1 JUMP JUMPDEST PUSH4 0x4E487B71 PUSH1 0xE0 SHL PUSH0 MSTORE PUSH1 0x11 PUSH1 0x4 MSTORE PUSH1 0x24 PUSH0 REVERT JUMPDEST PUSH1 0xFF DUP3 DUP2 AND DUP3 DUP3 AND SUB SWAP1 DUP2 GT ISZERO PUSH2 0x2A16 JUMPI PUSH2 0x2A16 PUSH2 0x2AEF JUMP JUMPDEST PUSH4 0x4E487B71 PUSH1 0xE0 SHL PUSH0 MSTORE PUSH1 0x32 PUSH1 0x4 MSTORE PUSH1 0x24 PUSH0 REVERT JUMPDEST PUSH1 0x20 DUP1 DUP3 MSTORE PUSH1 0x4 SWAP1 DUP3 ADD MSTORE PUSH4 0x19195859 PUSH1 0xE2 SHL PUSH1 0x40 DUP3 ADD MSTORE PUSH1 0x60 ADD SWAP1 JUMP JUMPDEST PUSH1 0x20 DUP1 DUP3 MSTORE PUSH1 0xA SWAP1 DUP3 ADD MSTORE PUSH10 0x189859081D185C99D95D PUSH1 0xB2 SHL PUSH1 0x40 DUP3 ADD MSTORE PUSH1 0x60 ADD SWAP1 JUMP JUMPDEST PUSH1 0x2 DUP2 LT PUSH2 0x297E JUMPI PUSH2 0x297E PUSH2 0x295A JUMP JUMPDEST PUSH1 0xFF DUP4 AND DUP2 MSTORE PUSH1 0x40 DUP2 ADD PUSH2 0x2916 PUSH1 0x20 DUP4 ADD DUP5 PUSH2 0x2B72 JUMP JUMPDEST PUSH1 0x20 DUP1 DUP3 MSTORE PUSH1 0x9 SWAP1 DUP3 ADD MSTORE PUSH9 0x746F6F206561726C79 PUSH1 0xB8 SHL PUSH1 0x40 DUP3 ADD MSTORE PUSH1 0x60 ADD SWAP1 JUMP JUMPDEST PUSH0 PUSH1 0xFF DUP3 AND PUSH1 0xFF DUP2 SUB PUSH2 0x2BD1 JUMPI PUSH2 0x2BD1 PUSH2 0x2AEF JUMP JUMPDEST PUSH1 0x1 ADD SWAP3 SWAP2 POP POP JUMP JUMPDEST PUSH0 PUSH1 0x1 PUSH1 0x1 PUSH1 0x40 SHL SUB DUP1 DUP4 AND DUP2 DUP2 SUB PUSH2 0x2BF5 JUMPI PUSH2 0x2BF5 PUSH2 0x2AEF JUMP JUMPDEST PUSH1 0x1 ADD SWAP4 SWAP3 POP POP POP JUMP JUMPDEST PUSH4 0x4E487B71 PUSH1 0xE0 SHL PUSH0 MSTORE PUSH1 0x41 PUSH1 0x4 MSTORE PUSH1 0x24 PUSH0 REVERT JUMPDEST PUSH0 PUSH1 0xFF DUP3 AND DUP1 PUSH2 0x2C25 JUMPI PUSH2 0x2C25 PUSH2 0x2AEF JUMP JUMPDEST PUSH0 NOT ADD SWAP3 SWAP2 POP POP JUMP JUMPDEST DUP2 DUP2 SUB DUP2 DUP2 GT ISZERO PUSH2 0x2A16 JUMPI PUSH2 0x2A16 PUSH2 0x2AEF JUMP JUMPDEST PUSH1 0xFF DUP2 DUP2 AND DUP4 DUP3 AND ADD SWAP1 DUP2 GT ISZERO PUSH2 0x2A16 JUMPI PUSH2 0x2A16 PUSH2 0x2AEF JUMP JUMPDEST DUP1 DUP3 ADD DUP1 DUP3 GT ISZERO PUSH2 0x2A16 JUMPI PUSH2 0x2A16 PUSH2 0x2AEF JUMP JUMPDEST PUSH0 PUSH1 0x20 DUP3 DUP5 SUB SLT ISZERO PUSH2 0x2C7D JUMPI PUSH0 DUP1 REVERT JUMPDEST DUP2 CALLDATALOAD PUSH1 0x5 DUP2 LT PUSH2 0x2916 JUMPI PUSH0 DUP1 REVERT JUMPDEST PUSH0 PUSH1 0x1 DUP3 ADD PUSH2 0x2C9C JUMPI PUSH2 0x2C9C PUSH2 0x2AEF JUMP JUMPDEST POP PUSH1 0x1 ADD SWAP1 JUMP JUMPDEST PUSH4 0xFFFFFFFF DUP3 DUP2 AND DUP3 DUP3 AND SUB SWAP1 DUP1 DUP3 GT ISZERO PUSH2 0x2CC0 JUMPI PUSH2 0x2CC0 PUSH2 0x2AEF JUMP JUMPDEST POP SWAP3 SWAP2 POP POP JUMP JUMPDEST PUSH1 0x40 DUP2 ADD PUSH2 0x2CD5 DUP3 DUP6 PUSH2 0x2A1C JUMP JUMPDEST PUSH1 0x1 PUSH1 0x1 PUSH1 0x40 SHL SUB DUP4 AND PUSH1 0x20 DUP4 ADD MSTORE SWAP4 SWAP3 POP POP POP JUMP JUMPDEST PUSH0 PUSH4 0xFFFFFFFF DUP3 AND DUP1 PUSH2 0x2C25 JUMPI PUSH2 0x2C25 PUSH2 0x2AEF JUMP JUMPDEST PUSH1 0x20 DUP2 ADD PUSH2 0x2A16 DUP3 DUP5 PUSH2 0x2B72 JUMP INVALID LOG2 PUSH5 0x6970667358 0x22 SLT KECCAK256 LOG2 0xFB STATICCALL SGT BALANCE 0xFC 0xCF ADD DUP4 PUSH11 0x4895C4BD1D164FD9DEF55A SHL 0x2A DUP14 PUSH25 0x1B839FA203FF8864736F6C6343000818003300000000000000 "
		},
		"gasEstimates": {
			"creation": {
				"codeDepositCost": "2317600",
				"executionCost": "infinite",
				"totalCost": "infinite"
			},
			"external": {
				"advanceToNightResolve()": "54670",
				"advanceToNightReveal()": "56756",
				"aliveNonWolves()": "2374",
				"aliveWolves()": "2379",
				"assignRoles(uint8[])": "infinite",
				"cfg()": "6882",
				"committed(address)": "2559",
				"dayCount()": "2415",
				"dayTally(uint8)": "2565",
				"dayVote(address)": "2585",
				"deadline()": "2465",
				"hasAntidote(address)": "2561",
				"hasPoison(address)": "2539",
				"hasUsedNightAbility(address)": "2538",
				"host()": "2445",
				"hunterShoot(uint8)": "infinite",
				"hunterToShoot()": "2392",
				"join()": "infinite",
				"nightVictim()": "2444",
				"phase()": "2495",
				"poisonVictim()": "2435",
				"resolveDay()": "infinite",
				"resolveNight()": "infinite",
				"resolveWitch()": "infinite",
				"revealed(address)": "2583",
				"roleOf(address)": "infinite",
				"seatOf(address)": "2563",
				"seats(uint256)": "4883",
				"seatsCount()": "2424",
				"seerCheck(uint8)": "infinite",
				"start()": "61023",
				"submitWolfCommit(bytes32)": "infinite",
				"submitWolfReveal(uint8,bytes32)": "infinite",
				"sumStakeIn()": "2385",
				"vote(uint8)": "96778",
				"witchAct(uint8,uint8)": "infinite",
				"wolfCommit(address)": "2525",
				"wolfReveal(address)": "2629"
			},
			"internal": {
				"_advance(enum WerewolfGame.Phase,uint32)": "infinite",
				"_applyDeath(uint8)": "infinite",
				"_checkWin()": "infinite",
				"_resetNightState()": "infinite"
			}
		},
		"methodIdentifiers": {
			"advanceToNightResolve()": "bb7a640c",
			"advanceToNightReveal()": "0e405642",
			"aliveNonWolves()": "8c1d85d8",
			"aliveWolves()": "581fe69a",
			"assignRoles(uint8[])": "e373a7de",
			"cfg()": "0457dad2",
			"committed(address)": "d88d9b70",
			"dayCount()": "266e2a56",
			"dayTally(uint8)": "33898621",
			"dayVote(address)": "5fcbf372",
			"deadline()": "29dcb0cf",
			"hasAntidote(address)": "34654880",
			"hasPoison(address)": "6aadb9ee",
			"hasUsedNightAbility(address)": "537e1411",
			"host()": "f437bc59",
			"hunterShoot(uint8)": "7b69af0f",
			"hunterToShoot()": "055a079f",
			"join()": "b688a363",
			"nightVictim()": "f90886d8",
			"phase()": "b1c9fe6e",
			"poisonVictim()": "7d04fc44",
			"resolveDay()": "413d0956",
			"resolveNight()": "61dc4610",
			"resolveWitch()": "33771e6d",
			"revealed(address)": "27c0583f",
			"roleOf(address)": "a5d7827e",
			"seatOf(address)": "b9cd92c3",
			"seats(uint256)": "3b33c702",
			"seatsCount()": "bedecc06",
			"seerCheck(uint8)": "0e09287a",
			"start()": "be9a6555",
			"submitWolfCommit(bytes32)": "96dda213",
			"submitWolfReveal(uint8,bytes32)": "3b7e0a27",
			"sumStakeIn()": "086e6917",
			"vote(uint8)": "b3f98adc",
			"witchAct(uint8,uint8)": "7bea3016",
			"wolfCommit(address)": "c8dc00f1",
			"wolfReveal(address)": "6662c26e"
		}
	},
	"abi": [
		{
			"inputs": [
				{
					"internalType": "address",
					"name": "_host",
					"type": "address"
				},
				{
					"components": [
						{
							"internalType": "uint8",
							"name": "minPlayers",
							"type": "uint8"
						},
						{
							"internalType": "uint8",
							"name": "maxPlayers",
							"type": "uint8"
						},
						{
							"internalType": "uint8",
							"name": "wolves",
							"type": "uint8"
						},
						{
							"internalType": "uint256",
							"name": "stake",
							"type": "uint256"
						},
						{
							"internalType": "uint32",
							"name": "tSetup",
							"type": "uint32"
						},
						{
							"internalType": "uint32",
							"name": "tNightCommit",
							"type": "uint32"
						},
						{
							"internalType": "uint32",
							"name": "tNightReveal",
							"type": "uint32"
						},
						{
							"internalType": "uint32",
							"name": "tDayVote",
							"type": "uint32"
						}
					],
					"internalType": "struct WerewolfGame.GameConfig",
					"name": "_cfg",
					"type": "tuple"
				}
			],
			"stateMutability": "nonpayable",
			"type": "constructor"
		},
		{
			"anonymous": false,
			"inputs": [
				{
					"indexed": true,
					"internalType": "address",
					"name": "voter",
					"type": "address"
				},
				{
					"indexed": false,
					"internalType": "uint8",
					"name": "target",
					"type": "uint8"
				}
			],
			"name": "DayVoted",
			"type": "event"
		},
		{
			"anonymous": false,
			"inputs": [
				{
					"indexed": false,
					"internalType": "enum WerewolfGame.Faction",
					"name": "winner",
					"type": "uint8"
				}
			],
			"name": "GameEnded",
			"type": "event"
		},
		{
			"anonymous": false,
			"inputs": [
				{
					"indexed": true,
					"internalType": "address",
					"name": "player",
					"type": "address"
				}
			],
			"name": "NightCommitted",
			"type": "event"
		},
		{
			"anonymous": false,
			"inputs": [
				{
					"indexed": false,
					"internalType": "uint8",
					"name": "killedSeat",
					"type": "uint8"
				}
			],
			"name": "NightResolved",
			"type": "event"
		},
		{
			"anonymous": false,
			"inputs": [
				{
					"indexed": true,
					"internalType": "address",
					"name": "player",
					"type": "address"
				},
				{
					"indexed": false,
					"internalType": "uint8",
					"name": "target",
					"type": "uint8"
				}
			],
			"name": "NightRevealed",
			"type": "event"
		},
		{
			"anonymous": false,
			"inputs": [
				{
					"indexed": false,
					"internalType": "enum WerewolfGame.Phase",
					"name": "next",
					"type": "uint8"
				},
				{
					"indexed": false,
					"internalType": "uint64",
					"name": "deadline",
					"type": "uint64"
				}
			],
			"name": "PhaseAdvanced",
			"type": "event"
		},
		{
			"anonymous": false,
			"inputs": [
				{
					"indexed": false,
					"internalType": "uint8",
					"name": "seat",
					"type": "uint8"
				}
			],
			"name": "PlayerDied",
			"type": "event"
		},
		{
			"anonymous": false,
			"inputs": [
				{
					"indexed": true,
					"internalType": "address",
					"name": "player",
					"type": "address"
				},
				{
					"indexed": false,
					"internalType": "uint8",
					"name": "seat",
					"type": "uint8"
				}
			],
			"name": "PlayerJoined",
			"type": "event"
		},
		{
			"anonymous": false,
			"inputs": [
				{
					"indexed": false,
					"internalType": "uint64",
					"name": "day",
					"type": "uint64"
				}
			],
			"name": "RolesAssigned",
			"type": "event"
		},
		{
			"anonymous": false,
			"inputs": [
				{
					"indexed": true,
					"internalType": "address",
					"name": "seer",
					"type": "address"
				},
				{
					"indexed": false,
					"internalType": "uint8",
					"name": "targetSeat",
					"type": "uint8"
				},
				{
					"indexed": false,
					"internalType": "enum WerewolfGame.Faction",
					"name": "faction",
					"type": "uint8"
				}
			],
			"name": "SeerChecked",
			"type": "event"
		},
		{
			"anonymous": false,
			"inputs": [
				{
					"indexed": true,
					"internalType": "address",
					"name": "witch",
					"type": "address"
				},
				{
					"indexed": false,
					"internalType": "uint8",
					"name": "actionType",
					"type": "uint8"
				},
				{
					"indexed": false,
					"internalType": "uint8",
					"name": "targetSeat",
					"type": "uint8"
				}
			],
			"name": "WitchActed",
			"type": "event"
		},
		{
			"inputs": [],
			"name": "advanceToNightResolve",
			"outputs": [],
			"stateMutability": "nonpayable",
			"type": "function"
		},
		{
			"inputs": [],
			"name": "advanceToNightReveal",
			"outputs": [],
			"stateMutability": "nonpayable",
			"type": "function"
		},
		{
			"inputs": [],
			"name": "aliveNonWolves",
			"outputs": [
				{
					"internalType": "uint32",
					"name": "",
					"type": "uint32"
				}
			],
			"stateMutability": "view",
			"type": "function"
		},
		{
			"inputs": [],
			"name": "aliveWolves",
			"outputs": [
				{
					"internalType": "uint32",
					"name": "",
					"type": "uint32"
				}
			],
			"stateMutability": "view",
			"type": "function"
		},
		{
			"inputs": [
				{
					"internalType": "enum WerewolfGame.Role[]",
					"name": "roles",
					"type": "uint8[]"
				}
			],
			"name": "assignRoles",
			"outputs": [],
			"stateMutability": "nonpayable",
			"type": "function"
		},
		{
			"inputs": [],
			"name": "cfg",
			"outputs": [
				{
					"internalType": "uint8",
					"name": "minPlayers",
					"type": "uint8"
				},
				{
					"internalType": "uint8",
					"name": "maxPlayers",
					"type": "uint8"
				},
				{
					"internalType": "uint8",
					"name": "wolves",
					"type": "uint8"
				},
				{
					"internalType": "uint256",
					"name": "stake",
					"type": "uint256"
				},
				{
					"internalType": "uint32",
					"name": "tSetup",
					"type": "uint32"
				},
				{
					"internalType": "uint32",
					"name": "tNightCommit",
					"type": "uint32"
				},
				{
					"internalType": "uint32",
					"name": "tNightReveal",
					"type": "uint32"
				},
				{
					"internalType": "uint32",
					"name": "tDayVote",
					"type": "uint32"
				}
			],
			"stateMutability": "view",
			"type": "function"
		},
		{
			"inputs": [
				{
					"internalType": "address",
					"name": "",
					"type": "address"
				}
			],
			"name": "committed",
			"outputs": [
				{
					"internalType": "bool",
					"name": "",
					"type": "bool"
				}
			],
			"stateMutability": "view",
			"type": "function"
		},
		{
			"inputs": [],
			"name": "dayCount",
			"outputs": [
				{
					"internalType": "uint64",
					"name": "",
					"type": "uint64"
				}
			],
			"stateMutability": "view",
			"type": "function"
		},
		{
			"inputs": [
				{
					"internalType": "uint8",
					"name": "",
					"type": "uint8"
				}
			],
			"name": "dayTally",
			"outputs": [
				{
					"internalType": "uint8",
					"name": "",
					"type": "uint8"
				}
			],
			"stateMutability": "view",
			"type": "function"
		},
		{
			"inputs": [
				{
					"internalType": "address",
					"name": "",
					"type": "address"
				}
			],
			"name": "dayVote",
			"outputs": [
				{
					"internalType": "uint8",
					"name": "",
					"type": "uint8"
				}
			],
			"stateMutability": "view",
			"type": "function"
		},
		{
			"inputs": [],
			"name": "deadline",
			"outputs": [
				{
					"internalType": "uint64",
					"name": "",
					"type": "uint64"
				}
			],
			"stateMutability": "view",
			"type": "function"
		},
		{
			"inputs": [
				{
					"internalType": "address",
					"name": "",
					"type": "address"
				}
			],
			"name": "hasAntidote",
			"outputs": [
				{
					"internalType": "bool",
					"name": "",
					"type": "bool"
				}
			],
			"stateMutability": "view",
			"type": "function"
		},
		{
			"inputs": [
				{
					"internalType": "address",
					"name": "",
					"type": "address"
				}
			],
			"name": "hasPoison",
			"outputs": [
				{
					"internalType": "bool",
					"name": "",
					"type": "bool"
				}
			],
			"stateMutability": "view",
			"type": "function"
		},
		{
			"inputs": [
				{
					"internalType": "address",
					"name": "",
					"type": "address"
				}
			],
			"name": "hasUsedNightAbility",
			"outputs": [
				{
					"internalType": "bool",
					"name": "",
					"type": "bool"
				}
			],
			"stateMutability": "view",
			"type": "function"
		},
		{
			"inputs": [],
			"name": "host",
			"outputs": [
				{
					"internalType": "address",
					"name": "",
					"type": "address"
				}
			],
			"stateMutability": "view",
			"type": "function"
		},
		{
			"inputs": [
				{
					"internalType": "uint8",
					"name": "targetSeat",
					"type": "uint8"
				}
			],
			"name": "hunterShoot",
			"outputs": [],
			"stateMutability": "nonpayable",
			"type": "function"
		},
		{
			"inputs": [],
			"name": "hunterToShoot",
			"outputs": [
				{
					"internalType": "uint8",
					"name": "",
					"type": "uint8"
				}
			],
			"stateMutability": "view",
			"type": "function"
		},
		{
			"inputs": [],
			"name": "join",
			"outputs": [],
			"stateMutability": "payable",
			"type": "function"
		},
		{
			"inputs": [],
			"name": "nightVictim",
			"outputs": [
				{
					"internalType": "uint8",
					"name": "",
					"type": "uint8"
				}
			],
			"stateMutability": "view",
			"type": "function"
		},
		{
			"inputs": [],
			"name": "phase",
			"outputs": [
				{
					"internalType": "enum WerewolfGame.Phase",
					"name": "",
					"type": "uint8"
				}
			],
			"stateMutability": "view",
			"type": "function"
		},
		{
			"inputs": [],
			"name": "poisonVictim",
			"outputs": [
				{
					"internalType": "uint8",
					"name": "",
					"type": "uint8"
				}
			],
			"stateMutability": "view",
			"type": "function"
		},
		{
			"inputs": [],
			"name": "resolveDay",
			"outputs": [],
			"stateMutability": "nonpayable",
			"type": "function"
		},
		{
			"inputs": [],
			"name": "resolveNight",
			"outputs": [],
			"stateMutability": "nonpayable",
			"type": "function"
		},
		{
			"inputs": [],
			"name": "resolveWitch",
			"outputs": [],
			"stateMutability": "nonpayable",
			"type": "function"
		},
		{
			"inputs": [
				{
					"internalType": "address",
					"name": "",
					"type": "address"
				}
			],
			"name": "revealed",
			"outputs": [
				{
					"internalType": "bool",
					"name": "",
					"type": "bool"
				}
			],
			"stateMutability": "view",
			"type": "function"
		},
		{
			"inputs": [
				{
					"internalType": "address",
					"name": "p",
					"type": "address"
				}
			],
			"name": "roleOf",
			"outputs": [
				{
					"internalType": "enum WerewolfGame.Role",
					"name": "",
					"type": "uint8"
				}
			],
			"stateMutability": "view",
			"type": "function"
		},
		{
			"inputs": [
				{
					"internalType": "address",
					"name": "",
					"type": "address"
				}
			],
			"name": "seatOf",
			"outputs": [
				{
					"internalType": "uint8",
					"name": "",
					"type": "uint8"
				}
			],
			"stateMutability": "view",
			"type": "function"
		},
		{
			"inputs": [
				{
					"internalType": "uint256",
					"name": "",
					"type": "uint256"
				}
			],
			"name": "seats",
			"outputs": [
				{
					"internalType": "address",
					"name": "player",
					"type": "address"
				},
				{
					"internalType": "bool",
					"name": "alive",
					"type": "bool"
				},
				{
					"internalType": "enum WerewolfGame.Role",
					"name": "role",
					"type": "uint8"
				}
			],
			"stateMutability": "view",
			"type": "function"
		},
		{
			"inputs": [],
			"name": "seatsCount",
			"outputs": [
				{
					"internalType": "uint256",
					"name": "",
					"type": "uint256"
				}
			],
			"stateMutability": "view",
			"type": "function"
		},
		{
			"inputs": [
				{
					"internalType": "uint8",
					"name": "targetSeat",
					"type": "uint8"
				}
			],
			"name": "seerCheck",
			"outputs": [],
			"stateMutability": "nonpayable",
			"type": "function"
		},
		{
			"inputs": [],
			"name": "start",
			"outputs": [],
			"stateMutability": "nonpayable",
			"type": "function"
		},
		{
			"inputs": [
				{
					"internalType": "bytes32",
					"name": "commitHash",
					"type": "bytes32"
				}
			],
			"name": "submitWolfCommit",
			"outputs": [],
			"stateMutability": "nonpayable",
			"type": "function"
		},
		{
			"inputs": [
				{
					"internalType": "uint8",
					"name": "targetSeat",
					"type": "uint8"
				},
				{
					"internalType": "bytes32",
					"name": "salt",
					"type": "bytes32"
				}
			],
			"name": "submitWolfReveal",
			"outputs": [],
			"stateMutability": "nonpayable",
			"type": "function"
		},
		{
			"inputs": [],
			"name": "sumStakeIn",
			"outputs": [
				{
					"internalType": "uint256",
					"name": "",
					"type": "uint256"
				}
			],
			"stateMutability": "view",
			"type": "function"
		},
		{
			"inputs": [
				{
					"internalType": "uint8",
					"name": "targetSeat",
					"type": "uint8"
				}
			],
			"name": "vote",
			"outputs": [],
			"stateMutability": "nonpayable",
			"type": "function"
		},
		{
			"inputs": [
				{
					"internalType": "uint8",
					"name": "actionType",
					"type": "uint8"
				},
				{
					"internalType": "uint8",
					"name": "targetSeat",
					"type": "uint8"
				}
			],
			"name": "witchAct",
			"outputs": [],
			"stateMutability": "nonpayable",
			"type": "function"
		},
		{
			"inputs": [
				{
					"internalType": "address",
					"name": "",
					"type": "address"
				}
			],
			"name": "wolfCommit",
			"outputs": [
				{
					"internalType": "bytes32",
					"name": "",
					"type": "bytes32"
				}
			],
			"stateMutability": "view",
			"type": "function"
		},
		{
			"inputs": [
				{
					"internalType": "address",
					"name": "",
					"type": "address"
				}
			],
			"name": "wolfReveal",
			"outputs": [
				{
					"internalType": "uint8",
					"name": "",
					"type": "uint8"
				}
			],
			"stateMutability": "view",
			"type": "function"
		}
	]
}